{
  "address": "0xa74C9eE06b159Aa8C58B3F654fc65Ca4d372ae69",
  "abi": [
    {
      "inputs": [
        {
          "internalType": "contract ENS",
          "name": "_old",
          "type": "address"
        }
      ],
      "stateMutability": "nonpayable",
      "type": "constructor"
    },
    {
      "anonymous": false,
      "inputs": [
        {
          "indexed": true,
          "internalType": "address",
          "name": "owner",
          "type": "address"
        },
        {
          "indexed": true,
          "internalType": "address",
          "name": "operator",
          "type": "address"
        },
        {
          "indexed": false,
          "internalType": "bool",
          "name": "approved",
          "type": "bool"
        }
      ],
      "name": "ApprovalForAll",
      "type": "event"
    },
    {
      "anonymous": false,
      "inputs": [
        {
          "indexed": true,
          "internalType": "bytes32",
          "name": "node",
          "type": "bytes32"
        },
        {
          "indexed": true,
          "internalType": "bytes32",
          "name": "label",
          "type": "bytes32"
        },
        {
          "indexed": false,
          "internalType": "address",
          "name": "owner",
          "type": "address"
        }
      ],
      "name": "NewOwner",
      "type": "event"
    },
    {
      "anonymous": false,
      "inputs": [
        {
          "indexed": true,
          "internalType": "bytes32",
          "name": "node",
          "type": "bytes32"
        },
        {
          "indexed": false,
          "internalType": "address",
          "name": "resolver",
          "type": "address"
        }
      ],
      "name": "NewResolver",
      "type": "event"
    },
    {
      "anonymous": false,
      "inputs": [
        {
          "indexed": true,
          "internalType": "bytes32",
          "name": "node",
          "type": "bytes32"
        },
        {
          "indexed": false,
          "internalType": "uint64",
          "name": "ttl",
          "type": "uint64"
        }
      ],
      "name": "NewTTL",
      "type": "event"
    },
    {
      "anonymous": false,
      "inputs": [
        {
          "indexed": true,
          "internalType": "bytes32",
          "name": "node",
          "type": "bytes32"
        },
        {
          "indexed": false,
          "internalType": "address",
          "name": "owner",
          "type": "address"
        }
      ],
      "name": "Transfer",
      "type": "event"
    },
    {
      "inputs": [
        {
          "internalType": "address",
          "name": "owner",
          "type": "address"
        },
        {
          "internalType": "address",
          "name": "operator",
          "type": "address"
        }
      ],
      "name": "isApprovedForAll",
      "outputs": [
        {
          "internalType": "bool",
          "name": "",
          "type": "bool"
        }
      ],
      "stateMutability": "view",
      "type": "function"
    },
    {
      "inputs": [],
      "name": "old",
      "outputs": [
        {
          "internalType": "contract ENS",
          "name": "",
          "type": "address"
        }
      ],
      "stateMutability": "view",
      "type": "function"
    },
    {
      "inputs": [
        {
          "internalType": "bytes32",
          "name": "node",
          "type": "bytes32"
        }
      ],
      "name": "owner",
      "outputs": [
        {
          "internalType": "address",
          "name": "",
          "type": "address"
        }
      ],
      "stateMutability": "view",
      "type": "function"
    },
    {
      "inputs": [
        {
          "internalType": "bytes32",
          "name": "node",
          "type": "bytes32"
        }
      ],
      "name": "recordExists",
      "outputs": [
        {
          "internalType": "bool",
          "name": "",
          "type": "bool"
        }
      ],
      "stateMutability": "view",
      "type": "function"
    },
    {
      "inputs": [
        {
          "internalType": "bytes32",
          "name": "node",
          "type": "bytes32"
        }
      ],
      "name": "resolver",
      "outputs": [
        {
          "internalType": "address",
          "name": "",
          "type": "address"
        }
      ],
      "stateMutability": "view",
      "type": "function"
    },
    {
      "inputs": [
        {
          "internalType": "address",
          "name": "operator",
          "type": "address"
        },
        {
          "internalType": "bool",
          "name": "approved",
          "type": "bool"
        }
      ],
      "name": "setApprovalForAll",
      "outputs": [],
      "stateMutability": "nonpayable",
      "type": "function"
    },
    {
      "inputs": [
        {
          "internalType": "bytes32",
          "name": "node",
          "type": "bytes32"
        },
        {
          "internalType": "address",
          "name": "owner",
          "type": "address"
        }
      ],
      "name": "setOwner",
      "outputs": [],
      "stateMutability": "nonpayable",
      "type": "function"
    },
    {
      "inputs": [
        {
          "internalType": "bytes32",
          "name": "node",
          "type": "bytes32"
        },
        {
          "internalType": "address",
          "name": "owner",
          "type": "address"
        },
        {
          "internalType": "address",
          "name": "resolver",
          "type": "address"
        },
        {
          "internalType": "uint64",
          "name": "ttl",
          "type": "uint64"
        }
      ],
      "name": "setRecord",
      "outputs": [],
      "stateMutability": "nonpayable",
      "type": "function"
    },
    {
      "inputs": [
        {
          "internalType": "bytes32",
          "name": "node",
          "type": "bytes32"
        },
        {
          "internalType": "address",
          "name": "resolver",
          "type": "address"
        }
      ],
      "name": "setResolver",
      "outputs": [],
      "stateMutability": "nonpayable",
      "type": "function"
    },
    {
      "inputs": [
        {
          "internalType": "bytes32",
          "name": "node",
          "type": "bytes32"
        },
        {
          "internalType": "bytes32",
          "name": "label",
          "type": "bytes32"
        },
        {
          "internalType": "address",
          "name": "owner",
          "type": "address"
        }
      ],
      "name": "setSubnodeOwner",
      "outputs": [
        {
          "internalType": "bytes32",
          "name": "",
          "type": "bytes32"
        }
      ],
      "stateMutability": "nonpayable",
      "type": "function"
    },
    {
      "inputs": [
        {
          "internalType": "bytes32",
          "name": "node",
          "type": "bytes32"
        },
        {
          "internalType": "bytes32",
          "name": "label",
          "type": "bytes32"
        },
        {
          "internalType": "address",
          "name": "owner",
          "type": "address"
        },
        {
          "internalType": "address",
          "name": "resolver",
          "type": "address"
        },
        {
          "internalType": "uint64",
          "name": "ttl",
          "type": "uint64"
        }
      ],
      "name": "setSubnodeRecord",
      "outputs": [],
      "stateMutability": "nonpayable",
      "type": "function"
    },
    {
      "inputs": [
        {
          "internalType": "bytes32",
          "name": "node",
          "type": "bytes32"
        },
        {
          "internalType": "uint64",
          "name": "ttl",
          "type": "uint64"
        }
      ],
      "name": "setTTL",
      "outputs": [],
      "stateMutability": "nonpayable",
      "type": "function"
    },
    {
      "inputs": [
        {
          "internalType": "bytes32",
          "name": "node",
          "type": "bytes32"
        }
      ],
      "name": "ttl",
      "outputs": [
        {
          "internalType": "uint64",
          "name": "",
          "type": "uint64"
        }
      ],
      "stateMutability": "view",
      "type": "function"
    }
  ],
  "transactionHash": "0x1b49f6ac3ad93b3727cb2b8261ca323f45d8b8f4455fb6af07df2714fa747ac2",
  "args": [
    "0x05936f2bC57428c6187ed28fF53563B682Dfc563"
  ],
  "numDeployments": 1,
  "bytecode": "0x608060405234801561001057600080fd5b50604051610e03380380610e0383398101604081905261002f91610089565b60008080526020527fad3228b676f7d3cd4284a5443f17f1962b36e491b30a40b2405849e597ba5fb58054336001600160a01b031991821617909155600280549091166001600160a01b03929092169190911790556100b9565b60006020828403121561009b57600080fd5b81516001600160a01b03811681146100b257600080fd5b9392505050565b610d3b806100c86000396000f3fe608060405234801561001057600080fd5b50600436106100df5760003560e01c80635b0fc9c31161008c578063b83f866311610066578063b83f8663146101d5578063cf408823146101e8578063e985e9c5146101fb578063f79fe5381461024757600080fd5b80635b0fc9c31461019c5780635ef2c7f0146101af578063a22cb465146101c257600080fd5b806314ab9038116100bd57806314ab90381461014857806316a25cbd1461015d5780631896f70a1461018957600080fd5b80630178b8bf146100e457806302571be31461011457806306ab592314610127575b600080fd5b6100f76100f2366004610adc565b610272565b6040516001600160a01b0390911681526020015b60405180910390f35b6100f7610122366004610adc565b61033b565b61013a610135366004610b0d565b6103aa565b60405190815260200161010b565b61015b610156366004610b5c565b6104b3565b005b61017061016b366004610adc565b6105ce565b60405167ffffffffffffffff909116815260200161010b565b61015b610197366004610b8c565b610698565b61015b6101aa366004610b8c565b61079e565b61015b6101bd366004610bb1565b610874565b61015b6101d0366004610c10565b610896565b6002546100f7906001600160a01b031681565b61015b6101f6366004610c43565b610902565b610237610209366004610c96565b6001600160a01b03918216600090815260016020908152604080832093909416825291909152205460ff1690565b604051901515815260200161010b565b610237610255366004610adc565b6000908152602081905260409020546001600160a01b0316151590565b6000818152602081905260408120546001600160a01b031661031b576002546040517f0178b8bf000000000000000000000000000000000000000000000000000000008152600481018490526001600160a01b0390911690630178b8bf906024015b602060405180830381865afa1580156102f1573d6000803e3d6000fd5b505050506040513d601f19601f820116820180604052508101906103159190610cc4565b92915050565b6000828152602081905260409020600101546001600160a01b0316610315565b6000818152602081905260408120546001600160a01b03166103a1576002546040517f02571be3000000000000000000000000000000000000000000000000000000008152600481018490526001600160a01b03909116906302571be3906024016102d4565b6103158261091d565b60008381526020819052604081205484906001600160a01b0316338114806103f557506001600160a01b038116600090815260016020908152604080832033845290915290205460ff165b6104375760405162461bcd60e51b815260206004820152600e60248201526d139bdd08185d5d1a1bdc9a5cd95960921b60448201526064015b60405180910390fd5b604080516020808201899052818301889052825180830384018152606090920190925280519101206104698186610945565b6040516001600160a01b0386168152869088907fce0457fe73731f824cc272376169235128c118b49d344817417c6d108d155e829060200160405180910390a39695505050505050565b60008281526020819052604090205482906001600160a01b0316338114806104fe57506001600160a01b038116600090815260016020908152604080832033845290915290205460ff165b61053b5760405162461bcd60e51b815260206004820152600e60248201526d139bdd08185d5d1a1bdc9a5cd95960921b604482015260640161042e565b60405167ffffffffffffffff8416815284907f1d4f9bbfc9cab89d66e1a1562f2233ccbf1308cb4f63de2ead5787adddb8fa689060200160405180910390a25050600091825260208290526040909120600101805467ffffffffffffffff909216600160a01b027fffffffff0000000000000000ffffffffffffffffffffffffffffffffffffffff909216919091179055565b6000818152602081905260408120546001600160a01b0316610670576002546040517f16a25cbd000000000000000000000000000000000000000000000000000000008152600481018490526001600160a01b03909116906316a25cbd90602401602060405180830381865afa15801561064c573d6000803e3d6000fd5b505050506040513d601f19601f820116820180604052508101906103159190610ce8565b600082815260208190526040902060010154600160a01b900467ffffffffffffffff16610315565b60008281526020819052604090205482906001600160a01b0316338114806106e357506001600160a01b038116600090815260016020908152604080832033845290915290205460ff165b6107205760405162461bcd60e51b815260206004820152600e60248201526d139bdd08185d5d1a1bdc9a5cd95960921b604482015260640161042e565b6040516001600160a01b038416815284907f335721b01866dc23fbee8b6b2c7b1e14d6f05c28cd35a2c934239f94095602a09060200160405180910390a25050600091825260208290526040909120600101805473ffffffffffffffffffffffffffffffffffffffff19166001600160a01b03909216919091179055565b60008281526020819052604090205482906001600160a01b0316338114806107e957506001600160a01b038116600090815260016020908152604080832033845290915290205460ff165b6108265760405162461bcd60e51b815260206004820152600e60248201526d139bdd08185d5d1a1bdc9a5cd95960921b604482015260640161042e565b6108308484610945565b6040516001600160a01b038416815284907fd4735d920b0f87494915f556dd9b54c8f309026070caea5c737245152564d2669060200160405180910390a250505050565b60006108818686866103aa565b905061088e818484610995565b505050505050565b3360008181526001602090815260408083206001600160a01b03871680855290835292819020805460ff191686151590811790915590519081529192917f17307eab39ab6107e8899845ad3d59bd9653f200f220920489ca2b5937696c31910160405180910390a35050565b61090c848461079e565b610917848383610995565b50505050565b6000818152602081905260408120546001600160a01b03163081036103155750600092915050565b806001600160a01b0381166109575750305b6000838152602081905260409020805473ffffffffffffffffffffffffffffffffffffffff19166001600160a01b038316179055505050565b505050565b6000838152602081905260409020600101546001600160a01b03838116911614610a285760008381526020818152604091829020600101805473ffffffffffffffffffffffffffffffffffffffff19166001600160a01b038616908117909155915191825284917f335721b01866dc23fbee8b6b2c7b1e14d6f05c28cd35a2c934239f94095602a0910160405180910390a25b60008381526020819052604090206001015467ffffffffffffffff828116600160a01b9092041614610990576000838152602081815260409182902060010180547fffffffff0000000000000000ffffffffffffffffffffffffffffffffffffffff16600160a01b67ffffffffffffffff861690810291909117909155915191825284917f1d4f9bbfc9cab89d66e1a1562f2233ccbf1308cb4f63de2ead5787adddb8fa68910160405180910390a2505050565b600060208284031215610aee57600080fd5b5035919050565b6001600160a01b0381168114610b0a57600080fd5b50565b600080600060608486031215610b2257600080fd5b83359250602084013591506040840135610b3b81610af5565b809150509250925092565b67ffffffffffffffff81168114610b0a57600080fd5b60008060408385031215610b6f57600080fd5b823591506020830135610b8181610b46565b809150509250929050565b60008060408385031215610b9f57600080fd5b823591506020830135610b8181610af5565b600080600080600060a08688031215610bc957600080fd5b85359450602086013593506040860135610be281610af5565b92506060860135610bf281610af5565b91506080860135610c0281610b46565b809150509295509295909350565b60008060408385031215610c2357600080fd5b8235610c2e81610af5565b915060208301358015158114610b8157600080fd5b60008060008060808587031215610c5957600080fd5b843593506020850135610c6b81610af5565b92506040850135610c7b81610af5565b91506060850135610c8b81610b46565b939692955090935050565b60008060408385031215610ca957600080fd5b8235610cb481610af5565b91506020830135610b8181610af5565b600060208284031215610cd657600080fd5b8151610ce181610af5565b9392505050565b600060208284031215610cfa57600080fd5b8151610ce181610b4656fea2646970667358221220189ccbda20c508a9c500333b765c04ebc100eaaec377b7b83afd932d96754b9564736f6c63430008110033"
}