{"contracts/resolvers/PublicResolver.sol":{"PublicResolver":{"abi":[{"inputs":[],"stateMutability":"nonpayable","type":"constructor"},{"anonymous":false,"inputs":[{"indexed":true,"internalType":"bytes32","name":"node","type":"bytes32"},{"indexed":true,"internalType":"uint256","name":"contentType","type":"uint256"}],"name":"ABIChanged","type":"event"},{"anonymous":false,"inputs":[{"indexed":true,"internalType":"bytes32","name":"node","type":"bytes32"},{"indexed":false,"internalType":"address","name":"a","type":"address"}],"name":"AddrChanged","type":"event"},{"anonymous":false,"inputs":[{"indexed":true,"internalType":"bytes32","name":"node","type":"bytes32"},{"indexed":false,"internalType":"uint256","name":"coinType","type":"uint256"},{"indexed":false,"internalType":"bytes","name":"newAddress","type":"bytes"}],"name":"AddressChanged","type":"event"},{"anonymous":false,"inputs":[{"indexed":false,"internalType":"address","name":"previousAdmin","type":"address"},{"indexed":false,"internalType":"address","name":"newAdmin","type":"address"}],"name":"AdminChanged","type":"event"},{"anonymous":false,"inputs":[{"indexed":true,"internalType":"address","name":"owner","type":"address"},{"indexed":true,"internalType":"address","name":"operator","type":"address"},{"indexed":false,"internalType":"bool","name":"approved","type":"bool"}],"name":"ApprovalForAll","type":"event"},{"anonymous":false,"inputs":[{"indexed":false,"internalType":"address","name":"owner","type":"address"},{"indexed":true,"internalType":"bytes32","name":"node","type":"bytes32"},{"indexed":true,"internalType":"address","name":"delegate","type":"address"},{"indexed":true,"internalType":"bool","name":"approved","type":"bool"}],"name":"Approved","type":"event"},{"anonymous":false,"inputs":[{"indexed":true,"internalType":"address","name":"beacon","type":"address"}],"name":"BeaconUpgraded","type":"event"},{"anonymous":false,"inputs":[{"indexed":true,"internalType":"bytes32","name":"node","type":"bytes32"},{"indexed":false,"internalType":"bytes","name":"hash","type":"bytes"}],"name":"ContenthashChanged","type":"event"},{"anonymous":false,"inputs":[{"indexed":true,"internalType":"bytes32","name":"node","type":"bytes32"},{"indexed":false,"internalType":"bytes","name":"name","type":"bytes"},{"indexed":false,"internalType":"uint16","name":"resource","type":"uint16"},{"indexed":false,"internalType":"bytes","name":"record","type":"bytes"}],"name":"DNSRecordChanged","type":"event"},{"anonymous":false,"inputs":[{"indexed":true,"internalType":"bytes32","name":"node","type":"bytes32"},{"indexed":false,"internalType":"bytes","name":"name","type":"bytes"},{"indexed":false,"internalType":"uint16","name":"resource","type":"uint16"}],"name":"DNSRecordDeleted","type":"event"},{"anonymous":false,"inputs":[{"indexed":true,"internalType":"bytes32","name":"node","type":"bytes32"},{"indexed":false,"internalType":"bytes","name":"lastzonehash","type":"bytes"},{"indexed":false,"internalType":"bytes","name":"zonehash","type":"bytes"}],"name":"DNSZonehashChanged","type":"event"},{"anonymous":false,"inputs":[{"indexed":false,"internalType":"uint8","name":"version","type":"uint8"}],"name":"Initialized","type":"event"},{"anonymous":false,"inputs":[{"indexed":true,"internalType":"bytes32","name":"node","type":"bytes32"},{"indexed":true,"internalType":"bytes4","name":"interfaceID","type":"bytes4"},{"indexed":false,"internalType":"address","name":"implementer","type":"address"}],"name":"InterfaceChanged","type":"event"},{"anonymous":false,"inputs":[{"indexed":true,"internalType":"bytes32","name":"node","type":"bytes32"},{"indexed":false,"internalType":"string","name":"name","type":"string"}],"name":"NameChanged","type":"event"},{"anonymous":false,"inputs":[{"indexed":true,"internalType":"address","name":"previousOwner","type":"address"},{"indexed":true,"internalType":"address","name":"newOwner","type":"address"}],"name":"OwnershipTransferred","type":"event"},{"anonymous":false,"inputs":[{"indexed":true,"internalType":"bytes32","name":"node","type":"bytes32"},{"indexed":false,"internalType":"bytes32","name":"x","type":"bytes32"},{"indexed":false,"internalType":"bytes32","name":"y","type":"bytes32"}],"name":"PubkeyChanged","type":"event"},{"anonymous":false,"inputs":[{"indexed":true,"internalType":"bytes32","name":"node","type":"bytes32"},{"indexed":true,"internalType":"string","name":"indexedKey","type":"string"},{"indexed":false,"internalType":"string","name":"key","type":"string"},{"indexed":false,"internalType":"string","name":"value","type":"string"}],"name":"TextChanged","type":"event"},{"anonymous":false,"inputs":[{"indexed":true,"internalType":"address","name":"implementation","type":"address"}],"name":"Upgraded","type":"event"},{"anonymous":false,"inputs":[{"indexed":true,"internalType":"bytes32","name":"node","type":"bytes32"},{"indexed":false,"internalType":"uint64","name":"newVersion","type":"uint64"}],"name":"VersionChanged","type":"event"},{"inputs":[{"internalType":"bytes32","name":"node","type":"bytes32"},{"internalType":"uint256","name":"contentTypes","type":"uint256"}],"name":"ABI","outputs":[{"internalType":"uint256","name":"","type":"uint256"},{"internalType":"bytes","name":"","type":"bytes"}],"stateMutability":"view","type":"function"},{"inputs":[{"internalType":"bytes32","name":"node","type":"bytes32"}],"name":"addr","outputs":[{"internalType":"address payable","name":"","type":"address"}],"stateMutability":"view","type":"function"},{"inputs":[{"internalType":"bytes32","name":"node","type":"bytes32"},{"internalType":"uint256","name":"coinType","type":"uint256"}],"name":"addr","outputs":[{"internalType":"bytes","name":"","type":"bytes"}],"stateMutability":"view","type":"function"},{"inputs":[{"internalType":"bytes32","name":"node","type":"bytes32"},{"internalType":"address","name":"delegate","type":"address"},{"internalType":"bool","name":"approved","type":"bool"}],"name":"approve","outputs":[],"stateMutability":"nonpayable","type":"function"},{"inputs":[{"internalType":"bytes32","name":"node","type":"bytes32"}],"name":"clearRecords","outputs":[],"stateMutability":"nonpayable","type":"function"},{"inputs":[{"internalType":"bytes32","name":"node","type":"bytes32"}],"name":"contenthash","outputs":[{"internalType":"bytes","name":"","type":"bytes"}],"stateMutability":"view","type":"function"},{"inputs":[{"internalType":"bytes32","name":"node","type":"bytes32"},{"internalType":"bytes32","name":"name","type":"bytes32"},{"internalType":"uint16","name":"resource","type":"uint16"}],"name":"dnsRecord","outputs":[{"internalType":"bytes","name":"","type":"bytes"}],"stateMutability":"view","type":"function"},{"inputs":[],"name":"ens","outputs":[{"internalType":"contract ENS","name":"","type":"address"}],"stateMutability":"view","type":"function"},{"inputs":[{"internalType":"bytes32","name":"node","type":"bytes32"},{"internalType":"bytes32","name":"name","type":"bytes32"}],"name":"hasDNSRecords","outputs":[{"internalType":"bool","name":"","type":"bool"}],"stateMutability":"view","type":"function"},{"inputs":[{"internalType":"contract ENS","name":"_ens","type":"address"},{"internalType":"contract INameWrapper","name":"wrapperAddress","type":"address"},{"internalType":"address","name":"_trustedETHController","type":"address"},{"internalType":"address","name":"_trustedReverseRegistrar","type":"address"}],"name":"initialize","outputs":[],"stateMutability":"nonpayable","type":"function"},{"inputs":[{"internalType":"bytes32","name":"node","type":"bytes32"},{"internalType":"bytes4","name":"interfaceID","type":"bytes4"}],"name":"interfaceImplementer","outputs":[{"internalType":"address","name":"","type":"address"}],"stateMutability":"view","type":"function"},{"inputs":[{"internalType":"address","name":"owner","type":"address"},{"internalType":"bytes32","name":"node","type":"bytes32"},{"internalType":"address","name":"delegate","type":"address"}],"name":"isApprovedFor","outputs":[{"internalType":"bool","name":"","type":"bool"}],"stateMutability":"view","type":"function"},{"inputs":[{"internalType":"address","name":"account","type":"address"},{"internalType":"address","name":"operator","type":"address"}],"name":"isApprovedForAll","outputs":[{"internalType":"bool","name":"","type":"bool"}],"stateMutability":"view","type":"function"},{"inputs":[{"internalType":"bytes[]","name":"data","type":"bytes[]"}],"name":"multicall","outputs":[{"internalType":"bytes[]","name":"results","type":"bytes[]"}],"stateMutability":"nonpayable","type":"function"},{"inputs":[{"internalType":"bytes32","name":"nodehash","type":"bytes32"},{"internalType":"bytes[]","name":"data","type":"bytes[]"}],"name":"multicallWithNodeCheck","outputs":[{"internalType":"bytes[]","name":"results","type":"bytes[]"}],"stateMutability":"nonpayable","type":"function"},{"inputs":[{"internalType":"bytes32","name":"node","type":"bytes32"}],"name":"name","outputs":[{"internalType":"string","name":"","type":"string"}],"stateMutability":"view","type":"function"},{"inputs":[],"name":"nameWrapper","outputs":[{"internalType":"contract INameWrapper","name":"","type":"address"}],"stateMutability":"view","type":"function"},{"inputs":[],"name":"owner","outputs":[{"internalType":"address","name":"","type":"address"}],"stateMutability":"view","type":"function"},{"inputs":[],"name":"proxiableUUID","outputs":[{"internalType":"bytes32","name":"","type":"bytes32"}],"stateMutability":"view","type":"function"},{"inputs":[{"internalType":"bytes32","name":"node","type":"bytes32"}],"name":"pubkey","outputs":[{"internalType":"bytes32","name":"x","type":"bytes32"},{"internalType":"bytes32","name":"y","type":"bytes32"}],"stateMutability":"view","type":"function"},{"inputs":[{"internalType":"bytes32","name":"","type":"bytes32"}],"name":"recordVersions","outputs":[{"internalType":"uint64","name":"","type":"uint64"}],"stateMutability":"view","type":"function"},{"inputs":[],"name":"renounceOwnership","outputs":[],"stateMutability":"nonpayable","type":"function"},{"inputs":[{"internalType":"bytes32","name":"node","type":"bytes32"},{"internalType":"uint256","name":"contentType","type":"uint256"},{"internalType":"bytes","name":"data","type":"bytes"}],"name":"setABI","outputs":[],"stateMutability":"nonpayable","type":"function"},{"inputs":[{"internalType":"bytes32","name":"node","type":"bytes32"},{"internalType":"uint256","name":"coinType","type":"uint256"},{"internalType":"bytes","name":"a","type":"bytes"}],"name":"setAddr","outputs":[],"stateMutability":"nonpayable","type":"function"},{"inputs":[{"internalType":"bytes32","name":"node","type":"bytes32"},{"internalType":"address","name":"a","type":"address"}],"name":"setAddr","outputs":[],"stateMutability":"nonpayable","type":"function"},{"inputs":[{"internalType":"address","name":"operator","type":"address"},{"internalType":"bool","name":"approved","type":"bool"}],"name":"setApprovalForAll","outputs":[],"stateMutability":"nonpayable","type":"function"},{"inputs":[{"internalType":"bytes32","name":"node","type":"bytes32"},{"internalType":"bytes","name":"hash","type":"bytes"}],"name":"setContenthash","outputs":[],"stateMutability":"nonpayable","type":"function"},{"inputs":[{"internalType":"bytes32","name":"node","type":"bytes32"},{"internalType":"bytes","name":"data","type":"bytes"}],"name":"setDNSRecords","outputs":[],"stateMutability":"nonpayable","type":"function"},{"inputs":[{"internalType":"bytes32","name":"node","type":"bytes32"},{"internalType":"bytes4","name":"interfaceID","type":"bytes4"},{"internalType":"address","name":"implementer","type":"address"}],"name":"setInterface","outputs":[],"stateMutability":"nonpayable","type":"function"},{"inputs":[{"internalType":"bytes32","name":"node","type":"bytes32"},{"internalType":"string","name":"newName","type":"string"}],"name":"setName","outputs":[],"stateMutability":"nonpayable","type":"function"},{"inputs":[{"internalType":"bytes32","name":"node","type":"bytes32"},{"internalType":"bytes32","name":"x","type":"bytes32"},{"internalType":"bytes32","name":"y","type":"bytes32"}],"name":"setPubkey","outputs":[],"stateMutability":"nonpayable","type":"function"},{"inputs":[{"internalType":"bytes32","name":"node","type":"bytes32"},{"internalType":"string","name":"key","type":"string"},{"internalType":"string","name":"value","type":"string"}],"name":"setText","outputs":[],"stateMutability":"nonpayable","type":"function"},{"inputs":[{"internalType":"bytes32","name":"node","type":"bytes32"},{"internalType":"bytes","name":"hash","type":"bytes"}],"name":"setZonehash","outputs":[],"stateMutability":"nonpayable","type":"function"},{"inputs":[{"internalType":"bytes4","name":"interfaceID","type":"bytes4"}],"name":"supportsInterface","outputs":[{"internalType":"bool","name":"","type":"bool"}],"stateMutability":"view","type":"function"},{"inputs":[{"internalType":"bytes32","name":"node","type":"bytes32"},{"internalType":"string","name":"key","type":"string"}],"name":"text","outputs":[{"internalType":"string","name":"","type":"string"}],"stateMutability":"view","type":"function"},{"inputs":[{"internalType":"address","name":"newOwner","type":"address"}],"name":"transferOwnership","outputs":[],"stateMutability":"nonpayable","type":"function"},{"inputs":[],"name":"trustedETHController","outputs":[{"internalType":"address","name":"","type":"address"}],"stateMutability":"view","type":"function"},{"inputs":[],"name":"trustedReverseRegistrar","outputs":[{"internalType":"address","name":"","type":"address"}],"stateMutability":"view","type":"function"},{"inputs":[{"internalType":"address","name":"newImplementation","type":"address"}],"name":"upgradeTo","outputs":[],"stateMutability":"nonpayable","type":"function"},{"inputs":[{"internalType":"address","name":"newImplementation","type":"address"},{"internalType":"bytes","name":"data","type":"bytes"}],"name":"upgradeToAndCall","outputs":[],"stateMutability":"payable","type":"function"},{"inputs":[{"internalType":"bytes32","name":"node","type":"bytes32"}],"name":"zonehash","outputs":[{"internalType":"bytes","name":"","type":"bytes"}],"stateMutability":"view","type":"function"}],"devdoc":{"kind":"dev","methods":{"ABI(bytes32,uint256)":{"params":{"contentTypes":"A bitwise OR of the ABI formats accepted by the caller.","node":"The ENS node to query"},"returns":{"_0":"contentType The content type of the return value","_1":"data The ABI data"}},"addr(bytes32)":{"params":{"node":"The ENS node to query."},"returns":{"_0":"The associated address."}},"approve(bytes32,address,bool)":{"details":"Approve a delegate to be able to updated records on a node."},"clearRecords(bytes32)":{"params":{"node":"The node to update."}},"constructor":{"custom:oz-upgrades-unsafe-allow":"constructor"},"contenthash(bytes32)":{"params":{"node":"The ENS node to query."},"returns":{"_0":"The associated contenthash."}},"dnsRecord(bytes32,bytes32,uint16)":{"params":{"name":"the keccak-256 hash of the fully-qualified name for which to fetch the record","node":"the namehash of the node for which to fetch the record","resource":"the ID of the resource as per https://en.wikipedia.org/wiki/List_of_DNS_record_types"},"returns":{"_0":"the DNS record in wire format if present, otherwise empty"}},"hasDNSRecords(bytes32,bytes32)":{"params":{"name":"the namehash of the node for which to check the records","node":"the namehash of the node for which to check the records"}},"interfaceImplementer(bytes32,bytes4)":{"params":{"interfaceID":"The EIP 165 interface ID to check for.","node":"The ENS node to query."},"returns":{"_0":"The address that implements this interface, or 0 if the interface is unsupported."}},"isApprovedFor(address,bytes32,address)":{"details":"Check to see if the delegate has been approved by the owner for the node."},"isApprovedForAll(address,address)":{"details":"See {IERC1155-isApprovedForAll}."},"name(bytes32)":{"params":{"node":"The ENS node to query."},"returns":{"_0":"The associated name."}},"owner()":{"details":"Returns the address of the current owner."},"proxiableUUID()":{"details":"Implementation of the ERC1822 {proxiableUUID} function. This returns the storage slot used by the implementation. It is used to validate the implementation's compatibility when performing an upgrade. IMPORTANT: A proxy pointing at a proxiable contract should not be considered proxiable itself, because this risks bricking a proxy that upgrades to it, by delegating to itself until out of gas. Thus it is critical that this function revert if invoked through a proxy. This is guaranteed by the `notDelegated` modifier."},"pubkey(bytes32)":{"params":{"node":"The ENS node to query"},"returns":{"x":"The X coordinate of the curve point for the public key.","y":"The Y coordinate of the curve point for the public key."}},"renounceOwnership()":{"details":"Leaves the contract without owner. It will not be possible to call `onlyOwner` functions. Can only be called by the current owner. NOTE: Renouncing ownership will leave the contract without an owner, thereby disabling any functionality that is only available to the owner."},"setABI(bytes32,uint256,bytes)":{"params":{"contentType":"The content type of the ABI","data":"The ABI data.","node":"The node to update."}},"setAddr(bytes32,address)":{"params":{"a":"The address to set.","node":"The node to update."}},"setApprovalForAll(address,bool)":{"details":"See {IERC1155-setApprovalForAll}."},"setContenthash(bytes32,bytes)":{"params":{"hash":"The contenthash to set","node":"The node to update."}},"setDNSRecords(bytes32,bytes)":{"params":{"data":"the DNS wire format records to set","node":"the namehash of the node for which to set the records"}},"setInterface(bytes32,bytes4,address)":{"params":{"implementer":"The address of a contract that implements this interface for this node.","interfaceID":"The EIP 165 interface ID.","node":"The node to update."}},"setName(bytes32,string)":{"params":{"node":"The node to update."}},"setPubkey(bytes32,bytes32,bytes32)":{"params":{"node":"The ENS node to query","x":"the X coordinate of the curve point for the public key.","y":"the Y coordinate of the curve point for the public key."}},"setText(bytes32,string,string)":{"params":{"key":"The key to set.","node":"The node to update.","value":"The text data value to set."}},"setZonehash(bytes32,bytes)":{"params":{"hash":"The zonehash to set","node":"The node to update."}},"text(bytes32,string)":{"params":{"key":"The text data key to query.","node":"The ENS node to query."},"returns":{"_0":"The associated text data."}},"transferOwnership(address)":{"details":"Transfers ownership of the contract to a new account (`newOwner`). Can only be called by the current owner."},"upgradeTo(address)":{"custom:oz-upgrades-unsafe-allow-reachable":"delegatecall","details":"Upgrade the implementation of the proxy to `newImplementation`. Calls {_authorizeUpgrade}. Emits an {Upgraded} event."},"upgradeToAndCall(address,bytes)":{"custom:oz-upgrades-unsafe-allow-reachable":"delegatecall","details":"Upgrade the implementation of the proxy to `newImplementation`, and subsequently execute the function call encoded in `data`. Calls {_authorizeUpgrade}. Emits an {Upgraded} event."},"zonehash(bytes32)":{"params":{"node":"The ENS node to query."},"returns":{"_0":"The associated contenthash."}}},"version":1},"evm":{"bytecode":{"linkReferences":{},"object":"60a0604052306080523480156200001557600080fd5b506200002062000026565b620000e7565b600054610100900460ff1615620000935760405162461bcd60e51b815260206004820152602760248201527f496e697469616c697a61626c653a20636f6e747261637420697320696e697469604482015266616c697a696e6760c81b606482015260840160405180910390fd5b60005460ff90811614620000e5576000805460ff191660ff9081179091556040519081527f7f26b83ff96e1f2b6a682f133852f6798a09c465da95921460cefb38474024989060200160405180910390a15b565b60805161416b6200011f600039600081816111d501528181611270015281816113a90152818161143f015261153a015261416b6000f3fe6080604052600436106102c65760003560e01c8063715018a611610179578063bc1c58d1116100d6578063e32954eb1161008a578063f1cb7e0611610064578063f1cb7e06146108d8578063f2fde38b146108f8578063f8c8765e1461091857600080fd5b8063e32954eb1461084f578063e59d895d1461086f578063e985e9c51461088f57600080fd5b8063ce3decdc116100bb578063ce3decdc146107bf578063d5fa2b00146107df578063d700ff33146107ff57600080fd5b8063bc1c58d114610737578063c86902331461075757600080fd5b8063a4b91a011161012d578063a8fa568211610112578063a8fa568214610699578063a9784b3e146106b9578063ac9650d81461070a57600080fd5b8063a4b91a0114610659578063a8e5fbc01461067957600080fd5b80638b95dd711161015e5780638b95dd71146105fb5780638da5cb5b1461061b578063a22cb4651461063957600080fd5b8063715018a6146105c657806377372213146105db57600080fd5b80633b3b57de1161022757806359d1d43c116101db578063623195b0116101c0578063623195b01461056657806362c50a1314610586578063691f3431146105a657600080fd5b806359d1d43c146105195780635c98042b1461054657600080fd5b80634cbf6ba41161020c5780634cbf6ba4146104885780634f1ef286146104e357806352d1902d146104f657600080fd5b80633b3b57de146104485780633f15457f1461046857600080fd5b806329cd62ea1161027e5780633603d758116102635780633603d758146103e85780633659cfe61461040857806337bf7a2f1461042857600080fd5b806329cd62ea146103a8578063304e6ade146103c857600080fd5b806310f13a8c116102af57806310f13a8c14610322578063124a319c146103425780632203ab561461037a57600080fd5b806301ffc9a7146102cb5780630af179d714610300575b600080fd5b3480156102d757600080fd5b506102eb6102e636600461354c565b610938565b60405190151581526020015b60405180910390f35b34801561030c57600080fd5b5061032061031b3660046135a9565b610949565b005b34801561032e57600080fd5b5061032061033d3660046135f5565b610b55565b34801561034e57600080fd5b5061036261035d36600461366f565b610c24565b6040516001600160a01b0390911681526020016102f7565b34801561038657600080fd5b5061039a61039536600461369b565b610ed2565b6040516102f792919061370d565b3480156103b457600080fd5b506103206103c3366004613726565b61100c565b3480156103d457600080fd5b506103206103e33660046135a9565b6110a8565b3480156103f457600080fd5b50610320610403366004613752565b611126565b34801561041457600080fd5b50610320610423366004613780565b6111cb565b34801561043457600080fd5b5060d654610362906001600160a01b031681565b34801561045457600080fd5b50610362610463366004613752565b61136d565b34801561047457600080fd5b5060d454610362906001600160a01b031681565b34801561049457600080fd5b506102eb6104a336600461369b565b600082815260c9602090815260408083205467ffffffffffffffff16835260cf825280832094835293815283822092825291909152205461ffff16151590565b6103206104f1366004613840565b61139f565b34801561050257600080fd5b5061050b61152d565b6040519081526020016102f7565b34801561052557600080fd5b506105396105343660046135a9565b6115f2565b6040516102f79190613890565b34801561055257600080fd5b50610539610561366004613752565b6116d4565b34801561057257600080fd5b506103206105813660046138a3565b611795565b34801561059257600080fd5b5060d754610362906001600160a01b031681565b3480156105b257600080fd5b506105396105c1366004613752565b611834565b3480156105d257600080fd5b50610320611870565b3480156105e757600080fd5b506103206105f63660046135a9565b611884565b34801561060757600080fd5b506103206106163660046138f6565b611902565b34801561062757600080fd5b506097546001600160a01b0316610362565b34801561064557600080fd5b50610320610654366004613956565b6119e4565b34801561066557600080fd5b50610320610674366004613982565b611ace565b34801561068557600080fd5b5060d554610362906001600160a01b031681565b3480156106a557600080fd5b506105396106b43660046139c0565b611b9b565b3480156106c557600080fd5b506102eb6106d4366004613a00565b6001600160a01b03928316600090815260d960209081526040808320948352938152838220929094168152925290205460ff1690565b34801561071657600080fd5b5061072a610725366004613a7c565b611beb565b6040516102f79190613abe565b34801561074357600080fd5b50610539610752366004613752565b611bf9565b34801561076357600080fd5b506107aa610772366004613752565b600081815260c9602090815260408083205467ffffffffffffffff16835260d282528083209383529290522080546001909101549091565b604080519283526020830191909152016102f7565b3480156107cb57600080fd5b506103206107da3660046135a9565b611c35565b3480156107eb57600080fd5b506103206107fa366004613b20565b611d7a565b34801561080b57600080fd5b5061083661081a366004613752565b60c96020526000908152604090205467ffffffffffffffff1681565b60405167ffffffffffffffff90911681526020016102f7565b34801561085b57600080fd5b5061072a61086a366004613b50565b611da1565b34801561087b57600080fd5b5061032061088a366004613b8f565b611db6565b34801561089b57600080fd5b506102eb6108aa366004613bc4565b6001600160a01b03918216600090815260d86020908152604080832093909416825291909152205460ff1690565b3480156108e457600080fd5b506105396108f336600461369b565b611e6c565b34801561090457600080fd5b50610320610913366004613780565b611f36565b34801561092457600080fd5b50610320610933366004613bf2565b611fc3565b600061094382612244565b92915050565b8261095381612282565b61095c57600080fd5b600084815260c960209081526040808320548151601f870184900484028101840190925285825283926060928392859267ffffffffffffffff9091169183916109c49183918d908d908190840183828082843760009201919091525092939250506124399050565b90505b80515160208201511015610aee578661ffff16600003610a2c57806040015196506109f18161249a565b945084604051602001610a049190613c4e565b604051602081830303815290604052805190602001209250610a25816124bb565b9350610ae0565b6000610a378261249a565b9050816040015161ffff168861ffff16141580610a5b5750610a5986826124d7565b155b15610ade57610ab78c878a8e8e8080601f016020809104026020016040519081016040528093929190818152602001838380828437600092019190915250505060208801518d9150610aae908290613c80565b8b51158a6124f5565b816040015197508160200151965080955085805190602001209350610adb826124bb565b94505b505b610ae981612762565b6109c7565b50835115610b4957610b498a85888c8c8080601f0160208091040260200160405190810160405280939291908181526020018383808284376000920191909152508c9250610b4091508290508f613c80565b895115886124f5565b50505050505050505050565b84610b5f81612282565b610b6857600080fd5b600086815260c9602090815260408083205467ffffffffffffffff16835260d3825280832089845290915290819020905184918491610baa9089908990613c93565b90815260200160405180910390209182610bc5929190613d2b565b508484604051610bd6929190613c93565b6040518091039020867f448bc014f1536726cf8d54ff3d6481ed3cbc683c2591ca204274009afa09b1a187878787604051610c149493929190613e14565b60405180910390a3505050505050565b600082815260c9602090815260408083205467ffffffffffffffff16835260d0825280832085845282528083206001600160e01b0319851684529091528120546001600160a01b03168015610c7a579050610943565b6000610c858561136d565b90506001600160a01b038116610ca057600092505050610943565b6040516301ffc9a760e01b602482015260009081906001600160a01b0384169060440160408051601f198184030181529181526020820180517bffffffffffffffffffffffffffffffffffffffffffffffffffffffff166301ffc9a760e01b17905251610d0d9190613c4e565b600060405180830381855afa9150503d8060008114610d48576040519150601f19603f3d011682016040523d82523d6000602084013e610d4d565b606091505b5091509150811580610d60575060208151105b80610da2575080601f81518110610d7957610d79613e46565b01602001517fff0000000000000000000000000000000000000000000000000000000000000016155b15610db4576000945050505050610943565b6040516001600160e01b0319871660248201526001600160a01b0384169060440160408051601f198184030181529181526020820180517bffffffffffffffffffffffffffffffffffffffffffffffffffffffff166301ffc9a760e01b17905251610e1f9190613c4e565b600060405180830381855afa9150503d8060008114610e5a576040519150601f19603f3d011682016040523d82523d6000602084013e610e5f565b606091505b509092509050811580610e73575060208151105b80610eb5575080601f81518110610e8c57610e8c613e46565b01602001517fff0000000000000000000000000000000000000000000000000000000000000016155b15610ec7576000945050505050610943565b509095945050505050565b600082815260c9602090815260408083205467ffffffffffffffff16835260ca8252808320858452909152812060609060015b848111610fec5780851615801590610f35575060008181526020839052604081208054610f3190613ca3565b9050115b15610fe45780826000838152602001908152602001600020808054610f5990613ca3565b80601f0160208091040260200160405190810160405280929190818152602001828054610f8590613ca3565b8015610fd25780601f10610fa757610100808354040283529160200191610fd2565b820191906000526020600020905b815481529060010190602001808311610fb557829003601f168201915b50505050509050935093505050611005565b60011b610f05565b5060006040518060200160405280600081525092509250505b9250929050565b8261101681612282565b61101f57600080fd5b6040805180820182528481526020808201858152600088815260c983528481205467ffffffffffffffff16815260d2835284812089825283528490209251835551600190920191909155815185815290810184905285917f1d6f5e03d3f63eb58751986629a5439baee5079ff04f345becb66e23eb154e4691015b60405180910390a250505050565b826110b281612282565b6110bb57600080fd5b600084815260c9602090815260408083205467ffffffffffffffff16835260cc825280832087845290915290206110f3838583613d2b565b50837fe379c1624ed7e714cc0937528a32359d69d5281337765313dba4e081b72d7578848460405161109a929190613e5c565b8061113081612282565b61113957600080fd5b600082815260c960205260408120805467ffffffffffffffff169161115d83613e70565b82546101009290920a67ffffffffffffffff818102199093169183160217909155600084815260c960209081526040918290205491519190921681528492507fc6621ccb8f3f5a04bb6502154b2caf6adf5983fe76dfef1cfc9c42e3579db444910160405180910390a25050565b6001600160a01b037f000000000000000000000000000000000000000000000000000000000000000016300361126e5760405162461bcd60e51b815260206004820152602c60248201527f46756e6374696f6e206d7573742062652063616c6c6564207468726f7567682060448201527f64656c656761746563616c6c000000000000000000000000000000000000000060648201526084015b60405180910390fd5b7f00000000000000000000000000000000000000000000000000000000000000006001600160a01b03166112c97f360894a13ba1a3210667c828492db98dca3e2076cc3735a920a3ca505d382bbc546001600160a01b031690565b6001600160a01b0316146113455760405162461bcd60e51b815260206004820152602c60248201527f46756e6374696f6e206d7573742062652063616c6c6564207468726f7567682060448201527f6163746976652070726f787900000000000000000000000000000000000000006064820152608401611265565b61134e8161284a565b6040805160008082526020820190925261136a91839190612852565b50565b60008061137b83603c611e6c565b9050805160000361138f5750600092915050565b611398816129f2565b9392505050565b6001600160a01b037f000000000000000000000000000000000000000000000000000000000000000016300361143d5760405162461bcd60e51b815260206004820152602c60248201527f46756e6374696f6e206d7573742062652063616c6c6564207468726f7567682060448201527f64656c656761746563616c6c00000000000000000000000000000000000000006064820152608401611265565b7f00000000000000000000000000000000000000000000000000000000000000006001600160a01b03166114987f360894a13ba1a3210667c828492db98dca3e2076cc3735a920a3ca505d382bbc546001600160a01b031690565b6001600160a01b0316146115145760405162461bcd60e51b815260206004820152602c60248201527f46756e6374696f6e206d7573742062652063616c6c6564207468726f7567682060448201527f6163746976652070726f787900000000000000000000000000000000000000006064820152608401611265565b61151d8261284a565b61152982826001612852565b5050565b6000306001600160a01b037f000000000000000000000000000000000000000000000000000000000000000016146115cd5760405162461bcd60e51b815260206004820152603860248201527f555550535570677261646561626c653a206d757374206e6f742062652063616c60448201527f6c6564207468726f7567682064656c656761746563616c6c00000000000000006064820152608401611265565b507f360894a13ba1a3210667c828492db98dca3e2076cc3735a920a3ca505d382bbc90565b600083815260c9602090815260408083205467ffffffffffffffff16835260d38252808320868452909152908190209051606091906116349085908590613c93565b9081526020016040518091039020805461164d90613ca3565b80601f016020809104026020016040519081016040528092919081815260200182805461167990613ca3565b80156116c65780601f1061169b576101008083540402835291602001916116c6565b820191906000526020600020905b8154815290600101906020018083116116a957829003601f168201915b505050505090509392505050565b600081815260c9602090815260408083205467ffffffffffffffff16835260cd8252808320848452909152902080546060919061171090613ca3565b80601f016020809104026020016040519081016040528092919081815260200182805461173c90613ca3565b80156117895780601f1061175e57610100808354040283529160200191611789565b820191906000526020600020905b81548152906001019060200180831161176c57829003601f168201915b50505050509050919050565b8361179f81612282565b6117a857600080fd5b836117b4600182613c80565b16156117bf57600080fd5b600085815260c9602090815260408083205467ffffffffffffffff16835260ca8252808320888452825280832087845290915290206117ff838583613d2b565b50604051849086907faa121bbeef5f32f5961a2a28966e769023910fc9479059ee3495d4c1a696efe390600090a35050505050565b600081815260c9602090815260408083205467ffffffffffffffff16835260d18252808320848452909152902080546060919061171090613ca3565b611878612a1a565b6118826000612a74565b565b8261188e81612282565b61189757600080fd5b600084815260c9602090815260408083205467ffffffffffffffff16835260d1825280832087845290915290206118cf838583613d2b565b50837fb7d29e911041e8d9b843369e890bcb72c9388692ba48b65ac54e7214c4c348f7848460405161109a929190613e5c565b8261190c81612282565b61191557600080fd5b837f65412581168e88a1e60c6459d7f44ae83ad0832e670826c05a4e2476b57af752848460405161194792919061370d565b60405180910390a2603c830361199e57837f52d7d861f09ab3d26239d492e8968629f95e9e318cf0b73bfddc441522a15fd2611982846129f2565b6040516001600160a01b03909116815260200160405180910390a25b600084815260c9602090815260408083205467ffffffffffffffff16835260cb8252808320878452825280832086845290915290206119dd8382613e97565b5050505050565b6001600160a01b0382163303611a625760405162461bcd60e51b815260206004820152602960248201527f455243313135353a2073657474696e6720617070726f76616c2073746174757360448201527f20666f722073656c6600000000000000000000000000000000000000000000006064820152608401611265565b33600081815260d8602090815260408083206001600160a01b03871680855290835292819020805460ff191686151590811790915590519081529192917f17307eab39ab6107e8899845ad3d59bd9653f200f220920489ca2b5937696c31910160405180910390a35050565b6001600160a01b0382163303611b265760405162461bcd60e51b815260206004820181905260248201527f53657474696e672064656c65676174652073746174757320666f722073656c666044820152606401611265565b33600081815260d96020908152604080832087845282528083206001600160a01b03871680855290835292819020805460ff191686151590811790915590519384529286917ff0ddb3b04746704017f9aa8bd728fcc2c1d11675041205350018915f5e4750a0910160405180910390a4505050565b600083815260c9602090815260408083205467ffffffffffffffff16835260ce82528083208684528252808320858452825280832061ffff85168452909152902080546060919061164d90613ca3565b606061139860008484612ad3565b600081815260c9602090815260408083205467ffffffffffffffff16835260cc8252808320848452909152902080546060919061171090613ca3565b82611c3f81612282565b611c4857600080fd5b600084815260c9602090815260408083205467ffffffffffffffff1680845260cd835281842088855290925282208054919291611c8490613ca3565b80601f0160208091040260200160405190810160405280929190818152602001828054611cb090613ca3565b8015611cfd5780601f10611cd257610100808354040283529160200191611cfd565b820191906000526020600020905b815481529060010190602001808311611ce057829003601f168201915b5050505067ffffffffffffffff8416600090815260cd602090815260408083208b84529091529020919250611d359050858783613d2b565b50857f8f15ed4b723ef428f250961da8315675b507046737e19319fc1a4d81bfe87f85828787604051611d6a93929190613f57565b60405180910390a2505050505050565b81611d8481612282565b611d8d57600080fd5b611d9c83603c61061685612cac565b505050565b6060611dae848484612ad3565b949350505050565b82611dc081612282565b611dc957600080fd5b600084815260c9602090815260408083205467ffffffffffffffff16835260d0825280832087845282528083206001600160e01b0319871680855290835292819020805473ffffffffffffffffffffffffffffffffffffffff19166001600160a01b038716908117909155905190815286917f7c69f06bea0bdef565b709e93a147836b0063ba2dd89f02d0b7e8d931e6a6daa910160405180910390a350505050565b600082815260c9602090815260408083205467ffffffffffffffff16835260cb825280832085845282528083208484529091529020805460609190611eb090613ca3565b80601f0160208091040260200160405190810160405280929190818152602001828054611edc90613ca3565b8015611f295780601f10611efe57610100808354040283529160200191611f29565b820191906000526020600020905b815481529060010190602001808311611f0c57829003601f168201915b5050505050905092915050565b611f3e612a1a565b6001600160a01b038116611fba5760405162461bcd60e51b815260206004820152602660248201527f4f776e61626c653a206e6577206f776e657220697320746865207a65726f206160448201527f64647265737300000000000000000000000000000000000000000000000000006064820152608401611265565b61136a81612a74565b600054610100900460ff1615808015611fe35750600054600160ff909116105b80611ffd5750303b158015611ffd575060005460ff166001145b61206f5760405162461bcd60e51b815260206004820152602e60248201527f496e697469616c697a61626c653a20636f6e747261637420697320616c72656160448201527f647920696e697469616c697a65640000000000000000000000000000000000006064820152608401611265565b6000805460ff191660011790558015612092576000805461ff0019166101001790555b61209a612ce5565b60d480546001600160a01b0387811673ffffffffffffffffffffffffffffffffffffffff19928316811790935560d5805488831690841617905560d6805487831690841617905560d78054918616919092161790556040516302571be360e01b81527f91d1777781884d03a6757a803996e38de2a42967fb37eeaca72729271025a9e26004820152600091906302571be390602401602060405180830381865afa15801561214c573d6000803e3d6000fd5b505050506040513d601f19601f820116820180604052508101906121709190613f7d565b6040517f1e83409a0000000000000000000000000000000000000000000000000000000081523360048201529091506001600160a01b03821690631e83409a906024016020604051808303816000875af11580156121d2573d6000803e3d6000fd5b505050506040513d601f19601f820116820180604052508101906121f69190613f9a565b505080156119dd576000805461ff0019169055604051600181527f7f26b83ff96e1f2b6a682f133852f6798a09c465da95921460cefb38474024989060200160405180910390a15050505050565b60006001600160e01b031982167f59d1d43c000000000000000000000000000000000000000000000000000000001480610943575061094382612d6a565b60d6546000906001600160a01b03163314806122a8575060d7546001600160a01b031633145b156122b557506001919050565b60d4546040516302571be360e01b8152600481018490526000916001600160a01b0316906302571be390602401602060405180830381865afa1580156122ff573d6000803e3d6000fd5b505050506040513d601f19601f820116820180604052508101906123239190613f7d565b60d5549091506001600160a01b03908116908216036123c55760d5546040517f6352211e000000000000000000000000000000000000000000000000000000008152600481018590526001600160a01b0390911690636352211e90602401602060405180830381865afa15801561239e573d6000803e3d6000fd5b505050506040513d601f19601f820116820180604052508101906123c29190613f7d565b90505b6001600160a01b0381163314806123ff57506001600160a01b038116600090815260d86020908152604080832033845290915290205460ff165b8061139857506001600160a01b038116600090815260d960209081526040808320868452825280832033845290915290205460ff16611398565b6124876040518060e001604052806060815260200160008152602001600061ffff168152602001600061ffff168152602001600063ffffffff16815260200160008152602001600081525090565b82815260c0810182905261094381612762565b60208101518151606091610943916124b29082612da8565b84519190612e02565b60a081015160c0820151606091610943916124b2908290613c80565b60008151835114801561139857506113988360008460008751612e79565b865160208801206000612509878787612e02565b905083156126335767ffffffffffffffff8316600090815260ce602090815260408083208d84528252808320858452825280832061ffff8c1684529091529020805461255490613ca3565b1590506125b35767ffffffffffffffff8316600090815260cf602090815260408083208d845282528083208584529091528120805461ffff169161259783613fb3565b91906101000a81548161ffff021916908361ffff160217905550505b67ffffffffffffffff8316600090815260ce602090815260408083208d84528252808320858452825280832061ffff8c16845290915281206125f4916134e1565b897f03528ed0c2a3ebc993b12ce3c16bb382f9c7d88ef7d8a1bf290eaf35955a12078a8a604051612626929190613fd1565b60405180910390a2610b49565b67ffffffffffffffff8316600090815260ce602090815260408083208d84528252808320858452825280832061ffff8c1684529091529020805461267690613ca3565b90506000036126d75767ffffffffffffffff8316600090815260cf602090815260408083208d845282528083208584529091528120805461ffff16916126bb83613ff7565b91906101000a81548161ffff021916908361ffff160217905550505b67ffffffffffffffff8316600090815260ce602090815260408083208d84528252808320858452825280832061ffff8c16845290915290206127198282613e97565b50897f52a608b3303a48862d07a73d82fa221318c0027fbbcfb1b2329bface3f19ff2b8a8a8460405161274e9392919061400e565b60405180910390a250505050505050505050565b60c081015160208201819052815151116127795750565b600061278d82600001518360200151612da8565b826020015161279c919061403d565b82519091506127ab9082612e9c565b61ffff1660408301526127bf60028261403d565b82519091506127ce9082612e9c565b61ffff1660608301526127e260028261403d565b82519091506127f19082612ec4565b63ffffffff16608083015261280760048261403d565b82519091506000906128199083612e9c565b61ffff16905061282a60028361403d565b60a08401819052915061283d818361403d565b60c0909301929092525050565b61136a612a1a565b7f4910fdfa16fed3260ed0e7147f7cc6da11a60208b5b9406d12a635614ffd91435460ff161561288557611d9c83612eee565b826001600160a01b03166352d1902d6040518163ffffffff1660e01b8152600401602060405180830381865afa9250505080156128df575060408051601f3d908101601f191682019092526128dc91810190613f9a565b60015b6129515760405162461bcd60e51b815260206004820152602e60248201527f45524331393637557067726164653a206e657720696d706c656d656e7461746960448201527f6f6e206973206e6f7420555550530000000000000000000000000000000000006064820152608401611265565b7f360894a13ba1a3210667c828492db98dca3e2076cc3735a920a3ca505d382bbc81146129e65760405162461bcd60e51b815260206004820152602960248201527f45524331393637557067726164653a20756e737570706f727465642070726f7860448201527f6961626c655555494400000000000000000000000000000000000000000000006064820152608401611265565b50611d9c838383612fb9565b60008151601414612a0257600080fd5b50602001516c01000000000000000000000000900490565b6097546001600160a01b031633146118825760405162461bcd60e51b815260206004820181905260248201527f4f776e61626c653a2063616c6c6572206973206e6f7420746865206f776e65726044820152606401611265565b609780546001600160a01b0383811673ffffffffffffffffffffffffffffffffffffffff19831681179093556040519116919082907f8be0079c531659141344cd1fd0a4f28419497f9722a3daafe3b4186f6b6457e090600090a35050565b60608167ffffffffffffffff811115612aee57612aee61379d565b604051908082528060200260200182016040528015612b2157816020015b6060815260200190600190039081612b0c5790505b50905060005b82811015612ca4578415612bec576000848483818110612b4957612b49613e46565b9050602002810190612b5b9190614050565b612b6a91602491600491614097565b612b73916140c1565b9050858114612bea5760405162461bcd60e51b815260206004820152603460248201527f6d756c746963616c6c3a20416c6c207265636f726473206d757374206861766560448201527f2061206d61746368696e67206e616d65686173680000000000000000000000006064820152608401611265565b505b60008030868685818110612c0257612c02613e46565b9050602002810190612c149190614050565b604051612c22929190613c93565b600060405180830381855af49150503d8060008114612c5d576040519150601f19603f3d011682016040523d82523d6000602084013e612c62565b606091505b509150915081612c7157600080fd5b80848481518110612c8457612c84613e46565b602002602001018190525050508080612c9c906140df565b915050612b27565b509392505050565b6040805160148082528183019092526060916020820181803683375050506c010000000000000000000000009290920260208301525090565b600054610100900460ff16612d625760405162461bcd60e51b815260206004820152602b60248201527f496e697469616c697a61626c653a20636f6e7472616374206973206e6f74206960448201527f6e697469616c697a696e670000000000000000000000000000000000000000006064820152608401611265565b611882612fe4565b60006001600160e01b031982167fc869023300000000000000000000000000000000000000000000000000000000148061094357506109438261306a565b6000815b83518110612dbc57612dbc6140f8565b6000612dc885836130a8565b60ff169050612dd881600161403d565b612de2908361403d565b915080600003612df25750612df8565b50612dac565b611dae8382613c80565b8251606090612e11838561403d565b1115612e1c57600080fd5b60008267ffffffffffffffff811115612e3757612e3761379d565b6040519080825280601f01601f191660200182016040528015612e61576020820181803683370190505b50905060208082019086860101610ec78282876130cc565b6000612e86848484613122565b612e91878785613122565b149695505050505050565b8151600090612eac83600261403d565b1115612eb757600080fd5b50016002015161ffff1690565b8151600090612ed483600461403d565b1115612edf57600080fd5b50016004015163ffffffff1690565b6001600160a01b0381163b612f6b5760405162461bcd60e51b815260206004820152602d60248201527f455243313936373a206e657720696d706c656d656e746174696f6e206973206e60448201527f6f74206120636f6e7472616374000000000000000000000000000000000000006064820152608401611265565b7f360894a13ba1a3210667c828492db98dca3e2076cc3735a920a3ca505d382bbc805473ffffffffffffffffffffffffffffffffffffffff19166001600160a01b0392909216919091179055565b612fc283613146565b600082511180612fcf5750805b15611d9c57612fde8383613186565b50505050565b600054610100900460ff166130615760405162461bcd60e51b815260206004820152602b60248201527f496e697469616c697a61626c653a20636f6e7472616374206973206e6f74206960448201527f6e697469616c697a696e670000000000000000000000000000000000000000006064820152608401611265565b61188233612a74565b60006001600160e01b031982167f691f34310000000000000000000000000000000000000000000000000000000014806109435750610943826131ab565b60008282815181106130bc576130bc613e46565b016020015160f81c905092915050565b6020811061310457815183526130e360208461403d565b92506130f060208361403d565b91506130fd602082613c80565b90506130cc565b905182516020929092036101000a6000190180199091169116179052565b8251600090613131838561403d565b111561313c57600080fd5b5091016020012090565b61314f81612eee565b6040516001600160a01b038216907fbc7cd75a20ee27fd9adebab32041f755214dbc6bffa90cc0225b39da2e5c2d3b90600090a250565b6060611398838360405180606001604052806027815260200161410f602791396131e9565b60006001600160e01b031982167f124a319c000000000000000000000000000000000000000000000000000000001480610943575061094382613261565b6060600080856001600160a01b0316856040516132069190613c4e565b600060405180830381855af49150503d8060008114613241576040519150601f19603f3d011682016040523d82523d6000602084013e613246565b606091505b5091509150613257868383876132d3565b9695505050505050565b60006001600160e01b031982167fa8fa56820000000000000000000000000000000000000000000000000000000014806132c457506001600160e01b031982167f5c98042b00000000000000000000000000000000000000000000000000000000145b8061094357506109438261334c565b6060831561334257825160000361333b576001600160a01b0385163b61333b5760405162461bcd60e51b815260206004820152601d60248201527f416464726573733a2063616c6c20746f206e6f6e2d636f6e74726163740000006044820152606401611265565b5081611dae565b611dae838361338a565b60006001600160e01b031982167fbc1c58d10000000000000000000000000000000000000000000000000000000014806109435750610943826133b4565b81511561339a5781518083602001fd5b8060405162461bcd60e51b81526004016112659190613890565b60006001600160e01b031982167f3b3b57de00000000000000000000000000000000000000000000000000000000148061341757506001600160e01b031982167ff1cb7e0600000000000000000000000000000000000000000000000000000000145b8061094357506109438260006001600160e01b031982167f2203ab5600000000000000000000000000000000000000000000000000000000148061094357506109438260006001600160e01b031982167fd700ff3300000000000000000000000000000000000000000000000000000000148061094357506109438260006001600160e01b031982167f4fbf043300000000000000000000000000000000000000000000000000000000148061094357506301ffc9a760e01b6001600160e01b0319831614610943565b5080546134ed90613ca3565b6000825580601f106134fd575050565b601f01602090049060005260206000209081019061136a91905b8082111561352b5760008155600101613517565b5090565b80356001600160e01b03198116811461354757600080fd5b919050565b60006020828403121561355e57600080fd5b6113988261352f565b60008083601f84011261357957600080fd5b50813567ffffffffffffffff81111561359157600080fd5b60208301915083602082850101111561100557600080fd5b6000806000604084860312156135be57600080fd5b83359250602084013567ffffffffffffffff8111156135dc57600080fd5b6135e886828701613567565b9497909650939450505050565b60008060008060006060868803121561360d57600080fd5b85359450602086013567ffffffffffffffff8082111561362c57600080fd5b61363889838a01613567565b9096509450604088013591508082111561365157600080fd5b5061365e88828901613567565b969995985093965092949392505050565b6000806040838503121561368257600080fd5b823591506136926020840161352f565b90509250929050565b600080604083850312156136ae57600080fd5b50508035926020909101359150565b60005b838110156136d85781810151838201526020016136c0565b50506000910152565b600081518084526136f98160208601602086016136bd565b601f01601f19169290920160200192915050565b828152604060208201526000611dae60408301846136e1565b60008060006060848603121561373b57600080fd5b505081359360208301359350604090920135919050565b60006020828403121561376457600080fd5b5035919050565b6001600160a01b038116811461136a57600080fd5b60006020828403121561379257600080fd5b81356113988161376b565b634e487b7160e01b600052604160045260246000fd5b600082601f8301126137c457600080fd5b813567ffffffffffffffff808211156137df576137df61379d565b604051601f8301601f19908116603f011681019082821181831017156138075761380761379d565b8160405283815286602085880101111561382057600080fd5b836020870160208301376000602085830101528094505050505092915050565b6000806040838503121561385357600080fd5b823561385e8161376b565b9150602083013567ffffffffffffffff81111561387a57600080fd5b613886858286016137b3565b9150509250929050565b60208152600061139860208301846136e1565b600080600080606085870312156138b957600080fd5b8435935060208501359250604085013567ffffffffffffffff8111156138de57600080fd5b6138ea87828801613567565b95989497509550505050565b60008060006060848603121561390b57600080fd5b8335925060208401359150604084013567ffffffffffffffff81111561393057600080fd5b61393c868287016137b3565b9150509250925092565b8035801515811461354757600080fd5b6000806040838503121561396957600080fd5b82356139748161376b565b915061369260208401613946565b60008060006060848603121561399757600080fd5b8335925060208401356139a98161376b565b91506139b760408501613946565b90509250925092565b6000806000606084860312156139d557600080fd5b8335925060208401359150604084013561ffff811681146139f557600080fd5b809150509250925092565b600080600060608486031215613a1557600080fd5b8335613a208161376b565b92506020840135915060408401356139f58161376b565b60008083601f840112613a4957600080fd5b50813567ffffffffffffffff811115613a6157600080fd5b6020830191508360208260051b850101111561100557600080fd5b60008060208385031215613a8f57600080fd5b823567ffffffffffffffff811115613aa657600080fd5b613ab285828601613a37565b90969095509350505050565b6000602080830181845280855180835260408601915060408160051b870101925083870160005b82811015613b1357603f19888603018452613b018583516136e1565b94509285019290850190600101613ae5565b5092979650505050505050565b60008060408385031215613b3357600080fd5b823591506020830135613b458161376b565b809150509250929050565b600080600060408486031215613b6557600080fd5b83359250602084013567ffffffffffffffff811115613b8357600080fd5b6135e886828701613a37565b600080600060608486031215613ba457600080fd5b83359250613bb46020850161352f565b915060408401356139f58161376b565b60008060408385031215613bd757600080fd5b8235613be28161376b565b91506020830135613b458161376b565b60008060008060808587031215613c0857600080fd5b8435613c138161376b565b93506020850135613c238161376b565b92506040850135613c338161376b565b91506060850135613c438161376b565b939692955090935050565b60008251613c608184602087016136bd565b9190910192915050565b634e487b7160e01b600052601160045260246000fd5b8181038181111561094357610943613c6a565b8183823760009101908152919050565b600181811c90821680613cb757607f821691505b602082108103613cd757634e487b7160e01b600052602260045260246000fd5b50919050565b601f821115611d9c57600081815260208120601f850160051c81016020861015613d045750805b601f850160051c820191505b81811015613d2357828155600101613d10565b505050505050565b67ffffffffffffffff831115613d4357613d4361379d565b613d5783613d518354613ca3565b83613cdd565b6000601f841160018114613d8b5760008515613d735750838201355b600019600387901b1c1916600186901b1783556119dd565b600083815260209020601f19861690835b82811015613dbc5786850135825560209485019460019092019101613d9c565b5086821015613dd95760001960f88860031b161c19848701351681555b505060018560011b0183555050505050565b81835281816020850137506000828201602090810191909152601f909101601f19169091010190565b604081526000613e28604083018688613deb565b8281036020840152613e3b818587613deb565b979650505050505050565b634e487b7160e01b600052603260045260246000fd5b602081526000611dae602083018486613deb565b600067ffffffffffffffff808316818103613e8d57613e8d613c6a565b6001019392505050565b815167ffffffffffffffff811115613eb157613eb161379d565b613ec581613ebf8454613ca3565b84613cdd565b602080601f831160018114613efa5760008415613ee25750858301515b600019600386901b1c1916600185901b178555613d23565b600085815260208120601f198616915b82811015613f2957888601518255948401946001909101908401613f0a565b5085821015613f475787850151600019600388901b60f8161c191681555b5050505050600190811b01905550565b604081526000613f6a60408301866136e1565b8281036020840152613257818587613deb565b600060208284031215613f8f57600080fd5b81516113988161376b565b600060208284031215613fac57600080fd5b5051919050565b600061ffff821680613fc757613fc7613c6a565b6000190192915050565b604081526000613fe460408301856136e1565b905061ffff831660208301529392505050565b600061ffff808316818103613e8d57613e8d613c6a565b60608152600061402160608301866136e1565b61ffff85166020840152828103604084015261325781856136e1565b8082018082111561094357610943613c6a565b6000808335601e1984360301811261406757600080fd5b83018035915067ffffffffffffffff82111561408257600080fd5b60200191503681900382131561100557600080fd5b600080858511156140a757600080fd5b838611156140b457600080fd5b5050820193919092039150565b8035602083101561094357600019602084900360031b1b1692915050565b6000600182016140f1576140f1613c6a565b5060010190565b634e487b7160e01b600052600160045260246000fdfe416464726573733a206c6f772d6c6576656c2064656c65676174652063616c6c206661696c6564a264697066735822122010099458684fb48ad38c646845de2e82b477a5a9f6590e8c199e0205caf4bfbb64736f6c63430008110033","opcodes":"PUSH1 0xA0 PUSH1 0x40 MSTORE ADDRESS PUSH1 0x80 MSTORE CALLVALUE DUP1 ISZERO PUSH3 0x15 JUMPI PUSH1 0x0 DUP1 REVERT JUMPDEST POP PUSH3 0x20 PUSH3 0x26 JUMP JUMPDEST PUSH3 0xE7 JUMP JUMPDEST PUSH1 0x0 SLOAD PUSH2 0x100 SWAP1 DIV PUSH1 0xFF AND ISZERO PUSH3 0x93 JUMPI PUSH1 0x40 MLOAD PUSH3 0x461BCD PUSH1 0xE5 SHL DUP2 MSTORE PUSH1 0x20 PUSH1 0x4 DUP3 ADD MSTORE PUSH1 0x27 PUSH1 0x24 DUP3 ADD MSTORE PUSH32 0x496E697469616C697A61626C653A20636F6E747261637420697320696E697469 PUSH1 0x44 DUP3 ADD MSTORE PUSH7 0x616C697A696E67 PUSH1 0xC8 SHL PUSH1 0x64 DUP3 ADD MSTORE PUSH1 0x84 ADD PUSH1 0x40 MLOAD DUP1 SWAP2 SUB SWAP1 REVERT JUMPDEST PUSH1 0x0 SLOAD PUSH1 0xFF SWAP1 DUP2 AND EQ PUSH3 0xE5 JUMPI PUSH1 0x0 DUP1 SLOAD PUSH1 0xFF NOT AND PUSH1 0xFF SWAP1 DUP2 OR SWAP1 SWAP2 SSTORE PUSH1 0x40 MLOAD SWAP1 DUP2 MSTORE PUSH32 0x7F26B83FF96E1F2B6A682F133852F6798A09C465DA95921460CEFB3847402498 SWAP1 PUSH1 0x20 ADD PUSH1 0x40 MLOAD DUP1 SWAP2 SUB SWAP1 LOG1 JUMPDEST JUMP JUMPDEST PUSH1 0x80 MLOAD PUSH2 0x416B PUSH3 0x11F PUSH1 0x0 CODECOPY PUSH1 0x0 DUP2 DUP2 PUSH2 0x11D5 ADD MSTORE DUP2 DUP2 PUSH2 0x1270 ADD MSTORE DUP2 DUP2 PUSH2 0x13A9 ADD MSTORE DUP2 DUP2 PUSH2 0x143F ADD MSTORE PUSH2 0x153A ADD MSTORE PUSH2 0x416B PUSH1 0x0 RETURN INVALID PUSH1 0x80 PUSH1 0x40 MSTORE PUSH1 0x4 CALLDATASIZE LT PUSH2 0x2C6 JUMPI PUSH1 0x0 CALLDATALOAD PUSH1 0xE0 SHR DUP1 PUSH4 0x715018A6 GT PUSH2 0x179 JUMPI DUP1 PUSH4 0xBC1C58D1 GT PUSH2 0xD6 JUMPI DUP1 PUSH4 0xE32954EB GT PUSH2 0x8A JUMPI DUP1 PUSH4 0xF1CB7E06 GT PUSH2 0x64 JUMPI DUP1 PUSH4 0xF1CB7E06 EQ PUSH2 0x8D8 JUMPI DUP1 PUSH4 0xF2FDE38B EQ PUSH2 0x8F8 JUMPI DUP1 PUSH4 0xF8C8765E EQ PUSH2 0x918 JUMPI PUSH1 0x0 DUP1 REVERT JUMPDEST DUP1 PUSH4 0xE32954EB EQ PUSH2 0x84F JUMPI DUP1 PUSH4 0xE59D895D EQ PUSH2 0x86F JUMPI DUP1 PUSH4 0xE985E9C5 EQ PUSH2 0x88F JUMPI PUSH1 0x0 DUP1 REVERT JUMPDEST DUP1 PUSH4 0xCE3DECDC GT PUSH2 0xBB JUMPI DUP1 PUSH4 0xCE3DECDC EQ PUSH2 0x7BF JUMPI DUP1 PUSH4 0xD5FA2B00 EQ PUSH2 0x7DF JUMPI DUP1 PUSH4 0xD700FF33 EQ PUSH2 0x7FF JUMPI PUSH1 0x0 DUP1 REVERT JUMPDEST DUP1 PUSH4 0xBC1C58D1 EQ PUSH2 0x737 JUMPI DUP1 PUSH4 0xC8690233 EQ PUSH2 0x757 JUMPI PUSH1 0x0 DUP1 REVERT JUMPDEST DUP1 PUSH4 0xA4B91A01 GT PUSH2 0x12D JUMPI DUP1 PUSH4 0xA8FA5682 GT PUSH2 0x112 JUMPI DUP1 PUSH4 0xA8FA5682 EQ PUSH2 0x699 JUMPI DUP1 PUSH4 0xA9784B3E EQ PUSH2 0x6B9 JUMPI DUP1 PUSH4 0xAC9650D8 EQ PUSH2 0x70A JUMPI PUSH1 0x0 DUP1 REVERT JUMPDEST DUP1 PUSH4 0xA4B91A01 EQ PUSH2 0x659 JUMPI DUP1 PUSH4 0xA8E5FBC0 EQ PUSH2 0x679 JUMPI PUSH1 0x0 DUP1 REVERT JUMPDEST DUP1 PUSH4 0x8B95DD71 GT PUSH2 0x15E JUMPI DUP1 PUSH4 0x8B95DD71 EQ PUSH2 0x5FB JUMPI DUP1 PUSH4 0x8DA5CB5B EQ PUSH2 0x61B JUMPI DUP1 PUSH4 0xA22CB465 EQ PUSH2 0x639 JUMPI PUSH1 0x0 DUP1 REVERT JUMPDEST DUP1 PUSH4 0x715018A6 EQ PUSH2 0x5C6 JUMPI DUP1 PUSH4 0x77372213 EQ PUSH2 0x5DB JUMPI PUSH1 0x0 DUP1 REVERT JUMPDEST DUP1 PUSH4 0x3B3B57DE GT PUSH2 0x227 JUMPI DUP1 PUSH4 0x59D1D43C GT PUSH2 0x1DB JUMPI DUP1 PUSH4 0x623195B0 GT PUSH2 0x1C0 JUMPI DUP1 PUSH4 0x623195B0 EQ PUSH2 0x566 JUMPI DUP1 PUSH4 0x62C50A13 EQ PUSH2 0x586 JUMPI DUP1 PUSH4 0x691F3431 EQ PUSH2 0x5A6 JUMPI PUSH1 0x0 DUP1 REVERT JUMPDEST DUP1 PUSH4 0x59D1D43C EQ PUSH2 0x519 JUMPI DUP1 PUSH4 0x5C98042B EQ PUSH2 0x546 JUMPI PUSH1 0x0 DUP1 REVERT JUMPDEST DUP1 PUSH4 0x4CBF6BA4 GT PUSH2 0x20C JUMPI DUP1 PUSH4 0x4CBF6BA4 EQ PUSH2 0x488 JUMPI DUP1 PUSH4 0x4F1EF286 EQ PUSH2 0x4E3 JUMPI DUP1 PUSH4 0x52D1902D EQ PUSH2 0x4F6 JUMPI PUSH1 0x0 DUP1 REVERT JUMPDEST DUP1 PUSH4 0x3B3B57DE EQ PUSH2 0x448 JUMPI DUP1 PUSH4 0x3F15457F EQ PUSH2 0x468 JUMPI PUSH1 0x0 DUP1 REVERT JUMPDEST DUP1 PUSH4 0x29CD62EA GT PUSH2 0x27E JUMPI DUP1 PUSH4 0x3603D758 GT PUSH2 0x263 JUMPI DUP1 PUSH4 0x3603D758 EQ PUSH2 0x3E8 JUMPI DUP1 PUSH4 0x3659CFE6 EQ PUSH2 0x408 JUMPI DUP1 PUSH4 0x37BF7A2F EQ PUSH2 0x428 JUMPI PUSH1 0x0 DUP1 REVERT JUMPDEST DUP1 PUSH4 0x29CD62EA EQ PUSH2 0x3A8 JUMPI DUP1 PUSH4 0x304E6ADE EQ PUSH2 0x3C8 JUMPI PUSH1 0x0 DUP1 REVERT JUMPDEST DUP1 PUSH4 0x10F13A8C GT PUSH2 0x2AF JUMPI DUP1 PUSH4 0x10F13A8C EQ PUSH2 0x322 JUMPI DUP1 PUSH4 0x124A319C EQ PUSH2 0x342 JUMPI DUP1 PUSH4 0x2203AB56 EQ PUSH2 0x37A JUMPI PUSH1 0x0 DUP1 REVERT JUMPDEST DUP1 PUSH4 0x1FFC9A7 EQ PUSH2 0x2CB JUMPI DUP1 PUSH4 0xAF179D7 EQ PUSH2 0x300 JUMPI JUMPDEST PUSH1 0x0 DUP1 REVERT JUMPDEST CALLVALUE DUP1 ISZERO PUSH2 0x2D7 JUMPI PUSH1 0x0 DUP1 REVERT JUMPDEST POP PUSH2 0x2EB PUSH2 0x2E6 CALLDATASIZE PUSH1 0x4 PUSH2 0x354C JUMP JUMPDEST PUSH2 0x938 JUMP JUMPDEST PUSH1 0x40 MLOAD SWAP1 ISZERO ISZERO DUP2 MSTORE PUSH1 0x20 ADD JUMPDEST PUSH1 0x40 MLOAD DUP1 SWAP2 SUB SWAP1 RETURN JUMPDEST CALLVALUE DUP1 ISZERO PUSH2 0x30C JUMPI PUSH1 0x0 DUP1 REVERT JUMPDEST POP PUSH2 0x320 PUSH2 0x31B CALLDATASIZE PUSH1 0x4 PUSH2 0x35A9 JUMP JUMPDEST PUSH2 0x949 JUMP JUMPDEST STOP JUMPDEST CALLVALUE DUP1 ISZERO PUSH2 0x32E JUMPI PUSH1 0x0 DUP1 REVERT JUMPDEST POP PUSH2 0x320 PUSH2 0x33D CALLDATASIZE PUSH1 0x4 PUSH2 0x35F5 JUMP JUMPDEST PUSH2 0xB55 JUMP JUMPDEST CALLVALUE DUP1 ISZERO PUSH2 0x34E JUMPI PUSH1 0x0 DUP1 REVERT JUMPDEST POP PUSH2 0x362 PUSH2 0x35D CALLDATASIZE PUSH1 0x4 PUSH2 0x366F JUMP JUMPDEST PUSH2 0xC24 JUMP JUMPDEST PUSH1 0x40 MLOAD PUSH1 0x1 PUSH1 0x1 PUSH1 0xA0 SHL SUB SWAP1 SWAP2 AND DUP2 MSTORE PUSH1 0x20 ADD PUSH2 0x2F7 JUMP JUMPDEST CALLVALUE DUP1 ISZERO PUSH2 0x386 JUMPI PUSH1 0x0 DUP1 REVERT JUMPDEST POP PUSH2 0x39A PUSH2 0x395 CALLDATASIZE PUSH1 0x4 PUSH2 0x369B JUMP JUMPDEST PUSH2 0xED2 JUMP JUMPDEST PUSH1 0x40 MLOAD PUSH2 0x2F7 SWAP3 SWAP2 SWAP1 PUSH2 0x370D JUMP JUMPDEST CALLVALUE DUP1 ISZERO PUSH2 0x3B4 JUMPI PUSH1 0x0 DUP1 REVERT JUMPDEST POP PUSH2 0x320 PUSH2 0x3C3 CALLDATASIZE PUSH1 0x4 PUSH2 0x3726 JUMP JUMPDEST PUSH2 0x100C JUMP JUMPDEST CALLVALUE DUP1 ISZERO PUSH2 0x3D4 JUMPI PUSH1 0x0 DUP1 REVERT JUMPDEST POP PUSH2 0x320 PUSH2 0x3E3 CALLDATASIZE PUSH1 0x4 PUSH2 0x35A9 JUMP JUMPDEST PUSH2 0x10A8 JUMP JUMPDEST CALLVALUE DUP1 ISZERO PUSH2 0x3F4 JUMPI PUSH1 0x0 DUP1 REVERT JUMPDEST POP PUSH2 0x320 PUSH2 0x403 CALLDATASIZE PUSH1 0x4 PUSH2 0x3752 JUMP JUMPDEST PUSH2 0x1126 JUMP JUMPDEST CALLVALUE DUP1 ISZERO PUSH2 0x414 JUMPI PUSH1 0x0 DUP1 REVERT JUMPDEST POP PUSH2 0x320 PUSH2 0x423 CALLDATASIZE PUSH1 0x4 PUSH2 0x3780 JUMP JUMPDEST PUSH2 0x11CB JUMP JUMPDEST CALLVALUE DUP1 ISZERO PUSH2 0x434 JUMPI PUSH1 0x0 DUP1 REVERT JUMPDEST POP PUSH1 0xD6 SLOAD PUSH2 0x362 SWAP1 PUSH1 0x1 PUSH1 0x1 PUSH1 0xA0 SHL SUB AND DUP2 JUMP JUMPDEST CALLVALUE DUP1 ISZERO PUSH2 0x454 JUMPI PUSH1 0x0 DUP1 REVERT JUMPDEST POP PUSH2 0x362 PUSH2 0x463 CALLDATASIZE PUSH1 0x4 PUSH2 0x3752 JUMP JUMPDEST PUSH2 0x136D JUMP JUMPDEST CALLVALUE DUP1 ISZERO PUSH2 0x474 JUMPI PUSH1 0x0 DUP1 REVERT JUMPDEST POP PUSH1 0xD4 SLOAD PUSH2 0x362 SWAP1 PUSH1 0x1 PUSH1 0x1 PUSH1 0xA0 SHL SUB AND DUP2 JUMP JUMPDEST CALLVALUE DUP1 ISZERO PUSH2 0x494 JUMPI PUSH1 0x0 DUP1 REVERT JUMPDEST POP PUSH2 0x2EB PUSH2 0x4A3 CALLDATASIZE PUSH1 0x4 PUSH2 0x369B JUMP JUMPDEST PUSH1 0x0 DUP3 DUP2 MSTORE PUSH1 0xC9 PUSH1 0x20 SWAP1 DUP2 MSTORE PUSH1 0x40 DUP1 DUP4 KECCAK256 SLOAD PUSH8 0xFFFFFFFFFFFFFFFF AND DUP4 MSTORE PUSH1 0xCF DUP3 MSTORE DUP1 DUP4 KECCAK256 SWAP5 DUP4 MSTORE SWAP4 DUP2 MSTORE DUP4 DUP3 KECCAK256 SWAP3 DUP3 MSTORE SWAP2 SWAP1 SWAP2 MSTORE KECCAK256 SLOAD PUSH2 0xFFFF AND ISZERO ISZERO SWAP1 JUMP JUMPDEST PUSH2 0x320 PUSH2 0x4F1 CALLDATASIZE PUSH1 0x4 PUSH2 0x3840 JUMP JUMPDEST PUSH2 0x139F JUMP JUMPDEST CALLVALUE DUP1 ISZERO PUSH2 0x502 JUMPI PUSH1 0x0 DUP1 REVERT JUMPDEST POP PUSH2 0x50B PUSH2 0x152D JUMP JUMPDEST PUSH1 0x40 MLOAD SWAP1 DUP2 MSTORE PUSH1 0x20 ADD PUSH2 0x2F7 JUMP JUMPDEST CALLVALUE DUP1 ISZERO PUSH2 0x525 JUMPI PUSH1 0x0 DUP1 REVERT JUMPDEST POP PUSH2 0x539 PUSH2 0x534 CALLDATASIZE PUSH1 0x4 PUSH2 0x35A9 JUMP JUMPDEST PUSH2 0x15F2 JUMP JUMPDEST PUSH1 0x40 MLOAD PUSH2 0x2F7 SWAP2 SWAP1 PUSH2 0x3890 JUMP JUMPDEST CALLVALUE DUP1 ISZERO PUSH2 0x552 JUMPI PUSH1 0x0 DUP1 REVERT JUMPDEST POP PUSH2 0x539 PUSH2 0x561 CALLDATASIZE PUSH1 0x4 PUSH2 0x3752 JUMP JUMPDEST PUSH2 0x16D4 JUMP JUMPDEST CALLVALUE DUP1 ISZERO PUSH2 0x572 JUMPI PUSH1 0x0 DUP1 REVERT JUMPDEST POP PUSH2 0x320 PUSH2 0x581 CALLDATASIZE PUSH1 0x4 PUSH2 0x38A3 JUMP JUMPDEST PUSH2 0x1795 JUMP JUMPDEST CALLVALUE DUP1 ISZERO PUSH2 0x592 JUMPI PUSH1 0x0 DUP1 REVERT JUMPDEST POP PUSH1 0xD7 SLOAD PUSH2 0x362 SWAP1 PUSH1 0x1 PUSH1 0x1 PUSH1 0xA0 SHL SUB AND DUP2 JUMP JUMPDEST CALLVALUE DUP1 ISZERO PUSH2 0x5B2 JUMPI PUSH1 0x0 DUP1 REVERT JUMPDEST POP PUSH2 0x539 PUSH2 0x5C1 CALLDATASIZE PUSH1 0x4 PUSH2 0x3752 JUMP JUMPDEST PUSH2 0x1834 JUMP JUMPDEST CALLVALUE DUP1 ISZERO PUSH2 0x5D2 JUMPI PUSH1 0x0 DUP1 REVERT JUMPDEST POP PUSH2 0x320 PUSH2 0x1870 JUMP JUMPDEST CALLVALUE DUP1 ISZERO PUSH2 0x5E7 JUMPI PUSH1 0x0 DUP1 REVERT JUMPDEST POP PUSH2 0x320 PUSH2 0x5F6 CALLDATASIZE PUSH1 0x4 PUSH2 0x35A9 JUMP JUMPDEST PUSH2 0x1884 JUMP JUMPDEST CALLVALUE DUP1 ISZERO PUSH2 0x607 JUMPI PUSH1 0x0 DUP1 REVERT JUMPDEST POP PUSH2 0x320 PUSH2 0x616 CALLDATASIZE PUSH1 0x4 PUSH2 0x38F6 JUMP JUMPDEST PUSH2 0x1902 JUMP JUMPDEST CALLVALUE DUP1 ISZERO PUSH2 0x627 JUMPI PUSH1 0x0 DUP1 REVERT JUMPDEST POP PUSH1 0x97 SLOAD PUSH1 0x1 PUSH1 0x1 PUSH1 0xA0 SHL SUB AND PUSH2 0x362 JUMP JUMPDEST CALLVALUE DUP1 ISZERO PUSH2 0x645 JUMPI PUSH1 0x0 DUP1 REVERT JUMPDEST POP PUSH2 0x320 PUSH2 0x654 CALLDATASIZE PUSH1 0x4 PUSH2 0x3956 JUMP JUMPDEST PUSH2 0x19E4 JUMP JUMPDEST CALLVALUE DUP1 ISZERO PUSH2 0x665 JUMPI PUSH1 0x0 DUP1 REVERT JUMPDEST POP PUSH2 0x320 PUSH2 0x674 CALLDATASIZE PUSH1 0x4 PUSH2 0x3982 JUMP JUMPDEST PUSH2 0x1ACE JUMP JUMPDEST CALLVALUE DUP1 ISZERO PUSH2 0x685 JUMPI PUSH1 0x0 DUP1 REVERT JUMPDEST POP PUSH1 0xD5 SLOAD PUSH2 0x362 SWAP1 PUSH1 0x1 PUSH1 0x1 PUSH1 0xA0 SHL SUB AND DUP2 JUMP JUMPDEST CALLVALUE DUP1 ISZERO PUSH2 0x6A5 JUMPI PUSH1 0x0 DUP1 REVERT JUMPDEST POP PUSH2 0x539 PUSH2 0x6B4 CALLDATASIZE PUSH1 0x4 PUSH2 0x39C0 JUMP JUMPDEST PUSH2 0x1B9B JUMP JUMPDEST CALLVALUE DUP1 ISZERO PUSH2 0x6C5 JUMPI PUSH1 0x0 DUP1 REVERT JUMPDEST POP PUSH2 0x2EB PUSH2 0x6D4 CALLDATASIZE PUSH1 0x4 PUSH2 0x3A00 JUMP JUMPDEST PUSH1 0x1 PUSH1 0x1 PUSH1 0xA0 SHL SUB SWAP3 DUP4 AND PUSH1 0x0 SWAP1 DUP2 MSTORE PUSH1 0xD9 PUSH1 0x20 SWAP1 DUP2 MSTORE PUSH1 0x40 DUP1 DUP4 KECCAK256 SWAP5 DUP4 MSTORE SWAP4 DUP2 MSTORE DUP4 DUP3 KECCAK256 SWAP3 SWAP1 SWAP5 AND DUP2 MSTORE SWAP3 MSTORE SWAP1 KECCAK256 SLOAD PUSH1 0xFF AND SWAP1 JUMP JUMPDEST CALLVALUE DUP1 ISZERO PUSH2 0x716 JUMPI PUSH1 0x0 DUP1 REVERT JUMPDEST POP PUSH2 0x72A PUSH2 0x725 CALLDATASIZE PUSH1 0x4 PUSH2 0x3A7C JUMP JUMPDEST PUSH2 0x1BEB JUMP JUMPDEST PUSH1 0x40 MLOAD PUSH2 0x2F7 SWAP2 SWAP1 PUSH2 0x3ABE JUMP JUMPDEST CALLVALUE DUP1 ISZERO PUSH2 0x743 JUMPI PUSH1 0x0 DUP1 REVERT JUMPDEST POP PUSH2 0x539 PUSH2 0x752 CALLDATASIZE PUSH1 0x4 PUSH2 0x3752 JUMP JUMPDEST PUSH2 0x1BF9 JUMP JUMPDEST CALLVALUE DUP1 ISZERO PUSH2 0x763 JUMPI PUSH1 0x0 DUP1 REVERT JUMPDEST POP PUSH2 0x7AA PUSH2 0x772 CALLDATASIZE PUSH1 0x4 PUSH2 0x3752 JUMP JUMPDEST PUSH1 0x0 DUP2 DUP2 MSTORE PUSH1 0xC9 PUSH1 0x20 SWAP1 DUP2 MSTORE PUSH1 0x40 DUP1 DUP4 KECCAK256 SLOAD PUSH8 0xFFFFFFFFFFFFFFFF AND DUP4 MSTORE PUSH1 0xD2 DUP3 MSTORE DUP1 DUP4 KECCAK256 SWAP4 DUP4 MSTORE SWAP3 SWAP1 MSTORE KECCAK256 DUP1 SLOAD PUSH1 0x1 SWAP1 SWAP2 ADD SLOAD SWAP1 SWAP2 JUMP JUMPDEST PUSH1 0x40 DUP1 MLOAD SWAP3 DUP4 MSTORE PUSH1 0x20 DUP4 ADD SWAP2 SWAP1 SWAP2 MSTORE ADD PUSH2 0x2F7 JUMP JUMPDEST CALLVALUE DUP1 ISZERO PUSH2 0x7CB JUMPI PUSH1 0x0 DUP1 REVERT JUMPDEST POP PUSH2 0x320 PUSH2 0x7DA CALLDATASIZE PUSH1 0x4 PUSH2 0x35A9 JUMP JUMPDEST PUSH2 0x1C35 JUMP JUMPDEST CALLVALUE DUP1 ISZERO PUSH2 0x7EB JUMPI PUSH1 0x0 DUP1 REVERT JUMPDEST POP PUSH2 0x320 PUSH2 0x7FA CALLDATASIZE PUSH1 0x4 PUSH2 0x3B20 JUMP JUMPDEST PUSH2 0x1D7A JUMP JUMPDEST CALLVALUE DUP1 ISZERO PUSH2 0x80B JUMPI PUSH1 0x0 DUP1 REVERT JUMPDEST POP PUSH2 0x836 PUSH2 0x81A CALLDATASIZE PUSH1 0x4 PUSH2 0x3752 JUMP JUMPDEST PUSH1 0xC9 PUSH1 0x20 MSTORE PUSH1 0x0 SWAP1 DUP2 MSTORE PUSH1 0x40 SWAP1 KECCAK256 SLOAD PUSH8 0xFFFFFFFFFFFFFFFF AND DUP2 JUMP JUMPDEST PUSH1 0x40 MLOAD PUSH8 0xFFFFFFFFFFFFFFFF SWAP1 SWAP2 AND DUP2 MSTORE PUSH1 0x20 ADD PUSH2 0x2F7 JUMP JUMPDEST CALLVALUE DUP1 ISZERO PUSH2 0x85B JUMPI PUSH1 0x0 DUP1 REVERT JUMPDEST POP PUSH2 0x72A PUSH2 0x86A CALLDATASIZE PUSH1 0x4 PUSH2 0x3B50 JUMP JUMPDEST PUSH2 0x1DA1 JUMP JUMPDEST CALLVALUE DUP1 ISZERO PUSH2 0x87B JUMPI PUSH1 0x0 DUP1 REVERT JUMPDEST POP PUSH2 0x320 PUSH2 0x88A CALLDATASIZE PUSH1 0x4 PUSH2 0x3B8F JUMP JUMPDEST PUSH2 0x1DB6 JUMP JUMPDEST CALLVALUE DUP1 ISZERO PUSH2 0x89B JUMPI PUSH1 0x0 DUP1 REVERT JUMPDEST POP PUSH2 0x2EB PUSH2 0x8AA CALLDATASIZE PUSH1 0x4 PUSH2 0x3BC4 JUMP JUMPDEST PUSH1 0x1 PUSH1 0x1 PUSH1 0xA0 SHL SUB SWAP2 DUP3 AND PUSH1 0x0 SWAP1 DUP2 MSTORE PUSH1 0xD8 PUSH1 0x20 SWAP1 DUP2 MSTORE PUSH1 0x40 DUP1 DUP4 KECCAK256 SWAP4 SWAP1 SWAP5 AND DUP3 MSTORE SWAP2 SWAP1 SWAP2 MSTORE KECCAK256 SLOAD PUSH1 0xFF AND SWAP1 JUMP JUMPDEST CALLVALUE DUP1 ISZERO PUSH2 0x8E4 JUMPI PUSH1 0x0 DUP1 REVERT JUMPDEST POP PUSH2 0x539 PUSH2 0x8F3 CALLDATASIZE PUSH1 0x4 PUSH2 0x369B JUMP JUMPDEST PUSH2 0x1E6C JUMP JUMPDEST CALLVALUE DUP1 ISZERO PUSH2 0x904 JUMPI PUSH1 0x0 DUP1 REVERT JUMPDEST POP PUSH2 0x320 PUSH2 0x913 CALLDATASIZE PUSH1 0x4 PUSH2 0x3780 JUMP JUMPDEST PUSH2 0x1F36 JUMP JUMPDEST CALLVALUE DUP1 ISZERO PUSH2 0x924 JUMPI PUSH1 0x0 DUP1 REVERT JUMPDEST POP PUSH2 0x320 PUSH2 0x933 CALLDATASIZE PUSH1 0x4 PUSH2 0x3BF2 JUMP JUMPDEST PUSH2 0x1FC3 JUMP JUMPDEST PUSH1 0x0 PUSH2 0x943 DUP3 PUSH2 0x2244 JUMP JUMPDEST SWAP3 SWAP2 POP POP JUMP JUMPDEST DUP3 PUSH2 0x953 DUP2 PUSH2 0x2282 JUMP JUMPDEST PUSH2 0x95C JUMPI PUSH1 0x0 DUP1 REVERT JUMPDEST PUSH1 0x0 DUP5 DUP2 MSTORE PUSH1 0xC9 PUSH1 0x20 SWAP1 DUP2 MSTORE PUSH1 0x40 DUP1 DUP4 KECCAK256 SLOAD DUP2 MLOAD PUSH1 0x1F DUP8 ADD DUP5 SWAP1 DIV DUP5 MUL DUP2 ADD DUP5 ADD SWAP1 SWAP3 MSTORE DUP6 DUP3 MSTORE DUP4 SWAP3 PUSH1 0x60 SWAP3 DUP4 SWAP3 DUP6 SWAP3 PUSH8 0xFFFFFFFFFFFFFFFF SWAP1 SWAP2 AND SWAP2 DUP4 SWAP2 PUSH2 0x9C4 SWAP2 DUP4 SWAP2 DUP14 SWAP1 DUP14 SWAP1 DUP2 SWAP1 DUP5 ADD DUP4 DUP3 DUP1 DUP3 DUP5 CALLDATACOPY PUSH1 0x0 SWAP3 ADD SWAP2 SWAP1 SWAP2 MSTORE POP SWAP3 SWAP4 SWAP3 POP POP PUSH2 0x2439 SWAP1 POP JUMP JUMPDEST SWAP1 POP JUMPDEST DUP1 MLOAD MLOAD PUSH1 0x20 DUP3 ADD MLOAD LT ISZERO PUSH2 0xAEE JUMPI DUP7 PUSH2 0xFFFF AND PUSH1 0x0 SUB PUSH2 0xA2C JUMPI DUP1 PUSH1 0x40 ADD MLOAD SWAP7 POP PUSH2 0x9F1 DUP2 PUSH2 0x249A JUMP JUMPDEST SWAP5 POP DUP5 PUSH1 0x40 MLOAD PUSH1 0x20 ADD PUSH2 0xA04 SWAP2 SWAP1 PUSH2 0x3C4E JUMP JUMPDEST PUSH1 0x40 MLOAD PUSH1 0x20 DUP2 DUP4 SUB SUB DUP2 MSTORE SWAP1 PUSH1 0x40 MSTORE DUP1 MLOAD SWAP1 PUSH1 0x20 ADD KECCAK256 SWAP3 POP PUSH2 0xA25 DUP2 PUSH2 0x24BB JUMP JUMPDEST SWAP4 POP PUSH2 0xAE0 JUMP JUMPDEST PUSH1 0x0 PUSH2 0xA37 DUP3 PUSH2 0x249A JUMP JUMPDEST SWAP1 POP DUP2 PUSH1 0x40 ADD MLOAD PUSH2 0xFFFF AND DUP9 PUSH2 0xFFFF AND EQ ISZERO DUP1 PUSH2 0xA5B JUMPI POP PUSH2 0xA59 DUP7 DUP3 PUSH2 0x24D7 JUMP JUMPDEST ISZERO JUMPDEST ISZERO PUSH2 0xADE JUMPI PUSH2 0xAB7 DUP13 DUP8 DUP11 DUP15 DUP15 DUP1 DUP1 PUSH1 0x1F ADD PUSH1 0x20 DUP1 SWAP2 DIV MUL PUSH1 0x20 ADD PUSH1 0x40 MLOAD SWAP1 DUP2 ADD PUSH1 0x40 MSTORE DUP1 SWAP4 SWAP3 SWAP2 SWAP1 DUP2 DUP2 MSTORE PUSH1 0x20 ADD DUP4 DUP4 DUP1 DUP3 DUP5 CALLDATACOPY PUSH1 0x0 SWAP3 ADD SWAP2 SWAP1 SWAP2 MSTORE POP POP POP PUSH1 0x20 DUP9 ADD MLOAD DUP14 SWAP2 POP PUSH2 0xAAE SWAP1 DUP3 SWAP1 PUSH2 0x3C80 JUMP JUMPDEST DUP12 MLOAD ISZERO DUP11 PUSH2 0x24F5 JUMP JUMPDEST DUP2 PUSH1 0x40 ADD MLOAD SWAP8 POP DUP2 PUSH1 0x20 ADD MLOAD SWAP7 POP DUP1 SWAP6 POP DUP6 DUP1 MLOAD SWAP1 PUSH1 0x20 ADD KECCAK256 SWAP4 POP PUSH2 0xADB DUP3 PUSH2 0x24BB JUMP JUMPDEST SWAP5 POP JUMPDEST POP JUMPDEST PUSH2 0xAE9 DUP2 PUSH2 0x2762 JUMP JUMPDEST PUSH2 0x9C7 JUMP JUMPDEST POP DUP4 MLOAD ISZERO PUSH2 0xB49 JUMPI PUSH2 0xB49 DUP11 DUP6 DUP9 DUP13 DUP13 DUP1 DUP1 PUSH1 0x1F ADD PUSH1 0x20 DUP1 SWAP2 DIV MUL PUSH1 0x20 ADD PUSH1 0x40 MLOAD SWAP1 DUP2 ADD PUSH1 0x40 MSTORE DUP1 SWAP4 SWAP3 SWAP2 SWAP1 DUP2 DUP2 MSTORE PUSH1 0x20 ADD DUP4 DUP4 DUP1 DUP3 DUP5 CALLDATACOPY PUSH1 0x0 SWAP3 ADD SWAP2 SWAP1 SWAP2 MSTORE POP DUP13 SWAP3 POP PUSH2 0xB40 SWAP2 POP DUP3 SWAP1 POP DUP16 PUSH2 0x3C80 JUMP JUMPDEST DUP10 MLOAD ISZERO DUP9 PUSH2 0x24F5 JUMP JUMPDEST POP POP POP POP POP POP POP POP POP POP JUMP JUMPDEST DUP5 PUSH2 0xB5F DUP2 PUSH2 0x2282 JUMP JUMPDEST PUSH2 0xB68 JUMPI PUSH1 0x0 DUP1 REVERT JUMPDEST PUSH1 0x0 DUP7 DUP2 MSTORE PUSH1 0xC9 PUSH1 0x20 SWAP1 DUP2 MSTORE PUSH1 0x40 DUP1 DUP4 KECCAK256 SLOAD PUSH8 0xFFFFFFFFFFFFFFFF AND DUP4 MSTORE PUSH1 0xD3 DUP3 MSTORE DUP1 DUP4 KECCAK256 DUP10 DUP5 MSTORE SWAP1 SWAP2 MSTORE SWAP1 DUP2 SWAP1 KECCAK256 SWAP1 MLOAD DUP5 SWAP2 DUP5 SWAP2 PUSH2 0xBAA SWAP1 DUP10 SWAP1 DUP10 SWAP1 PUSH2 0x3C93 JUMP JUMPDEST SWAP1 DUP2 MSTORE PUSH1 0x20 ADD PUSH1 0x40 MLOAD DUP1 SWAP2 SUB SWAP1 KECCAK256 SWAP2 DUP3 PUSH2 0xBC5 SWAP3 SWAP2 SWAP1 PUSH2 0x3D2B JUMP JUMPDEST POP DUP5 DUP5 PUSH1 0x40 MLOAD PUSH2 0xBD6 SWAP3 SWAP2 SWAP1 PUSH2 0x3C93 JUMP JUMPDEST PUSH1 0x40 MLOAD DUP1 SWAP2 SUB SWAP1 KECCAK256 DUP7 PUSH32 0x448BC014F1536726CF8D54FF3D6481ED3CBC683C2591CA204274009AFA09B1A1 DUP8 DUP8 DUP8 DUP8 PUSH1 0x40 MLOAD PUSH2 0xC14 SWAP5 SWAP4 SWAP3 SWAP2 SWAP1 PUSH2 0x3E14 JUMP JUMPDEST PUSH1 0x40 MLOAD DUP1 SWAP2 SUB SWAP1 LOG3 POP POP POP POP POP POP JUMP JUMPDEST PUSH1 0x0 DUP3 DUP2 MSTORE PUSH1 0xC9 PUSH1 0x20 SWAP1 DUP2 MSTORE PUSH1 0x40 DUP1 DUP4 KECCAK256 SLOAD PUSH8 0xFFFFFFFFFFFFFFFF AND DUP4 MSTORE PUSH1 0xD0 DUP3 MSTORE DUP1 DUP4 KECCAK256 DUP6 DUP5 MSTORE DUP3 MSTORE DUP1 DUP4 KECCAK256 PUSH1 0x1 PUSH1 0x1 PUSH1 0xE0 SHL SUB NOT DUP6 AND DUP5 MSTORE SWAP1 SWAP2 MSTORE DUP2 KECCAK256 SLOAD PUSH1 0x1 PUSH1 0x1 PUSH1 0xA0 SHL SUB AND DUP1 ISZERO PUSH2 0xC7A JUMPI SWAP1 POP PUSH2 0x943 JUMP JUMPDEST PUSH1 0x0 PUSH2 0xC85 DUP6 PUSH2 0x136D JUMP JUMPDEST SWAP1 POP PUSH1 0x1 PUSH1 0x1 PUSH1 0xA0 SHL SUB DUP2 AND PUSH2 0xCA0 JUMPI PUSH1 0x0 SWAP3 POP POP POP PUSH2 0x943 JUMP JUMPDEST PUSH1 0x40 MLOAD PUSH4 0x1FFC9A7 PUSH1 0xE0 SHL PUSH1 0x24 DUP3 ADD MSTORE PUSH1 0x0 SWAP1 DUP2 SWAP1 PUSH1 0x1 PUSH1 0x1 PUSH1 0xA0 SHL SUB DUP5 AND SWAP1 PUSH1 0x44 ADD PUSH1 0x40 DUP1 MLOAD PUSH1 0x1F NOT DUP2 DUP5 SUB ADD DUP2 MSTORE SWAP2 DUP2 MSTORE PUSH1 0x20 DUP3 ADD DUP1 MLOAD PUSH28 0xFFFFFFFFFFFFFFFFFFFFFFFFFFFFFFFFFFFFFFFFFFFFFFFFFFFFFFFF AND PUSH4 0x1FFC9A7 PUSH1 0xE0 SHL OR SWAP1 MSTORE MLOAD PUSH2 0xD0D SWAP2 SWAP1 PUSH2 0x3C4E JUMP JUMPDEST PUSH1 0x0 PUSH1 0x40 MLOAD DUP1 DUP4 SUB DUP2 DUP6 GAS STATICCALL SWAP2 POP POP RETURNDATASIZE DUP1 PUSH1 0x0 DUP2 EQ PUSH2 0xD48 JUMPI PUSH1 0x40 MLOAD SWAP2 POP PUSH1 0x1F NOT PUSH1 0x3F RETURNDATASIZE ADD AND DUP3 ADD PUSH1 0x40 MSTORE RETURNDATASIZE DUP3 MSTORE RETURNDATASIZE PUSH1 0x0 PUSH1 0x20 DUP5 ADD RETURNDATACOPY PUSH2 0xD4D JUMP JUMPDEST PUSH1 0x60 SWAP2 POP JUMPDEST POP SWAP2 POP SWAP2 POP DUP2 ISZERO DUP1 PUSH2 0xD60 JUMPI POP PUSH1 0x20 DUP2 MLOAD LT JUMPDEST DUP1 PUSH2 0xDA2 JUMPI POP DUP1 PUSH1 0x1F DUP2 MLOAD DUP2 LT PUSH2 0xD79 JUMPI PUSH2 0xD79 PUSH2 0x3E46 JUMP JUMPDEST ADD PUSH1 0x20 ADD MLOAD PUSH32 0xFF00000000000000000000000000000000000000000000000000000000000000 AND ISZERO JUMPDEST ISZERO PUSH2 0xDB4 JUMPI PUSH1 0x0 SWAP5 POP POP POP POP POP PUSH2 0x943 JUMP JUMPDEST PUSH1 0x40 MLOAD PUSH1 0x1 PUSH1 0x1 PUSH1 0xE0 SHL SUB NOT DUP8 AND PUSH1 0x24 DUP3 ADD MSTORE PUSH1 0x1 PUSH1 0x1 PUSH1 0xA0 SHL SUB DUP5 AND SWAP1 PUSH1 0x44 ADD PUSH1 0x40 DUP1 MLOAD PUSH1 0x1F NOT DUP2 DUP5 SUB ADD DUP2 MSTORE SWAP2 DUP2 MSTORE PUSH1 0x20 DUP3 ADD DUP1 MLOAD PUSH28 0xFFFFFFFFFFFFFFFFFFFFFFFFFFFFFFFFFFFFFFFFFFFFFFFFFFFFFFFF AND PUSH4 0x1FFC9A7 PUSH1 0xE0 SHL OR SWAP1 MSTORE MLOAD PUSH2 0xE1F SWAP2 SWAP1 PUSH2 0x3C4E JUMP JUMPDEST PUSH1 0x0 PUSH1 0x40 MLOAD DUP1 DUP4 SUB DUP2 DUP6 GAS STATICCALL SWAP2 POP POP RETURNDATASIZE DUP1 PUSH1 0x0 DUP2 EQ PUSH2 0xE5A JUMPI PUSH1 0x40 MLOAD SWAP2 POP PUSH1 0x1F NOT PUSH1 0x3F RETURNDATASIZE ADD AND DUP3 ADD PUSH1 0x40 MSTORE RETURNDATASIZE DUP3 MSTORE RETURNDATASIZE PUSH1 0x0 PUSH1 0x20 DUP5 ADD RETURNDATACOPY PUSH2 0xE5F JUMP JUMPDEST PUSH1 0x60 SWAP2 POP JUMPDEST POP SWAP1 SWAP3 POP SWAP1 POP DUP2 ISZERO DUP1 PUSH2 0xE73 JUMPI POP PUSH1 0x20 DUP2 MLOAD LT JUMPDEST DUP1 PUSH2 0xEB5 JUMPI POP DUP1 PUSH1 0x1F DUP2 MLOAD DUP2 LT PUSH2 0xE8C JUMPI PUSH2 0xE8C PUSH2 0x3E46 JUMP JUMPDEST ADD PUSH1 0x20 ADD MLOAD PUSH32 0xFF00000000000000000000000000000000000000000000000000000000000000 AND ISZERO JUMPDEST ISZERO PUSH2 0xEC7 JUMPI PUSH1 0x0 SWAP5 POP POP POP POP POP PUSH2 0x943 JUMP JUMPDEST POP SWAP1 SWAP6 SWAP5 POP POP POP POP POP JUMP JUMPDEST PUSH1 0x0 DUP3 DUP2 MSTORE PUSH1 0xC9 PUSH1 0x20 SWAP1 DUP2 MSTORE PUSH1 0x40 DUP1 DUP4 KECCAK256 SLOAD PUSH8 0xFFFFFFFFFFFFFFFF AND DUP4 MSTORE PUSH1 0xCA DUP3 MSTORE DUP1 DUP4 KECCAK256 DUP6 DUP5 MSTORE SWAP1 SWAP2 MSTORE DUP2 KECCAK256 PUSH1 0x60 SWAP1 PUSH1 0x1 JUMPDEST DUP5 DUP2 GT PUSH2 0xFEC JUMPI DUP1 DUP6 AND ISZERO DUP1 ISZERO SWAP1 PUSH2 0xF35 JUMPI POP PUSH1 0x0 DUP2 DUP2 MSTORE PUSH1 0x20 DUP4 SWAP1 MSTORE PUSH1 0x40 DUP2 KECCAK256 DUP1 SLOAD PUSH2 0xF31 SWAP1 PUSH2 0x3CA3 JUMP JUMPDEST SWAP1 POP GT JUMPDEST ISZERO PUSH2 0xFE4 JUMPI DUP1 DUP3 PUSH1 0x0 DUP4 DUP2 MSTORE PUSH1 0x20 ADD SWAP1 DUP2 MSTORE PUSH1 0x20 ADD PUSH1 0x0 KECCAK256 DUP1 DUP1 SLOAD PUSH2 0xF59 SWAP1 PUSH2 0x3CA3 JUMP JUMPDEST DUP1 PUSH1 0x1F ADD PUSH1 0x20 DUP1 SWAP2 DIV MUL PUSH1 0x20 ADD PUSH1 0x40 MLOAD SWAP1 DUP2 ADD PUSH1 0x40 MSTORE DUP1 SWAP3 SWAP2 SWAP1 DUP2 DUP2 MSTORE PUSH1 0x20 ADD DUP3 DUP1 SLOAD PUSH2 0xF85 SWAP1 PUSH2 0x3CA3 JUMP JUMPDEST DUP1 ISZERO PUSH2 0xFD2 JUMPI DUP1 PUSH1 0x1F LT PUSH2 0xFA7 JUMPI PUSH2 0x100 DUP1 DUP4 SLOAD DIV MUL DUP4 MSTORE SWAP2 PUSH1 0x20 ADD SWAP2 PUSH2 0xFD2 JUMP JUMPDEST DUP3 ADD SWAP2 SWAP1 PUSH1 0x0 MSTORE PUSH1 0x20 PUSH1 0x0 KECCAK256 SWAP1 JUMPDEST DUP2 SLOAD DUP2 MSTORE SWAP1 PUSH1 0x1 ADD SWAP1 PUSH1 0x20 ADD DUP1 DUP4 GT PUSH2 0xFB5 JUMPI DUP3 SWAP1 SUB PUSH1 0x1F AND DUP3 ADD SWAP2 JUMPDEST POP POP POP POP POP SWAP1 POP SWAP4 POP SWAP4 POP POP POP PUSH2 0x1005 JUMP JUMPDEST PUSH1 0x1 SHL PUSH2 0xF05 JUMP JUMPDEST POP PUSH1 0x0 PUSH1 0x40 MLOAD DUP1 PUSH1 0x20 ADD PUSH1 0x40 MSTORE DUP1 PUSH1 0x0 DUP2 MSTORE POP SWAP3 POP SWAP3 POP POP JUMPDEST SWAP3 POP SWAP3 SWAP1 POP JUMP JUMPDEST DUP3 PUSH2 0x1016 DUP2 PUSH2 0x2282 JUMP JUMPDEST PUSH2 0x101F JUMPI PUSH1 0x0 DUP1 REVERT JUMPDEST PUSH1 0x40 DUP1 MLOAD DUP1 DUP3 ADD DUP3 MSTORE DUP5 DUP2 MSTORE PUSH1 0x20 DUP1 DUP3 ADD DUP6 DUP2 MSTORE PUSH1 0x0 DUP9 DUP2 MSTORE PUSH1 0xC9 DUP4 MSTORE DUP5 DUP2 KECCAK256 SLOAD PUSH8 0xFFFFFFFFFFFFFFFF AND DUP2 MSTORE PUSH1 0xD2 DUP4 MSTORE DUP5 DUP2 KECCAK256 DUP10 DUP3 MSTORE DUP4 MSTORE DUP5 SWAP1 KECCAK256 SWAP3 MLOAD DUP4 SSTORE MLOAD PUSH1 0x1 SWAP1 SWAP3 ADD SWAP2 SWAP1 SWAP2 SSTORE DUP2 MLOAD DUP6 DUP2 MSTORE SWAP1 DUP2 ADD DUP5 SWAP1 MSTORE DUP6 SWAP2 PUSH32 0x1D6F5E03D3F63EB58751986629A5439BAEE5079FF04F345BECB66E23EB154E46 SWAP2 ADD JUMPDEST PUSH1 0x40 MLOAD DUP1 SWAP2 SUB SWAP1 LOG2 POP POP POP POP JUMP JUMPDEST DUP3 PUSH2 0x10B2 DUP2 PUSH2 0x2282 JUMP JUMPDEST PUSH2 0x10BB JUMPI PUSH1 0x0 DUP1 REVERT JUMPDEST PUSH1 0x0 DUP5 DUP2 MSTORE PUSH1 0xC9 PUSH1 0x20 SWAP1 DUP2 MSTORE PUSH1 0x40 DUP1 DUP4 KECCAK256 SLOAD PUSH8 0xFFFFFFFFFFFFFFFF AND DUP4 MSTORE PUSH1 0xCC DUP3 MSTORE DUP1 DUP4 KECCAK256 DUP8 DUP5 MSTORE SWAP1 SWAP2 MSTORE SWAP1 KECCAK256 PUSH2 0x10F3 DUP4 DUP6 DUP4 PUSH2 0x3D2B JUMP JUMPDEST POP DUP4 PUSH32 0xE379C1624ED7E714CC0937528A32359D69D5281337765313DBA4E081B72D7578 DUP5 DUP5 PUSH1 0x40 MLOAD PUSH2 0x109A SWAP3 SWAP2 SWAP1 PUSH2 0x3E5C JUMP JUMPDEST DUP1 PUSH2 0x1130 DUP2 PUSH2 0x2282 JUMP JUMPDEST PUSH2 0x1139 JUMPI PUSH1 0x0 DUP1 REVERT JUMPDEST PUSH1 0x0 DUP3 DUP2 MSTORE PUSH1 0xC9 PUSH1 0x20 MSTORE PUSH1 0x40 DUP2 KECCAK256 DUP1 SLOAD PUSH8 0xFFFFFFFFFFFFFFFF AND SWAP2 PUSH2 0x115D DUP4 PUSH2 0x3E70 JUMP JUMPDEST DUP3 SLOAD PUSH2 0x100 SWAP3 SWAP1 SWAP3 EXP PUSH8 0xFFFFFFFFFFFFFFFF DUP2 DUP2 MUL NOT SWAP1 SWAP4 AND SWAP2 DUP4 AND MUL OR SWAP1 SWAP2 SSTORE PUSH1 0x0 DUP5 DUP2 MSTORE PUSH1 0xC9 PUSH1 0x20 SWAP1 DUP2 MSTORE PUSH1 0x40 SWAP2 DUP3 SWAP1 KECCAK256 SLOAD SWAP2 MLOAD SWAP2 SWAP1 SWAP3 AND DUP2 MSTORE DUP5 SWAP3 POP PUSH32 0xC6621CCB8F3F5A04BB6502154B2CAF6ADF5983FE76DFEF1CFC9C42E3579DB444 SWAP2 ADD PUSH1 0x40 MLOAD DUP1 SWAP2 SUB SWAP1 LOG2 POP POP JUMP JUMPDEST PUSH1 0x1 PUSH1 0x1 PUSH1 0xA0 SHL SUB PUSH32 0x0 AND ADDRESS SUB PUSH2 0x126E JUMPI PUSH1 0x40 MLOAD PUSH3 0x461BCD PUSH1 0xE5 SHL DUP2 MSTORE PUSH1 0x20 PUSH1 0x4 DUP3 ADD MSTORE PUSH1 0x2C PUSH1 0x24 DUP3 ADD MSTORE PUSH32 0x46756E6374696F6E206D7573742062652063616C6C6564207468726F75676820 PUSH1 0x44 DUP3 ADD MSTORE PUSH32 0x64656C656761746563616C6C0000000000000000000000000000000000000000 PUSH1 0x64 DUP3 ADD MSTORE PUSH1 0x84 ADD JUMPDEST PUSH1 0x40 MLOAD DUP1 SWAP2 SUB SWAP1 REVERT JUMPDEST PUSH32 0x0 PUSH1 0x1 PUSH1 0x1 PUSH1 0xA0 SHL SUB AND PUSH2 0x12C9 PUSH32 0x360894A13BA1A3210667C828492DB98DCA3E2076CC3735A920A3CA505D382BBC SLOAD PUSH1 0x1 PUSH1 0x1 PUSH1 0xA0 SHL SUB AND SWAP1 JUMP JUMPDEST PUSH1 0x1 PUSH1 0x1 PUSH1 0xA0 SHL SUB AND EQ PUSH2 0x1345 JUMPI PUSH1 0x40 MLOAD PUSH3 0x461BCD PUSH1 0xE5 SHL DUP2 MSTORE PUSH1 0x20 PUSH1 0x4 DUP3 ADD MSTORE PUSH1 0x2C PUSH1 0x24 DUP3 ADD MSTORE PUSH32 0x46756E6374696F6E206D7573742062652063616C6C6564207468726F75676820 PUSH1 0x44 DUP3 ADD MSTORE PUSH32 0x6163746976652070726F78790000000000000000000000000000000000000000 PUSH1 0x64 DUP3 ADD MSTORE PUSH1 0x84 ADD PUSH2 0x1265 JUMP JUMPDEST PUSH2 0x134E DUP2 PUSH2 0x284A JUMP JUMPDEST PUSH1 0x40 DUP1 MLOAD PUSH1 0x0 DUP1 DUP3 MSTORE PUSH1 0x20 DUP3 ADD SWAP1 SWAP3 MSTORE PUSH2 0x136A SWAP2 DUP4 SWAP2 SWAP1 PUSH2 0x2852 JUMP JUMPDEST POP JUMP JUMPDEST PUSH1 0x0 DUP1 PUSH2 0x137B DUP4 PUSH1 0x3C PUSH2 0x1E6C JUMP JUMPDEST SWAP1 POP DUP1 MLOAD PUSH1 0x0 SUB PUSH2 0x138F JUMPI POP PUSH1 0x0 SWAP3 SWAP2 POP POP JUMP JUMPDEST PUSH2 0x1398 DUP2 PUSH2 0x29F2 JUMP JUMPDEST SWAP4 SWAP3 POP POP POP JUMP JUMPDEST PUSH1 0x1 PUSH1 0x1 PUSH1 0xA0 SHL SUB PUSH32 0x0 AND ADDRESS SUB PUSH2 0x143D JUMPI PUSH1 0x40 MLOAD PUSH3 0x461BCD PUSH1 0xE5 SHL DUP2 MSTORE PUSH1 0x20 PUSH1 0x4 DUP3 ADD MSTORE PUSH1 0x2C PUSH1 0x24 DUP3 ADD MSTORE PUSH32 0x46756E6374696F6E206D7573742062652063616C6C6564207468726F75676820 PUSH1 0x44 DUP3 ADD MSTORE PUSH32 0x64656C656761746563616C6C0000000000000000000000000000000000000000 PUSH1 0x64 DUP3 ADD MSTORE PUSH1 0x84 ADD PUSH2 0x1265 JUMP JUMPDEST PUSH32 0x0 PUSH1 0x1 PUSH1 0x1 PUSH1 0xA0 SHL SUB AND PUSH2 0x1498 PUSH32 0x360894A13BA1A3210667C828492DB98DCA3E2076CC3735A920A3CA505D382BBC SLOAD PUSH1 0x1 PUSH1 0x1 PUSH1 0xA0 SHL SUB AND SWAP1 JUMP JUMPDEST PUSH1 0x1 PUSH1 0x1 PUSH1 0xA0 SHL SUB AND EQ PUSH2 0x1514 JUMPI PUSH1 0x40 MLOAD PUSH3 0x461BCD PUSH1 0xE5 SHL DUP2 MSTORE PUSH1 0x20 PUSH1 0x4 DUP3 ADD MSTORE PUSH1 0x2C PUSH1 0x24 DUP3 ADD MSTORE PUSH32 0x46756E6374696F6E206D7573742062652063616C6C6564207468726F75676820 PUSH1 0x44 DUP3 ADD MSTORE PUSH32 0x6163746976652070726F78790000000000000000000000000000000000000000 PUSH1 0x64 DUP3 ADD MSTORE PUSH1 0x84 ADD PUSH2 0x1265 JUMP JUMPDEST PUSH2 0x151D DUP3 PUSH2 0x284A JUMP JUMPDEST PUSH2 0x1529 DUP3 DUP3 PUSH1 0x1 PUSH2 0x2852 JUMP JUMPDEST POP POP JUMP JUMPDEST PUSH1 0x0 ADDRESS PUSH1 0x1 PUSH1 0x1 PUSH1 0xA0 SHL SUB PUSH32 0x0 AND EQ PUSH2 0x15CD JUMPI PUSH1 0x40 MLOAD PUSH3 0x461BCD PUSH1 0xE5 SHL DUP2 MSTORE PUSH1 0x20 PUSH1 0x4 DUP3 ADD MSTORE PUSH1 0x38 PUSH1 0x24 DUP3 ADD MSTORE PUSH32 0x555550535570677261646561626C653A206D757374206E6F742062652063616C PUSH1 0x44 DUP3 ADD MSTORE PUSH32 0x6C6564207468726F7567682064656C656761746563616C6C0000000000000000 PUSH1 0x64 DUP3 ADD MSTORE PUSH1 0x84 ADD PUSH2 0x1265 JUMP JUMPDEST POP PUSH32 0x360894A13BA1A3210667C828492DB98DCA3E2076CC3735A920A3CA505D382BBC SWAP1 JUMP JUMPDEST PUSH1 0x0 DUP4 DUP2 MSTORE PUSH1 0xC9 PUSH1 0x20 SWAP1 DUP2 MSTORE PUSH1 0x40 DUP1 DUP4 KECCAK256 SLOAD PUSH8 0xFFFFFFFFFFFFFFFF AND DUP4 MSTORE PUSH1 0xD3 DUP3 MSTORE DUP1 DUP4 KECCAK256 DUP7 DUP5 MSTORE SWAP1 SWAP2 MSTORE SWAP1 DUP2 SWAP1 KECCAK256 SWAP1 MLOAD PUSH1 0x60 SWAP2 SWAP1 PUSH2 0x1634 SWAP1 DUP6 SWAP1 DUP6 SWAP1 PUSH2 0x3C93 JUMP JUMPDEST SWAP1 DUP2 MSTORE PUSH1 0x20 ADD PUSH1 0x40 MLOAD DUP1 SWAP2 SUB SWAP1 KECCAK256 DUP1 SLOAD PUSH2 0x164D SWAP1 PUSH2 0x3CA3 JUMP JUMPDEST DUP1 PUSH1 0x1F ADD PUSH1 0x20 DUP1 SWAP2 DIV MUL PUSH1 0x20 ADD PUSH1 0x40 MLOAD SWAP1 DUP2 ADD PUSH1 0x40 MSTORE DUP1 SWAP3 SWAP2 SWAP1 DUP2 DUP2 MSTORE PUSH1 0x20 ADD DUP3 DUP1 SLOAD PUSH2 0x1679 SWAP1 PUSH2 0x3CA3 JUMP JUMPDEST DUP1 ISZERO PUSH2 0x16C6 JUMPI DUP1 PUSH1 0x1F LT PUSH2 0x169B JUMPI PUSH2 0x100 DUP1 DUP4 SLOAD DIV MUL DUP4 MSTORE SWAP2 PUSH1 0x20 ADD SWAP2 PUSH2 0x16C6 JUMP JUMPDEST DUP3 ADD SWAP2 SWAP1 PUSH1 0x0 MSTORE PUSH1 0x20 PUSH1 0x0 KECCAK256 SWAP1 JUMPDEST DUP2 SLOAD DUP2 MSTORE SWAP1 PUSH1 0x1 ADD SWAP1 PUSH1 0x20 ADD DUP1 DUP4 GT PUSH2 0x16A9 JUMPI DUP3 SWAP1 SUB PUSH1 0x1F AND DUP3 ADD SWAP2 JUMPDEST POP POP POP POP POP SWAP1 POP SWAP4 SWAP3 POP POP POP JUMP JUMPDEST PUSH1 0x0 DUP2 DUP2 MSTORE PUSH1 0xC9 PUSH1 0x20 SWAP1 DUP2 MSTORE PUSH1 0x40 DUP1 DUP4 KECCAK256 SLOAD PUSH8 0xFFFFFFFFFFFFFFFF AND DUP4 MSTORE PUSH1 0xCD DUP3 MSTORE DUP1 DUP4 KECCAK256 DUP5 DUP5 MSTORE SWAP1 SWAP2 MSTORE SWAP1 KECCAK256 DUP1 SLOAD PUSH1 0x60 SWAP2 SWAP1 PUSH2 0x1710 SWAP1 PUSH2 0x3CA3 JUMP JUMPDEST DUP1 PUSH1 0x1F ADD PUSH1 0x20 DUP1 SWAP2 DIV MUL PUSH1 0x20 ADD PUSH1 0x40 MLOAD SWAP1 DUP2 ADD PUSH1 0x40 MSTORE DUP1 SWAP3 SWAP2 SWAP1 DUP2 DUP2 MSTORE PUSH1 0x20 ADD DUP3 DUP1 SLOAD PUSH2 0x173C SWAP1 PUSH2 0x3CA3 JUMP JUMPDEST DUP1 ISZERO PUSH2 0x1789 JUMPI DUP1 PUSH1 0x1F LT PUSH2 0x175E JUMPI PUSH2 0x100 DUP1 DUP4 SLOAD DIV MUL DUP4 MSTORE SWAP2 PUSH1 0x20 ADD SWAP2 PUSH2 0x1789 JUMP JUMPDEST DUP3 ADD SWAP2 SWAP1 PUSH1 0x0 MSTORE PUSH1 0x20 PUSH1 0x0 KECCAK256 SWAP1 JUMPDEST DUP2 SLOAD DUP2 MSTORE SWAP1 PUSH1 0x1 ADD SWAP1 PUSH1 0x20 ADD DUP1 DUP4 GT PUSH2 0x176C JUMPI DUP3 SWAP1 SUB PUSH1 0x1F AND DUP3 ADD SWAP2 JUMPDEST POP POP POP POP POP SWAP1 POP SWAP2 SWAP1 POP JUMP JUMPDEST DUP4 PUSH2 0x179F DUP2 PUSH2 0x2282 JUMP JUMPDEST PUSH2 0x17A8 JUMPI PUSH1 0x0 DUP1 REVERT JUMPDEST DUP4 PUSH2 0x17B4 PUSH1 0x1 DUP3 PUSH2 0x3C80 JUMP JUMPDEST AND ISZERO PUSH2 0x17BF JUMPI PUSH1 0x0 DUP1 REVERT JUMPDEST PUSH1 0x0 DUP6 DUP2 MSTORE PUSH1 0xC9 PUSH1 0x20 SWAP1 DUP2 MSTORE PUSH1 0x40 DUP1 DUP4 KECCAK256 SLOAD PUSH8 0xFFFFFFFFFFFFFFFF AND DUP4 MSTORE PUSH1 0xCA DUP3 MSTORE DUP1 DUP4 KECCAK256 DUP9 DUP5 MSTORE DUP3 MSTORE DUP1 DUP4 KECCAK256 DUP8 DUP5 MSTORE SWAP1 SWAP2 MSTORE SWAP1 KECCAK256 PUSH2 0x17FF DUP4 DUP6 DUP4 PUSH2 0x3D2B JUMP JUMPDEST POP PUSH1 0x40 MLOAD DUP5 SWAP1 DUP7 SWAP1 PUSH32 0xAA121BBEEF5F32F5961A2A28966E769023910FC9479059EE3495D4C1A696EFE3 SWAP1 PUSH1 0x0 SWAP1 LOG3 POP POP POP POP POP JUMP JUMPDEST PUSH1 0x0 DUP2 DUP2 MSTORE PUSH1 0xC9 PUSH1 0x20 SWAP1 DUP2 MSTORE PUSH1 0x40 DUP1 DUP4 KECCAK256 SLOAD PUSH8 0xFFFFFFFFFFFFFFFF AND DUP4 MSTORE PUSH1 0xD1 DUP3 MSTORE DUP1 DUP4 KECCAK256 DUP5 DUP5 MSTORE SWAP1 SWAP2 MSTORE SWAP1 KECCAK256 DUP1 SLOAD PUSH1 0x60 SWAP2 SWAP1 PUSH2 0x1710 SWAP1 PUSH2 0x3CA3 JUMP JUMPDEST PUSH2 0x1878 PUSH2 0x2A1A JUMP JUMPDEST PUSH2 0x1882 PUSH1 0x0 PUSH2 0x2A74 JUMP JUMPDEST JUMP JUMPDEST DUP3 PUSH2 0x188E DUP2 PUSH2 0x2282 JUMP JUMPDEST PUSH2 0x1897 JUMPI PUSH1 0x0 DUP1 REVERT JUMPDEST PUSH1 0x0 DUP5 DUP2 MSTORE PUSH1 0xC9 PUSH1 0x20 SWAP1 DUP2 MSTORE PUSH1 0x40 DUP1 DUP4 KECCAK256 SLOAD PUSH8 0xFFFFFFFFFFFFFFFF AND DUP4 MSTORE PUSH1 0xD1 DUP3 MSTORE DUP1 DUP4 KECCAK256 DUP8 DUP5 MSTORE SWAP1 SWAP2 MSTORE SWAP1 KECCAK256 PUSH2 0x18CF DUP4 DUP6 DUP4 PUSH2 0x3D2B JUMP JUMPDEST POP DUP4 PUSH32 0xB7D29E911041E8D9B843369E890BCB72C9388692BA48B65AC54E7214C4C348F7 DUP5 DUP5 PUSH1 0x40 MLOAD PUSH2 0x109A SWAP3 SWAP2 SWAP1 PUSH2 0x3E5C JUMP JUMPDEST DUP3 PUSH2 0x190C DUP2 PUSH2 0x2282 JUMP JUMPDEST PUSH2 0x1915 JUMPI PUSH1 0x0 DUP1 REVERT JUMPDEST DUP4 PUSH32 0x65412581168E88A1E60C6459D7F44AE83AD0832E670826C05A4E2476B57AF752 DUP5 DUP5 PUSH1 0x40 MLOAD PUSH2 0x1947 SWAP3 SWAP2 SWAP1 PUSH2 0x370D JUMP JUMPDEST PUSH1 0x40 MLOAD DUP1 SWAP2 SUB SWAP1 LOG2 PUSH1 0x3C DUP4 SUB PUSH2 0x199E JUMPI DUP4 PUSH32 0x52D7D861F09AB3D26239D492E8968629F95E9E318CF0B73BFDDC441522A15FD2 PUSH2 0x1982 DUP5 PUSH2 0x29F2 JUMP JUMPDEST PUSH1 0x40 MLOAD PUSH1 0x1 PUSH1 0x1 PUSH1 0xA0 SHL SUB SWAP1 SWAP2 AND DUP2 MSTORE PUSH1 0x20 ADD PUSH1 0x40 MLOAD DUP1 SWAP2 SUB SWAP1 LOG2 JUMPDEST PUSH1 0x0 DUP5 DUP2 MSTORE PUSH1 0xC9 PUSH1 0x20 SWAP1 DUP2 MSTORE PUSH1 0x40 DUP1 DUP4 KECCAK256 SLOAD PUSH8 0xFFFFFFFFFFFFFFFF AND DUP4 MSTORE PUSH1 0xCB DUP3 MSTORE DUP1 DUP4 KECCAK256 DUP8 DUP5 MSTORE DUP3 MSTORE DUP1 DUP4 KECCAK256 DUP7 DUP5 MSTORE SWAP1 SWAP2 MSTORE SWAP1 KECCAK256 PUSH2 0x19DD DUP4 DUP3 PUSH2 0x3E97 JUMP JUMPDEST POP POP POP POP POP JUMP JUMPDEST PUSH1 0x1 PUSH1 0x1 PUSH1 0xA0 SHL SUB DUP3 AND CALLER SUB PUSH2 0x1A62 JUMPI PUSH1 0x40 MLOAD PUSH3 0x461BCD PUSH1 0xE5 SHL DUP2 MSTORE PUSH1 0x20 PUSH1 0x4 DUP3 ADD MSTORE PUSH1 0x29 PUSH1 0x24 DUP3 ADD MSTORE PUSH32 0x455243313135353A2073657474696E6720617070726F76616C20737461747573 PUSH1 0x44 DUP3 ADD MSTORE PUSH32 0x20666F722073656C660000000000000000000000000000000000000000000000 PUSH1 0x64 DUP3 ADD MSTORE PUSH1 0x84 ADD PUSH2 0x1265 JUMP JUMPDEST CALLER PUSH1 0x0 DUP2 DUP2 MSTORE PUSH1 0xD8 PUSH1 0x20 SWAP1 DUP2 MSTORE PUSH1 0x40 DUP1 DUP4 KECCAK256 PUSH1 0x1 PUSH1 0x1 PUSH1 0xA0 SHL SUB DUP8 AND DUP1 DUP6 MSTORE SWAP1 DUP4 MSTORE SWAP3 DUP2 SWAP1 KECCAK256 DUP1 SLOAD PUSH1 0xFF NOT AND DUP7 ISZERO ISZERO SWAP1 DUP2 OR SWAP1 SWAP2 SSTORE SWAP1 MLOAD SWAP1 DUP2 MSTORE SWAP2 SWAP3 SWAP2 PUSH32 0x17307EAB39AB6107E8899845AD3D59BD9653F200F220920489CA2B5937696C31 SWAP2 ADD PUSH1 0x40 MLOAD DUP1 SWAP2 SUB SWAP1 LOG3 POP POP JUMP JUMPDEST PUSH1 0x1 PUSH1 0x1 PUSH1 0xA0 SHL SUB DUP3 AND CALLER SUB PUSH2 0x1B26 JUMPI PUSH1 0x40 MLOAD PUSH3 0x461BCD PUSH1 0xE5 SHL DUP2 MSTORE PUSH1 0x20 PUSH1 0x4 DUP3 ADD DUP2 SWAP1 MSTORE PUSH1 0x24 DUP3 ADD MSTORE PUSH32 0x53657474696E672064656C65676174652073746174757320666F722073656C66 PUSH1 0x44 DUP3 ADD MSTORE PUSH1 0x64 ADD PUSH2 0x1265 JUMP JUMPDEST CALLER PUSH1 0x0 DUP2 DUP2 MSTORE PUSH1 0xD9 PUSH1 0x20 SWAP1 DUP2 MSTORE PUSH1 0x40 DUP1 DUP4 KECCAK256 DUP8 DUP5 MSTORE DUP3 MSTORE DUP1 DUP4 KECCAK256 PUSH1 0x1 PUSH1 0x1 PUSH1 0xA0 SHL SUB DUP8 AND DUP1 DUP6 MSTORE SWAP1 DUP4 MSTORE SWAP3 DUP2 SWAP1 KECCAK256 DUP1 SLOAD PUSH1 0xFF NOT AND DUP7 ISZERO ISZERO SWAP1 DUP2 OR SWAP1 SWAP2 SSTORE SWAP1 MLOAD SWAP4 DUP5 MSTORE SWAP3 DUP7 SWAP2 PUSH32 0xF0DDB3B04746704017F9AA8BD728FCC2C1D11675041205350018915F5E4750A0 SWAP2 ADD PUSH1 0x40 MLOAD DUP1 SWAP2 SUB SWAP1 LOG4 POP POP POP JUMP JUMPDEST PUSH1 0x0 DUP4 DUP2 MSTORE PUSH1 0xC9 PUSH1 0x20 SWAP1 DUP2 MSTORE PUSH1 0x40 DUP1 DUP4 KECCAK256 SLOAD PUSH8 0xFFFFFFFFFFFFFFFF AND DUP4 MSTORE PUSH1 0xCE DUP3 MSTORE DUP1 DUP4 KECCAK256 DUP7 DUP5 MSTORE DUP3 MSTORE DUP1 DUP4 KECCAK256 DUP6 DUP5 MSTORE DUP3 MSTORE DUP1 DUP4 KECCAK256 PUSH2 0xFFFF DUP6 AND DUP5 MSTORE SWAP1 SWAP2 MSTORE SWAP1 KECCAK256 DUP1 SLOAD PUSH1 0x60 SWAP2 SWAP1 PUSH2 0x164D SWAP1 PUSH2 0x3CA3 JUMP JUMPDEST PUSH1 0x60 PUSH2 0x1398 PUSH1 0x0 DUP5 DUP5 PUSH2 0x2AD3 JUMP JUMPDEST PUSH1 0x0 DUP2 DUP2 MSTORE PUSH1 0xC9 PUSH1 0x20 SWAP1 DUP2 MSTORE PUSH1 0x40 DUP1 DUP4 KECCAK256 SLOAD PUSH8 0xFFFFFFFFFFFFFFFF AND DUP4 MSTORE PUSH1 0xCC DUP3 MSTORE DUP1 DUP4 KECCAK256 DUP5 DUP5 MSTORE SWAP1 SWAP2 MSTORE SWAP1 KECCAK256 DUP1 SLOAD PUSH1 0x60 SWAP2 SWAP1 PUSH2 0x1710 SWAP1 PUSH2 0x3CA3 JUMP JUMPDEST DUP3 PUSH2 0x1C3F DUP2 PUSH2 0x2282 JUMP JUMPDEST PUSH2 0x1C48 JUMPI PUSH1 0x0 DUP1 REVERT JUMPDEST PUSH1 0x0 DUP5 DUP2 MSTORE PUSH1 0xC9 PUSH1 0x20 SWAP1 DUP2 MSTORE PUSH1 0x40 DUP1 DUP4 KECCAK256 SLOAD PUSH8 0xFFFFFFFFFFFFFFFF AND DUP1 DUP5 MSTORE PUSH1 0xCD DUP4 MSTORE DUP2 DUP5 KECCAK256 DUP9 DUP6 MSTORE SWAP1 SWAP3 MSTORE DUP3 KECCAK256 DUP1 SLOAD SWAP2 SWAP3 SWAP2 PUSH2 0x1C84 SWAP1 PUSH2 0x3CA3 JUMP JUMPDEST DUP1 PUSH1 0x1F ADD PUSH1 0x20 DUP1 SWAP2 DIV MUL PUSH1 0x20 ADD PUSH1 0x40 MLOAD SWAP1 DUP2 ADD PUSH1 0x40 MSTORE DUP1 SWAP3 SWAP2 SWAP1 DUP2 DUP2 MSTORE PUSH1 0x20 ADD DUP3 DUP1 SLOAD PUSH2 0x1CB0 SWAP1 PUSH2 0x3CA3 JUMP JUMPDEST DUP1 ISZERO PUSH2 0x1CFD JUMPI DUP1 PUSH1 0x1F LT PUSH2 0x1CD2 JUMPI PUSH2 0x100 DUP1 DUP4 SLOAD DIV MUL DUP4 MSTORE SWAP2 PUSH1 0x20 ADD SWAP2 PUSH2 0x1CFD JUMP JUMPDEST DUP3 ADD SWAP2 SWAP1 PUSH1 0x0 MSTORE PUSH1 0x20 PUSH1 0x0 KECCAK256 SWAP1 JUMPDEST DUP2 SLOAD DUP2 MSTORE SWAP1 PUSH1 0x1 ADD SWAP1 PUSH1 0x20 ADD DUP1 DUP4 GT PUSH2 0x1CE0 JUMPI DUP3 SWAP1 SUB PUSH1 0x1F AND DUP3 ADD SWAP2 JUMPDEST POP POP POP POP PUSH8 0xFFFFFFFFFFFFFFFF DUP5 AND PUSH1 0x0 SWAP1 DUP2 MSTORE PUSH1 0xCD PUSH1 0x20 SWAP1 DUP2 MSTORE PUSH1 0x40 DUP1 DUP4 KECCAK256 DUP12 DUP5 MSTORE SWAP1 SWAP2 MSTORE SWAP1 KECCAK256 SWAP2 SWAP3 POP PUSH2 0x1D35 SWAP1 POP DUP6 DUP8 DUP4 PUSH2 0x3D2B JUMP JUMPDEST POP DUP6 PUSH32 0x8F15ED4B723EF428F250961DA8315675B507046737E19319FC1A4D81BFE87F85 DUP3 DUP8 DUP8 PUSH1 0x40 MLOAD PUSH2 0x1D6A SWAP4 SWAP3 SWAP2 SWAP1 PUSH2 0x3F57 JUMP JUMPDEST PUSH1 0x40 MLOAD DUP1 SWAP2 SUB SWAP1 LOG2 POP POP POP POP POP POP JUMP JUMPDEST DUP2 PUSH2 0x1D84 DUP2 PUSH2 0x2282 JUMP JUMPDEST PUSH2 0x1D8D JUMPI PUSH1 0x0 DUP1 REVERT JUMPDEST PUSH2 0x1D9C DUP4 PUSH1 0x3C PUSH2 0x616 DUP6 PUSH2 0x2CAC JUMP JUMPDEST POP POP POP JUMP JUMPDEST PUSH1 0x60 PUSH2 0x1DAE DUP5 DUP5 DUP5 PUSH2 0x2AD3 JUMP JUMPDEST SWAP5 SWAP4 POP POP POP POP JUMP JUMPDEST DUP3 PUSH2 0x1DC0 DUP2 PUSH2 0x2282 JUMP JUMPDEST PUSH2 0x1DC9 JUMPI PUSH1 0x0 DUP1 REVERT JUMPDEST PUSH1 0x0 DUP5 DUP2 MSTORE PUSH1 0xC9 PUSH1 0x20 SWAP1 DUP2 MSTORE PUSH1 0x40 DUP1 DUP4 KECCAK256 SLOAD PUSH8 0xFFFFFFFFFFFFFFFF AND DUP4 MSTORE PUSH1 0xD0 DUP3 MSTORE DUP1 DUP4 KECCAK256 DUP8 DUP5 MSTORE DUP3 MSTORE DUP1 DUP4 KECCAK256 PUSH1 0x1 PUSH1 0x1 PUSH1 0xE0 SHL SUB NOT DUP8 AND DUP1 DUP6 MSTORE SWAP1 DUP4 MSTORE SWAP3 DUP2 SWAP1 KECCAK256 DUP1 SLOAD PUSH20 0xFFFFFFFFFFFFFFFFFFFFFFFFFFFFFFFFFFFFFFFF NOT AND PUSH1 0x1 PUSH1 0x1 PUSH1 0xA0 SHL SUB DUP8 AND SWAP1 DUP2 OR SWAP1 SWAP2 SSTORE SWAP1 MLOAD SWAP1 DUP2 MSTORE DUP7 SWAP2 PUSH32 0x7C69F06BEA0BDEF565B709E93A147836B0063BA2DD89F02D0B7E8D931E6A6DAA SWAP2 ADD PUSH1 0x40 MLOAD DUP1 SWAP2 SUB SWAP1 LOG3 POP POP POP POP JUMP JUMPDEST PUSH1 0x0 DUP3 DUP2 MSTORE PUSH1 0xC9 PUSH1 0x20 SWAP1 DUP2 MSTORE PUSH1 0x40 DUP1 DUP4 KECCAK256 SLOAD PUSH8 0xFFFFFFFFFFFFFFFF AND DUP4 MSTORE PUSH1 0xCB DUP3 MSTORE DUP1 DUP4 KECCAK256 DUP6 DUP5 MSTORE DUP3 MSTORE DUP1 DUP4 KECCAK256 DUP5 DUP5 MSTORE SWAP1 SWAP2 MSTORE SWAP1 KECCAK256 DUP1 SLOAD PUSH1 0x60 SWAP2 SWAP1 PUSH2 0x1EB0 SWAP1 PUSH2 0x3CA3 JUMP JUMPDEST DUP1 PUSH1 0x1F ADD PUSH1 0x20 DUP1 SWAP2 DIV MUL PUSH1 0x20 ADD PUSH1 0x40 MLOAD SWAP1 DUP2 ADD PUSH1 0x40 MSTORE DUP1 SWAP3 SWAP2 SWAP1 DUP2 DUP2 MSTORE PUSH1 0x20 ADD DUP3 DUP1 SLOAD PUSH2 0x1EDC SWAP1 PUSH2 0x3CA3 JUMP JUMPDEST DUP1 ISZERO PUSH2 0x1F29 JUMPI DUP1 PUSH1 0x1F LT PUSH2 0x1EFE JUMPI PUSH2 0x100 DUP1 DUP4 SLOAD DIV MUL DUP4 MSTORE SWAP2 PUSH1 0x20 ADD SWAP2 PUSH2 0x1F29 JUMP JUMPDEST DUP3 ADD SWAP2 SWAP1 PUSH1 0x0 MSTORE PUSH1 0x20 PUSH1 0x0 KECCAK256 SWAP1 JUMPDEST DUP2 SLOAD DUP2 MSTORE SWAP1 PUSH1 0x1 ADD SWAP1 PUSH1 0x20 ADD DUP1 DUP4 GT PUSH2 0x1F0C JUMPI DUP3 SWAP1 SUB PUSH1 0x1F AND DUP3 ADD SWAP2 JUMPDEST POP POP POP POP POP SWAP1 POP SWAP3 SWAP2 POP POP JUMP JUMPDEST PUSH2 0x1F3E PUSH2 0x2A1A JUMP JUMPDEST PUSH1 0x1 PUSH1 0x1 PUSH1 0xA0 SHL SUB DUP2 AND PUSH2 0x1FBA JUMPI PUSH1 0x40 MLOAD PUSH3 0x461BCD PUSH1 0xE5 SHL DUP2 MSTORE PUSH1 0x20 PUSH1 0x4 DUP3 ADD MSTORE PUSH1 0x26 PUSH1 0x24 DUP3 ADD MSTORE PUSH32 0x4F776E61626C653A206E6577206F776E657220697320746865207A65726F2061 PUSH1 0x44 DUP3 ADD MSTORE PUSH32 0x6464726573730000000000000000000000000000000000000000000000000000 PUSH1 0x64 DUP3 ADD MSTORE PUSH1 0x84 ADD PUSH2 0x1265 JUMP JUMPDEST PUSH2 0x136A DUP2 PUSH2 0x2A74 JUMP JUMPDEST PUSH1 0x0 SLOAD PUSH2 0x100 SWAP1 DIV PUSH1 0xFF AND ISZERO DUP1 DUP1 ISZERO PUSH2 0x1FE3 JUMPI POP PUSH1 0x0 SLOAD PUSH1 0x1 PUSH1 0xFF SWAP1 SWAP2 AND LT JUMPDEST DUP1 PUSH2 0x1FFD JUMPI POP ADDRESS EXTCODESIZE ISZERO DUP1 ISZERO PUSH2 0x1FFD JUMPI POP PUSH1 0x0 SLOAD PUSH1 0xFF AND PUSH1 0x1 EQ JUMPDEST PUSH2 0x206F JUMPI PUSH1 0x40 MLOAD PUSH3 0x461BCD PUSH1 0xE5 SHL DUP2 MSTORE PUSH1 0x20 PUSH1 0x4 DUP3 ADD MSTORE PUSH1 0x2E PUSH1 0x24 DUP3 ADD MSTORE PUSH32 0x496E697469616C697A61626C653A20636F6E747261637420697320616C726561 PUSH1 0x44 DUP3 ADD MSTORE PUSH32 0x647920696E697469616C697A6564000000000000000000000000000000000000 PUSH1 0x64 DUP3 ADD MSTORE PUSH1 0x84 ADD PUSH2 0x1265 JUMP JUMPDEST PUSH1 0x0 DUP1 SLOAD PUSH1 0xFF NOT AND PUSH1 0x1 OR SWAP1 SSTORE DUP1 ISZERO PUSH2 0x2092 JUMPI PUSH1 0x0 DUP1 SLOAD PUSH2 0xFF00 NOT AND PUSH2 0x100 OR SWAP1 SSTORE JUMPDEST PUSH2 0x209A PUSH2 0x2CE5 JUMP JUMPDEST PUSH1 0xD4 DUP1 SLOAD PUSH1 0x1 PUSH1 0x1 PUSH1 0xA0 SHL SUB DUP8 DUP2 AND PUSH20 0xFFFFFFFFFFFFFFFFFFFFFFFFFFFFFFFFFFFFFFFF NOT SWAP3 DUP4 AND DUP2 OR SWAP1 SWAP4 SSTORE PUSH1 0xD5 DUP1 SLOAD DUP9 DUP4 AND SWAP1 DUP5 AND OR SWAP1 SSTORE PUSH1 0xD6 DUP1 SLOAD DUP8 DUP4 AND SWAP1 DUP5 AND OR SWAP1 SSTORE PUSH1 0xD7 DUP1 SLOAD SWAP2 DUP7 AND SWAP2 SWAP1 SWAP3 AND OR SWAP1 SSTORE PUSH1 0x40 MLOAD PUSH4 0x2571BE3 PUSH1 0xE0 SHL DUP2 MSTORE PUSH32 0x91D1777781884D03A6757A803996E38DE2A42967FB37EEACA72729271025A9E2 PUSH1 0x4 DUP3 ADD MSTORE PUSH1 0x0 SWAP2 SWAP1 PUSH4 0x2571BE3 SWAP1 PUSH1 0x24 ADD PUSH1 0x20 PUSH1 0x40 MLOAD DUP1 DUP4 SUB DUP2 DUP7 GAS STATICCALL ISZERO DUP1 ISZERO PUSH2 0x214C JUMPI RETURNDATASIZE PUSH1 0x0 DUP1 RETURNDATACOPY RETURNDATASIZE PUSH1 0x0 REVERT JUMPDEST POP POP POP POP PUSH1 0x40 MLOAD RETURNDATASIZE PUSH1 0x1F NOT PUSH1 0x1F DUP3 ADD AND DUP3 ADD DUP1 PUSH1 0x40 MSTORE POP DUP2 ADD SWAP1 PUSH2 0x2170 SWAP2 SWAP1 PUSH2 0x3F7D JUMP JUMPDEST PUSH1 0x40 MLOAD PUSH32 0x1E83409A00000000000000000000000000000000000000000000000000000000 DUP2 MSTORE CALLER PUSH1 0x4 DUP3 ADD MSTORE SWAP1 SWAP2 POP PUSH1 0x1 PUSH1 0x1 PUSH1 0xA0 SHL SUB DUP3 AND SWAP1 PUSH4 0x1E83409A SWAP1 PUSH1 0x24 ADD PUSH1 0x20 PUSH1 0x40 MLOAD DUP1 DUP4 SUB DUP2 PUSH1 0x0 DUP8 GAS CALL ISZERO DUP1 ISZERO PUSH2 0x21D2 JUMPI RETURNDATASIZE PUSH1 0x0 DUP1 RETURNDATACOPY RETURNDATASIZE PUSH1 0x0 REVERT JUMPDEST POP POP POP POP PUSH1 0x40 MLOAD RETURNDATASIZE PUSH1 0x1F NOT PUSH1 0x1F DUP3 ADD AND DUP3 ADD DUP1 PUSH1 0x40 MSTORE POP DUP2 ADD SWAP1 PUSH2 0x21F6 SWAP2 SWAP1 PUSH2 0x3F9A JUMP JUMPDEST POP POP DUP1 ISZERO PUSH2 0x19DD JUMPI PUSH1 0x0 DUP1 SLOAD PUSH2 0xFF00 NOT AND SWAP1 SSTORE PUSH1 0x40 MLOAD PUSH1 0x1 DUP2 MSTORE PUSH32 0x7F26B83FF96E1F2B6A682F133852F6798A09C465DA95921460CEFB3847402498 SWAP1 PUSH1 0x20 ADD PUSH1 0x40 MLOAD DUP1 SWAP2 SUB SWAP1 LOG1 POP POP POP POP POP JUMP JUMPDEST PUSH1 0x0 PUSH1 0x1 PUSH1 0x1 PUSH1 0xE0 SHL SUB NOT DUP3 AND PUSH32 0x59D1D43C00000000000000000000000000000000000000000000000000000000 EQ DUP1 PUSH2 0x943 JUMPI POP PUSH2 0x943 DUP3 PUSH2 0x2D6A JUMP JUMPDEST PUSH1 0xD6 SLOAD PUSH1 0x0 SWAP1 PUSH1 0x1 PUSH1 0x1 PUSH1 0xA0 SHL SUB AND CALLER EQ DUP1 PUSH2 0x22A8 JUMPI POP PUSH1 0xD7 SLOAD PUSH1 0x1 PUSH1 0x1 PUSH1 0xA0 SHL SUB AND CALLER EQ JUMPDEST ISZERO PUSH2 0x22B5 JUMPI POP PUSH1 0x1 SWAP2 SWAP1 POP JUMP JUMPDEST PUSH1 0xD4 SLOAD PUSH1 0x40 MLOAD PUSH4 0x2571BE3 PUSH1 0xE0 SHL DUP2 MSTORE PUSH1 0x4 DUP2 ADD DUP5 SWAP1 MSTORE PUSH1 0x0 SWAP2 PUSH1 0x1 PUSH1 0x1 PUSH1 0xA0 SHL SUB AND SWAP1 PUSH4 0x2571BE3 SWAP1 PUSH1 0x24 ADD PUSH1 0x20 PUSH1 0x40 MLOAD DUP1 DUP4 SUB DUP2 DUP7 GAS STATICCALL ISZERO DUP1 ISZERO PUSH2 0x22FF JUMPI RETURNDATASIZE PUSH1 0x0 DUP1 RETURNDATACOPY RETURNDATASIZE PUSH1 0x0 REVERT JUMPDEST POP POP POP POP PUSH1 0x40 MLOAD RETURNDATASIZE PUSH1 0x1F NOT PUSH1 0x1F DUP3 ADD AND DUP3 ADD DUP1 PUSH1 0x40 MSTORE POP DUP2 ADD SWAP1 PUSH2 0x2323 SWAP2 SWAP1 PUSH2 0x3F7D JUMP JUMPDEST PUSH1 0xD5 SLOAD SWAP1 SWAP2 POP PUSH1 0x1 PUSH1 0x1 PUSH1 0xA0 SHL SUB SWAP1 DUP2 AND SWAP1 DUP3 AND SUB PUSH2 0x23C5 JUMPI PUSH1 0xD5 SLOAD PUSH1 0x40 MLOAD PUSH32 0x6352211E00000000000000000000000000000000000000000000000000000000 DUP2 MSTORE PUSH1 0x4 DUP2 ADD DUP6 SWAP1 MSTORE PUSH1 0x1 PUSH1 0x1 PUSH1 0xA0 SHL SUB SWAP1 SWAP2 AND SWAP1 PUSH4 0x6352211E SWAP1 PUSH1 0x24 ADD PUSH1 0x20 PUSH1 0x40 MLOAD DUP1 DUP4 SUB DUP2 DUP7 GAS STATICCALL ISZERO DUP1 ISZERO PUSH2 0x239E JUMPI RETURNDATASIZE PUSH1 0x0 DUP1 RETURNDATACOPY RETURNDATASIZE PUSH1 0x0 REVERT JUMPDEST POP POP POP POP PUSH1 0x40 MLOAD RETURNDATASIZE PUSH1 0x1F NOT PUSH1 0x1F DUP3 ADD AND DUP3 ADD DUP1 PUSH1 0x40 MSTORE POP DUP2 ADD SWAP1 PUSH2 0x23C2 SWAP2 SWAP1 PUSH2 0x3F7D JUMP JUMPDEST SWAP1 POP JUMPDEST PUSH1 0x1 PUSH1 0x1 PUSH1 0xA0 SHL SUB DUP2 AND CALLER EQ DUP1 PUSH2 0x23FF JUMPI POP PUSH1 0x1 PUSH1 0x1 PUSH1 0xA0 SHL SUB DUP2 AND PUSH1 0x0 SWAP1 DUP2 MSTORE PUSH1 0xD8 PUSH1 0x20 SWAP1 DUP2 MSTORE PUSH1 0x40 DUP1 DUP4 KECCAK256 CALLER DUP5 MSTORE SWAP1 SWAP2 MSTORE SWAP1 KECCAK256 SLOAD PUSH1 0xFF AND JUMPDEST DUP1 PUSH2 0x1398 JUMPI POP PUSH1 0x1 PUSH1 0x1 PUSH1 0xA0 SHL SUB DUP2 AND PUSH1 0x0 SWAP1 DUP2 MSTORE PUSH1 0xD9 PUSH1 0x20 SWAP1 DUP2 MSTORE PUSH1 0x40 DUP1 DUP4 KECCAK256 DUP7 DUP5 MSTORE DUP3 MSTORE DUP1 DUP4 KECCAK256 CALLER DUP5 MSTORE SWAP1 SWAP2 MSTORE SWAP1 KECCAK256 SLOAD PUSH1 0xFF AND PUSH2 0x1398 JUMP JUMPDEST PUSH2 0x2487 PUSH1 0x40 MLOAD DUP1 PUSH1 0xE0 ADD PUSH1 0x40 MSTORE DUP1 PUSH1 0x60 DUP2 MSTORE PUSH1 0x20 ADD PUSH1 0x0 DUP2 MSTORE PUSH1 0x20 ADD PUSH1 0x0 PUSH2 0xFFFF AND DUP2 MSTORE PUSH1 0x20 ADD PUSH1 0x0 PUSH2 0xFFFF AND DUP2 MSTORE PUSH1 0x20 ADD PUSH1 0x0 PUSH4 0xFFFFFFFF AND DUP2 MSTORE PUSH1 0x20 ADD PUSH1 0x0 DUP2 MSTORE PUSH1 0x20 ADD PUSH1 0x0 DUP2 MSTORE POP SWAP1 JUMP JUMPDEST DUP3 DUP2 MSTORE PUSH1 0xC0 DUP2 ADD DUP3 SWAP1 MSTORE PUSH2 0x943 DUP2 PUSH2 0x2762 JUMP JUMPDEST PUSH1 0x20 DUP2 ADD MLOAD DUP2 MLOAD PUSH1 0x60 SWAP2 PUSH2 0x943 SWAP2 PUSH2 0x24B2 SWAP1 DUP3 PUSH2 0x2DA8 JUMP JUMPDEST DUP5 MLOAD SWAP2 SWAP1 PUSH2 0x2E02 JUMP JUMPDEST PUSH1 0xA0 DUP2 ADD MLOAD PUSH1 0xC0 DUP3 ADD MLOAD PUSH1 0x60 SWAP2 PUSH2 0x943 SWAP2 PUSH2 0x24B2 SWAP1 DUP3 SWAP1 PUSH2 0x3C80 JUMP JUMPDEST PUSH1 0x0 DUP2 MLOAD DUP4 MLOAD EQ DUP1 ISZERO PUSH2 0x1398 JUMPI POP PUSH2 0x1398 DUP4 PUSH1 0x0 DUP5 PUSH1 0x0 DUP8 MLOAD PUSH2 0x2E79 JUMP JUMPDEST DUP7 MLOAD PUSH1 0x20 DUP9 ADD KECCAK256 PUSH1 0x0 PUSH2 0x2509 DUP8 DUP8 DUP8 PUSH2 0x2E02 JUMP JUMPDEST SWAP1 POP DUP4 ISZERO PUSH2 0x2633 JUMPI PUSH8 0xFFFFFFFFFFFFFFFF DUP4 AND PUSH1 0x0 SWAP1 DUP2 MSTORE PUSH1 0xCE PUSH1 0x20 SWAP1 DUP2 MSTORE PUSH1 0x40 DUP1 DUP4 KECCAK256 DUP14 DUP5 MSTORE DUP3 MSTORE DUP1 DUP4 KECCAK256 DUP6 DUP5 MSTORE DUP3 MSTORE DUP1 DUP4 KECCAK256 PUSH2 0xFFFF DUP13 AND DUP5 MSTORE SWAP1 SWAP2 MSTORE SWAP1 KECCAK256 DUP1 SLOAD PUSH2 0x2554 SWAP1 PUSH2 0x3CA3 JUMP JUMPDEST ISZERO SWAP1 POP PUSH2 0x25B3 JUMPI PUSH8 0xFFFFFFFFFFFFFFFF DUP4 AND PUSH1 0x0 SWAP1 DUP2 MSTORE PUSH1 0xCF PUSH1 0x20 SWAP1 DUP2 MSTORE PUSH1 0x40 DUP1 DUP4 KECCAK256 DUP14 DUP5 MSTORE DUP3 MSTORE DUP1 DUP4 KECCAK256 DUP6 DUP5 MSTORE SWAP1 SWAP2 MSTORE DUP2 KECCAK256 DUP1 SLOAD PUSH2 0xFFFF AND SWAP2 PUSH2 0x2597 DUP4 PUSH2 0x3FB3 JUMP JUMPDEST SWAP2 SWAP1 PUSH2 0x100 EXP DUP2 SLOAD DUP2 PUSH2 0xFFFF MUL NOT AND SWAP1 DUP4 PUSH2 0xFFFF AND MUL OR SWAP1 SSTORE POP POP JUMPDEST PUSH8 0xFFFFFFFFFFFFFFFF DUP4 AND PUSH1 0x0 SWAP1 DUP2 MSTORE PUSH1 0xCE PUSH1 0x20 SWAP1 DUP2 MSTORE PUSH1 0x40 DUP1 DUP4 KECCAK256 DUP14 DUP5 MSTORE DUP3 MSTORE DUP1 DUP4 KECCAK256 DUP6 DUP5 MSTORE DUP3 MSTORE DUP1 DUP4 KECCAK256 PUSH2 0xFFFF DUP13 AND DUP5 MSTORE SWAP1 SWAP2 MSTORE DUP2 KECCAK256 PUSH2 0x25F4 SWAP2 PUSH2 0x34E1 JUMP JUMPDEST DUP10 PUSH32 0x3528ED0C2A3EBC993B12CE3C16BB382F9C7D88EF7D8A1BF290EAF35955A1207 DUP11 DUP11 PUSH1 0x40 MLOAD PUSH2 0x2626 SWAP3 SWAP2 SWAP1 PUSH2 0x3FD1 JUMP JUMPDEST PUSH1 0x40 MLOAD DUP1 SWAP2 SUB SWAP1 LOG2 PUSH2 0xB49 JUMP JUMPDEST PUSH8 0xFFFFFFFFFFFFFFFF DUP4 AND PUSH1 0x0 SWAP1 DUP2 MSTORE PUSH1 0xCE PUSH1 0x20 SWAP1 DUP2 MSTORE PUSH1 0x40 DUP1 DUP4 KECCAK256 DUP14 DUP5 MSTORE DUP3 MSTORE DUP1 DUP4 KECCAK256 DUP6 DUP5 MSTORE DUP3 MSTORE DUP1 DUP4 KECCAK256 PUSH2 0xFFFF DUP13 AND DUP5 MSTORE SWAP1 SWAP2 MSTORE SWAP1 KECCAK256 DUP1 SLOAD PUSH2 0x2676 SWAP1 PUSH2 0x3CA3 JUMP JUMPDEST SWAP1 POP PUSH1 0x0 SUB PUSH2 0x26D7 JUMPI PUSH8 0xFFFFFFFFFFFFFFFF DUP4 AND PUSH1 0x0 SWAP1 DUP2 MSTORE PUSH1 0xCF PUSH1 0x20 SWAP1 DUP2 MSTORE PUSH1 0x40 DUP1 DUP4 KECCAK256 DUP14 DUP5 MSTORE DUP3 MSTORE DUP1 DUP4 KECCAK256 DUP6 DUP5 MSTORE SWAP1 SWAP2 MSTORE DUP2 KECCAK256 DUP1 SLOAD PUSH2 0xFFFF AND SWAP2 PUSH2 0x26BB DUP4 PUSH2 0x3FF7 JUMP JUMPDEST SWAP2 SWAP1 PUSH2 0x100 EXP DUP2 SLOAD DUP2 PUSH2 0xFFFF MUL NOT AND SWAP1 DUP4 PUSH2 0xFFFF AND MUL OR SWAP1 SSTORE POP POP JUMPDEST PUSH8 0xFFFFFFFFFFFFFFFF DUP4 AND PUSH1 0x0 SWAP1 DUP2 MSTORE PUSH1 0xCE PUSH1 0x20 SWAP1 DUP2 MSTORE PUSH1 0x40 DUP1 DUP4 KECCAK256 DUP14 DUP5 MSTORE DUP3 MSTORE DUP1 DUP4 KECCAK256 DUP6 DUP5 MSTORE DUP3 MSTORE DUP1 DUP4 KECCAK256 PUSH2 0xFFFF DUP13 AND DUP5 MSTORE SWAP1 SWAP2 MSTORE SWAP1 KECCAK256 PUSH2 0x2719 DUP3 DUP3 PUSH2 0x3E97 JUMP JUMPDEST POP DUP10 PUSH32 0x52A608B3303A48862D07A73D82FA221318C0027FBBCFB1B2329BFACE3F19FF2B DUP11 DUP11 DUP5 PUSH1 0x40 MLOAD PUSH2 0x274E SWAP4 SWAP3 SWAP2 SWAP1 PUSH2 0x400E JUMP JUMPDEST PUSH1 0x40 MLOAD DUP1 SWAP2 SUB SWAP1 LOG2 POP POP POP POP POP POP POP POP POP POP JUMP JUMPDEST PUSH1 0xC0 DUP2 ADD MLOAD PUSH1 0x20 DUP3 ADD DUP2 SWAP1 MSTORE DUP2 MLOAD MLOAD GT PUSH2 0x2779 JUMPI POP JUMP JUMPDEST PUSH1 0x0 PUSH2 0x278D DUP3 PUSH1 0x0 ADD MLOAD DUP4 PUSH1 0x20 ADD MLOAD PUSH2 0x2DA8 JUMP JUMPDEST DUP3 PUSH1 0x20 ADD MLOAD PUSH2 0x279C SWAP2 SWAP1 PUSH2 0x403D JUMP JUMPDEST DUP3 MLOAD SWAP1 SWAP2 POP PUSH2 0x27AB SWAP1 DUP3 PUSH2 0x2E9C JUMP JUMPDEST PUSH2 0xFFFF AND PUSH1 0x40 DUP4 ADD MSTORE PUSH2 0x27BF PUSH1 0x2 DUP3 PUSH2 0x403D JUMP JUMPDEST DUP3 MLOAD SWAP1 SWAP2 POP PUSH2 0x27CE SWAP1 DUP3 PUSH2 0x2E9C JUMP JUMPDEST PUSH2 0xFFFF AND PUSH1 0x60 DUP4 ADD MSTORE PUSH2 0x27E2 PUSH1 0x2 DUP3 PUSH2 0x403D JUMP JUMPDEST DUP3 MLOAD SWAP1 SWAP2 POP PUSH2 0x27F1 SWAP1 DUP3 PUSH2 0x2EC4 JUMP JUMPDEST PUSH4 0xFFFFFFFF AND PUSH1 0x80 DUP4 ADD MSTORE PUSH2 0x2807 PUSH1 0x4 DUP3 PUSH2 0x403D JUMP JUMPDEST DUP3 MLOAD SWAP1 SWAP2 POP PUSH1 0x0 SWAP1 PUSH2 0x2819 SWAP1 DUP4 PUSH2 0x2E9C JUMP JUMPDEST PUSH2 0xFFFF AND SWAP1 POP PUSH2 0x282A PUSH1 0x2 DUP4 PUSH2 0x403D JUMP JUMPDEST PUSH1 0xA0 DUP5 ADD DUP2 SWAP1 MSTORE SWAP2 POP PUSH2 0x283D DUP2 DUP4 PUSH2 0x403D JUMP JUMPDEST PUSH1 0xC0 SWAP1 SWAP4 ADD SWAP3 SWAP1 SWAP3 MSTORE POP POP JUMP JUMPDEST PUSH2 0x136A PUSH2 0x2A1A JUMP JUMPDEST PUSH32 0x4910FDFA16FED3260ED0E7147F7CC6DA11A60208B5B9406D12A635614FFD9143 SLOAD PUSH1 0xFF AND ISZERO PUSH2 0x2885 JUMPI PUSH2 0x1D9C DUP4 PUSH2 0x2EEE JUMP JUMPDEST DUP3 PUSH1 0x1 PUSH1 0x1 PUSH1 0xA0 SHL SUB AND PUSH4 0x52D1902D PUSH1 0x40 MLOAD DUP2 PUSH4 0xFFFFFFFF AND PUSH1 0xE0 SHL DUP2 MSTORE PUSH1 0x4 ADD PUSH1 0x20 PUSH1 0x40 MLOAD DUP1 DUP4 SUB DUP2 DUP7 GAS STATICCALL SWAP3 POP POP POP DUP1 ISZERO PUSH2 0x28DF JUMPI POP PUSH1 0x40 DUP1 MLOAD PUSH1 0x1F RETURNDATASIZE SWAP1 DUP2 ADD PUSH1 0x1F NOT AND DUP3 ADD SWAP1 SWAP3 MSTORE PUSH2 0x28DC SWAP2 DUP2 ADD SWAP1 PUSH2 0x3F9A JUMP JUMPDEST PUSH1 0x1 JUMPDEST PUSH2 0x2951 JUMPI PUSH1 0x40 MLOAD PUSH3 0x461BCD PUSH1 0xE5 SHL DUP2 MSTORE PUSH1 0x20 PUSH1 0x4 DUP3 ADD MSTORE PUSH1 0x2E PUSH1 0x24 DUP3 ADD MSTORE PUSH32 0x45524331393637557067726164653A206E657720696D706C656D656E74617469 PUSH1 0x44 DUP3 ADD MSTORE PUSH32 0x6F6E206973206E6F742055555053000000000000000000000000000000000000 PUSH1 0x64 DUP3 ADD MSTORE PUSH1 0x84 ADD PUSH2 0x1265 JUMP JUMPDEST PUSH32 0x360894A13BA1A3210667C828492DB98DCA3E2076CC3735A920A3CA505D382BBC DUP2 EQ PUSH2 0x29E6 JUMPI PUSH1 0x40 MLOAD PUSH3 0x461BCD PUSH1 0xE5 SHL DUP2 MSTORE PUSH1 0x20 PUSH1 0x4 DUP3 ADD MSTORE PUSH1 0x29 PUSH1 0x24 DUP3 ADD MSTORE PUSH32 0x45524331393637557067726164653A20756E737570706F727465642070726F78 PUSH1 0x44 DUP3 ADD MSTORE PUSH32 0x6961626C65555549440000000000000000000000000000000000000000000000 PUSH1 0x64 DUP3 ADD MSTORE PUSH1 0x84 ADD PUSH2 0x1265 JUMP JUMPDEST POP PUSH2 0x1D9C DUP4 DUP4 DUP4 PUSH2 0x2FB9 JUMP JUMPDEST PUSH1 0x0 DUP2 MLOAD PUSH1 0x14 EQ PUSH2 0x2A02 JUMPI PUSH1 0x0 DUP1 REVERT JUMPDEST POP PUSH1 0x20 ADD MLOAD PUSH13 0x1000000000000000000000000 SWAP1 DIV SWAP1 JUMP JUMPDEST PUSH1 0x97 SLOAD PUSH1 0x1 PUSH1 0x1 PUSH1 0xA0 SHL SUB AND CALLER EQ PUSH2 0x1882 JUMPI PUSH1 0x40 MLOAD PUSH3 0x461BCD PUSH1 0xE5 SHL DUP2 MSTORE PUSH1 0x20 PUSH1 0x4 DUP3 ADD DUP2 SWAP1 MSTORE PUSH1 0x24 DUP3 ADD MSTORE PUSH32 0x4F776E61626C653A2063616C6C6572206973206E6F7420746865206F776E6572 PUSH1 0x44 DUP3 ADD MSTORE PUSH1 0x64 ADD PUSH2 0x1265 JUMP JUMPDEST PUSH1 0x97 DUP1 SLOAD PUSH1 0x1 PUSH1 0x1 PUSH1 0xA0 SHL SUB DUP4 DUP2 AND PUSH20 0xFFFFFFFFFFFFFFFFFFFFFFFFFFFFFFFFFFFFFFFF NOT DUP4 AND DUP2 OR SWAP1 SWAP4 SSTORE PUSH1 0x40 MLOAD SWAP2 AND SWAP2 SWAP1 DUP3 SWAP1 PUSH32 0x8BE0079C531659141344CD1FD0A4F28419497F9722A3DAAFE3B4186F6B6457E0 SWAP1 PUSH1 0x0 SWAP1 LOG3 POP POP JUMP JUMPDEST PUSH1 0x60 DUP2 PUSH8 0xFFFFFFFFFFFFFFFF DUP2 GT ISZERO PUSH2 0x2AEE JUMPI PUSH2 0x2AEE PUSH2 0x379D JUMP JUMPDEST PUSH1 0x40 MLOAD SWAP1 DUP1 DUP3 MSTORE DUP1 PUSH1 0x20 MUL PUSH1 0x20 ADD DUP3 ADD PUSH1 0x40 MSTORE DUP1 ISZERO PUSH2 0x2B21 JUMPI DUP2 PUSH1 0x20 ADD JUMPDEST PUSH1 0x60 DUP2 MSTORE PUSH1 0x20 ADD SWAP1 PUSH1 0x1 SWAP1 SUB SWAP1 DUP2 PUSH2 0x2B0C JUMPI SWAP1 POP JUMPDEST POP SWAP1 POP PUSH1 0x0 JUMPDEST DUP3 DUP2 LT ISZERO PUSH2 0x2CA4 JUMPI DUP5 ISZERO PUSH2 0x2BEC JUMPI PUSH1 0x0 DUP5 DUP5 DUP4 DUP2 DUP2 LT PUSH2 0x2B49 JUMPI PUSH2 0x2B49 PUSH2 0x3E46 JUMP JUMPDEST SWAP1 POP PUSH1 0x20 MUL DUP2 ADD SWAP1 PUSH2 0x2B5B SWAP2 SWAP1 PUSH2 0x4050 JUMP JUMPDEST PUSH2 0x2B6A SWAP2 PUSH1 0x24 SWAP2 PUSH1 0x4 SWAP2 PUSH2 0x4097 JUMP JUMPDEST PUSH2 0x2B73 SWAP2 PUSH2 0x40C1 JUMP JUMPDEST SWAP1 POP DUP6 DUP2 EQ PUSH2 0x2BEA JUMPI PUSH1 0x40 MLOAD PUSH3 0x461BCD PUSH1 0xE5 SHL DUP2 MSTORE PUSH1 0x20 PUSH1 0x4 DUP3 ADD MSTORE PUSH1 0x34 PUSH1 0x24 DUP3 ADD MSTORE PUSH32 0x6D756C746963616C6C3A20416C6C207265636F726473206D7573742068617665 PUSH1 0x44 DUP3 ADD MSTORE PUSH32 0x2061206D61746368696E67206E616D6568617368000000000000000000000000 PUSH1 0x64 DUP3 ADD MSTORE PUSH1 0x84 ADD PUSH2 0x1265 JUMP JUMPDEST POP JUMPDEST PUSH1 0x0 DUP1 ADDRESS DUP7 DUP7 DUP6 DUP2 DUP2 LT PUSH2 0x2C02 JUMPI PUSH2 0x2C02 PUSH2 0x3E46 JUMP JUMPDEST SWAP1 POP PUSH1 0x20 MUL DUP2 ADD SWAP1 PUSH2 0x2C14 SWAP2 SWAP1 PUSH2 0x4050 JUMP JUMPDEST PUSH1 0x40 MLOAD PUSH2 0x2C22 SWAP3 SWAP2 SWAP1 PUSH2 0x3C93 JUMP JUMPDEST PUSH1 0x0 PUSH1 0x40 MLOAD DUP1 DUP4 SUB DUP2 DUP6 GAS DELEGATECALL SWAP2 POP POP RETURNDATASIZE DUP1 PUSH1 0x0 DUP2 EQ PUSH2 0x2C5D JUMPI PUSH1 0x40 MLOAD SWAP2 POP PUSH1 0x1F NOT PUSH1 0x3F RETURNDATASIZE ADD AND DUP3 ADD PUSH1 0x40 MSTORE RETURNDATASIZE DUP3 MSTORE RETURNDATASIZE PUSH1 0x0 PUSH1 0x20 DUP5 ADD RETURNDATACOPY PUSH2 0x2C62 JUMP JUMPDEST PUSH1 0x60 SWAP2 POP JUMPDEST POP SWAP2 POP SWAP2 POP DUP2 PUSH2 0x2C71 JUMPI PUSH1 0x0 DUP1 REVERT JUMPDEST DUP1 DUP5 DUP5 DUP2 MLOAD DUP2 LT PUSH2 0x2C84 JUMPI PUSH2 0x2C84 PUSH2 0x3E46 JUMP JUMPDEST PUSH1 0x20 MUL PUSH1 0x20 ADD ADD DUP2 SWAP1 MSTORE POP POP POP DUP1 DUP1 PUSH2 0x2C9C SWAP1 PUSH2 0x40DF JUMP JUMPDEST SWAP2 POP POP PUSH2 0x2B27 JUMP JUMPDEST POP SWAP4 SWAP3 POP POP POP JUMP JUMPDEST PUSH1 0x40 DUP1 MLOAD PUSH1 0x14 DUP1 DUP3 MSTORE DUP2 DUP4 ADD SWAP1 SWAP3 MSTORE PUSH1 0x60 SWAP2 PUSH1 0x20 DUP3 ADD DUP2 DUP1 CALLDATASIZE DUP4 CALLDATACOPY POP POP POP PUSH13 0x1000000000000000000000000 SWAP3 SWAP1 SWAP3 MUL PUSH1 0x20 DUP4 ADD MSTORE POP SWAP1 JUMP JUMPDEST PUSH1 0x0 SLOAD PUSH2 0x100 SWAP1 DIV PUSH1 0xFF AND PUSH2 0x2D62 JUMPI PUSH1 0x40 MLOAD PUSH3 0x461BCD PUSH1 0xE5 SHL DUP2 MSTORE PUSH1 0x20 PUSH1 0x4 DUP3 ADD MSTORE PUSH1 0x2B PUSH1 0x24 DUP3 ADD MSTORE PUSH32 0x496E697469616C697A61626C653A20636F6E7472616374206973206E6F742069 PUSH1 0x44 DUP3 ADD MSTORE PUSH32 0x6E697469616C697A696E67000000000000000000000000000000000000000000 PUSH1 0x64 DUP3 ADD MSTORE PUSH1 0x84 ADD PUSH2 0x1265 JUMP JUMPDEST PUSH2 0x1882 PUSH2 0x2FE4 JUMP JUMPDEST PUSH1 0x0 PUSH1 0x1 PUSH1 0x1 PUSH1 0xE0 SHL SUB NOT DUP3 AND PUSH32 0xC869023300000000000000000000000000000000000000000000000000000000 EQ DUP1 PUSH2 0x943 JUMPI POP PUSH2 0x943 DUP3 PUSH2 0x306A JUMP JUMPDEST PUSH1 0x0 DUP2 JUMPDEST DUP4 MLOAD DUP2 LT PUSH2 0x2DBC JUMPI PUSH2 0x2DBC PUSH2 0x40F8 JUMP JUMPDEST PUSH1 0x0 PUSH2 0x2DC8 DUP6 DUP4 PUSH2 0x30A8 JUMP JUMPDEST PUSH1 0xFF AND SWAP1 POP PUSH2 0x2DD8 DUP2 PUSH1 0x1 PUSH2 0x403D JUMP JUMPDEST PUSH2 0x2DE2 SWAP1 DUP4 PUSH2 0x403D JUMP JUMPDEST SWAP2 POP DUP1 PUSH1 0x0 SUB PUSH2 0x2DF2 JUMPI POP PUSH2 0x2DF8 JUMP JUMPDEST POP PUSH2 0x2DAC JUMP JUMPDEST PUSH2 0x1DAE DUP4 DUP3 PUSH2 0x3C80 JUMP JUMPDEST DUP3 MLOAD PUSH1 0x60 SWAP1 PUSH2 0x2E11 DUP4 DUP6 PUSH2 0x403D JUMP JUMPDEST GT ISZERO PUSH2 0x2E1C JUMPI PUSH1 0x0 DUP1 REVERT JUMPDEST PUSH1 0x0 DUP3 PUSH8 0xFFFFFFFFFFFFFFFF DUP2 GT ISZERO PUSH2 0x2E37 JUMPI PUSH2 0x2E37 PUSH2 0x379D JUMP JUMPDEST PUSH1 0x40 MLOAD SWAP1 DUP1 DUP3 MSTORE DUP1 PUSH1 0x1F ADD PUSH1 0x1F NOT AND PUSH1 0x20 ADD DUP3 ADD PUSH1 0x40 MSTORE DUP1 ISZERO PUSH2 0x2E61 JUMPI PUSH1 0x20 DUP3 ADD DUP2 DUP1 CALLDATASIZE DUP4 CALLDATACOPY ADD SWAP1 POP JUMPDEST POP SWAP1 POP PUSH1 0x20 DUP1 DUP3 ADD SWAP1 DUP7 DUP7 ADD ADD PUSH2 0xEC7 DUP3 DUP3 DUP8 PUSH2 0x30CC JUMP JUMPDEST PUSH1 0x0 PUSH2 0x2E86 DUP5 DUP5 DUP5 PUSH2 0x3122 JUMP JUMPDEST PUSH2 0x2E91 DUP8 DUP8 DUP6 PUSH2 0x3122 JUMP JUMPDEST EQ SWAP7 SWAP6 POP POP POP POP POP POP JUMP JUMPDEST DUP2 MLOAD PUSH1 0x0 SWAP1 PUSH2 0x2EAC DUP4 PUSH1 0x2 PUSH2 0x403D JUMP JUMPDEST GT ISZERO PUSH2 0x2EB7 JUMPI PUSH1 0x0 DUP1 REVERT JUMPDEST POP ADD PUSH1 0x2 ADD MLOAD PUSH2 0xFFFF AND SWAP1 JUMP JUMPDEST DUP2 MLOAD PUSH1 0x0 SWAP1 PUSH2 0x2ED4 DUP4 PUSH1 0x4 PUSH2 0x403D JUMP JUMPDEST GT ISZERO PUSH2 0x2EDF JUMPI PUSH1 0x0 DUP1 REVERT JUMPDEST POP ADD PUSH1 0x4 ADD MLOAD PUSH4 0xFFFFFFFF AND SWAP1 JUMP JUMPDEST PUSH1 0x1 PUSH1 0x1 PUSH1 0xA0 SHL SUB DUP2 AND EXTCODESIZE PUSH2 0x2F6B JUMPI PUSH1 0x40 MLOAD PUSH3 0x461BCD PUSH1 0xE5 SHL DUP2 MSTORE PUSH1 0x20 PUSH1 0x4 DUP3 ADD MSTORE PUSH1 0x2D PUSH1 0x24 DUP3 ADD MSTORE PUSH32 0x455243313936373A206E657720696D706C656D656E746174696F6E206973206E PUSH1 0x44 DUP3 ADD MSTORE PUSH32 0x6F74206120636F6E747261637400000000000000000000000000000000000000 PUSH1 0x64 DUP3 ADD MSTORE PUSH1 0x84 ADD PUSH2 0x1265 JUMP JUMPDEST PUSH32 0x360894A13BA1A3210667C828492DB98DCA3E2076CC3735A920A3CA505D382BBC DUP1 SLOAD PUSH20 0xFFFFFFFFFFFFFFFFFFFFFFFFFFFFFFFFFFFFFFFF NOT AND PUSH1 0x1 PUSH1 0x1 PUSH1 0xA0 SHL SUB SWAP3 SWAP1 SWAP3 AND SWAP2 SWAP1 SWAP2 OR SWAP1 SSTORE JUMP JUMPDEST PUSH2 0x2FC2 DUP4 PUSH2 0x3146 JUMP JUMPDEST PUSH1 0x0 DUP3 MLOAD GT DUP1 PUSH2 0x2FCF JUMPI POP DUP1 JUMPDEST ISZERO PUSH2 0x1D9C JUMPI PUSH2 0x2FDE DUP4 DUP4 PUSH2 0x3186 JUMP JUMPDEST POP POP POP POP JUMP JUMPDEST PUSH1 0x0 SLOAD PUSH2 0x100 SWAP1 DIV PUSH1 0xFF AND PUSH2 0x3061 JUMPI PUSH1 0x40 MLOAD PUSH3 0x461BCD PUSH1 0xE5 SHL DUP2 MSTORE PUSH1 0x20 PUSH1 0x4 DUP3 ADD MSTORE PUSH1 0x2B PUSH1 0x24 DUP3 ADD MSTORE PUSH32 0x496E697469616C697A61626C653A20636F6E7472616374206973206E6F742069 PUSH1 0x44 DUP3 ADD MSTORE PUSH32 0x6E697469616C697A696E67000000000000000000000000000000000000000000 PUSH1 0x64 DUP3 ADD MSTORE PUSH1 0x84 ADD PUSH2 0x1265 JUMP JUMPDEST PUSH2 0x1882 CALLER PUSH2 0x2A74 JUMP JUMPDEST PUSH1 0x0 PUSH1 0x1 PUSH1 0x1 PUSH1 0xE0 SHL SUB NOT DUP3 AND PUSH32 0x691F343100000000000000000000000000000000000000000000000000000000 EQ DUP1 PUSH2 0x943 JUMPI POP PUSH2 0x943 DUP3 PUSH2 0x31AB JUMP JUMPDEST PUSH1 0x0 DUP3 DUP3 DUP2 MLOAD DUP2 LT PUSH2 0x30BC JUMPI PUSH2 0x30BC PUSH2 0x3E46 JUMP JUMPDEST ADD PUSH1 0x20 ADD MLOAD PUSH1 0xF8 SHR SWAP1 POP SWAP3 SWAP2 POP POP JUMP JUMPDEST PUSH1 0x20 DUP2 LT PUSH2 0x3104 JUMPI DUP2 MLOAD DUP4 MSTORE PUSH2 0x30E3 PUSH1 0x20 DUP5 PUSH2 0x403D JUMP JUMPDEST SWAP3 POP PUSH2 0x30F0 PUSH1 0x20 DUP4 PUSH2 0x403D JUMP JUMPDEST SWAP2 POP PUSH2 0x30FD PUSH1 0x20 DUP3 PUSH2 0x3C80 JUMP JUMPDEST SWAP1 POP PUSH2 0x30CC JUMP JUMPDEST SWAP1 MLOAD DUP3 MLOAD PUSH1 0x20 SWAP3 SWAP1 SWAP3 SUB PUSH2 0x100 EXP PUSH1 0x0 NOT ADD DUP1 NOT SWAP1 SWAP2 AND SWAP2 AND OR SWAP1 MSTORE JUMP JUMPDEST DUP3 MLOAD PUSH1 0x0 SWAP1 PUSH2 0x3131 DUP4 DUP6 PUSH2 0x403D JUMP JUMPDEST GT ISZERO PUSH2 0x313C JUMPI PUSH1 0x0 DUP1 REVERT JUMPDEST POP SWAP2 ADD PUSH1 0x20 ADD KECCAK256 SWAP1 JUMP JUMPDEST PUSH2 0x314F DUP2 PUSH2 0x2EEE JUMP JUMPDEST PUSH1 0x40 MLOAD PUSH1 0x1 PUSH1 0x1 PUSH1 0xA0 SHL SUB DUP3 AND SWAP1 PUSH32 0xBC7CD75A20EE27FD9ADEBAB32041F755214DBC6BFFA90CC0225B39DA2E5C2D3B SWAP1 PUSH1 0x0 SWAP1 LOG2 POP JUMP JUMPDEST PUSH1 0x60 PUSH2 0x1398 DUP4 DUP4 PUSH1 0x40 MLOAD DUP1 PUSH1 0x60 ADD PUSH1 0x40 MSTORE DUP1 PUSH1 0x27 DUP2 MSTORE PUSH1 0x20 ADD PUSH2 0x410F PUSH1 0x27 SWAP2 CODECOPY PUSH2 0x31E9 JUMP JUMPDEST PUSH1 0x0 PUSH1 0x1 PUSH1 0x1 PUSH1 0xE0 SHL SUB NOT DUP3 AND PUSH32 0x124A319C00000000000000000000000000000000000000000000000000000000 EQ DUP1 PUSH2 0x943 JUMPI POP PUSH2 0x943 DUP3 PUSH2 0x3261 JUMP JUMPDEST PUSH1 0x60 PUSH1 0x0 DUP1 DUP6 PUSH1 0x1 PUSH1 0x1 PUSH1 0xA0 SHL SUB AND DUP6 PUSH1 0x40 MLOAD PUSH2 0x3206 SWAP2 SWAP1 PUSH2 0x3C4E JUMP JUMPDEST PUSH1 0x0 PUSH1 0x40 MLOAD DUP1 DUP4 SUB DUP2 DUP6 GAS DELEGATECALL SWAP2 POP POP RETURNDATASIZE DUP1 PUSH1 0x0 DUP2 EQ PUSH2 0x3241 JUMPI PUSH1 0x40 MLOAD SWAP2 POP PUSH1 0x1F NOT PUSH1 0x3F RETURNDATASIZE ADD AND DUP3 ADD PUSH1 0x40 MSTORE RETURNDATASIZE DUP3 MSTORE RETURNDATASIZE PUSH1 0x0 PUSH1 0x20 DUP5 ADD RETURNDATACOPY PUSH2 0x3246 JUMP JUMPDEST PUSH1 0x60 SWAP2 POP JUMPDEST POP SWAP2 POP SWAP2 POP PUSH2 0x3257 DUP7 DUP4 DUP4 DUP8 PUSH2 0x32D3 JUMP JUMPDEST SWAP7 SWAP6 POP POP POP POP POP POP JUMP JUMPDEST PUSH1 0x0 PUSH1 0x1 PUSH1 0x1 PUSH1 0xE0 SHL SUB NOT DUP3 AND PUSH32 0xA8FA568200000000000000000000000000000000000000000000000000000000 EQ DUP1 PUSH2 0x32C4 JUMPI POP PUSH1 0x1 PUSH1 0x1 PUSH1 0xE0 SHL SUB NOT DUP3 AND PUSH32 0x5C98042B00000000000000000000000000000000000000000000000000000000 EQ JUMPDEST DUP1 PUSH2 0x943 JUMPI POP PUSH2 0x943 DUP3 PUSH2 0x334C JUMP JUMPDEST PUSH1 0x60 DUP4 ISZERO PUSH2 0x3342 JUMPI DUP3 MLOAD PUSH1 0x0 SUB PUSH2 0x333B JUMPI PUSH1 0x1 PUSH1 0x1 PUSH1 0xA0 SHL SUB DUP6 AND EXTCODESIZE PUSH2 0x333B JUMPI PUSH1 0x40 MLOAD PUSH3 0x461BCD PUSH1 0xE5 SHL DUP2 MSTORE PUSH1 0x20 PUSH1 0x4 DUP3 ADD MSTORE PUSH1 0x1D PUSH1 0x24 DUP3 ADD MSTORE PUSH32 0x416464726573733A2063616C6C20746F206E6F6E2D636F6E7472616374000000 PUSH1 0x44 DUP3 ADD MSTORE PUSH1 0x64 ADD PUSH2 0x1265 JUMP JUMPDEST POP DUP2 PUSH2 0x1DAE JUMP JUMPDEST PUSH2 0x1DAE DUP4 DUP4 PUSH2 0x338A JUMP JUMPDEST PUSH1 0x0 PUSH1 0x1 PUSH1 0x1 PUSH1 0xE0 SHL SUB NOT DUP3 AND PUSH32 0xBC1C58D100000000000000000000000000000000000000000000000000000000 EQ DUP1 PUSH2 0x943 JUMPI POP PUSH2 0x943 DUP3 PUSH2 0x33B4 JUMP JUMPDEST DUP2 MLOAD ISZERO PUSH2 0x339A JUMPI DUP2 MLOAD DUP1 DUP4 PUSH1 0x20 ADD REVERT JUMPDEST DUP1 PUSH1 0x40 MLOAD PUSH3 0x461BCD PUSH1 0xE5 SHL DUP2 MSTORE PUSH1 0x4 ADD PUSH2 0x1265 SWAP2 SWAP1 PUSH2 0x3890 JUMP JUMPDEST PUSH1 0x0 PUSH1 0x1 PUSH1 0x1 PUSH1 0xE0 SHL SUB NOT DUP3 AND PUSH32 0x3B3B57DE00000000000000000000000000000000000000000000000000000000 EQ DUP1 PUSH2 0x3417 JUMPI POP PUSH1 0x1 PUSH1 0x1 PUSH1 0xE0 SHL SUB NOT DUP3 AND PUSH32 0xF1CB7E0600000000000000000000000000000000000000000000000000000000 EQ JUMPDEST DUP1 PUSH2 0x943 JUMPI POP PUSH2 0x943 DUP3 PUSH1 0x0 PUSH1 0x1 PUSH1 0x1 PUSH1 0xE0 SHL SUB NOT DUP3 AND PUSH32 0x2203AB5600000000000000000000000000000000000000000000000000000000 EQ DUP1 PUSH2 0x943 JUMPI POP PUSH2 0x943 DUP3 PUSH1 0x0 PUSH1 0x1 PUSH1 0x1 PUSH1 0xE0 SHL SUB NOT DUP3 AND PUSH32 0xD700FF3300000000000000000000000000000000000000000000000000000000 EQ DUP1 PUSH2 0x943 JUMPI POP PUSH2 0x943 DUP3 PUSH1 0x0 PUSH1 0x1 PUSH1 0x1 PUSH1 0xE0 SHL SUB NOT DUP3 AND PUSH32 0x4FBF043300000000000000000000000000000000000000000000000000000000 EQ DUP1 PUSH2 0x943 JUMPI POP PUSH4 0x1FFC9A7 PUSH1 0xE0 SHL PUSH1 0x1 PUSH1 0x1 PUSH1 0xE0 SHL SUB NOT DUP4 AND EQ PUSH2 0x943 JUMP JUMPDEST POP DUP1 SLOAD PUSH2 0x34ED SWAP1 PUSH2 0x3CA3 JUMP JUMPDEST PUSH1 0x0 DUP3 SSTORE DUP1 PUSH1 0x1F LT PUSH2 0x34FD JUMPI POP POP JUMP JUMPDEST PUSH1 0x1F ADD PUSH1 0x20 SWAP1 DIV SWAP1 PUSH1 0x0 MSTORE PUSH1 0x20 PUSH1 0x0 KECCAK256 SWAP1 DUP2 ADD SWAP1 PUSH2 0x136A SWAP2 SWAP1 JUMPDEST DUP1 DUP3 GT ISZERO PUSH2 0x352B JUMPI PUSH1 0x0 DUP2 SSTORE PUSH1 0x1 ADD PUSH2 0x3517 JUMP JUMPDEST POP SWAP1 JUMP JUMPDEST DUP1 CALLDATALOAD PUSH1 0x1 PUSH1 0x1 PUSH1 0xE0 SHL SUB NOT DUP2 AND DUP2 EQ PUSH2 0x3547 JUMPI PUSH1 0x0 DUP1 REVERT JUMPDEST SWAP2 SWAP1 POP JUMP JUMPDEST PUSH1 0x0 PUSH1 0x20 DUP3 DUP5 SUB SLT ISZERO PUSH2 0x355E JUMPI PUSH1 0x0 DUP1 REVERT JUMPDEST PUSH2 0x1398 DUP3 PUSH2 0x352F JUMP JUMPDEST PUSH1 0x0 DUP1 DUP4 PUSH1 0x1F DUP5 ADD SLT PUSH2 0x3579 JUMPI PUSH1 0x0 DUP1 REVERT JUMPDEST POP DUP2 CALLDATALOAD PUSH8 0xFFFFFFFFFFFFFFFF DUP2 GT ISZERO PUSH2 0x3591 JUMPI PUSH1 0x0 DUP1 REVERT JUMPDEST PUSH1 0x20 DUP4 ADD SWAP2 POP DUP4 PUSH1 0x20 DUP3 DUP6 ADD ADD GT ISZERO PUSH2 0x1005 JUMPI PUSH1 0x0 DUP1 REVERT JUMPDEST PUSH1 0x0 DUP1 PUSH1 0x0 PUSH1 0x40 DUP5 DUP7 SUB SLT ISZERO PUSH2 0x35BE JUMPI PUSH1 0x0 DUP1 REVERT JUMPDEST DUP4 CALLDATALOAD SWAP3 POP PUSH1 0x20 DUP5 ADD CALLDATALOAD PUSH8 0xFFFFFFFFFFFFFFFF DUP2 GT ISZERO PUSH2 0x35DC JUMPI PUSH1 0x0 DUP1 REVERT JUMPDEST PUSH2 0x35E8 DUP7 DUP3 DUP8 ADD PUSH2 0x3567 JUMP JUMPDEST SWAP5 SWAP8 SWAP1 SWAP7 POP SWAP4 SWAP5 POP POP POP POP JUMP JUMPDEST PUSH1 0x0 DUP1 PUSH1 0x0 DUP1 PUSH1 0x0 PUSH1 0x60 DUP7 DUP9 SUB SLT ISZERO PUSH2 0x360D JUMPI PUSH1 0x0 DUP1 REVERT JUMPDEST DUP6 CALLDATALOAD SWAP5 POP PUSH1 0x20 DUP7 ADD CALLDATALOAD PUSH8 0xFFFFFFFFFFFFFFFF DUP1 DUP3 GT ISZERO PUSH2 0x362C JUMPI PUSH1 0x0 DUP1 REVERT JUMPDEST PUSH2 0x3638 DUP10 DUP4 DUP11 ADD PUSH2 0x3567 JUMP JUMPDEST SWAP1 SWAP7 POP SWAP5 POP PUSH1 0x40 DUP9 ADD CALLDATALOAD SWAP2 POP DUP1 DUP3 GT ISZERO PUSH2 0x3651 JUMPI PUSH1 0x0 DUP1 REVERT JUMPDEST POP PUSH2 0x365E DUP9 DUP3 DUP10 ADD PUSH2 0x3567 JUMP JUMPDEST SWAP7 SWAP10 SWAP6 SWAP9 POP SWAP4 SWAP7 POP SWAP3 SWAP5 SWAP4 SWAP3 POP POP POP JUMP JUMPDEST PUSH1 0x0 DUP1 PUSH1 0x40 DUP4 DUP6 SUB SLT ISZERO PUSH2 0x3682 JUMPI PUSH1 0x0 DUP1 REVERT JUMPDEST DUP3 CALLDATALOAD SWAP2 POP PUSH2 0x3692 PUSH1 0x20 DUP5 ADD PUSH2 0x352F JUMP JUMPDEST SWAP1 POP SWAP3 POP SWAP3 SWAP1 POP JUMP JUMPDEST PUSH1 0x0 DUP1 PUSH1 0x40 DUP4 DUP6 SUB SLT ISZERO PUSH2 0x36AE JUMPI PUSH1 0x0 DUP1 REVERT JUMPDEST POP POP DUP1 CALLDATALOAD SWAP3 PUSH1 0x20 SWAP1 SWAP2 ADD CALLDATALOAD SWAP2 POP JUMP JUMPDEST PUSH1 0x0 JUMPDEST DUP4 DUP2 LT ISZERO PUSH2 0x36D8 JUMPI DUP2 DUP2 ADD MLOAD DUP4 DUP3 ADD MSTORE PUSH1 0x20 ADD PUSH2 0x36C0 JUMP JUMPDEST POP POP PUSH1 0x0 SWAP2 ADD MSTORE JUMP JUMPDEST PUSH1 0x0 DUP2 MLOAD DUP1 DUP5 MSTORE PUSH2 0x36F9 DUP2 PUSH1 0x20 DUP7 ADD PUSH1 0x20 DUP7 ADD PUSH2 0x36BD JUMP JUMPDEST PUSH1 0x1F ADD PUSH1 0x1F NOT AND SWAP3 SWAP1 SWAP3 ADD PUSH1 0x20 ADD SWAP3 SWAP2 POP POP JUMP JUMPDEST DUP3 DUP2 MSTORE PUSH1 0x40 PUSH1 0x20 DUP3 ADD MSTORE PUSH1 0x0 PUSH2 0x1DAE PUSH1 0x40 DUP4 ADD DUP5 PUSH2 0x36E1 JUMP JUMPDEST PUSH1 0x0 DUP1 PUSH1 0x0 PUSH1 0x60 DUP5 DUP7 SUB SLT ISZERO PUSH2 0x373B JUMPI PUSH1 0x0 DUP1 REVERT JUMPDEST POP POP DUP2 CALLDATALOAD SWAP4 PUSH1 0x20 DUP4 ADD CALLDATALOAD SWAP4 POP PUSH1 0x40 SWAP1 SWAP3 ADD CALLDATALOAD SWAP2 SWAP1 POP JUMP JUMPDEST PUSH1 0x0 PUSH1 0x20 DUP3 DUP5 SUB SLT ISZERO PUSH2 0x3764 JUMPI PUSH1 0x0 DUP1 REVERT JUMPDEST POP CALLDATALOAD SWAP2 SWAP1 POP JUMP JUMPDEST PUSH1 0x1 PUSH1 0x1 PUSH1 0xA0 SHL SUB DUP2 AND DUP2 EQ PUSH2 0x136A JUMPI PUSH1 0x0 DUP1 REVERT JUMPDEST PUSH1 0x0 PUSH1 0x20 DUP3 DUP5 SUB SLT ISZERO PUSH2 0x3792 JUMPI PUSH1 0x0 DUP1 REVERT JUMPDEST DUP2 CALLDATALOAD PUSH2 0x1398 DUP2 PUSH2 0x376B JUMP JUMPDEST PUSH4 0x4E487B71 PUSH1 0xE0 SHL PUSH1 0x0 MSTORE PUSH1 0x41 PUSH1 0x4 MSTORE PUSH1 0x24 PUSH1 0x0 REVERT JUMPDEST PUSH1 0x0 DUP3 PUSH1 0x1F DUP4 ADD SLT PUSH2 0x37C4 JUMPI PUSH1 0x0 DUP1 REVERT JUMPDEST DUP2 CALLDATALOAD PUSH8 0xFFFFFFFFFFFFFFFF DUP1 DUP3 GT ISZERO PUSH2 0x37DF JUMPI PUSH2 0x37DF PUSH2 0x379D JUMP JUMPDEST PUSH1 0x40 MLOAD PUSH1 0x1F DUP4 ADD PUSH1 0x1F NOT SWAP1 DUP2 AND PUSH1 0x3F ADD AND DUP2 ADD SWAP1 DUP3 DUP3 GT DUP2 DUP4 LT OR ISZERO PUSH2 0x3807 JUMPI PUSH2 0x3807 PUSH2 0x379D JUMP JUMPDEST DUP2 PUSH1 0x40 MSTORE DUP4 DUP2 MSTORE DUP7 PUSH1 0x20 DUP6 DUP9 ADD ADD GT ISZERO PUSH2 0x3820 JUMPI PUSH1 0x0 DUP1 REVERT JUMPDEST DUP4 PUSH1 0x20 DUP8 ADD PUSH1 0x20 DUP4 ADD CALLDATACOPY PUSH1 0x0 PUSH1 0x20 DUP6 DUP4 ADD ADD MSTORE DUP1 SWAP5 POP POP POP POP POP SWAP3 SWAP2 POP POP JUMP JUMPDEST PUSH1 0x0 DUP1 PUSH1 0x40 DUP4 DUP6 SUB SLT ISZERO PUSH2 0x3853 JUMPI PUSH1 0x0 DUP1 REVERT JUMPDEST DUP3 CALLDATALOAD PUSH2 0x385E DUP2 PUSH2 0x376B JUMP JUMPDEST SWAP2 POP PUSH1 0x20 DUP4 ADD CALLDATALOAD PUSH8 0xFFFFFFFFFFFFFFFF DUP2 GT ISZERO PUSH2 0x387A JUMPI PUSH1 0x0 DUP1 REVERT JUMPDEST PUSH2 0x3886 DUP6 DUP3 DUP7 ADD PUSH2 0x37B3 JUMP JUMPDEST SWAP2 POP POP SWAP3 POP SWAP3 SWAP1 POP JUMP JUMPDEST PUSH1 0x20 DUP2 MSTORE PUSH1 0x0 PUSH2 0x1398 PUSH1 0x20 DUP4 ADD DUP5 PUSH2 0x36E1 JUMP JUMPDEST PUSH1 0x0 DUP1 PUSH1 0x0 DUP1 PUSH1 0x60 DUP6 DUP8 SUB SLT ISZERO PUSH2 0x38B9 JUMPI PUSH1 0x0 DUP1 REVERT JUMPDEST DUP5 CALLDATALOAD SWAP4 POP PUSH1 0x20 DUP6 ADD CALLDATALOAD SWAP3 POP PUSH1 0x40 DUP6 ADD CALLDATALOAD PUSH8 0xFFFFFFFFFFFFFFFF DUP2 GT ISZERO PUSH2 0x38DE JUMPI PUSH1 0x0 DUP1 REVERT JUMPDEST PUSH2 0x38EA DUP8 DUP3 DUP9 ADD PUSH2 0x3567 JUMP JUMPDEST SWAP6 SWAP9 SWAP5 SWAP8 POP SWAP6 POP POP POP POP JUMP JUMPDEST PUSH1 0x0 DUP1 PUSH1 0x0 PUSH1 0x60 DUP5 DUP7 SUB SLT ISZERO PUSH2 0x390B JUMPI PUSH1 0x0 DUP1 REVERT JUMPDEST DUP4 CALLDATALOAD SWAP3 POP PUSH1 0x20 DUP5 ADD CALLDATALOAD SWAP2 POP PUSH1 0x40 DUP5 ADD CALLDATALOAD PUSH8 0xFFFFFFFFFFFFFFFF DUP2 GT ISZERO PUSH2 0x3930 JUMPI PUSH1 0x0 DUP1 REVERT JUMPDEST PUSH2 0x393C DUP7 DUP3 DUP8 ADD PUSH2 0x37B3 JUMP JUMPDEST SWAP2 POP POP SWAP3 POP SWAP3 POP SWAP3 JUMP JUMPDEST DUP1 CALLDATALOAD DUP1 ISZERO ISZERO DUP2 EQ PUSH2 0x3547 JUMPI PUSH1 0x0 DUP1 REVERT JUMPDEST PUSH1 0x0 DUP1 PUSH1 0x40 DUP4 DUP6 SUB SLT ISZERO PUSH2 0x3969 JUMPI PUSH1 0x0 DUP1 REVERT JUMPDEST DUP3 CALLDATALOAD PUSH2 0x3974 DUP2 PUSH2 0x376B JUMP JUMPDEST SWAP2 POP PUSH2 0x3692 PUSH1 0x20 DUP5 ADD PUSH2 0x3946 JUMP JUMPDEST PUSH1 0x0 DUP1 PUSH1 0x0 PUSH1 0x60 DUP5 DUP7 SUB SLT ISZERO PUSH2 0x3997 JUMPI PUSH1 0x0 DUP1 REVERT JUMPDEST DUP4 CALLDATALOAD SWAP3 POP PUSH1 0x20 DUP5 ADD CALLDATALOAD PUSH2 0x39A9 DUP2 PUSH2 0x376B JUMP JUMPDEST SWAP2 POP PUSH2 0x39B7 PUSH1 0x40 DUP6 ADD PUSH2 0x3946 JUMP JUMPDEST SWAP1 POP SWAP3 POP SWAP3 POP SWAP3 JUMP JUMPDEST PUSH1 0x0 DUP1 PUSH1 0x0 PUSH1 0x60 DUP5 DUP7 SUB SLT ISZERO PUSH2 0x39D5 JUMPI PUSH1 0x0 DUP1 REVERT JUMPDEST DUP4 CALLDATALOAD SWAP3 POP PUSH1 0x20 DUP5 ADD CALLDATALOAD SWAP2 POP PUSH1 0x40 DUP5 ADD CALLDATALOAD PUSH2 0xFFFF DUP2 AND DUP2 EQ PUSH2 0x39F5 JUMPI PUSH1 0x0 DUP1 REVERT JUMPDEST DUP1 SWAP2 POP POP SWAP3 POP SWAP3 POP SWAP3 JUMP JUMPDEST PUSH1 0x0 DUP1 PUSH1 0x0 PUSH1 0x60 DUP5 DUP7 SUB SLT ISZERO PUSH2 0x3A15 JUMPI PUSH1 0x0 DUP1 REVERT JUMPDEST DUP4 CALLDATALOAD PUSH2 0x3A20 DUP2 PUSH2 0x376B JUMP JUMPDEST SWAP3 POP PUSH1 0x20 DUP5 ADD CALLDATALOAD SWAP2 POP PUSH1 0x40 DUP5 ADD CALLDATALOAD PUSH2 0x39F5 DUP2 PUSH2 0x376B JUMP JUMPDEST PUSH1 0x0 DUP1 DUP4 PUSH1 0x1F DUP5 ADD SLT PUSH2 0x3A49 JUMPI PUSH1 0x0 DUP1 REVERT JUMPDEST POP DUP2 CALLDATALOAD PUSH8 0xFFFFFFFFFFFFFFFF DUP2 GT ISZERO PUSH2 0x3A61 JUMPI PUSH1 0x0 DUP1 REVERT JUMPDEST PUSH1 0x20 DUP4 ADD SWAP2 POP DUP4 PUSH1 0x20 DUP3 PUSH1 0x5 SHL DUP6 ADD ADD GT ISZERO PUSH2 0x1005 JUMPI PUSH1 0x0 DUP1 REVERT JUMPDEST PUSH1 0x0 DUP1 PUSH1 0x20 DUP4 DUP6 SUB SLT ISZERO PUSH2 0x3A8F JUMPI PUSH1 0x0 DUP1 REVERT JUMPDEST DUP3 CALLDATALOAD PUSH8 0xFFFFFFFFFFFFFFFF DUP2 GT ISZERO PUSH2 0x3AA6 JUMPI PUSH1 0x0 DUP1 REVERT JUMPDEST PUSH2 0x3AB2 DUP6 DUP3 DUP7 ADD PUSH2 0x3A37 JUMP JUMPDEST SWAP1 SWAP7 SWAP1 SWAP6 POP SWAP4 POP POP POP POP JUMP JUMPDEST PUSH1 0x0 PUSH1 0x20 DUP1 DUP4 ADD DUP2 DUP5 MSTORE DUP1 DUP6 MLOAD DUP1 DUP4 MSTORE PUSH1 0x40 DUP7 ADD SWAP2 POP PUSH1 0x40 DUP2 PUSH1 0x5 SHL DUP8 ADD ADD SWAP3 POP DUP4 DUP8 ADD PUSH1 0x0 JUMPDEST DUP3 DUP2 LT ISZERO PUSH2 0x3B13 JUMPI PUSH1 0x3F NOT DUP9 DUP7 SUB ADD DUP5 MSTORE PUSH2 0x3B01 DUP6 DUP4 MLOAD PUSH2 0x36E1 JUMP JUMPDEST SWAP5 POP SWAP3 DUP6 ADD SWAP3 SWAP1 DUP6 ADD SWAP1 PUSH1 0x1 ADD PUSH2 0x3AE5 JUMP JUMPDEST POP SWAP3 SWAP8 SWAP7 POP POP POP POP POP POP POP JUMP JUMPDEST PUSH1 0x0 DUP1 PUSH1 0x40 DUP4 DUP6 SUB SLT ISZERO PUSH2 0x3B33 JUMPI PUSH1 0x0 DUP1 REVERT JUMPDEST DUP3 CALLDATALOAD SWAP2 POP PUSH1 0x20 DUP4 ADD CALLDATALOAD PUSH2 0x3B45 DUP2 PUSH2 0x376B JUMP JUMPDEST DUP1 SWAP2 POP POP SWAP3 POP SWAP3 SWAP1 POP JUMP JUMPDEST PUSH1 0x0 DUP1 PUSH1 0x0 PUSH1 0x40 DUP5 DUP7 SUB SLT ISZERO PUSH2 0x3B65 JUMPI PUSH1 0x0 DUP1 REVERT JUMPDEST DUP4 CALLDATALOAD SWAP3 POP PUSH1 0x20 DUP5 ADD CALLDATALOAD PUSH8 0xFFFFFFFFFFFFFFFF DUP2 GT ISZERO PUSH2 0x3B83 JUMPI PUSH1 0x0 DUP1 REVERT JUMPDEST PUSH2 0x35E8 DUP7 DUP3 DUP8 ADD PUSH2 0x3A37 JUMP JUMPDEST PUSH1 0x0 DUP1 PUSH1 0x0 PUSH1 0x60 DUP5 DUP7 SUB SLT ISZERO PUSH2 0x3BA4 JUMPI PUSH1 0x0 DUP1 REVERT JUMPDEST DUP4 CALLDATALOAD SWAP3 POP PUSH2 0x3BB4 PUSH1 0x20 DUP6 ADD PUSH2 0x352F JUMP JUMPDEST SWAP2 POP PUSH1 0x40 DUP5 ADD CALLDATALOAD PUSH2 0x39F5 DUP2 PUSH2 0x376B JUMP JUMPDEST PUSH1 0x0 DUP1 PUSH1 0x40 DUP4 DUP6 SUB SLT ISZERO PUSH2 0x3BD7 JUMPI PUSH1 0x0 DUP1 REVERT JUMPDEST DUP3 CALLDATALOAD PUSH2 0x3BE2 DUP2 PUSH2 0x376B JUMP JUMPDEST SWAP2 POP PUSH1 0x20 DUP4 ADD CALLDATALOAD PUSH2 0x3B45 DUP2 PUSH2 0x376B JUMP JUMPDEST PUSH1 0x0 DUP1 PUSH1 0x0 DUP1 PUSH1 0x80 DUP6 DUP8 SUB SLT ISZERO PUSH2 0x3C08 JUMPI PUSH1 0x0 DUP1 REVERT JUMPDEST DUP5 CALLDATALOAD PUSH2 0x3C13 DUP2 PUSH2 0x376B JUMP JUMPDEST SWAP4 POP PUSH1 0x20 DUP6 ADD CALLDATALOAD PUSH2 0x3C23 DUP2 PUSH2 0x376B JUMP JUMPDEST SWAP3 POP PUSH1 0x40 DUP6 ADD CALLDATALOAD PUSH2 0x3C33 DUP2 PUSH2 0x376B JUMP JUMPDEST SWAP2 POP PUSH1 0x60 DUP6 ADD CALLDATALOAD PUSH2 0x3C43 DUP2 PUSH2 0x376B JUMP JUMPDEST SWAP4 SWAP7 SWAP3 SWAP6 POP SWAP1 SWAP4 POP POP JUMP JUMPDEST PUSH1 0x0 DUP3 MLOAD PUSH2 0x3C60 DUP2 DUP5 PUSH1 0x20 DUP8 ADD PUSH2 0x36BD JUMP JUMPDEST SWAP2 SWAP1 SWAP2 ADD SWAP3 SWAP2 POP POP JUMP JUMPDEST PUSH4 0x4E487B71 PUSH1 0xE0 SHL PUSH1 0x0 MSTORE PUSH1 0x11 PUSH1 0x4 MSTORE PUSH1 0x24 PUSH1 0x0 REVERT JUMPDEST DUP2 DUP2 SUB DUP2 DUP2 GT ISZERO PUSH2 0x943 JUMPI PUSH2 0x943 PUSH2 0x3C6A JUMP JUMPDEST DUP2 DUP4 DUP3 CALLDATACOPY PUSH1 0x0 SWAP2 ADD SWAP1 DUP2 MSTORE SWAP2 SWAP1 POP JUMP JUMPDEST PUSH1 0x1 DUP2 DUP2 SHR SWAP1 DUP3 AND DUP1 PUSH2 0x3CB7 JUMPI PUSH1 0x7F DUP3 AND SWAP2 POP JUMPDEST PUSH1 0x20 DUP3 LT DUP2 SUB PUSH2 0x3CD7 JUMPI PUSH4 0x4E487B71 PUSH1 0xE0 SHL PUSH1 0x0 MSTORE PUSH1 0x22 PUSH1 0x4 MSTORE PUSH1 0x24 PUSH1 0x0 REVERT JUMPDEST POP SWAP2 SWAP1 POP JUMP JUMPDEST PUSH1 0x1F DUP3 GT ISZERO PUSH2 0x1D9C JUMPI PUSH1 0x0 DUP2 DUP2 MSTORE PUSH1 0x20 DUP2 KECCAK256 PUSH1 0x1F DUP6 ADD PUSH1 0x5 SHR DUP2 ADD PUSH1 0x20 DUP7 LT ISZERO PUSH2 0x3D04 JUMPI POP DUP1 JUMPDEST PUSH1 0x1F DUP6 ADD PUSH1 0x5 SHR DUP3 ADD SWAP2 POP JUMPDEST DUP2 DUP2 LT ISZERO PUSH2 0x3D23 JUMPI DUP3 DUP2 SSTORE PUSH1 0x1 ADD PUSH2 0x3D10 JUMP JUMPDEST POP POP POP POP POP POP JUMP JUMPDEST PUSH8 0xFFFFFFFFFFFFFFFF DUP4 GT ISZERO PUSH2 0x3D43 JUMPI PUSH2 0x3D43 PUSH2 0x379D JUMP JUMPDEST PUSH2 0x3D57 DUP4 PUSH2 0x3D51 DUP4 SLOAD PUSH2 0x3CA3 JUMP JUMPDEST DUP4 PUSH2 0x3CDD JUMP JUMPDEST PUSH1 0x0 PUSH1 0x1F DUP5 GT PUSH1 0x1 DUP2 EQ PUSH2 0x3D8B JUMPI PUSH1 0x0 DUP6 ISZERO PUSH2 0x3D73 JUMPI POP DUP4 DUP3 ADD CALLDATALOAD JUMPDEST PUSH1 0x0 NOT PUSH1 0x3 DUP8 SWAP1 SHL SHR NOT AND PUSH1 0x1 DUP7 SWAP1 SHL OR DUP4 SSTORE PUSH2 0x19DD JUMP JUMPDEST PUSH1 0x0 DUP4 DUP2 MSTORE PUSH1 0x20 SWAP1 KECCAK256 PUSH1 0x1F NOT DUP7 AND SWAP1 DUP4 JUMPDEST DUP3 DUP2 LT ISZERO PUSH2 0x3DBC JUMPI DUP7 DUP6 ADD CALLDATALOAD DUP3 SSTORE PUSH1 0x20 SWAP5 DUP6 ADD SWAP5 PUSH1 0x1 SWAP1 SWAP3 ADD SWAP2 ADD PUSH2 0x3D9C JUMP JUMPDEST POP DUP7 DUP3 LT ISZERO PUSH2 0x3DD9 JUMPI PUSH1 0x0 NOT PUSH1 0xF8 DUP9 PUSH1 0x3 SHL AND SHR NOT DUP5 DUP8 ADD CALLDATALOAD AND DUP2 SSTORE JUMPDEST POP POP PUSH1 0x1 DUP6 PUSH1 0x1 SHL ADD DUP4 SSTORE POP POP POP POP POP JUMP JUMPDEST DUP2 DUP4 MSTORE DUP2 DUP2 PUSH1 0x20 DUP6 ADD CALLDATACOPY POP PUSH1 0x0 DUP3 DUP3 ADD PUSH1 0x20 SWAP1 DUP2 ADD SWAP2 SWAP1 SWAP2 MSTORE PUSH1 0x1F SWAP1 SWAP2 ADD PUSH1 0x1F NOT AND SWAP1 SWAP2 ADD ADD SWAP1 JUMP JUMPDEST PUSH1 0x40 DUP2 MSTORE PUSH1 0x0 PUSH2 0x3E28 PUSH1 0x40 DUP4 ADD DUP7 DUP9 PUSH2 0x3DEB JUMP JUMPDEST DUP3 DUP2 SUB PUSH1 0x20 DUP5 ADD MSTORE PUSH2 0x3E3B DUP2 DUP6 DUP8 PUSH2 0x3DEB JUMP JUMPDEST SWAP8 SWAP7 POP POP POP POP POP POP POP JUMP JUMPDEST PUSH4 0x4E487B71 PUSH1 0xE0 SHL PUSH1 0x0 MSTORE PUSH1 0x32 PUSH1 0x4 MSTORE PUSH1 0x24 PUSH1 0x0 REVERT JUMPDEST PUSH1 0x20 DUP2 MSTORE PUSH1 0x0 PUSH2 0x1DAE PUSH1 0x20 DUP4 ADD DUP5 DUP7 PUSH2 0x3DEB JUMP JUMPDEST PUSH1 0x0 PUSH8 0xFFFFFFFFFFFFFFFF DUP1 DUP4 AND DUP2 DUP2 SUB PUSH2 0x3E8D JUMPI PUSH2 0x3E8D PUSH2 0x3C6A JUMP JUMPDEST PUSH1 0x1 ADD SWAP4 SWAP3 POP POP POP JUMP JUMPDEST DUP2 MLOAD PUSH8 0xFFFFFFFFFFFFFFFF DUP2 GT ISZERO PUSH2 0x3EB1 JUMPI PUSH2 0x3EB1 PUSH2 0x379D JUMP JUMPDEST PUSH2 0x3EC5 DUP2 PUSH2 0x3EBF DUP5 SLOAD PUSH2 0x3CA3 JUMP JUMPDEST DUP5 PUSH2 0x3CDD JUMP JUMPDEST PUSH1 0x20 DUP1 PUSH1 0x1F DUP4 GT PUSH1 0x1 DUP2 EQ PUSH2 0x3EFA JUMPI PUSH1 0x0 DUP5 ISZERO PUSH2 0x3EE2 JUMPI POP DUP6 DUP4 ADD MLOAD JUMPDEST PUSH1 0x0 NOT PUSH1 0x3 DUP7 SWAP1 SHL SHR NOT AND PUSH1 0x1 DUP6 SWAP1 SHL OR DUP6 SSTORE PUSH2 0x3D23 JUMP JUMPDEST PUSH1 0x0 DUP6 DUP2 MSTORE PUSH1 0x20 DUP2 KECCAK256 PUSH1 0x1F NOT DUP7 AND SWAP2 JUMPDEST DUP3 DUP2 LT ISZERO PUSH2 0x3F29 JUMPI DUP9 DUP7 ADD MLOAD DUP3 SSTORE SWAP5 DUP5 ADD SWAP5 PUSH1 0x1 SWAP1 SWAP2 ADD SWAP1 DUP5 ADD PUSH2 0x3F0A JUMP JUMPDEST POP DUP6 DUP3 LT ISZERO PUSH2 0x3F47 JUMPI DUP8 DUP6 ADD MLOAD PUSH1 0x0 NOT PUSH1 0x3 DUP9 SWAP1 SHL PUSH1 0xF8 AND SHR NOT AND DUP2 SSTORE JUMPDEST POP POP POP POP POP PUSH1 0x1 SWAP1 DUP2 SHL ADD SWAP1 SSTORE POP JUMP JUMPDEST PUSH1 0x40 DUP2 MSTORE PUSH1 0x0 PUSH2 0x3F6A PUSH1 0x40 DUP4 ADD DUP7 PUSH2 0x36E1 JUMP JUMPDEST DUP3 DUP2 SUB PUSH1 0x20 DUP5 ADD MSTORE PUSH2 0x3257 DUP2 DUP6 DUP8 PUSH2 0x3DEB JUMP JUMPDEST PUSH1 0x0 PUSH1 0x20 DUP3 DUP5 SUB SLT ISZERO PUSH2 0x3F8F JUMPI PUSH1 0x0 DUP1 REVERT JUMPDEST DUP2 MLOAD PUSH2 0x1398 DUP2 PUSH2 0x376B JUMP JUMPDEST PUSH1 0x0 PUSH1 0x20 DUP3 DUP5 SUB SLT ISZERO PUSH2 0x3FAC JUMPI PUSH1 0x0 DUP1 REVERT JUMPDEST POP MLOAD SWAP2 SWAP1 POP JUMP JUMPDEST PUSH1 0x0 PUSH2 0xFFFF DUP3 AND DUP1 PUSH2 0x3FC7 JUMPI PUSH2 0x3FC7 PUSH2 0x3C6A JUMP JUMPDEST PUSH1 0x0 NOT ADD SWAP3 SWAP2 POP POP JUMP JUMPDEST PUSH1 0x40 DUP2 MSTORE PUSH1 0x0 PUSH2 0x3FE4 PUSH1 0x40 DUP4 ADD DUP6 PUSH2 0x36E1 JUMP JUMPDEST SWAP1 POP PUSH2 0xFFFF DUP4 AND PUSH1 0x20 DUP4 ADD MSTORE SWAP4 SWAP3 POP POP POP JUMP JUMPDEST PUSH1 0x0 PUSH2 0xFFFF DUP1 DUP4 AND DUP2 DUP2 SUB PUSH2 0x3E8D JUMPI PUSH2 0x3E8D PUSH2 0x3C6A JUMP JUMPDEST PUSH1 0x60 DUP2 MSTORE PUSH1 0x0 PUSH2 0x4021 PUSH1 0x60 DUP4 ADD DUP7 PUSH2 0x36E1 JUMP JUMPDEST PUSH2 0xFFFF DUP6 AND PUSH1 0x20 DUP5 ADD MSTORE DUP3 DUP2 SUB PUSH1 0x40 DUP5 ADD MSTORE PUSH2 0x3257 DUP2 DUP6 PUSH2 0x36E1 JUMP JUMPDEST DUP1 DUP3 ADD DUP1 DUP3 GT ISZERO PUSH2 0x943 JUMPI PUSH2 0x943 PUSH2 0x3C6A JUMP JUMPDEST PUSH1 0x0 DUP1 DUP4 CALLDATALOAD PUSH1 0x1E NOT DUP5 CALLDATASIZE SUB ADD DUP2 SLT PUSH2 0x4067 JUMPI PUSH1 0x0 DUP1 REVERT JUMPDEST DUP4 ADD DUP1 CALLDATALOAD SWAP2 POP PUSH8 0xFFFFFFFFFFFFFFFF DUP3 GT ISZERO PUSH2 0x4082 JUMPI PUSH1 0x0 DUP1 REVERT JUMPDEST PUSH1 0x20 ADD SWAP2 POP CALLDATASIZE DUP2 SWAP1 SUB DUP3 SGT ISZERO PUSH2 0x1005 JUMPI PUSH1 0x0 DUP1 REVERT JUMPDEST PUSH1 0x0 DUP1 DUP6 DUP6 GT ISZERO PUSH2 0x40A7 JUMPI PUSH1 0x0 DUP1 REVERT JUMPDEST DUP4 DUP7 GT ISZERO PUSH2 0x40B4 JUMPI PUSH1 0x0 DUP1 REVERT JUMPDEST POP POP DUP3 ADD SWAP4 SWAP2 SWAP1 SWAP3 SUB SWAP2 POP JUMP JUMPDEST DUP1 CALLDATALOAD PUSH1 0x20 DUP4 LT ISZERO PUSH2 0x943 JUMPI PUSH1 0x0 NOT PUSH1 0x20 DUP5 SWAP1 SUB PUSH1 0x3 SHL SHL AND SWAP3 SWAP2 POP POP JUMP JUMPDEST PUSH1 0x0 PUSH1 0x1 DUP3 ADD PUSH2 0x40F1 JUMPI PUSH2 0x40F1 PUSH2 0x3C6A JUMP JUMPDEST POP PUSH1 0x1 ADD SWAP1 JUMP JUMPDEST PUSH4 0x4E487B71 PUSH1 0xE0 SHL PUSH1 0x0 MSTORE PUSH1 0x1 PUSH1 0x4 MSTORE PUSH1 0x24 PUSH1 0x0 REVERT INVALID COINBASE PUSH5 0x6472657373 GASPRICE KECCAK256 PUSH13 0x6F772D6C6576656C2064656C65 PUSH8 0x6174652063616C6C KECCAK256 PUSH7 0x61696C6564A264 PUSH10 0x70667358221220100994 PC PUSH9 0x4FB48AD38C646845DE 0x2E DUP3 0xB4 PUSH24 0xA5A9F6590E8C199E0205CAF4BFBB64736F6C634300081100 CALLER "},"gasEstimates":{"creation":{"codeDepositCost":"3349400","executionCost":"infinite","totalCost":"infinite"},"external":{"ABI(bytes32,uint256)":"infinite","addr(bytes32)":"infinite","addr(bytes32,uint256)":"infinite","approve(bytes32,address,bool)":"27177","clearRecords(bytes32)":"infinite","contenthash(bytes32)":"infinite","dnsRecord(bytes32,bytes32,uint16)":"infinite","ens()":"2428","hasDNSRecords(bytes32,bytes32)":"4843","initialize(address,address,address,address)":"infinite","interfaceImplementer(bytes32,bytes4)":"infinite","isApprovedFor(address,bytes32,address)":"infinite","isApprovedForAll(address,address)":"infinite","multicall(bytes[])":"infinite","multicallWithNodeCheck(bytes32,bytes[])":"infinite","name(bytes32)":"infinite","nameWrapper()":"2427","owner()":"2421","proxiableUUID()":"infinite","pubkey(bytes32)":"6908","recordVersions(bytes32)":"2564","renounceOwnership()":"infinite","setABI(bytes32,uint256,bytes)":"infinite","setAddr(bytes32,address)":"infinite","setAddr(bytes32,uint256,bytes)":"infinite","setApprovalForAll(address,bool)":"26761","setContenthash(bytes32,bytes)":"infinite","setDNSRecords(bytes32,bytes)":"infinite","setInterface(bytes32,bytes4,address)":"infinite","setName(bytes32,string)":"infinite","setPubkey(bytes32,bytes32,bytes32)":"infinite","setText(bytes32,string,string)":"infinite","setZonehash(bytes32,bytes)":"infinite","supportsInterface(bytes4)":"infinite","text(bytes32,string)":"infinite","transferOwnership(address)":"infinite","trustedETHController()":"2449","trustedReverseRegistrar()":"2426","upgradeTo(address)":"infinite","upgradeToAndCall(address,bytes)":"infinite","zonehash(bytes32)":"infinite"},"internal":{"_authorizeUpgrade(address)":"infinite","isAuthorised(bytes32)":"infinite"}},"methodIdentifiers":{"ABI(bytes32,uint256)":"2203ab56","addr(bytes32)":"3b3b57de","addr(bytes32,uint256)":"f1cb7e06","approve(bytes32,address,bool)":"a4b91a01","clearRecords(bytes32)":"3603d758","contenthash(bytes32)":"bc1c58d1","dnsRecord(bytes32,bytes32,uint16)":"a8fa5682","ens()":"3f15457f","hasDNSRecords(bytes32,bytes32)":"4cbf6ba4","initialize(address,address,address,address)":"f8c8765e","interfaceImplementer(bytes32,bytes4)":"124a319c","isApprovedFor(address,bytes32,address)":"a9784b3e","isApprovedForAll(address,address)":"e985e9c5","multicall(bytes[])":"ac9650d8","multicallWithNodeCheck(bytes32,bytes[])":"e32954eb","name(bytes32)":"691f3431","nameWrapper()":"a8e5fbc0","owner()":"8da5cb5b","proxiableUUID()":"52d1902d","pubkey(bytes32)":"c8690233","recordVersions(bytes32)":"d700ff33","renounceOwnership()":"715018a6","setABI(bytes32,uint256,bytes)":"623195b0","setAddr(bytes32,address)":"d5fa2b00","setAddr(bytes32,uint256,bytes)":"8b95dd71","setApprovalForAll(address,bool)":"a22cb465","setContenthash(bytes32,bytes)":"304e6ade","setDNSRecords(bytes32,bytes)":"0af179d7","setInterface(bytes32,bytes4,address)":"e59d895d","setName(bytes32,string)":"77372213","setPubkey(bytes32,bytes32,bytes32)":"29cd62ea","setText(bytes32,string,string)":"10f13a8c","setZonehash(bytes32,bytes)":"ce3decdc","supportsInterface(bytes4)":"01ffc9a7","text(bytes32,string)":"59d1d43c","transferOwnership(address)":"f2fde38b","trustedETHController()":"37bf7a2f","trustedReverseRegistrar()":"62c50a13","upgradeTo(address)":"3659cfe6","upgradeToAndCall(address,bytes)":"4f1ef286","zonehash(bytes32)":"5c98042b"}},"storageLayout":{"storage":[{"astId":926,"contract":"contracts/resolvers/PublicResolver.sol:PublicResolver","label":"_initialized","offset":0,"slot":"0","type":"t_uint8"},{"astId":929,"contract":"contracts/resolvers/PublicResolver.sol:PublicResolver","label":"_initializing","offset":1,"slot":"0","type":"t_bool"},{"astId":908,"contract":"contracts/resolvers/PublicResolver.sol:PublicResolver","label":"__gap","offset":0,"slot":"1","type":"t_array(t_uint256)50_storage"},{"astId":1224,"contract":"contracts/resolvers/PublicResolver.sol:PublicResolver","label":"__gap","offset":0,"slot":"51","type":"t_array(t_uint256)50_storage"},{"astId":1605,"contract":"contracts/resolvers/PublicResolver.sol:PublicResolver","label":"__gap","offset":0,"slot":"101","type":"t_array(t_uint256)50_storage"},{"astId":432,"contract":"contracts/resolvers/PublicResolver.sol:PublicResolver","label":"_owner","offset":0,"slot":"151","type":"t_address"},{"astId":552,"contract":"contracts/resolvers/PublicResolver.sol:PublicResolver","label":"__gap","offset":0,"slot":"152","type":"t_array(t_uint256)49_storage"},{"astId":3864,"contract":"contracts/resolvers/PublicResolver.sol:PublicResolver","label":"recordVersions","offset":0,"slot":"201","type":"t_mapping(t_bytes32,t_uint64)"},{"astId":3943,"contract":"contracts/resolvers/PublicResolver.sol:PublicResolver","label":"versionable_abis","offset":0,"slot":"202","type":"t_mapping(t_uint64,t_mapping(t_bytes32,t_mapping(t_uint256,t_bytes_storage)))"},{"astId":4097,"contract":"contracts/resolvers/PublicResolver.sol:PublicResolver","label":"versionable_addresses","offset":0,"slot":"203","type":"t_mapping(t_uint64,t_mapping(t_bytes32,t_mapping(t_uint256,t_bytes_storage)))"},{"astId":4288,"contract":"contracts/resolvers/PublicResolver.sol:PublicResolver","label":"versionable_hashes","offset":0,"slot":"204","type":"t_mapping(t_uint64,t_mapping(t_bytes32,t_bytes_storage))"},{"astId":4378,"contract":"contracts/resolvers/PublicResolver.sol:PublicResolver","label":"versionable_zonehashes","offset":0,"slot":"205","type":"t_mapping(t_uint64,t_mapping(t_bytes32,t_bytes_storage))"},{"astId":4388,"contract":"contracts/resolvers/PublicResolver.sol:PublicResolver","label":"versionable_records","offset":0,"slot":"206","type":"t_mapping(t_uint64,t_mapping(t_bytes32,t_mapping(t_bytes32,t_mapping(t_uint16,t_bytes_storage))))"},{"astId":4396,"contract":"contracts/resolvers/PublicResolver.sol:PublicResolver","label":"versionable_nameEntriesCount","offset":0,"slot":"207","type":"t_mapping(t_uint64,t_mapping(t_bytes32,t_mapping(t_bytes32,t_uint16)))"},{"astId":5076,"contract":"contracts/resolvers/PublicResolver.sol:PublicResolver","label":"versionable_interfaces","offset":0,"slot":"208","type":"t_mapping(t_uint64,t_mapping(t_bytes32,t_mapping(t_bytes4,t_address)))"},{"astId":5268,"contract":"contracts/resolvers/PublicResolver.sol:PublicResolver","label":"versionable_names","offset":0,"slot":"209","type":"t_mapping(t_uint64,t_mapping(t_bytes32,t_string_storage))"},{"astId":5355,"contract":"contracts/resolvers/PublicResolver.sol:PublicResolver","label":"versionable_pubkeys","offset":0,"slot":"210","type":"t_mapping(t_uint64,t_mapping(t_bytes32,t_struct(PublicKey)5348_storage))"},{"astId":5458,"contract":"contracts/resolvers/PublicResolver.sol:PublicResolver","label":"versionable_texts","offset":0,"slot":"211","type":"t_mapping(t_uint64,t_mapping(t_bytes32,t_mapping(t_string_memory_ptr,t_string_storage)))"},{"astId":3543,"contract":"contracts/resolvers/PublicResolver.sol:PublicResolver","label":"ens","offset":0,"slot":"212","type":"t_contract(ENS)3320"},{"astId":3546,"contract":"contracts/resolvers/PublicResolver.sol:PublicResolver","label":"nameWrapper","offset":0,"slot":"213","type":"t_contract(INameWrapper)6917"},{"astId":3548,"contract":"contracts/resolvers/PublicResolver.sol:PublicResolver","label":"trustedETHController","offset":0,"slot":"214","type":"t_address"},{"astId":3550,"contract":"contracts/resolvers/PublicResolver.sol:PublicResolver","label":"trustedReverseRegistrar","offset":0,"slot":"215","type":"t_address"},{"astId":3557,"contract":"contracts/resolvers/PublicResolver.sol:PublicResolver","label":"_operatorApprovals","offset":0,"slot":"216","type":"t_mapping(t_address,t_mapping(t_address,t_bool))"},{"astId":3566,"contract":"contracts/resolvers/PublicResolver.sol:PublicResolver","label":"_tokenApprovals","offset":0,"slot":"217","type":"t_mapping(t_address,t_mapping(t_bytes32,t_mapping(t_address,t_bool)))"}],"types":{"t_address":{"encoding":"inplace","label":"address","numberOfBytes":"20"},"t_array(t_uint256)49_storage":{"base":"t_uint256","encoding":"inplace","label":"uint256[49]","numberOfBytes":"1568"},"t_array(t_uint256)50_storage":{"base":"t_uint256","encoding":"inplace","label":"uint256[50]","numberOfBytes":"1600"},"t_bool":{"encoding":"inplace","label":"bool","numberOfBytes":"1"},"t_bytes32":{"encoding":"inplace","label":"bytes32","numberOfBytes":"32"},"t_bytes4":{"encoding":"inplace","label":"bytes4","numberOfBytes":"4"},"t_bytes_storage":{"encoding":"bytes","label":"bytes","numberOfBytes":"32"},"t_contract(ENS)3320":{"encoding":"inplace","label":"contract ENS","numberOfBytes":"20"},"t_contract(INameWrapper)6917":{"encoding":"inplace","label":"contract INameWrapper","numberOfBytes":"20"},"t_mapping(t_address,t_bool)":{"encoding":"mapping","key":"t_address","label":"mapping(address => bool)","numberOfBytes":"32","value":"t_bool"},"t_mapping(t_address,t_mapping(t_address,t_bool))":{"encoding":"mapping","key":"t_address","label":"mapping(address => mapping(address => bool))","numberOfBytes":"32","value":"t_mapping(t_address,t_bool)"},"t_mapping(t_address,t_mapping(t_bytes32,t_mapping(t_address,t_bool)))":{"encoding":"mapping","key":"t_address","label":"mapping(address => mapping(bytes32 => mapping(address => bool)))","numberOfBytes":"32","value":"t_mapping(t_bytes32,t_mapping(t_address,t_bool))"},"t_mapping(t_bytes32,t_bytes_storage)":{"encoding":"mapping","key":"t_bytes32","label":"mapping(bytes32 => bytes)","numberOfBytes":"32","value":"t_bytes_storage"},"t_mapping(t_bytes32,t_mapping(t_address,t_bool))":{"encoding":"mapping","key":"t_bytes32","label":"mapping(bytes32 => mapping(address => bool))","numberOfBytes":"32","value":"t_mapping(t_address,t_bool)"},"t_mapping(t_bytes32,t_mapping(t_bytes32,t_mapping(t_uint16,t_bytes_storage)))":{"encoding":"mapping","key":"t_bytes32","label":"mapping(bytes32 => mapping(bytes32 => mapping(uint16 => bytes)))","numberOfBytes":"32","value":"t_mapping(t_bytes32,t_mapping(t_uint16,t_bytes_storage))"},"t_mapping(t_bytes32,t_mapping(t_bytes32,t_uint16))":{"encoding":"mapping","key":"t_bytes32","label":"mapping(bytes32 => mapping(bytes32 => uint16))","numberOfBytes":"32","value":"t_mapping(t_bytes32,t_uint16)"},"t_mapping(t_bytes32,t_mapping(t_bytes4,t_address))":{"encoding":"mapping","key":"t_bytes32","label":"mapping(bytes32 => mapping(bytes4 => address))","numberOfBytes":"32","value":"t_mapping(t_bytes4,t_address)"},"t_mapping(t_bytes32,t_mapping(t_string_memory_ptr,t_string_storage))":{"encoding":"mapping","key":"t_bytes32","label":"mapping(bytes32 => mapping(string => string))","numberOfBytes":"32","value":"t_mapping(t_string_memory_ptr,t_string_storage)"},"t_mapping(t_bytes32,t_mapping(t_uint16,t_bytes_storage))":{"encoding":"mapping","key":"t_bytes32","label":"mapping(bytes32 => mapping(uint16 => bytes))","numberOfBytes":"32","value":"t_mapping(t_uint16,t_bytes_storage)"},"t_mapping(t_bytes32,t_mapping(t_uint256,t_bytes_storage))":{"encoding":"mapping","key":"t_bytes32","label":"mapping(bytes32 => mapping(uint256 => bytes))","numberOfBytes":"32","value":"t_mapping(t_uint256,t_bytes_storage)"},"t_mapping(t_bytes32,t_string_storage)":{"encoding":"mapping","key":"t_bytes32","label":"mapping(bytes32 => string)","numberOfBytes":"32","value":"t_string_storage"},"t_mapping(t_bytes32,t_struct(PublicKey)5348_storage)":{"encoding":"mapping","key":"t_bytes32","label":"mapping(bytes32 => struct PubkeyResolver.PublicKey)","numberOfBytes":"32","value":"t_struct(PublicKey)5348_storage"},"t_mapping(t_bytes32,t_uint16)":{"encoding":"mapping","key":"t_bytes32","label":"mapping(bytes32 => uint16)","numberOfBytes":"32","value":"t_uint16"},"t_mapping(t_bytes32,t_uint64)":{"encoding":"mapping","key":"t_bytes32","label":"mapping(bytes32 => uint64)","numberOfBytes":"32","value":"t_uint64"},"t_mapping(t_bytes4,t_address)":{"encoding":"mapping","key":"t_bytes4","label":"mapping(bytes4 => address)","numberOfBytes":"32","value":"t_address"},"t_mapping(t_string_memory_ptr,t_string_storage)":{"encoding":"mapping","key":"t_string_memory_ptr","label":"mapping(string => string)","numberOfBytes":"32","value":"t_string_storage"},"t_mapping(t_uint16,t_bytes_storage)":{"encoding":"mapping","key":"t_uint16","label":"mapping(uint16 => bytes)","numberOfBytes":"32","value":"t_bytes_storage"},"t_mapping(t_uint256,t_bytes_storage)":{"encoding":"mapping","key":"t_uint256","label":"mapping(uint256 => bytes)","numberOfBytes":"32","value":"t_bytes_storage"},"t_mapping(t_uint64,t_mapping(t_bytes32,t_bytes_storage))":{"encoding":"mapping","key":"t_uint64","label":"mapping(uint64 => mapping(bytes32 => bytes))","numberOfBytes":"32","value":"t_mapping(t_bytes32,t_bytes_storage)"},"t_mapping(t_uint64,t_mapping(t_bytes32,t_mapping(t_bytes32,t_mapping(t_uint16,t_bytes_storage))))":{"encoding":"mapping","key":"t_uint64","label":"mapping(uint64 => mapping(bytes32 => mapping(bytes32 => mapping(uint16 => bytes))))","numberOfBytes":"32","value":"t_mapping(t_bytes32,t_mapping(t_bytes32,t_mapping(t_uint16,t_bytes_storage)))"},"t_mapping(t_uint64,t_mapping(t_bytes32,t_mapping(t_bytes32,t_uint16)))":{"encoding":"mapping","key":"t_uint64","label":"mapping(uint64 => mapping(bytes32 => mapping(bytes32 => uint16)))","numberOfBytes":"32","value":"t_mapping(t_bytes32,t_mapping(t_bytes32,t_uint16))"},"t_mapping(t_uint64,t_mapping(t_bytes32,t_mapping(t_bytes4,t_address)))":{"encoding":"mapping","key":"t_uint64","label":"mapping(uint64 => mapping(bytes32 => mapping(bytes4 => address)))","numberOfBytes":"32","value":"t_mapping(t_bytes32,t_mapping(t_bytes4,t_address))"},"t_mapping(t_uint64,t_mapping(t_bytes32,t_mapping(t_string_memory_ptr,t_string_storage)))":{"encoding":"mapping","key":"t_uint64","label":"mapping(uint64 => mapping(bytes32 => mapping(string => string)))","numberOfBytes":"32","value":"t_mapping(t_bytes32,t_mapping(t_string_memory_ptr,t_string_storage))"},"t_mapping(t_uint64,t_mapping(t_bytes32,t_mapping(t_uint256,t_bytes_storage)))":{"encoding":"mapping","key":"t_uint64","label":"mapping(uint64 => mapping(bytes32 => mapping(uint256 => bytes)))","numberOfBytes":"32","value":"t_mapping(t_bytes32,t_mapping(t_uint256,t_bytes_storage))"},"t_mapping(t_uint64,t_mapping(t_bytes32,t_string_storage))":{"encoding":"mapping","key":"t_uint64","label":"mapping(uint64 => mapping(bytes32 => string))","numberOfBytes":"32","value":"t_mapping(t_bytes32,t_string_storage)"},"t_mapping(t_uint64,t_mapping(t_bytes32,t_struct(PublicKey)5348_storage))":{"encoding":"mapping","key":"t_uint64","label":"mapping(uint64 => mapping(bytes32 => struct PubkeyResolver.PublicKey))","numberOfBytes":"32","value":"t_mapping(t_bytes32,t_struct(PublicKey)5348_storage)"},"t_string_memory_ptr":{"encoding":"bytes","label":"string","numberOfBytes":"32"},"t_string_storage":{"encoding":"bytes","label":"string","numberOfBytes":"32"},"t_struct(PublicKey)5348_storage":{"encoding":"inplace","label":"struct PubkeyResolver.PublicKey","members":[{"astId":5345,"contract":"contracts/resolvers/PublicResolver.sol:PublicResolver","label":"x","offset":0,"slot":"0","type":"t_bytes32"},{"astId":5347,"contract":"contracts/resolvers/PublicResolver.sol:PublicResolver","label":"y","offset":0,"slot":"1","type":"t_bytes32"}],"numberOfBytes":"64"},"t_uint16":{"encoding":"inplace","label":"uint16","numberOfBytes":"2"},"t_uint256":{"encoding":"inplace","label":"uint256","numberOfBytes":"32"},"t_uint64":{"encoding":"inplace","label":"uint64","numberOfBytes":"8"},"t_uint8":{"encoding":"inplace","label":"uint8","numberOfBytes":"1"}}},"userdoc":{"kind":"user","methods":{"ABI(bytes32,uint256)":{"notice":"Returns the ABI associated with an ENS node. Defined in EIP205."},"addr(bytes32)":{"notice":"Returns the address associated with an ENS node."},"clearRecords(bytes32)":{"notice":"Increments the record version associated with an ENS node. May only be called by the owner of that node in the ENS registry."},"contenthash(bytes32)":{"notice":"Returns the contenthash associated with an ENS node."},"dnsRecord(bytes32,bytes32,uint16)":{"notice":"Obtain a DNS record."},"hasDNSRecords(bytes32,bytes32)":{"notice":"Check if a given node has records."},"interfaceImplementer(bytes32,bytes4)":{"notice":"Returns the address of a contract that implements the specified interface for this name. If an implementer has not been set for this interfaceID and name, the resolver will query the contract at `addr()`. If `addr()` is set, a contract exists at that address, and that contract implements EIP165 and returns `true` for the specified interfaceID, its address will be returned."},"name(bytes32)":{"notice":"Returns the name associated with an ENS node, for reverse records. Defined in EIP181."},"pubkey(bytes32)":{"notice":"Returns the SECP256k1 public key associated with an ENS node. Defined in EIP 619."},"setABI(bytes32,uint256,bytes)":{"notice":"Sets the ABI associated with an ENS node. Nodes may have one ABI of each content type. To remove an ABI, set it to the empty string."},"setAddr(bytes32,address)":{"notice":"Sets the address associated with an ENS node. May only be called by the owner of that node in the ENS registry."},"setContenthash(bytes32,bytes)":{"notice":"Sets the contenthash associated with an ENS node. May only be called by the owner of that node in the ENS registry."},"setDNSRecords(bytes32,bytes)":{"notice":"Set one or more DNS records.  Records are supplied in wire-format. Records with the same node/name/resource must be supplied one after the other to ensure the data is updated correctly. For example, if the data was supplied:     a.example.com IN A 1.2.3.4     a.example.com IN A 5.6.7.8     www.example.com IN CNAME a.example.com. then this would store the two A records for a.example.com correctly as a single RRSET, however if the data was supplied:     a.example.com IN A 1.2.3.4     www.example.com IN CNAME a.example.com.     a.example.com IN A 5.6.7.8 then this would store the first A record, the CNAME, then the second A record which would overwrite the first."},"setInterface(bytes32,bytes4,address)":{"notice":"Sets an interface associated with a name. Setting the address to 0 restores the default behaviour of querying the contract at `addr()` for interface support."},"setName(bytes32,string)":{"notice":"Sets the name associated with an ENS node, for reverse records. May only be called by the owner of that node in the ENS registry."},"setPubkey(bytes32,bytes32,bytes32)":{"notice":"Sets the SECP256k1 public key associated with an ENS node."},"setText(bytes32,string,string)":{"notice":"Sets the text data associated with an ENS node and key. May only be called by the owner of that node in the ENS registry."},"setZonehash(bytes32,bytes)":{"notice":"setZonehash sets the hash for the zone. May only be called by the owner of that node in the ENS registry."},"text(bytes32,string)":{"notice":"Returns the text data associated with an ENS node and key."},"zonehash(bytes32)":{"notice":"zonehash obtains the hash for the zone."}},"notice":"A simple resolver anyone can use; only allows the owner of a node to set its address.","version":1}}}}