{"contracts/utils/DummyOldResolver.sol":{"DummyOldResolver":{"abi":[{"constant":false,"inputs":[{"name":"","type":"bytes32"}],"name":"name","outputs":[{"name":"","type":"string"}],"payable":false,"type":"function"},{"constant":false,"inputs":[],"name":"test","outputs":[{"name":"","type":"bool"}],"payable":false,"type":"function"}],"devdoc":{"methods":{}},"evm":{"assembly":"    /* \"contracts/utils/DummyOldResolver.sol\":57:252  contract DummyOldResolver {... */\n  mstore(0x40, 0x60)\n  jumpi(tag_1, iszero(callvalue))\n  invalid\ntag_1:\ntag_2:\n  dataSize(sub_0)\n  dup1\n  dataOffset(sub_0)\n  0x0\n  codecopy\n  0x0\n  return\nstop\n\nsub_0: assembly {\n        /* \"contracts/utils/DummyOldResolver.sol\":57:252  contract DummyOldResolver {... */\n      mstore(0x40, 0x60)\n      and(div(calldataload(0x0), 0x100000000000000000000000000000000000000000000000000000000), 0xffffffff)\n      0x691f3431\n      dup2\n      eq\n      tag_2\n      jumpi\n      dup1\n      0xf8a8fd6d\n      eq\n      tag_3\n      jumpi\n    tag_1:\n      invalid\n        /* \"contracts/utils/DummyOldResolver.sol\":161:250  function name(bytes32) public returns (string memory) {... */\n    tag_2:\n      jumpi(tag_4, iszero(callvalue))\n      invalid\n    tag_4:\n      tag_5\n      calldataload(0x4)\n      jump(tag_6)\n    tag_5:\n      0x40\n      dup1\n      mload\n      0x20\n      dup1\n      dup3\n      mstore\n      dup4\n      mload\n      dup2\n      dup4\n      add\n      mstore\n      dup4\n      mload\n      swap2\n      swap3\n      dup4\n      swap3\n      swap1\n      dup4\n      add\n      swap2\n      dup6\n      add\n      swap1\n      dup1\n      dup4\n      dup4\n        /* \"--CODEGEN--\":18:20   */\n      dup3\n      iszero\n        /* \"--CODEGEN--\":13:16   */\n      tag_7\n        /* \"--CODEGEN--\":7:12   */\n      jumpi\n        /* \"--CODEGEN--\":32:37   */\n    tag_8:\n        /* \"--CODEGEN--\":59:62   */\n      dup1\n        /* \"--CODEGEN--\":53:58   */\n      mload\n        /* \"--CODEGEN--\":48:51   */\n      dup3\n        /* \"--CODEGEN--\":41:47   */\n      mstore\n        /* \"--CODEGEN--\":93:95   */\n      0x20\n        /* \"--CODEGEN--\":88:91   */\n      dup4\n        /* \"--CODEGEN--\":85:87   */\n      gt\n        /* \"--CODEGEN--\":78:84   */\n      iszero\n        /* \"--CODEGEN--\":73:76   */\n      tag_7\n        /* \"--CODEGEN--\":67:72   */\n      jumpi\n      not(0x1f)\n        /* \"--CODEGEN--\":152:155   */\n      swap1\n      swap3\n      add\n      swap2\n        /* \"--CODEGEN--\":117:119   */\n      0x20\n        /* \"--CODEGEN--\":108:111   */\n      swap2\n      dup3\n      add\n      swap2\n        /* \"--CODEGEN--\":130:133   */\n      add\n        /* \"--CODEGEN--\":172:177   */\n      tag_8\n        /* \"--CODEGEN--\":167:171   */\n      jump\n        /* \"--CODEGEN--\":181:184   */\n    tag_7:\n        /* \"--CODEGEN--\":3:189   */\n      pop\n      pop\n      pop\n      swap1\n      pop\n      swap1\n      dup2\n      add\n      swap1\n      0x1f\n      and\n      dup1\n      iszero\n      tag_9\n      jumpi\n      dup1\n      dup3\n      sub\n      dup1\n      mload\n      0x1\n      dup4\n      0x20\n      sub\n      0x100\n      exp\n      sub\n      not\n      and\n      dup2\n      mstore\n      0x20\n      add\n      swap2\n      pop\n    tag_9:\n      pop\n      swap3\n      pop\n      pop\n      pop\n      mload(0x40)\n      dup1\n      swap2\n      sub\n      swap1\n      return\n        /* \"contracts/utils/DummyOldResolver.sol\":89:155  function test() public returns (bool) {... */\n    tag_3:\n      jumpi(tag_10, iszero(callvalue))\n      invalid\n    tag_10:\n      tag_11\n      jump(tag_12)\n    tag_11:\n      0x40\n      dup1\n      mload\n      swap2\n      iszero\n      iszero\n      dup3\n      mstore\n      mload\n      swap1\n      dup2\n      swap1\n      sub\n      0x20\n      add\n      swap1\n      return\n        /* \"contracts/utils/DummyOldResolver.sol\":161:250  function name(bytes32) public returns (string memory) {... */\n    tag_6:\n        /* \"contracts/utils/DummyOldResolver.sol\":200:206  string */\n      tag_13\n      jump\t// in(tag_14)\n    tag_13:\n      pop\n        /* \"contracts/utils/DummyOldResolver.sol\":225:243  return \"test.web3\" */\n      0x40\n      dup1\n      mload\n      dup1\n      dup3\n      add\n      swap1\n      swap2\n      mstore\n      0x9\n      dup2\n      mstore\n      0x746573742e776562330000000000000000000000000000000000000000000000\n      0x20\n      dup3\n      add\n      mstore\n        /* \"contracts/utils/DummyOldResolver.sol\":161:250  function name(bytes32) public returns (string memory) {... */\n    tag_15:\n      swap2\n      swap1\n      pop\n      jump\t// out\n        /* \"contracts/utils/DummyOldResolver.sol\":89:155  function test() public returns (bool) {... */\n    tag_12:\n        /* \"contracts/utils/DummyOldResolver.sol\":144:148  true */\n      0x1\n        /* \"contracts/utils/DummyOldResolver.sol\":89:155  function test() public returns (bool) {... */\n    tag_16:\n      swap1\n      jump\t// out\n        /* \"contracts/utils/DummyOldResolver.sol\":57:252  contract DummyOldResolver {... */\n    tag_14:\n      0x40\n      dup1\n      mload\n      0x20\n      dup2\n      add\n      swap1\n      swap2\n      mstore\n      0x0\n      dup2\n      mstore\n      swap1\n      jump\t// out\n}\n","bytecode":{"linkReferences":{},"object":"6060604052341561000c57fe5b5b6101838061001c6000396000f300606060405263ffffffff7c0100000000000000000000000000000000000000000000000000000000600035041663691f34318114610045578063f8a8fd6d146100d8575bfe5b341561004d57fe5b6100586004356100fc565b60408051602080825283518183015283519192839290830191850190808383821561009e575b80518252602083111561009e57601f19909201916020918201910161007e565b505050905090810190601f1680156100ca5780820380516001836020036101000a031916815260200191505b509250505060405180910390f35b34156100e057fe5b6100e861013f565b604080519115158252519081900360200190f35b610104610145565b5060408051808201909152600981527f746573742e77656233000000000000000000000000000000000000000000000060208201525b919050565b60015b90565b604080516020810190915260008152905600a165627a7a7230582035e2e3a100866f15060b4d2cf321bbc81065416ea3e86bb16f77007c0682608f0029","opcodes":"PUSH1 0x60 PUSH1 0x40 MSTORE CALLVALUE ISZERO PUSH2 0xC JUMPI INVALID JUMPDEST JUMPDEST PUSH2 0x183 DUP1 PUSH2 0x1C PUSH1 0x0 CODECOPY PUSH1 0x0 RETURN STOP PUSH1 0x60 PUSH1 0x40 MSTORE PUSH4 0xFFFFFFFF PUSH29 0x100000000000000000000000000000000000000000000000000000000 PUSH1 0x0 CALLDATALOAD DIV AND PUSH4 0x691F3431 DUP2 EQ PUSH2 0x45 JUMPI DUP1 PUSH4 0xF8A8FD6D EQ PUSH2 0xD8 JUMPI JUMPDEST INVALID JUMPDEST CALLVALUE ISZERO PUSH2 0x4D JUMPI INVALID JUMPDEST PUSH2 0x58 PUSH1 0x4 CALLDATALOAD PUSH2 0xFC JUMP JUMPDEST PUSH1 0x40 DUP1 MLOAD PUSH1 0x20 DUP1 DUP3 MSTORE DUP4 MLOAD DUP2 DUP4 ADD MSTORE DUP4 MLOAD SWAP2 SWAP3 DUP4 SWAP3 SWAP1 DUP4 ADD SWAP2 DUP6 ADD SWAP1 DUP1 DUP4 DUP4 DUP3 ISZERO PUSH2 0x9E JUMPI JUMPDEST DUP1 MLOAD DUP3 MSTORE PUSH1 0x20 DUP4 GT ISZERO PUSH2 0x9E JUMPI PUSH1 0x1F NOT SWAP1 SWAP3 ADD SWAP2 PUSH1 0x20 SWAP2 DUP3 ADD SWAP2 ADD PUSH2 0x7E JUMP JUMPDEST POP POP POP SWAP1 POP SWAP1 DUP2 ADD SWAP1 PUSH1 0x1F AND DUP1 ISZERO PUSH2 0xCA JUMPI DUP1 DUP3 SUB DUP1 MLOAD PUSH1 0x1 DUP4 PUSH1 0x20 SUB PUSH2 0x100 EXP SUB NOT AND DUP2 MSTORE PUSH1 0x20 ADD SWAP2 POP JUMPDEST POP SWAP3 POP POP POP PUSH1 0x40 MLOAD DUP1 SWAP2 SUB SWAP1 RETURN JUMPDEST CALLVALUE ISZERO PUSH2 0xE0 JUMPI INVALID JUMPDEST PUSH2 0xE8 PUSH2 0x13F JUMP JUMPDEST PUSH1 0x40 DUP1 MLOAD SWAP2 ISZERO ISZERO DUP3 MSTORE MLOAD SWAP1 DUP2 SWAP1 SUB PUSH1 0x20 ADD SWAP1 RETURN JUMPDEST PUSH2 0x104 PUSH2 0x145 JUMP JUMPDEST POP PUSH1 0x40 DUP1 MLOAD DUP1 DUP3 ADD SWAP1 SWAP2 MSTORE PUSH1 0x9 DUP2 MSTORE PUSH32 0x746573742E776562330000000000000000000000000000000000000000000000 PUSH1 0x20 DUP3 ADD MSTORE JUMPDEST SWAP2 SWAP1 POP JUMP JUMPDEST PUSH1 0x1 JUMPDEST SWAP1 JUMP JUMPDEST PUSH1 0x40 DUP1 MLOAD PUSH1 0x20 DUP2 ADD SWAP1 SWAP2 MSTORE PUSH1 0x0 DUP2 MSTORE SWAP1 JUMP STOP LOG1 PUSH6 0x627A7A723058 SHA3 CALLDATALOAD 0xe2 0xe3 LOG1 STOP DUP7 PUSH16 0x15060B4D2CF321BBC81065416EA3E86B 0xb1 PUSH16 0x77007C0682608F002900000000000000 "},"gasEstimates":{"creation":{"codeDepositCost":"77400","executionCost":"125","totalCost":"77525"},"external":{"name(bytes32)":"592","test()":"184"}},"methodIdentifiers":{"name(bytes32)":"691f3431","test()":"f8a8fd6d"}},"userdoc":{"methods":{}}}}}