{
  "_format": "hh-sol-artifact-1",
  "contractName": "StaticBulkRenewal",
  "sourceName": "contracts/ethregistrar/StaticBulkRenewal.sol",
  "abi": [
    {
      "inputs": [
        {
          "internalType": "contract ETHRegistrarController",
          "name": "_controller",
          "type": "address"
        }
      ],
      "stateMutability": "nonpayable",
      "type": "constructor"
    },
    {
      "inputs": [
        {
          "internalType": "string[]",
          "name": "names",
          "type": "string[]"
        },
        {
          "internalType": "uint256",
          "name": "duration",
          "type": "uint256"
        }
      ],
      "name": "renewAll",
      "outputs": [],
      "stateMutability": "nonpayable",
      "type": "function"
    },
    {
      "inputs": [
        {
          "internalType": "bytes4",
          "name": "interfaceID",
          "type": "bytes4"
        }
      ],
      "name": "supportsInterface",
      "outputs": [
        {
          "internalType": "bool",
          "name": "",
          "type": "bool"
        }
      ],
      "stateMutability": "pure",
      "type": "function"
    }
  ],
  "bytecode": "0x608060405234801561001057600080fd5b5060405161040438038061040483398101604081905261002f91610054565b600080546001600160a01b0319166001600160a01b0392909216919091179055610084565b60006020828403121561006657600080fd5b81516001600160a01b038116811461007d57600080fd5b9392505050565b610371806100936000396000f3fe608060405234801561001057600080fd5b50600436106100365760003560e01c806301ffc9a71461003b578063e8d6dbb414610062575b600080fd5b61004e6100493660046101c1565b610077565b604051901515815260200160405180910390f35b61007561007036600461020a565b610110565b005b60007fffffffff0000000000000000000000000000000000000000000000000000000082167f01ffc9a700000000000000000000000000000000000000000000000000000000148061010a57507fffffffff0000000000000000000000000000000000000000000000000000000082167fe8d6dbb400000000000000000000000000000000000000000000000000000000145b92915050565b8160005b818110156101ba5760005473ffffffffffffffffffffffffffffffffffffffff1663acf1a84186868481811061014c5761014c610285565b905060200281019061015e91906102b4565b866040518463ffffffff1660e01b815260040161017d93929190610302565b600060405180830381600087803b15801561019757600080fd5b505af11580156101ab573d6000803e3d6000fd5b50505050806001019050610114565b5050505050565b6000602082840312156101d357600080fd5b81357fffffffff000000000000000000000000000000000000000000000000000000008116811461020357600080fd5b9392505050565b60008060006040848603121561021f57600080fd5b833567ffffffffffffffff8082111561023757600080fd5b818601915086601f83011261024b57600080fd5b81358181111561025a57600080fd5b8760208260051b850101111561026f57600080fd5b6020928301989097509590910135949350505050565b7f4e487b7100000000000000000000000000000000000000000000000000000000600052603260045260246000fd5b6000808335601e198436030181126102cb57600080fd5b83018035915067ffffffffffffffff8211156102e657600080fd5b6020019150368190038213156102fb57600080fd5b9250929050565b604081528260408201528284606083013760006060848301015260006060601f19601f860116830101905082602083015294935050505056fea26469706673582212206be3aa272913061dab4af033a2194402adefda8e0b58ea02293e092a6badca4964736f6c63430008110033",
  "linkReferences": {},
  "deployedLinkReferences": {}
}