{
  "_format": "hh-sol-artifact-1",
  "contractName": "PublicResolver",
  "sourceName": "contracts/resolvers/PublicResolver.sol",
  "abi": [
    {
      "inputs": [],
      "stateMutability": "nonpayable",
      "type": "constructor"
    },
    {
      "anonymous": false,
      "inputs": [
        {
          "indexed": true,
          "internalType": "bytes32",
          "name": "node",
          "type": "bytes32"
        },
        {
          "indexed": true,
          "internalType": "uint256",
          "name": "contentType",
          "type": "uint256"
        }
      ],
      "name": "ABIChanged",
      "type": "event"
    },
    {
      "anonymous": false,
      "inputs": [
        {
          "indexed": true,
          "internalType": "bytes32",
          "name": "node",
          "type": "bytes32"
        },
        {
          "indexed": false,
          "internalType": "address",
          "name": "a",
          "type": "address"
        }
      ],
      "name": "AddrChanged",
      "type": "event"
    },
    {
      "anonymous": false,
      "inputs": [
        {
          "indexed": true,
          "internalType": "bytes32",
          "name": "node",
          "type": "bytes32"
        },
        {
          "indexed": false,
          "internalType": "uint256",
          "name": "coinType",
          "type": "uint256"
        },
        {
          "indexed": false,
          "internalType": "bytes",
          "name": "newAddress",
          "type": "bytes"
        }
      ],
      "name": "AddressChanged",
      "type": "event"
    },
    {
      "anonymous": false,
      "inputs": [
        {
          "indexed": false,
          "internalType": "address",
          "name": "previousAdmin",
          "type": "address"
        },
        {
          "indexed": false,
          "internalType": "address",
          "name": "newAdmin",
          "type": "address"
        }
      ],
      "name": "AdminChanged",
      "type": "event"
    },
    {
      "anonymous": false,
      "inputs": [
        {
          "indexed": true,
          "internalType": "address",
          "name": "owner",
          "type": "address"
        },
        {
          "indexed": true,
          "internalType": "address",
          "name": "operator",
          "type": "address"
        },
        {
          "indexed": false,
          "internalType": "bool",
          "name": "approved",
          "type": "bool"
        }
      ],
      "name": "ApprovalForAll",
      "type": "event"
    },
    {
      "anonymous": false,
      "inputs": [
        {
          "indexed": false,
          "internalType": "address",
          "name": "owner",
          "type": "address"
        },
        {
          "indexed": true,
          "internalType": "bytes32",
          "name": "node",
          "type": "bytes32"
        },
        {
          "indexed": true,
          "internalType": "address",
          "name": "delegate",
          "type": "address"
        },
        {
          "indexed": true,
          "internalType": "bool",
          "name": "approved",
          "type": "bool"
        }
      ],
      "name": "Approved",
      "type": "event"
    },
    {
      "anonymous": false,
      "inputs": [
        {
          "indexed": true,
          "internalType": "address",
          "name": "beacon",
          "type": "address"
        }
      ],
      "name": "BeaconUpgraded",
      "type": "event"
    },
    {
      "anonymous": false,
      "inputs": [
        {
          "indexed": true,
          "internalType": "bytes32",
          "name": "node",
          "type": "bytes32"
        },
        {
          "indexed": false,
          "internalType": "bytes",
          "name": "hash",
          "type": "bytes"
        }
      ],
      "name": "ContenthashChanged",
      "type": "event"
    },
    {
      "anonymous": false,
      "inputs": [
        {
          "indexed": true,
          "internalType": "bytes32",
          "name": "node",
          "type": "bytes32"
        },
        {
          "indexed": false,
          "internalType": "bytes",
          "name": "name",
          "type": "bytes"
        },
        {
          "indexed": false,
          "internalType": "uint16",
          "name": "resource",
          "type": "uint16"
        },
        {
          "indexed": false,
          "internalType": "bytes",
          "name": "record",
          "type": "bytes"
        }
      ],
      "name": "DNSRecordChanged",
      "type": "event"
    },
    {
      "anonymous": false,
      "inputs": [
        {
          "indexed": true,
          "internalType": "bytes32",
          "name": "node",
          "type": "bytes32"
        },
        {
          "indexed": false,
          "internalType": "bytes",
          "name": "name",
          "type": "bytes"
        },
        {
          "indexed": false,
          "internalType": "uint16",
          "name": "resource",
          "type": "uint16"
        }
      ],
      "name": "DNSRecordDeleted",
      "type": "event"
    },
    {
      "anonymous": false,
      "inputs": [
        {
          "indexed": true,
          "internalType": "bytes32",
          "name": "node",
          "type": "bytes32"
        },
        {
          "indexed": false,
          "internalType": "bytes",
          "name": "lastzonehash",
          "type": "bytes"
        },
        {
          "indexed": false,
          "internalType": "bytes",
          "name": "zonehash",
          "type": "bytes"
        }
      ],
      "name": "DNSZonehashChanged",
      "type": "event"
    },
    {
      "anonymous": false,
      "inputs": [
        {
          "indexed": false,
          "internalType": "uint8",
          "name": "version",
          "type": "uint8"
        }
      ],
      "name": "Initialized",
      "type": "event"
    },
    {
      "anonymous": false,
      "inputs": [
        {
          "indexed": true,
          "internalType": "bytes32",
          "name": "node",
          "type": "bytes32"
        },
        {
          "indexed": true,
          "internalType": "bytes4",
          "name": "interfaceID",
          "type": "bytes4"
        },
        {
          "indexed": false,
          "internalType": "address",
          "name": "implementer",
          "type": "address"
        }
      ],
      "name": "InterfaceChanged",
      "type": "event"
    },
    {
      "anonymous": false,
      "inputs": [
        {
          "indexed": true,
          "internalType": "bytes32",
          "name": "node",
          "type": "bytes32"
        },
        {
          "indexed": false,
          "internalType": "string",
          "name": "name",
          "type": "string"
        }
      ],
      "name": "NameChanged",
      "type": "event"
    },
    {
      "anonymous": false,
      "inputs": [
        {
          "indexed": true,
          "internalType": "address",
          "name": "previousOwner",
          "type": "address"
        },
        {
          "indexed": true,
          "internalType": "address",
          "name": "newOwner",
          "type": "address"
        }
      ],
      "name": "OwnershipTransferred",
      "type": "event"
    },
    {
      "anonymous": false,
      "inputs": [
        {
          "indexed": true,
          "internalType": "bytes32",
          "name": "node",
          "type": "bytes32"
        },
        {
          "indexed": false,
          "internalType": "bytes32",
          "name": "x",
          "type": "bytes32"
        },
        {
          "indexed": false,
          "internalType": "bytes32",
          "name": "y",
          "type": "bytes32"
        }
      ],
      "name": "PubkeyChanged",
      "type": "event"
    },
    {
      "anonymous": false,
      "inputs": [
        {
          "indexed": true,
          "internalType": "bytes32",
          "name": "node",
          "type": "bytes32"
        },
        {
          "indexed": true,
          "internalType": "string",
          "name": "indexedKey",
          "type": "string"
        },
        {
          "indexed": false,
          "internalType": "string",
          "name": "key",
          "type": "string"
        },
        {
          "indexed": false,
          "internalType": "string",
          "name": "value",
          "type": "string"
        }
      ],
      "name": "TextChanged",
      "type": "event"
    },
    {
      "anonymous": false,
      "inputs": [
        {
          "indexed": true,
          "internalType": "address",
          "name": "implementation",
          "type": "address"
        }
      ],
      "name": "Upgraded",
      "type": "event"
    },
    {
      "anonymous": false,
      "inputs": [
        {
          "indexed": true,
          "internalType": "bytes32",
          "name": "node",
          "type": "bytes32"
        },
        {
          "indexed": false,
          "internalType": "uint64",
          "name": "newVersion",
          "type": "uint64"
        }
      ],
      "name": "VersionChanged",
      "type": "event"
    },
    {
      "inputs": [
        {
          "internalType": "bytes32",
          "name": "node",
          "type": "bytes32"
        },
        {
          "internalType": "uint256",
          "name": "contentTypes",
          "type": "uint256"
        }
      ],
      "name": "ABI",
      "outputs": [
        {
          "internalType": "uint256",
          "name": "",
          "type": "uint256"
        },
        {
          "internalType": "bytes",
          "name": "",
          "type": "bytes"
        }
      ],
      "stateMutability": "view",
      "type": "function"
    },
    {
      "inputs": [
        {
          "internalType": "bytes32",
          "name": "node",
          "type": "bytes32"
        }
      ],
      "name": "addr",
      "outputs": [
        {
          "internalType": "address payable",
          "name": "",
          "type": "address"
        }
      ],
      "stateMutability": "view",
      "type": "function"
    },
    {
      "inputs": [
        {
          "internalType": "bytes32",
          "name": "node",
          "type": "bytes32"
        },
        {
          "internalType": "uint256",
          "name": "coinType",
          "type": "uint256"
        }
      ],
      "name": "addr",
      "outputs": [
        {
          "internalType": "bytes",
          "name": "",
          "type": "bytes"
        }
      ],
      "stateMutability": "view",
      "type": "function"
    },
    {
      "inputs": [
        {
          "internalType": "bytes32",
          "name": "node",
          "type": "bytes32"
        },
        {
          "internalType": "address",
          "name": "delegate",
          "type": "address"
        },
        {
          "internalType": "bool",
          "name": "approved",
          "type": "bool"
        }
      ],
      "name": "approve",
      "outputs": [],
      "stateMutability": "nonpayable",
      "type": "function"
    },
    {
      "inputs": [
        {
          "internalType": "bytes32",
          "name": "node",
          "type": "bytes32"
        }
      ],
      "name": "clearRecords",
      "outputs": [],
      "stateMutability": "nonpayable",
      "type": "function"
    },
    {
      "inputs": [
        {
          "internalType": "bytes32",
          "name": "node",
          "type": "bytes32"
        }
      ],
      "name": "contenthash",
      "outputs": [
        {
          "internalType": "bytes",
          "name": "",
          "type": "bytes"
        }
      ],
      "stateMutability": "view",
      "type": "function"
    },
    {
      "inputs": [
        {
          "internalType": "bytes32",
          "name": "node",
          "type": "bytes32"
        },
        {
          "internalType": "bytes32",
          "name": "name",
          "type": "bytes32"
        },
        {
          "internalType": "uint16",
          "name": "resource",
          "type": "uint16"
        }
      ],
      "name": "dnsRecord",
      "outputs": [
        {
          "internalType": "bytes",
          "name": "",
          "type": "bytes"
        }
      ],
      "stateMutability": "view",
      "type": "function"
    },
    {
      "inputs": [],
      "name": "ens",
      "outputs": [
        {
          "internalType": "contract ENS",
          "name": "",
          "type": "address"
        }
      ],
      "stateMutability": "view",
      "type": "function"
    },
    {
      "inputs": [
        {
          "internalType": "bytes32",
          "name": "node",
          "type": "bytes32"
        },
        {
          "internalType": "bytes32",
          "name": "name",
          "type": "bytes32"
        }
      ],
      "name": "hasDNSRecords",
      "outputs": [
        {
          "internalType": "bool",
          "name": "",
          "type": "bool"
        }
      ],
      "stateMutability": "view",
      "type": "function"
    },
    {
      "inputs": [
        {
          "internalType": "contract ENS",
          "name": "_ens",
          "type": "address"
        },
        {
          "internalType": "contract INameWrapper",
          "name": "wrapperAddress",
          "type": "address"
        },
        {
          "internalType": "address",
          "name": "_trustedETHController",
          "type": "address"
        },
        {
          "internalType": "address",
          "name": "_trustedReverseRegistrar",
          "type": "address"
        }
      ],
      "name": "initialize",
      "outputs": [],
      "stateMutability": "nonpayable",
      "type": "function"
    },
    {
      "inputs": [
        {
          "internalType": "bytes32",
          "name": "node",
          "type": "bytes32"
        },
        {
          "internalType": "bytes4",
          "name": "interfaceID",
          "type": "bytes4"
        }
      ],
      "name": "interfaceImplementer",
      "outputs": [
        {
          "internalType": "address",
          "name": "",
          "type": "address"
        }
      ],
      "stateMutability": "view",
      "type": "function"
    },
    {
      "inputs": [
        {
          "internalType": "address",
          "name": "owner",
          "type": "address"
        },
        {
          "internalType": "bytes32",
          "name": "node",
          "type": "bytes32"
        },
        {
          "internalType": "address",
          "name": "delegate",
          "type": "address"
        }
      ],
      "name": "isApprovedFor",
      "outputs": [
        {
          "internalType": "bool",
          "name": "",
          "type": "bool"
        }
      ],
      "stateMutability": "view",
      "type": "function"
    },
    {
      "inputs": [
        {
          "internalType": "address",
          "name": "account",
          "type": "address"
        },
        {
          "internalType": "address",
          "name": "operator",
          "type": "address"
        }
      ],
      "name": "isApprovedForAll",
      "outputs": [
        {
          "internalType": "bool",
          "name": "",
          "type": "bool"
        }
      ],
      "stateMutability": "view",
      "type": "function"
    },
    {
      "inputs": [
        {
          "internalType": "bytes[]",
          "name": "data",
          "type": "bytes[]"
        }
      ],
      "name": "multicall",
      "outputs": [
        {
          "internalType": "bytes[]",
          "name": "results",
          "type": "bytes[]"
        }
      ],
      "stateMutability": "nonpayable",
      "type": "function"
    },
    {
      "inputs": [
        {
          "internalType": "bytes32",
          "name": "nodehash",
          "type": "bytes32"
        },
        {
          "internalType": "bytes[]",
          "name": "data",
          "type": "bytes[]"
        }
      ],
      "name": "multicallWithNodeCheck",
      "outputs": [
        {
          "internalType": "bytes[]",
          "name": "results",
          "type": "bytes[]"
        }
      ],
      "stateMutability": "nonpayable",
      "type": "function"
    },
    {
      "inputs": [
        {
          "internalType": "bytes32",
          "name": "node",
          "type": "bytes32"
        }
      ],
      "name": "name",
      "outputs": [
        {
          "internalType": "string",
          "name": "",
          "type": "string"
        }
      ],
      "stateMutability": "view",
      "type": "function"
    },
    {
      "inputs": [],
      "name": "nameWrapper",
      "outputs": [
        {
          "internalType": "contract INameWrapper",
          "name": "",
          "type": "address"
        }
      ],
      "stateMutability": "view",
      "type": "function"
    },
    {
      "inputs": [],
      "name": "owner",
      "outputs": [
        {
          "internalType": "address",
          "name": "",
          "type": "address"
        }
      ],
      "stateMutability": "view",
      "type": "function"
    },
    {
      "inputs": [],
      "name": "proxiableUUID",
      "outputs": [
        {
          "internalType": "bytes32",
          "name": "",
          "type": "bytes32"
        }
      ],
      "stateMutability": "view",
      "type": "function"
    },
    {
      "inputs": [
        {
          "internalType": "bytes32",
          "name": "node",
          "type": "bytes32"
        }
      ],
      "name": "pubkey",
      "outputs": [
        {
          "internalType": "bytes32",
          "name": "x",
          "type": "bytes32"
        },
        {
          "internalType": "bytes32",
          "name": "y",
          "type": "bytes32"
        }
      ],
      "stateMutability": "view",
      "type": "function"
    },
    {
      "inputs": [
        {
          "internalType": "bytes32",
          "name": "",
          "type": "bytes32"
        }
      ],
      "name": "recordVersions",
      "outputs": [
        {
          "internalType": "uint64",
          "name": "",
          "type": "uint64"
        }
      ],
      "stateMutability": "view",
      "type": "function"
    },
    {
      "inputs": [],
      "name": "renounceOwnership",
      "outputs": [],
      "stateMutability": "nonpayable",
      "type": "function"
    },
    {
      "inputs": [
        {
          "internalType": "bytes32",
          "name": "node",
          "type": "bytes32"
        },
        {
          "internalType": "uint256",
          "name": "contentType",
          "type": "uint256"
        },
        {
          "internalType": "bytes",
          "name": "data",
          "type": "bytes"
        }
      ],
      "name": "setABI",
      "outputs": [],
      "stateMutability": "nonpayable",
      "type": "function"
    },
    {
      "inputs": [
        {
          "internalType": "bytes32",
          "name": "node",
          "type": "bytes32"
        },
        {
          "internalType": "uint256",
          "name": "coinType",
          "type": "uint256"
        },
        {
          "internalType": "bytes",
          "name": "a",
          "type": "bytes"
        }
      ],
      "name": "setAddr",
      "outputs": [],
      "stateMutability": "nonpayable",
      "type": "function"
    },
    {
      "inputs": [
        {
          "internalType": "bytes32",
          "name": "node",
          "type": "bytes32"
        },
        {
          "internalType": "address",
          "name": "a",
          "type": "address"
        }
      ],
      "name": "setAddr",
      "outputs": [],
      "stateMutability": "nonpayable",
      "type": "function"
    },
    {
      "inputs": [
        {
          "internalType": "address",
          "name": "operator",
          "type": "address"
        },
        {
          "internalType": "bool",
          "name": "approved",
          "type": "bool"
        }
      ],
      "name": "setApprovalForAll",
      "outputs": [],
      "stateMutability": "nonpayable",
      "type": "function"
    },
    {
      "inputs": [
        {
          "internalType": "bytes32",
          "name": "node",
          "type": "bytes32"
        },
        {
          "internalType": "bytes",
          "name": "hash",
          "type": "bytes"
        }
      ],
      "name": "setContenthash",
      "outputs": [],
      "stateMutability": "nonpayable",
      "type": "function"
    },
    {
      "inputs": [
        {
          "internalType": "bytes32",
          "name": "node",
          "type": "bytes32"
        },
        {
          "internalType": "bytes",
          "name": "data",
          "type": "bytes"
        }
      ],
      "name": "setDNSRecords",
      "outputs": [],
      "stateMutability": "nonpayable",
      "type": "function"
    },
    {
      "inputs": [
        {
          "internalType": "bytes32",
          "name": "node",
          "type": "bytes32"
        },
        {
          "internalType": "bytes4",
          "name": "interfaceID",
          "type": "bytes4"
        },
        {
          "internalType": "address",
          "name": "implementer",
          "type": "address"
        }
      ],
      "name": "setInterface",
      "outputs": [],
      "stateMutability": "nonpayable",
      "type": "function"
    },
    {
      "inputs": [
        {
          "internalType": "bytes32",
          "name": "node",
          "type": "bytes32"
        },
        {
          "internalType": "string",
          "name": "newName",
          "type": "string"
        }
      ],
      "name": "setName",
      "outputs": [],
      "stateMutability": "nonpayable",
      "type": "function"
    },
    {
      "inputs": [
        {
          "internalType": "bytes32",
          "name": "node",
          "type": "bytes32"
        },
        {
          "internalType": "bytes32",
          "name": "x",
          "type": "bytes32"
        },
        {
          "internalType": "bytes32",
          "name": "y",
          "type": "bytes32"
        }
      ],
      "name": "setPubkey",
      "outputs": [],
      "stateMutability": "nonpayable",
      "type": "function"
    },
    {
      "inputs": [
        {
          "internalType": "bytes32",
          "name": "node",
          "type": "bytes32"
        },
        {
          "internalType": "string",
          "name": "key",
          "type": "string"
        },
        {
          "internalType": "string",
          "name": "value",
          "type": "string"
        }
      ],
      "name": "setText",
      "outputs": [],
      "stateMutability": "nonpayable",
      "type": "function"
    },
    {
      "inputs": [
        {
          "internalType": "bytes32",
          "name": "node",
          "type": "bytes32"
        },
        {
          "internalType": "bytes",
          "name": "hash",
          "type": "bytes"
        }
      ],
      "name": "setZonehash",
      "outputs": [],
      "stateMutability": "nonpayable",
      "type": "function"
    },
    {
      "inputs": [
        {
          "internalType": "bytes4",
          "name": "interfaceID",
          "type": "bytes4"
        }
      ],
      "name": "supportsInterface",
      "outputs": [
        {
          "internalType": "bool",
          "name": "",
          "type": "bool"
        }
      ],
      "stateMutability": "view",
      "type": "function"
    },
    {
      "inputs": [
        {
          "internalType": "bytes32",
          "name": "node",
          "type": "bytes32"
        },
        {
          "internalType": "string",
          "name": "key",
          "type": "string"
        }
      ],
      "name": "text",
      "outputs": [
        {
          "internalType": "string",
          "name": "",
          "type": "string"
        }
      ],
      "stateMutability": "view",
      "type": "function"
    },
    {
      "inputs": [
        {
          "internalType": "address",
          "name": "newOwner",
          "type": "address"
        }
      ],
      "name": "transferOwnership",
      "outputs": [],
      "stateMutability": "nonpayable",
      "type": "function"
    },
    {
      "inputs": [],
      "name": "trustedETHController",
      "outputs": [
        {
          "internalType": "address",
          "name": "",
          "type": "address"
        }
      ],
      "stateMutability": "view",
      "type": "function"
    },
    {
      "inputs": [],
      "name": "trustedReverseRegistrar",
      "outputs": [
        {
          "internalType": "address",
          "name": "",
          "type": "address"
        }
      ],
      "stateMutability": "view",
      "type": "function"
    },
    {
      "inputs": [
        {
          "internalType": "address",
          "name": "newImplementation",
          "type": "address"
        }
      ],
      "name": "upgradeTo",
      "outputs": [],
      "stateMutability": "nonpayable",
      "type": "function"
    },
    {
      "inputs": [
        {
          "internalType": "address",
          "name": "newImplementation",
          "type": "address"
        },
        {
          "internalType": "bytes",
          "name": "data",
          "type": "bytes"
        }
      ],
      "name": "upgradeToAndCall",
      "outputs": [],
      "stateMutability": "payable",
      "type": "function"
    },
    {
      "inputs": [
        {
          "internalType": "bytes32",
          "name": "node",
          "type": "bytes32"
        }
      ],
      "name": "zonehash",
      "outputs": [
        {
          "internalType": "bytes",
          "name": "",
          "type": "bytes"
        }
      ],
      "stateMutability": "view",
      "type": "function"
    }
  ],
  "bytecode": "0x60a0604052306080523480156200001557600080fd5b506200002062000026565b620000e7565b600054610100900460ff1615620000935760405162461bcd60e51b815260206004820152602760248201527f496e697469616c697a61626c653a20636f6e747261637420697320696e697469604482015266616c697a696e6760c81b606482015260840160405180910390fd5b60005460ff90811614620000e5576000805460ff191660ff9081179091556040519081527f7f26b83ff96e1f2b6a682f133852f6798a09c465da95921460cefb38474024989060200160405180910390a15b565b60805161416b6200011f600039600081816111d501528181611270015281816113a90152818161143f015261153a015261416b6000f3fe6080604052600436106102c65760003560e01c8063715018a611610179578063bc1c58d1116100d6578063e32954eb1161008a578063f1cb7e0611610064578063f1cb7e06146108d8578063f2fde38b146108f8578063f8c8765e1461091857600080fd5b8063e32954eb1461084f578063e59d895d1461086f578063e985e9c51461088f57600080fd5b8063ce3decdc116100bb578063ce3decdc146107bf578063d5fa2b00146107df578063d700ff33146107ff57600080fd5b8063bc1c58d114610737578063c86902331461075757600080fd5b8063a4b91a011161012d578063a8fa568211610112578063a8fa568214610699578063a9784b3e146106b9578063ac9650d81461070a57600080fd5b8063a4b91a0114610659578063a8e5fbc01461067957600080fd5b80638b95dd711161015e5780638b95dd71146105fb5780638da5cb5b1461061b578063a22cb4651461063957600080fd5b8063715018a6146105c657806377372213146105db57600080fd5b80633b3b57de1161022757806359d1d43c116101db578063623195b0116101c0578063623195b01461056657806362c50a1314610586578063691f3431146105a657600080fd5b806359d1d43c146105195780635c98042b1461054657600080fd5b80634cbf6ba41161020c5780634cbf6ba4146104885780634f1ef286146104e357806352d1902d146104f657600080fd5b80633b3b57de146104485780633f15457f1461046857600080fd5b806329cd62ea1161027e5780633603d758116102635780633603d758146103e85780633659cfe61461040857806337bf7a2f1461042857600080fd5b806329cd62ea146103a8578063304e6ade146103c857600080fd5b806310f13a8c116102af57806310f13a8c14610322578063124a319c146103425780632203ab561461037a57600080fd5b806301ffc9a7146102cb5780630af179d714610300575b600080fd5b3480156102d757600080fd5b506102eb6102e636600461354c565b610938565b60405190151581526020015b60405180910390f35b34801561030c57600080fd5b5061032061031b3660046135a9565b610949565b005b34801561032e57600080fd5b5061032061033d3660046135f5565b610b55565b34801561034e57600080fd5b5061036261035d36600461366f565b610c24565b6040516001600160a01b0390911681526020016102f7565b34801561038657600080fd5b5061039a61039536600461369b565b610ed2565b6040516102f792919061370d565b3480156103b457600080fd5b506103206103c3366004613726565b61100c565b3480156103d457600080fd5b506103206103e33660046135a9565b6110a8565b3480156103f457600080fd5b50610320610403366004613752565b611126565b34801561041457600080fd5b50610320610423366004613780565b6111cb565b34801561043457600080fd5b5060d654610362906001600160a01b031681565b34801561045457600080fd5b50610362610463366004613752565b61136d565b34801561047457600080fd5b5060d454610362906001600160a01b031681565b34801561049457600080fd5b506102eb6104a336600461369b565b600082815260c9602090815260408083205467ffffffffffffffff16835260cf825280832094835293815283822092825291909152205461ffff16151590565b6103206104f1366004613840565b61139f565b34801561050257600080fd5b5061050b61152d565b6040519081526020016102f7565b34801561052557600080fd5b506105396105343660046135a9565b6115f2565b6040516102f79190613890565b34801561055257600080fd5b50610539610561366004613752565b6116d4565b34801561057257600080fd5b506103206105813660046138a3565b611795565b34801561059257600080fd5b5060d754610362906001600160a01b031681565b3480156105b257600080fd5b506105396105c1366004613752565b611834565b3480156105d257600080fd5b50610320611870565b3480156105e757600080fd5b506103206105f63660046135a9565b611884565b34801561060757600080fd5b506103206106163660046138f6565b611902565b34801561062757600080fd5b506097546001600160a01b0316610362565b34801561064557600080fd5b50610320610654366004613956565b6119e4565b34801561066557600080fd5b50610320610674366004613982565b611ace565b34801561068557600080fd5b5060d554610362906001600160a01b031681565b3480156106a557600080fd5b506105396106b43660046139c0565b611b9b565b3480156106c557600080fd5b506102eb6106d4366004613a00565b6001600160a01b03928316600090815260d960209081526040808320948352938152838220929094168152925290205460ff1690565b34801561071657600080fd5b5061072a610725366004613a7c565b611beb565b6040516102f79190613abe565b34801561074357600080fd5b50610539610752366004613752565b611bf9565b34801561076357600080fd5b506107aa610772366004613752565b600081815260c9602090815260408083205467ffffffffffffffff16835260d282528083209383529290522080546001909101549091565b604080519283526020830191909152016102f7565b3480156107cb57600080fd5b506103206107da3660046135a9565b611c35565b3480156107eb57600080fd5b506103206107fa366004613b20565b611d7a565b34801561080b57600080fd5b5061083661081a366004613752565b60c96020526000908152604090205467ffffffffffffffff1681565b60405167ffffffffffffffff90911681526020016102f7565b34801561085b57600080fd5b5061072a61086a366004613b50565b611da1565b34801561087b57600080fd5b5061032061088a366004613b8f565b611db6565b34801561089b57600080fd5b506102eb6108aa366004613bc4565b6001600160a01b03918216600090815260d86020908152604080832093909416825291909152205460ff1690565b3480156108e457600080fd5b506105396108f336600461369b565b611e6c565b34801561090457600080fd5b50610320610913366004613780565b611f36565b34801561092457600080fd5b50610320610933366004613bf2565b611fc3565b600061094382612244565b92915050565b8261095381612282565b61095c57600080fd5b600084815260c960209081526040808320548151601f870184900484028101840190925285825283926060928392859267ffffffffffffffff9091169183916109c49183918d908d908190840183828082843760009201919091525092939250506124399050565b90505b80515160208201511015610aee578661ffff16600003610a2c57806040015196506109f18161249a565b945084604051602001610a049190613c4e565b604051602081830303815290604052805190602001209250610a25816124bb565b9350610ae0565b6000610a378261249a565b9050816040015161ffff168861ffff16141580610a5b5750610a5986826124d7565b155b15610ade57610ab78c878a8e8e8080601f016020809104026020016040519081016040528093929190818152602001838380828437600092019190915250505060208801518d9150610aae908290613c80565b8b51158a6124f5565b816040015197508160200151965080955085805190602001209350610adb826124bb565b94505b505b610ae981612762565b6109c7565b50835115610b4957610b498a85888c8c8080601f0160208091040260200160405190810160405280939291908181526020018383808284376000920191909152508c9250610b4091508290508f613c80565b895115886124f5565b50505050505050505050565b84610b5f81612282565b610b6857600080fd5b600086815260c9602090815260408083205467ffffffffffffffff16835260d3825280832089845290915290819020905184918491610baa9089908990613c93565b90815260200160405180910390209182610bc5929190613d2b565b508484604051610bd6929190613c93565b6040518091039020867f448bc014f1536726cf8d54ff3d6481ed3cbc683c2591ca204274009afa09b1a187878787604051610c149493929190613e14565b60405180910390a3505050505050565b600082815260c9602090815260408083205467ffffffffffffffff16835260d0825280832085845282528083206001600160e01b0319851684529091528120546001600160a01b03168015610c7a579050610943565b6000610c858561136d565b90506001600160a01b038116610ca057600092505050610943565b6040516301ffc9a760e01b602482015260009081906001600160a01b0384169060440160408051601f198184030181529181526020820180517bffffffffffffffffffffffffffffffffffffffffffffffffffffffff166301ffc9a760e01b17905251610d0d9190613c4e565b600060405180830381855afa9150503d8060008114610d48576040519150601f19603f3d011682016040523d82523d6000602084013e610d4d565b606091505b5091509150811580610d60575060208151105b80610da2575080601f81518110610d7957610d79613e46565b01602001517fff0000000000000000000000000000000000000000000000000000000000000016155b15610db4576000945050505050610943565b6040516001600160e01b0319871660248201526001600160a01b0384169060440160408051601f198184030181529181526020820180517bffffffffffffffffffffffffffffffffffffffffffffffffffffffff166301ffc9a760e01b17905251610e1f9190613c4e565b600060405180830381855afa9150503d8060008114610e5a576040519150601f19603f3d011682016040523d82523d6000602084013e610e5f565b606091505b509092509050811580610e73575060208151105b80610eb5575080601f81518110610e8c57610e8c613e46565b01602001517fff0000000000000000000000000000000000000000000000000000000000000016155b15610ec7576000945050505050610943565b509095945050505050565b600082815260c9602090815260408083205467ffffffffffffffff16835260ca8252808320858452909152812060609060015b848111610fec5780851615801590610f35575060008181526020839052604081208054610f3190613ca3565b9050115b15610fe45780826000838152602001908152602001600020808054610f5990613ca3565b80601f0160208091040260200160405190810160405280929190818152602001828054610f8590613ca3565b8015610fd25780601f10610fa757610100808354040283529160200191610fd2565b820191906000526020600020905b815481529060010190602001808311610fb557829003601f168201915b50505050509050935093505050611005565b60011b610f05565b5060006040518060200160405280600081525092509250505b9250929050565b8261101681612282565b61101f57600080fd5b6040805180820182528481526020808201858152600088815260c983528481205467ffffffffffffffff16815260d2835284812089825283528490209251835551600190920191909155815185815290810184905285917f1d6f5e03d3f63eb58751986629a5439baee5079ff04f345becb66e23eb154e4691015b60405180910390a250505050565b826110b281612282565b6110bb57600080fd5b600084815260c9602090815260408083205467ffffffffffffffff16835260cc825280832087845290915290206110f3838583613d2b565b50837fe379c1624ed7e714cc0937528a32359d69d5281337765313dba4e081b72d7578848460405161109a929190613e5c565b8061113081612282565b61113957600080fd5b600082815260c960205260408120805467ffffffffffffffff169161115d83613e70565b82546101009290920a67ffffffffffffffff818102199093169183160217909155600084815260c960209081526040918290205491519190921681528492507fc6621ccb8f3f5a04bb6502154b2caf6adf5983fe76dfef1cfc9c42e3579db444910160405180910390a25050565b6001600160a01b037f000000000000000000000000000000000000000000000000000000000000000016300361126e5760405162461bcd60e51b815260206004820152602c60248201527f46756e6374696f6e206d7573742062652063616c6c6564207468726f7567682060448201527f64656c656761746563616c6c000000000000000000000000000000000000000060648201526084015b60405180910390fd5b7f00000000000000000000000000000000000000000000000000000000000000006001600160a01b03166112c97f360894a13ba1a3210667c828492db98dca3e2076cc3735a920a3ca505d382bbc546001600160a01b031690565b6001600160a01b0316146113455760405162461bcd60e51b815260206004820152602c60248201527f46756e6374696f6e206d7573742062652063616c6c6564207468726f7567682060448201527f6163746976652070726f787900000000000000000000000000000000000000006064820152608401611265565b61134e8161284a565b6040805160008082526020820190925261136a91839190612852565b50565b60008061137b83603c611e6c565b9050805160000361138f5750600092915050565b611398816129f2565b9392505050565b6001600160a01b037f000000000000000000000000000000000000000000000000000000000000000016300361143d5760405162461bcd60e51b815260206004820152602c60248201527f46756e6374696f6e206d7573742062652063616c6c6564207468726f7567682060448201527f64656c656761746563616c6c00000000000000000000000000000000000000006064820152608401611265565b7f00000000000000000000000000000000000000000000000000000000000000006001600160a01b03166114987f360894a13ba1a3210667c828492db98dca3e2076cc3735a920a3ca505d382bbc546001600160a01b031690565b6001600160a01b0316146115145760405162461bcd60e51b815260206004820152602c60248201527f46756e6374696f6e206d7573742062652063616c6c6564207468726f7567682060448201527f6163746976652070726f787900000000000000000000000000000000000000006064820152608401611265565b61151d8261284a565b61152982826001612852565b5050565b6000306001600160a01b037f000000000000000000000000000000000000000000000000000000000000000016146115cd5760405162461bcd60e51b815260206004820152603860248201527f555550535570677261646561626c653a206d757374206e6f742062652063616c60448201527f6c6564207468726f7567682064656c656761746563616c6c00000000000000006064820152608401611265565b507f360894a13ba1a3210667c828492db98dca3e2076cc3735a920a3ca505d382bbc90565b600083815260c9602090815260408083205467ffffffffffffffff16835260d38252808320868452909152908190209051606091906116349085908590613c93565b9081526020016040518091039020805461164d90613ca3565b80601f016020809104026020016040519081016040528092919081815260200182805461167990613ca3565b80156116c65780601f1061169b576101008083540402835291602001916116c6565b820191906000526020600020905b8154815290600101906020018083116116a957829003601f168201915b505050505090509392505050565b600081815260c9602090815260408083205467ffffffffffffffff16835260cd8252808320848452909152902080546060919061171090613ca3565b80601f016020809104026020016040519081016040528092919081815260200182805461173c90613ca3565b80156117895780601f1061175e57610100808354040283529160200191611789565b820191906000526020600020905b81548152906001019060200180831161176c57829003601f168201915b50505050509050919050565b8361179f81612282565b6117a857600080fd5b836117b4600182613c80565b16156117bf57600080fd5b600085815260c9602090815260408083205467ffffffffffffffff16835260ca8252808320888452825280832087845290915290206117ff838583613d2b565b50604051849086907faa121bbeef5f32f5961a2a28966e769023910fc9479059ee3495d4c1a696efe390600090a35050505050565b600081815260c9602090815260408083205467ffffffffffffffff16835260d18252808320848452909152902080546060919061171090613ca3565b611878612a1a565b6118826000612a74565b565b8261188e81612282565b61189757600080fd5b600084815260c9602090815260408083205467ffffffffffffffff16835260d1825280832087845290915290206118cf838583613d2b565b50837fb7d29e911041e8d9b843369e890bcb72c9388692ba48b65ac54e7214c4c348f7848460405161109a929190613e5c565b8261190c81612282565b61191557600080fd5b837f65412581168e88a1e60c6459d7f44ae83ad0832e670826c05a4e2476b57af752848460405161194792919061370d565b60405180910390a2603c830361199e57837f52d7d861f09ab3d26239d492e8968629f95e9e318cf0b73bfddc441522a15fd2611982846129f2565b6040516001600160a01b03909116815260200160405180910390a25b600084815260c9602090815260408083205467ffffffffffffffff16835260cb8252808320878452825280832086845290915290206119dd8382613e97565b5050505050565b6001600160a01b0382163303611a625760405162461bcd60e51b815260206004820152602960248201527f455243313135353a2073657474696e6720617070726f76616c2073746174757360448201527f20666f722073656c6600000000000000000000000000000000000000000000006064820152608401611265565b33600081815260d8602090815260408083206001600160a01b03871680855290835292819020805460ff191686151590811790915590519081529192917f17307eab39ab6107e8899845ad3d59bd9653f200f220920489ca2b5937696c31910160405180910390a35050565b6001600160a01b0382163303611b265760405162461bcd60e51b815260206004820181905260248201527f53657474696e672064656c65676174652073746174757320666f722073656c666044820152606401611265565b33600081815260d96020908152604080832087845282528083206001600160a01b03871680855290835292819020805460ff191686151590811790915590519384529286917ff0ddb3b04746704017f9aa8bd728fcc2c1d11675041205350018915f5e4750a0910160405180910390a4505050565b600083815260c9602090815260408083205467ffffffffffffffff16835260ce82528083208684528252808320858452825280832061ffff85168452909152902080546060919061164d90613ca3565b606061139860008484612ad3565b600081815260c9602090815260408083205467ffffffffffffffff16835260cc8252808320848452909152902080546060919061171090613ca3565b82611c3f81612282565b611c4857600080fd5b600084815260c9602090815260408083205467ffffffffffffffff1680845260cd835281842088855290925282208054919291611c8490613ca3565b80601f0160208091040260200160405190810160405280929190818152602001828054611cb090613ca3565b8015611cfd5780601f10611cd257610100808354040283529160200191611cfd565b820191906000526020600020905b815481529060010190602001808311611ce057829003601f168201915b5050505067ffffffffffffffff8416600090815260cd602090815260408083208b84529091529020919250611d359050858783613d2b565b50857f8f15ed4b723ef428f250961da8315675b507046737e19319fc1a4d81bfe87f85828787604051611d6a93929190613f57565b60405180910390a2505050505050565b81611d8481612282565b611d8d57600080fd5b611d9c83603c61061685612cac565b505050565b6060611dae848484612ad3565b949350505050565b82611dc081612282565b611dc957600080fd5b600084815260c9602090815260408083205467ffffffffffffffff16835260d0825280832087845282528083206001600160e01b0319871680855290835292819020805473ffffffffffffffffffffffffffffffffffffffff19166001600160a01b038716908117909155905190815286917f7c69f06bea0bdef565b709e93a147836b0063ba2dd89f02d0b7e8d931e6a6daa910160405180910390a350505050565b600082815260c9602090815260408083205467ffffffffffffffff16835260cb825280832085845282528083208484529091529020805460609190611eb090613ca3565b80601f0160208091040260200160405190810160405280929190818152602001828054611edc90613ca3565b8015611f295780601f10611efe57610100808354040283529160200191611f29565b820191906000526020600020905b815481529060010190602001808311611f0c57829003601f168201915b5050505050905092915050565b611f3e612a1a565b6001600160a01b038116611fba5760405162461bcd60e51b815260206004820152602660248201527f4f776e61626c653a206e6577206f776e657220697320746865207a65726f206160448201527f64647265737300000000000000000000000000000000000000000000000000006064820152608401611265565b61136a81612a74565b600054610100900460ff1615808015611fe35750600054600160ff909116105b80611ffd5750303b158015611ffd575060005460ff166001145b61206f5760405162461bcd60e51b815260206004820152602e60248201527f496e697469616c697a61626c653a20636f6e747261637420697320616c72656160448201527f647920696e697469616c697a65640000000000000000000000000000000000006064820152608401611265565b6000805460ff191660011790558015612092576000805461ff0019166101001790555b61209a612ce5565b60d480546001600160a01b0387811673ffffffffffffffffffffffffffffffffffffffff19928316811790935560d5805488831690841617905560d6805487831690841617905560d78054918616919092161790556040516302571be360e01b81527f91d1777781884d03a6757a803996e38de2a42967fb37eeaca72729271025a9e26004820152600091906302571be390602401602060405180830381865afa15801561214c573d6000803e3d6000fd5b505050506040513d601f19601f820116820180604052508101906121709190613f7d565b6040517f1e83409a0000000000000000000000000000000000000000000000000000000081523360048201529091506001600160a01b03821690631e83409a906024016020604051808303816000875af11580156121d2573d6000803e3d6000fd5b505050506040513d601f19601f820116820180604052508101906121f69190613f9a565b505080156119dd576000805461ff0019169055604051600181527f7f26b83ff96e1f2b6a682f133852f6798a09c465da95921460cefb38474024989060200160405180910390a15050505050565b60006001600160e01b031982167f59d1d43c000000000000000000000000000000000000000000000000000000001480610943575061094382612d6a565b60d6546000906001600160a01b03163314806122a8575060d7546001600160a01b031633145b156122b557506001919050565b60d4546040516302571be360e01b8152600481018490526000916001600160a01b0316906302571be390602401602060405180830381865afa1580156122ff573d6000803e3d6000fd5b505050506040513d601f19601f820116820180604052508101906123239190613f7d565b60d5549091506001600160a01b03908116908216036123c55760d5546040517f6352211e000000000000000000000000000000000000000000000000000000008152600481018590526001600160a01b0390911690636352211e90602401602060405180830381865afa15801561239e573d6000803e3d6000fd5b505050506040513d601f19601f820116820180604052508101906123c29190613f7d565b90505b6001600160a01b0381163314806123ff57506001600160a01b038116600090815260d86020908152604080832033845290915290205460ff165b8061139857506001600160a01b038116600090815260d960209081526040808320868452825280832033845290915290205460ff16611398565b6124876040518060e001604052806060815260200160008152602001600061ffff168152602001600061ffff168152602001600063ffffffff16815260200160008152602001600081525090565b82815260c0810182905261094381612762565b60208101518151606091610943916124b29082612da8565b84519190612e02565b60a081015160c0820151606091610943916124b2908290613c80565b60008151835114801561139857506113988360008460008751612e79565b865160208801206000612509878787612e02565b905083156126335767ffffffffffffffff8316600090815260ce602090815260408083208d84528252808320858452825280832061ffff8c1684529091529020805461255490613ca3565b1590506125b35767ffffffffffffffff8316600090815260cf602090815260408083208d845282528083208584529091528120805461ffff169161259783613fb3565b91906101000a81548161ffff021916908361ffff160217905550505b67ffffffffffffffff8316600090815260ce602090815260408083208d84528252808320858452825280832061ffff8c16845290915281206125f4916134e1565b897f03528ed0c2a3ebc993b12ce3c16bb382f9c7d88ef7d8a1bf290eaf35955a12078a8a604051612626929190613fd1565b60405180910390a2610b49565b67ffffffffffffffff8316600090815260ce602090815260408083208d84528252808320858452825280832061ffff8c1684529091529020805461267690613ca3565b90506000036126d75767ffffffffffffffff8316600090815260cf602090815260408083208d845282528083208584529091528120805461ffff16916126bb83613ff7565b91906101000a81548161ffff021916908361ffff160217905550505b67ffffffffffffffff8316600090815260ce602090815260408083208d84528252808320858452825280832061ffff8c16845290915290206127198282613e97565b50897f52a608b3303a48862d07a73d82fa221318c0027fbbcfb1b2329bface3f19ff2b8a8a8460405161274e9392919061400e565b60405180910390a250505050505050505050565b60c081015160208201819052815151116127795750565b600061278d82600001518360200151612da8565b826020015161279c919061403d565b82519091506127ab9082612e9c565b61ffff1660408301526127bf60028261403d565b82519091506127ce9082612e9c565b61ffff1660608301526127e260028261403d565b82519091506127f19082612ec4565b63ffffffff16608083015261280760048261403d565b82519091506000906128199083612e9c565b61ffff16905061282a60028361403d565b60a08401819052915061283d818361403d565b60c0909301929092525050565b61136a612a1a565b7f4910fdfa16fed3260ed0e7147f7cc6da11a60208b5b9406d12a635614ffd91435460ff161561288557611d9c83612eee565b826001600160a01b03166352d1902d6040518163ffffffff1660e01b8152600401602060405180830381865afa9250505080156128df575060408051601f3d908101601f191682019092526128dc91810190613f9a565b60015b6129515760405162461bcd60e51b815260206004820152602e60248201527f45524331393637557067726164653a206e657720696d706c656d656e7461746960448201527f6f6e206973206e6f7420555550530000000000000000000000000000000000006064820152608401611265565b7f360894a13ba1a3210667c828492db98dca3e2076cc3735a920a3ca505d382bbc81146129e65760405162461bcd60e51b815260206004820152602960248201527f45524331393637557067726164653a20756e737570706f727465642070726f7860448201527f6961626c655555494400000000000000000000000000000000000000000000006064820152608401611265565b50611d9c838383612fb9565b60008151601414612a0257600080fd5b50602001516c01000000000000000000000000900490565b6097546001600160a01b031633146118825760405162461bcd60e51b815260206004820181905260248201527f4f776e61626c653a2063616c6c6572206973206e6f7420746865206f776e65726044820152606401611265565b609780546001600160a01b0383811673ffffffffffffffffffffffffffffffffffffffff19831681179093556040519116919082907f8be0079c531659141344cd1fd0a4f28419497f9722a3daafe3b4186f6b6457e090600090a35050565b60608167ffffffffffffffff811115612aee57612aee61379d565b604051908082528060200260200182016040528015612b2157816020015b6060815260200190600190039081612b0c5790505b50905060005b82811015612ca4578415612bec576000848483818110612b4957612b49613e46565b9050602002810190612b5b9190614050565b612b6a91602491600491614097565b612b73916140c1565b9050858114612bea5760405162461bcd60e51b815260206004820152603460248201527f6d756c746963616c6c3a20416c6c207265636f726473206d757374206861766560448201527f2061206d61746368696e67206e616d65686173680000000000000000000000006064820152608401611265565b505b60008030868685818110612c0257612c02613e46565b9050602002810190612c149190614050565b604051612c22929190613c93565b600060405180830381855af49150503d8060008114612c5d576040519150601f19603f3d011682016040523d82523d6000602084013e612c62565b606091505b509150915081612c7157600080fd5b80848481518110612c8457612c84613e46565b602002602001018190525050508080612c9c906140df565b915050612b27565b509392505050565b6040805160148082528183019092526060916020820181803683375050506c010000000000000000000000009290920260208301525090565b600054610100900460ff16612d625760405162461bcd60e51b815260206004820152602b60248201527f496e697469616c697a61626c653a20636f6e7472616374206973206e6f74206960448201527f6e697469616c697a696e670000000000000000000000000000000000000000006064820152608401611265565b611882612fe4565b60006001600160e01b031982167fc869023300000000000000000000000000000000000000000000000000000000148061094357506109438261306a565b6000815b83518110612dbc57612dbc6140f8565b6000612dc885836130a8565b60ff169050612dd881600161403d565b612de2908361403d565b915080600003612df25750612df8565b50612dac565b611dae8382613c80565b8251606090612e11838561403d565b1115612e1c57600080fd5b60008267ffffffffffffffff811115612e3757612e3761379d565b6040519080825280601f01601f191660200182016040528015612e61576020820181803683370190505b50905060208082019086860101610ec78282876130cc565b6000612e86848484613122565b612e91878785613122565b149695505050505050565b8151600090612eac83600261403d565b1115612eb757600080fd5b50016002015161ffff1690565b8151600090612ed483600461403d565b1115612edf57600080fd5b50016004015163ffffffff1690565b6001600160a01b0381163b612f6b5760405162461bcd60e51b815260206004820152602d60248201527f455243313936373a206e657720696d706c656d656e746174696f6e206973206e60448201527f6f74206120636f6e7472616374000000000000000000000000000000000000006064820152608401611265565b7f360894a13ba1a3210667c828492db98dca3e2076cc3735a920a3ca505d382bbc805473ffffffffffffffffffffffffffffffffffffffff19166001600160a01b0392909216919091179055565b612fc283613146565b600082511180612fcf5750805b15611d9c57612fde8383613186565b50505050565b600054610100900460ff166130615760405162461bcd60e51b815260206004820152602b60248201527f496e697469616c697a61626c653a20636f6e7472616374206973206e6f74206960448201527f6e697469616c697a696e670000000000000000000000000000000000000000006064820152608401611265565b61188233612a74565b60006001600160e01b031982167f691f34310000000000000000000000000000000000000000000000000000000014806109435750610943826131ab565b60008282815181106130bc576130bc613e46565b016020015160f81c905092915050565b6020811061310457815183526130e360208461403d565b92506130f060208361403d565b91506130fd602082613c80565b90506130cc565b905182516020929092036101000a6000190180199091169116179052565b8251600090613131838561403d565b111561313c57600080fd5b5091016020012090565b61314f81612eee565b6040516001600160a01b038216907fbc7cd75a20ee27fd9adebab32041f755214dbc6bffa90cc0225b39da2e5c2d3b90600090a250565b6060611398838360405180606001604052806027815260200161410f602791396131e9565b60006001600160e01b031982167f124a319c000000000000000000000000000000000000000000000000000000001480610943575061094382613261565b6060600080856001600160a01b0316856040516132069190613c4e565b600060405180830381855af49150503d8060008114613241576040519150601f19603f3d011682016040523d82523d6000602084013e613246565b606091505b5091509150613257868383876132d3565b9695505050505050565b60006001600160e01b031982167fa8fa56820000000000000000000000000000000000000000000000000000000014806132c457506001600160e01b031982167f5c98042b00000000000000000000000000000000000000000000000000000000145b8061094357506109438261334c565b6060831561334257825160000361333b576001600160a01b0385163b61333b5760405162461bcd60e51b815260206004820152601d60248201527f416464726573733a2063616c6c20746f206e6f6e2d636f6e74726163740000006044820152606401611265565b5081611dae565b611dae838361338a565b60006001600160e01b031982167fbc1c58d10000000000000000000000000000000000000000000000000000000014806109435750610943826133b4565b81511561339a5781518083602001fd5b8060405162461bcd60e51b81526004016112659190613890565b60006001600160e01b031982167f3b3b57de00000000000000000000000000000000000000000000000000000000148061341757506001600160e01b031982167ff1cb7e0600000000000000000000000000000000000000000000000000000000145b8061094357506109438260006001600160e01b031982167f2203ab5600000000000000000000000000000000000000000000000000000000148061094357506109438260006001600160e01b031982167fd700ff3300000000000000000000000000000000000000000000000000000000148061094357506109438260006001600160e01b031982167f4fbf043300000000000000000000000000000000000000000000000000000000148061094357506301ffc9a760e01b6001600160e01b0319831614610943565b5080546134ed90613ca3565b6000825580601f106134fd575050565b601f01602090049060005260206000209081019061136a91905b8082111561352b5760008155600101613517565b5090565b80356001600160e01b03198116811461354757600080fd5b919050565b60006020828403121561355e57600080fd5b6113988261352f565b60008083601f84011261357957600080fd5b50813567ffffffffffffffff81111561359157600080fd5b60208301915083602082850101111561100557600080fd5b6000806000604084860312156135be57600080fd5b83359250602084013567ffffffffffffffff8111156135dc57600080fd5b6135e886828701613567565b9497909650939450505050565b60008060008060006060868803121561360d57600080fd5b85359450602086013567ffffffffffffffff8082111561362c57600080fd5b61363889838a01613567565b9096509450604088013591508082111561365157600080fd5b5061365e88828901613567565b969995985093965092949392505050565b6000806040838503121561368257600080fd5b823591506136926020840161352f565b90509250929050565b600080604083850312156136ae57600080fd5b50508035926020909101359150565b60005b838110156136d85781810151838201526020016136c0565b50506000910152565b600081518084526136f98160208601602086016136bd565b601f01601f19169290920160200192915050565b828152604060208201526000611dae60408301846136e1565b60008060006060848603121561373b57600080fd5b505081359360208301359350604090920135919050565b60006020828403121561376457600080fd5b5035919050565b6001600160a01b038116811461136a57600080fd5b60006020828403121561379257600080fd5b81356113988161376b565b634e487b7160e01b600052604160045260246000fd5b600082601f8301126137c457600080fd5b813567ffffffffffffffff808211156137df576137df61379d565b604051601f8301601f19908116603f011681019082821181831017156138075761380761379d565b8160405283815286602085880101111561382057600080fd5b836020870160208301376000602085830101528094505050505092915050565b6000806040838503121561385357600080fd5b823561385e8161376b565b9150602083013567ffffffffffffffff81111561387a57600080fd5b613886858286016137b3565b9150509250929050565b60208152600061139860208301846136e1565b600080600080606085870312156138b957600080fd5b8435935060208501359250604085013567ffffffffffffffff8111156138de57600080fd5b6138ea87828801613567565b95989497509550505050565b60008060006060848603121561390b57600080fd5b8335925060208401359150604084013567ffffffffffffffff81111561393057600080fd5b61393c868287016137b3565b9150509250925092565b8035801515811461354757600080fd5b6000806040838503121561396957600080fd5b82356139748161376b565b915061369260208401613946565b60008060006060848603121561399757600080fd5b8335925060208401356139a98161376b565b91506139b760408501613946565b90509250925092565b6000806000606084860312156139d557600080fd5b8335925060208401359150604084013561ffff811681146139f557600080fd5b809150509250925092565b600080600060608486031215613a1557600080fd5b8335613a208161376b565b92506020840135915060408401356139f58161376b565b60008083601f840112613a4957600080fd5b50813567ffffffffffffffff811115613a6157600080fd5b6020830191508360208260051b850101111561100557600080fd5b60008060208385031215613a8f57600080fd5b823567ffffffffffffffff811115613aa657600080fd5b613ab285828601613a37565b90969095509350505050565b6000602080830181845280855180835260408601915060408160051b870101925083870160005b82811015613b1357603f19888603018452613b018583516136e1565b94509285019290850190600101613ae5565b5092979650505050505050565b60008060408385031215613b3357600080fd5b823591506020830135613b458161376b565b809150509250929050565b600080600060408486031215613b6557600080fd5b83359250602084013567ffffffffffffffff811115613b8357600080fd5b6135e886828701613a37565b600080600060608486031215613ba457600080fd5b83359250613bb46020850161352f565b915060408401356139f58161376b565b60008060408385031215613bd757600080fd5b8235613be28161376b565b91506020830135613b458161376b565b60008060008060808587031215613c0857600080fd5b8435613c138161376b565b93506020850135613c238161376b565b92506040850135613c338161376b565b91506060850135613c438161376b565b939692955090935050565b60008251613c608184602087016136bd565b9190910192915050565b634e487b7160e01b600052601160045260246000fd5b8181038181111561094357610943613c6a565b8183823760009101908152919050565b600181811c90821680613cb757607f821691505b602082108103613cd757634e487b7160e01b600052602260045260246000fd5b50919050565b601f821115611d9c57600081815260208120601f850160051c81016020861015613d045750805b601f850160051c820191505b81811015613d2357828155600101613d10565b505050505050565b67ffffffffffffffff831115613d4357613d4361379d565b613d5783613d518354613ca3565b83613cdd565b6000601f841160018114613d8b5760008515613d735750838201355b600019600387901b1c1916600186901b1783556119dd565b600083815260209020601f19861690835b82811015613dbc5786850135825560209485019460019092019101613d9c565b5086821015613dd95760001960f88860031b161c19848701351681555b505060018560011b0183555050505050565b81835281816020850137506000828201602090810191909152601f909101601f19169091010190565b604081526000613e28604083018688613deb565b8281036020840152613e3b818587613deb565b979650505050505050565b634e487b7160e01b600052603260045260246000fd5b602081526000611dae602083018486613deb565b600067ffffffffffffffff808316818103613e8d57613e8d613c6a565b6001019392505050565b815167ffffffffffffffff811115613eb157613eb161379d565b613ec581613ebf8454613ca3565b84613cdd565b602080601f831160018114613efa5760008415613ee25750858301515b600019600386901b1c1916600185901b178555613d23565b600085815260208120601f198616915b82811015613f2957888601518255948401946001909101908401613f0a565b5085821015613f475787850151600019600388901b60f8161c191681555b5050505050600190811b01905550565b604081526000613f6a60408301866136e1565b8281036020840152613257818587613deb565b600060208284031215613f8f57600080fd5b81516113988161376b565b600060208284031215613fac57600080fd5b5051919050565b600061ffff821680613fc757613fc7613c6a565b6000190192915050565b604081526000613fe460408301856136e1565b905061ffff831660208301529392505050565b600061ffff808316818103613e8d57613e8d613c6a565b60608152600061402160608301866136e1565b61ffff85166020840152828103604084015261325781856136e1565b8082018082111561094357610943613c6a565b6000808335601e1984360301811261406757600080fd5b83018035915067ffffffffffffffff82111561408257600080fd5b60200191503681900382131561100557600080fd5b600080858511156140a757600080fd5b838611156140b457600080fd5b5050820193919092039150565b8035602083101561094357600019602084900360031b1b1692915050565b6000600182016140f1576140f1613c6a565b5060010190565b634e487b7160e01b600052600160045260246000fdfe416464726573733a206c6f772d6c6576656c2064656c65676174652063616c6c206661696c6564a264697066735822122010099458684fb48ad38c646845de2e82b477a5a9f6590e8c199e0205caf4bfbb64736f6c63430008110033",
  "linkReferences": {},
  "deployedLinkReferences": {}
}