{
  "_format": "hh-sol-artifact-1",
  "contractName": "BulkRenewal",
  "sourceName": "contracts/ethregistrar/BulkRenewal.sol",
  "abi": [
    {
      "inputs": [
        {
          "internalType": "contract ENS",
          "name": "_ens",
          "type": "address"
        }
      ],
      "stateMutability": "nonpayable",
      "type": "constructor"
    },
    {
      "anonymous": false,
      "inputs": [
        {
          "indexed": true,
          "internalType": "address",
          "name": "previousOwner",
          "type": "address"
        },
        {
          "indexed": true,
          "internalType": "address",
          "name": "newOwner",
          "type": "address"
        }
      ],
      "name": "OwnershipTransferred",
      "type": "event"
    },
    {
      "inputs": [],
      "name": "ens",
      "outputs": [
        {
          "internalType": "contract ENS",
          "name": "",
          "type": "address"
        }
      ],
      "stateMutability": "view",
      "type": "function"
    },
    {
      "inputs": [],
      "name": "owner",
      "outputs": [
        {
          "internalType": "address",
          "name": "",
          "type": "address"
        }
      ],
      "stateMutability": "view",
      "type": "function"
    },
    {
      "inputs": [
        {
          "internalType": "string[]",
          "name": "names",
          "type": "string[]"
        },
        {
          "internalType": "uint256",
          "name": "duration",
          "type": "uint256"
        }
      ],
      "name": "renewAll",
      "outputs": [],
      "stateMutability": "nonpayable",
      "type": "function"
    },
    {
      "inputs": [],
      "name": "renounceOwnership",
      "outputs": [],
      "stateMutability": "nonpayable",
      "type": "function"
    },
    {
      "inputs": [
        {
          "internalType": "bytes4",
          "name": "interfaceID",
          "type": "bytes4"
        }
      ],
      "name": "supportsInterface",
      "outputs": [
        {
          "internalType": "bool",
          "name": "",
          "type": "bool"
        }
      ],
      "stateMutability": "pure",
      "type": "function"
    },
    {
      "inputs": [
        {
          "internalType": "address",
          "name": "newOwner",
          "type": "address"
        }
      ],
      "name": "transferOwnership",
      "outputs": [],
      "stateMutability": "nonpayable",
      "type": "function"
    }
  ],
  "bytecode": "0x60a060405234801561001057600080fd5b5060405161085138038061085183398101604081905261002f91610099565b61003833610049565b6001600160a01b03166080526100c9565b600080546001600160a01b038381166001600160a01b0319831681178455604051919092169283917f8be0079c531659141344cd1fd0a4f28419497f9722a3daafe3b4186f6b6457e09190a35050565b6000602082840312156100ab57600080fd5b81516001600160a01b03811681146100c257600080fd5b9392505050565b6080516107676100ea6000396000818160a4015261042501526107676000f3fe608060405234801561001057600080fd5b50600436106100725760003560e01c80638da5cb5b116100505780638da5cb5b146100e8578063e8d6dbb4146100f9578063f2fde38b1461010c57600080fd5b806301ffc9a7146100775780633f15457f1461009f578063715018a6146100de575b600080fd5b61008a610085366004610568565b61011f565b60405190151581526020015b60405180910390f35b6100c67f000000000000000000000000000000000000000000000000000000000000000081565b6040516001600160a01b039091168152602001610096565b6100e66101b8565b005b6000546001600160a01b03166100c6565b6100e66101073660046105b1565b6101cc565b6100e661011a366004610641565b61027b565b60007fffffffff0000000000000000000000000000000000000000000000000000000082167f01ffc9a70000000000000000000000000000000000000000000000000000000014806101b257507fffffffff0000000000000000000000000000000000000000000000000000000082167fe8d6dbb400000000000000000000000000000000000000000000000000000000145b92915050565b6101c0610310565b6101ca600061036a565b565b60006101d66103d2565b90508260005b8181101561027357826001600160a01b031663acf1a8418787848181106102055761020561065e565b9050602002810190610217919061068d565b876040518463ffffffff1660e01b8152600401610236939291906106db565b600060405180830381600087803b15801561025057600080fd5b505af1158015610264573d6000803e3d6000fd5b505050508060010190506101dc565b505050505050565b610283610310565b6001600160a01b0381166103045760405162461bcd60e51b815260206004820152602660248201527f4f776e61626c653a206e6577206f776e657220697320746865207a65726f206160448201527f646472657373000000000000000000000000000000000000000000000000000060648201526084015b60405180910390fd5b61030d8161036a565b50565b6000546001600160a01b031633146101ca5760405162461bcd60e51b815260206004820181905260248201527f4f776e61626c653a2063616c6c6572206973206e6f7420746865206f776e657260448201526064016102fb565b600080546001600160a01b038381167fffffffffffffffffffffffff0000000000000000000000000000000000000000831681178455604051919092169283917f8be0079c531659141344cd1fd0a4f28419497f9722a3daafe3b4186f6b6457e09190a35050565b6040517f0178b8bf0000000000000000000000000000000000000000000000000000000081527f587d09fe5fa45354680537d38145a28b772971e0f293af3ee0c536fc919710fb600482015260009081907f00000000000000000000000000000000000000000000000000000000000000006001600160a01b031690630178b8bf90602401602060405180830381865afa158015610474573d6000803e3d6000fd5b505050506040513d601f19601f820116820180604052508101906104989190610714565b6040517f124a319c0000000000000000000000000000000000000000000000000000000081527f587d09fe5fa45354680537d38145a28b772971e0f293af3ee0c536fc919710fb60048201527f022a75010000000000000000000000000000000000000000000000000000000060248201529091506001600160a01b0382169063124a319c90604401602060405180830381865afa15801561053e573d6000803e3d6000fd5b505050506040513d601f19601f820116820180604052508101906105629190610714565b91505090565b60006020828403121561057a57600080fd5b81357fffffffff00000000000000000000000000000000000000000000000000000000811681146105aa57600080fd5b9392505050565b6000806000604084860312156105c657600080fd5b833567ffffffffffffffff808211156105de57600080fd5b818601915086601f8301126105f257600080fd5b81358181111561060157600080fd5b8760208260051b850101111561061657600080fd5b6020928301989097509590910135949350505050565b6001600160a01b038116811461030d57600080fd5b60006020828403121561065357600080fd5b81356105aa8161062c565b7f4e487b7100000000000000000000000000000000000000000000000000000000600052603260045260246000fd5b6000808335601e198436030181126106a457600080fd5b83018035915067ffffffffffffffff8211156106bf57600080fd5b6020019150368190038213156106d457600080fd5b9250929050565b604081528260408201528284606083013760006060848301015260006060601f19601f8601168301019050826020830152949350505050565b60006020828403121561072657600080fd5b81516105aa8161062c56fea26469706673582212203d38222c4a84f957ba51888fbbfecf09f81f0232273108fffecd4385d140b70964736f6c63430008110033",
  "linkReferences": {},
  "deployedLinkReferences": {}
}