{
  "_format": "hh-sol-artifact-1",
  "contractName": "NameWrapper",
  "sourceName": "contracts/wrapper/NameWrapper.sol",
  "abi": [
    {
      "inputs": [
        {
          "internalType": "contract ENS",
          "name": "_ens",
          "type": "address"
        },
        {
          "internalType": "contract IBaseRegistrar",
          "name": "_registrar",
          "type": "address"
        },
        {
          "internalType": "contract IMetadataService",
          "name": "_metadataService",
          "type": "address"
        }
      ],
      "stateMutability": "nonpayable",
      "type": "constructor"
    },
    {
      "inputs": [],
      "name": "CannotUpgrade",
      "type": "error"
    },
    {
      "inputs": [],
      "name": "IncompatibleParent",
      "type": "error"
    },
    {
      "inputs": [
        {
          "internalType": "address",
          "name": "owner",
          "type": "address"
        }
      ],
      "name": "IncorrectTargetOwner",
      "type": "error"
    },
    {
      "inputs": [],
      "name": "IncorrectTokenType",
      "type": "error"
    },
    {
      "inputs": [
        {
          "internalType": "bytes32",
          "name": "labelHash",
          "type": "bytes32"
        },
        {
          "internalType": "bytes32",
          "name": "expectedLabelhash",
          "type": "bytes32"
        }
      ],
      "name": "LabelMismatch",
      "type": "error"
    },
    {
      "inputs": [
        {
          "internalType": "string",
          "name": "label",
          "type": "string"
        }
      ],
      "name": "LabelTooLong",
      "type": "error"
    },
    {
      "inputs": [],
      "name": "LabelTooShort",
      "type": "error"
    },
    {
      "inputs": [],
      "name": "NameIsNotWrapped",
      "type": "error"
    },
    {
      "inputs": [
        {
          "internalType": "bytes32",
          "name": "node",
          "type": "bytes32"
        }
      ],
      "name": "OperationProhibited",
      "type": "error"
    },
    {
      "inputs": [
        {
          "internalType": "bytes32",
          "name": "node",
          "type": "bytes32"
        },
        {
          "internalType": "address",
          "name": "addr",
          "type": "address"
        }
      ],
      "name": "Unauthorised",
      "type": "error"
    },
    {
      "anonymous": false,
      "inputs": [
        {
          "indexed": true,
          "internalType": "address",
          "name": "owner",
          "type": "address"
        },
        {
          "indexed": true,
          "internalType": "address",
          "name": "approved",
          "type": "address"
        },
        {
          "indexed": true,
          "internalType": "uint256",
          "name": "tokenId",
          "type": "uint256"
        }
      ],
      "name": "Approval",
      "type": "event"
    },
    {
      "anonymous": false,
      "inputs": [
        {
          "indexed": true,
          "internalType": "address",
          "name": "account",
          "type": "address"
        },
        {
          "indexed": true,
          "internalType": "address",
          "name": "operator",
          "type": "address"
        },
        {
          "indexed": false,
          "internalType": "bool",
          "name": "approved",
          "type": "bool"
        }
      ],
      "name": "ApprovalForAll",
      "type": "event"
    },
    {
      "anonymous": false,
      "inputs": [
        {
          "indexed": true,
          "internalType": "address",
          "name": "controller",
          "type": "address"
        },
        {
          "indexed": false,
          "internalType": "bool",
          "name": "active",
          "type": "bool"
        }
      ],
      "name": "ControllerChanged",
      "type": "event"
    },
    {
      "anonymous": false,
      "inputs": [
        {
          "indexed": true,
          "internalType": "bytes32",
          "name": "node",
          "type": "bytes32"
        },
        {
          "indexed": false,
          "internalType": "uint64",
          "name": "expiry",
          "type": "uint64"
        }
      ],
      "name": "ExpiryExtended",
      "type": "event"
    },
    {
      "anonymous": false,
      "inputs": [
        {
          "indexed": true,
          "internalType": "bytes32",
          "name": "node",
          "type": "bytes32"
        },
        {
          "indexed": false,
          "internalType": "uint32",
          "name": "fuses",
          "type": "uint32"
        }
      ],
      "name": "FusesSet",
      "type": "event"
    },
    {
      "anonymous": false,
      "inputs": [
        {
          "indexed": true,
          "internalType": "bytes32",
          "name": "node",
          "type": "bytes32"
        },
        {
          "indexed": false,
          "internalType": "address",
          "name": "owner",
          "type": "address"
        }
      ],
      "name": "NameUnwrapped",
      "type": "event"
    },
    {
      "anonymous": false,
      "inputs": [
        {
          "indexed": true,
          "internalType": "bytes32",
          "name": "node",
          "type": "bytes32"
        },
        {
          "indexed": false,
          "internalType": "bytes",
          "name": "name",
          "type": "bytes"
        },
        {
          "indexed": false,
          "internalType": "address",
          "name": "owner",
          "type": "address"
        },
        {
          "indexed": false,
          "internalType": "uint32",
          "name": "fuses",
          "type": "uint32"
        },
        {
          "indexed": false,
          "internalType": "uint64",
          "name": "expiry",
          "type": "uint64"
        }
      ],
      "name": "NameWrapped",
      "type": "event"
    },
    {
      "anonymous": false,
      "inputs": [
        {
          "indexed": true,
          "internalType": "address",
          "name": "previousOwner",
          "type": "address"
        },
        {
          "indexed": true,
          "internalType": "address",
          "name": "newOwner",
          "type": "address"
        }
      ],
      "name": "OwnershipTransferred",
      "type": "event"
    },
    {
      "anonymous": false,
      "inputs": [
        {
          "indexed": true,
          "internalType": "address",
          "name": "operator",
          "type": "address"
        },
        {
          "indexed": true,
          "internalType": "address",
          "name": "from",
          "type": "address"
        },
        {
          "indexed": true,
          "internalType": "address",
          "name": "to",
          "type": "address"
        },
        {
          "indexed": false,
          "internalType": "uint256[]",
          "name": "ids",
          "type": "uint256[]"
        },
        {
          "indexed": false,
          "internalType": "uint256[]",
          "name": "values",
          "type": "uint256[]"
        }
      ],
      "name": "TransferBatch",
      "type": "event"
    },
    {
      "anonymous": false,
      "inputs": [
        {
          "indexed": true,
          "internalType": "address",
          "name": "operator",
          "type": "address"
        },
        {
          "indexed": true,
          "internalType": "address",
          "name": "from",
          "type": "address"
        },
        {
          "indexed": true,
          "internalType": "address",
          "name": "to",
          "type": "address"
        },
        {
          "indexed": false,
          "internalType": "uint256",
          "name": "id",
          "type": "uint256"
        },
        {
          "indexed": false,
          "internalType": "uint256",
          "name": "value",
          "type": "uint256"
        }
      ],
      "name": "TransferSingle",
      "type": "event"
    },
    {
      "anonymous": false,
      "inputs": [
        {
          "indexed": false,
          "internalType": "string",
          "name": "value",
          "type": "string"
        },
        {
          "indexed": true,
          "internalType": "uint256",
          "name": "id",
          "type": "uint256"
        }
      ],
      "name": "URI",
      "type": "event"
    },
    {
      "inputs": [
        {
          "internalType": "uint256",
          "name": "",
          "type": "uint256"
        }
      ],
      "name": "_tokens",
      "outputs": [
        {
          "internalType": "uint256",
          "name": "",
          "type": "uint256"
        }
      ],
      "stateMutability": "view",
      "type": "function"
    },
    {
      "inputs": [
        {
          "internalType": "bytes32",
          "name": "node",
          "type": "bytes32"
        },
        {
          "internalType": "uint32",
          "name": "fuseMask",
          "type": "uint32"
        }
      ],
      "name": "allFusesBurned",
      "outputs": [
        {
          "internalType": "bool",
          "name": "",
          "type": "bool"
        }
      ],
      "stateMutability": "view",
      "type": "function"
    },
    {
      "inputs": [
        {
          "internalType": "address",
          "name": "to",
          "type": "address"
        },
        {
          "internalType": "uint256",
          "name": "tokenId",
          "type": "uint256"
        }
      ],
      "name": "approve",
      "outputs": [],
      "stateMutability": "nonpayable",
      "type": "function"
    },
    {
      "inputs": [
        {
          "internalType": "address",
          "name": "account",
          "type": "address"
        },
        {
          "internalType": "uint256",
          "name": "id",
          "type": "uint256"
        }
      ],
      "name": "balanceOf",
      "outputs": [
        {
          "internalType": "uint256",
          "name": "",
          "type": "uint256"
        }
      ],
      "stateMutability": "view",
      "type": "function"
    },
    {
      "inputs": [
        {
          "internalType": "address[]",
          "name": "accounts",
          "type": "address[]"
        },
        {
          "internalType": "uint256[]",
          "name": "ids",
          "type": "uint256[]"
        }
      ],
      "name": "balanceOfBatch",
      "outputs": [
        {
          "internalType": "uint256[]",
          "name": "",
          "type": "uint256[]"
        }
      ],
      "stateMutability": "view",
      "type": "function"
    },
    {
      "inputs": [
        {
          "internalType": "bytes32",
          "name": "node",
          "type": "bytes32"
        },
        {
          "internalType": "address",
          "name": "addr",
          "type": "address"
        }
      ],
      "name": "canExtendSubnames",
      "outputs": [
        {
          "internalType": "bool",
          "name": "",
          "type": "bool"
        }
      ],
      "stateMutability": "view",
      "type": "function"
    },
    {
      "inputs": [
        {
          "internalType": "bytes32",
          "name": "node",
          "type": "bytes32"
        },
        {
          "internalType": "address",
          "name": "addr",
          "type": "address"
        }
      ],
      "name": "canModifyName",
      "outputs": [
        {
          "internalType": "bool",
          "name": "",
          "type": "bool"
        }
      ],
      "stateMutability": "view",
      "type": "function"
    },
    {
      "inputs": [
        {
          "internalType": "address",
          "name": "",
          "type": "address"
        }
      ],
      "name": "controllers",
      "outputs": [
        {
          "internalType": "bool",
          "name": "",
          "type": "bool"
        }
      ],
      "stateMutability": "view",
      "type": "function"
    },
    {
      "inputs": [],
      "name": "ens",
      "outputs": [
        {
          "internalType": "contract ENS",
          "name": "",
          "type": "address"
        }
      ],
      "stateMutability": "view",
      "type": "function"
    },
    {
      "inputs": [
        {
          "internalType": "bytes32",
          "name": "parentNode",
          "type": "bytes32"
        },
        {
          "internalType": "bytes32",
          "name": "labelhash",
          "type": "bytes32"
        },
        {
          "internalType": "uint64",
          "name": "expiry",
          "type": "uint64"
        }
      ],
      "name": "extendExpiry",
      "outputs": [
        {
          "internalType": "uint64",
          "name": "",
          "type": "uint64"
        }
      ],
      "stateMutability": "nonpayable",
      "type": "function"
    },
    {
      "inputs": [
        {
          "internalType": "uint256",
          "name": "id",
          "type": "uint256"
        }
      ],
      "name": "getApproved",
      "outputs": [
        {
          "internalType": "address",
          "name": "operator",
          "type": "address"
        }
      ],
      "stateMutability": "view",
      "type": "function"
    },
    {
      "inputs": [
        {
          "internalType": "uint256",
          "name": "id",
          "type": "uint256"
        }
      ],
      "name": "getData",
      "outputs": [
        {
          "internalType": "address",
          "name": "owner",
          "type": "address"
        },
        {
          "internalType": "uint32",
          "name": "fuses",
          "type": "uint32"
        },
        {
          "internalType": "uint64",
          "name": "expiry",
          "type": "uint64"
        }
      ],
      "stateMutability": "view",
      "type": "function"
    },
    {
      "inputs": [
        {
          "internalType": "address",
          "name": "account",
          "type": "address"
        },
        {
          "internalType": "address",
          "name": "operator",
          "type": "address"
        }
      ],
      "name": "isApprovedForAll",
      "outputs": [
        {
          "internalType": "bool",
          "name": "",
          "type": "bool"
        }
      ],
      "stateMutability": "view",
      "type": "function"
    },
    {
      "inputs": [
        {
          "internalType": "bytes32",
          "name": "parentNode",
          "type": "bytes32"
        },
        {
          "internalType": "bytes32",
          "name": "labelhash",
          "type": "bytes32"
        }
      ],
      "name": "isWrapped",
      "outputs": [
        {
          "internalType": "bool",
          "name": "",
          "type": "bool"
        }
      ],
      "stateMutability": "view",
      "type": "function"
    },
    {
      "inputs": [
        {
          "internalType": "bytes32",
          "name": "node",
          "type": "bytes32"
        }
      ],
      "name": "isWrapped",
      "outputs": [
        {
          "internalType": "bool",
          "name": "",
          "type": "bool"
        }
      ],
      "stateMutability": "view",
      "type": "function"
    },
    {
      "inputs": [],
      "name": "metadataService",
      "outputs": [
        {
          "internalType": "contract IMetadataService",
          "name": "",
          "type": "address"
        }
      ],
      "stateMutability": "view",
      "type": "function"
    },
    {
      "inputs": [],
      "name": "name",
      "outputs": [
        {
          "internalType": "string",
          "name": "",
          "type": "string"
        }
      ],
      "stateMutability": "view",
      "type": "function"
    },
    {
      "inputs": [
        {
          "internalType": "bytes32",
          "name": "",
          "type": "bytes32"
        }
      ],
      "name": "names",
      "outputs": [
        {
          "internalType": "bytes",
          "name": "",
          "type": "bytes"
        }
      ],
      "stateMutability": "view",
      "type": "function"
    },
    {
      "inputs": [
        {
          "internalType": "address",
          "name": "to",
          "type": "address"
        },
        {
          "internalType": "address",
          "name": "",
          "type": "address"
        },
        {
          "internalType": "uint256",
          "name": "tokenId",
          "type": "uint256"
        },
        {
          "internalType": "bytes",
          "name": "data",
          "type": "bytes"
        }
      ],
      "name": "onERC721Received",
      "outputs": [
        {
          "internalType": "bytes4",
          "name": "",
          "type": "bytes4"
        }
      ],
      "stateMutability": "nonpayable",
      "type": "function"
    },
    {
      "inputs": [],
      "name": "owner",
      "outputs": [
        {
          "internalType": "address",
          "name": "",
          "type": "address"
        }
      ],
      "stateMutability": "view",
      "type": "function"
    },
    {
      "inputs": [
        {
          "internalType": "uint256",
          "name": "id",
          "type": "uint256"
        }
      ],
      "name": "ownerOf",
      "outputs": [
        {
          "internalType": "address",
          "name": "owner",
          "type": "address"
        }
      ],
      "stateMutability": "view",
      "type": "function"
    },
    {
      "inputs": [
        {
          "internalType": "address",
          "name": "_token",
          "type": "address"
        },
        {
          "internalType": "address",
          "name": "_to",
          "type": "address"
        },
        {
          "internalType": "uint256",
          "name": "_amount",
          "type": "uint256"
        }
      ],
      "name": "recoverFunds",
      "outputs": [],
      "stateMutability": "nonpayable",
      "type": "function"
    },
    {
      "inputs": [
        {
          "internalType": "string",
          "name": "label",
          "type": "string"
        },
        {
          "internalType": "address",
          "name": "wrappedOwner",
          "type": "address"
        },
        {
          "internalType": "uint256",
          "name": "duration",
          "type": "uint256"
        },
        {
          "internalType": "address",
          "name": "resolver",
          "type": "address"
        },
        {
          "internalType": "uint16",
          "name": "ownerControlledFuses",
          "type": "uint16"
        }
      ],
      "name": "registerAndWrapETH2LD",
      "outputs": [
        {
          "internalType": "uint256",
          "name": "registrarExpiry",
          "type": "uint256"
        }
      ],
      "stateMutability": "nonpayable",
      "type": "function"
    },
    {
      "inputs": [],
      "name": "registrar",
      "outputs": [
        {
          "internalType": "contract IBaseRegistrar",
          "name": "",
          "type": "address"
        }
      ],
      "stateMutability": "view",
      "type": "function"
    },
    {
      "inputs": [
        {
          "internalType": "uint256",
          "name": "tokenId",
          "type": "uint256"
        },
        {
          "internalType": "uint256",
          "name": "duration",
          "type": "uint256"
        }
      ],
      "name": "renew",
      "outputs": [
        {
          "internalType": "uint256",
          "name": "expires",
          "type": "uint256"
        }
      ],
      "stateMutability": "nonpayable",
      "type": "function"
    },
    {
      "inputs": [],
      "name": "renounceOwnership",
      "outputs": [],
      "stateMutability": "nonpayable",
      "type": "function"
    },
    {
      "inputs": [
        {
          "internalType": "address",
          "name": "from",
          "type": "address"
        },
        {
          "internalType": "address",
          "name": "to",
          "type": "address"
        },
        {
          "internalType": "uint256[]",
          "name": "ids",
          "type": "uint256[]"
        },
        {
          "internalType": "uint256[]",
          "name": "amounts",
          "type": "uint256[]"
        },
        {
          "internalType": "bytes",
          "name": "data",
          "type": "bytes"
        }
      ],
      "name": "safeBatchTransferFrom",
      "outputs": [],
      "stateMutability": "nonpayable",
      "type": "function"
    },
    {
      "inputs": [
        {
          "internalType": "address",
          "name": "from",
          "type": "address"
        },
        {
          "internalType": "address",
          "name": "to",
          "type": "address"
        },
        {
          "internalType": "uint256",
          "name": "id",
          "type": "uint256"
        },
        {
          "internalType": "uint256",
          "name": "amount",
          "type": "uint256"
        },
        {
          "internalType": "bytes",
          "name": "data",
          "type": "bytes"
        }
      ],
      "name": "safeTransferFrom",
      "outputs": [],
      "stateMutability": "nonpayable",
      "type": "function"
    },
    {
      "inputs": [
        {
          "internalType": "address",
          "name": "operator",
          "type": "address"
        },
        {
          "internalType": "bool",
          "name": "approved",
          "type": "bool"
        }
      ],
      "name": "setApprovalForAll",
      "outputs": [],
      "stateMutability": "nonpayable",
      "type": "function"
    },
    {
      "inputs": [
        {
          "internalType": "bytes32",
          "name": "parentNode",
          "type": "bytes32"
        },
        {
          "internalType": "bytes32",
          "name": "labelhash",
          "type": "bytes32"
        },
        {
          "internalType": "uint32",
          "name": "fuses",
          "type": "uint32"
        },
        {
          "internalType": "uint64",
          "name": "expiry",
          "type": "uint64"
        }
      ],
      "name": "setChildFuses",
      "outputs": [],
      "stateMutability": "nonpayable",
      "type": "function"
    },
    {
      "inputs": [
        {
          "internalType": "address",
          "name": "controller",
          "type": "address"
        },
        {
          "internalType": "bool",
          "name": "active",
          "type": "bool"
        }
      ],
      "name": "setController",
      "outputs": [],
      "stateMutability": "nonpayable",
      "type": "function"
    },
    {
      "inputs": [
        {
          "internalType": "bytes32",
          "name": "node",
          "type": "bytes32"
        },
        {
          "internalType": "uint16",
          "name": "ownerControlledFuses",
          "type": "uint16"
        }
      ],
      "name": "setFuses",
      "outputs": [
        {
          "internalType": "uint32",
          "name": "",
          "type": "uint32"
        }
      ],
      "stateMutability": "nonpayable",
      "type": "function"
    },
    {
      "inputs": [
        {
          "internalType": "contract IMetadataService",
          "name": "_metadataService",
          "type": "address"
        }
      ],
      "name": "setMetadataService",
      "outputs": [],
      "stateMutability": "nonpayable",
      "type": "function"
    },
    {
      "inputs": [
        {
          "internalType": "bytes32",
          "name": "node",
          "type": "bytes32"
        },
        {
          "internalType": "address",
          "name": "owner",
          "type": "address"
        },
        {
          "internalType": "address",
          "name": "resolver",
          "type": "address"
        },
        {
          "internalType": "uint64",
          "name": "ttl",
          "type": "uint64"
        }
      ],
      "name": "setRecord",
      "outputs": [],
      "stateMutability": "nonpayable",
      "type": "function"
    },
    {
      "inputs": [
        {
          "internalType": "bytes32",
          "name": "node",
          "type": "bytes32"
        },
        {
          "internalType": "address",
          "name": "resolver",
          "type": "address"
        }
      ],
      "name": "setResolver",
      "outputs": [],
      "stateMutability": "nonpayable",
      "type": "function"
    },
    {
      "inputs": [
        {
          "internalType": "bytes32",
          "name": "parentNode",
          "type": "bytes32"
        },
        {
          "internalType": "string",
          "name": "label",
          "type": "string"
        },
        {
          "internalType": "address",
          "name": "owner",
          "type": "address"
        },
        {
          "internalType": "uint32",
          "name": "fuses",
          "type": "uint32"
        },
        {
          "internalType": "uint64",
          "name": "expiry",
          "type": "uint64"
        }
      ],
      "name": "setSubnodeOwner",
      "outputs": [
        {
          "internalType": "bytes32",
          "name": "node",
          "type": "bytes32"
        }
      ],
      "stateMutability": "nonpayable",
      "type": "function"
    },
    {
      "inputs": [
        {
          "internalType": "bytes32",
          "name": "parentNode",
          "type": "bytes32"
        },
        {
          "internalType": "string",
          "name": "label",
          "type": "string"
        },
        {
          "internalType": "address",
          "name": "owner",
          "type": "address"
        },
        {
          "internalType": "address",
          "name": "resolver",
          "type": "address"
        },
        {
          "internalType": "uint64",
          "name": "ttl",
          "type": "uint64"
        },
        {
          "internalType": "uint32",
          "name": "fuses",
          "type": "uint32"
        },
        {
          "internalType": "uint64",
          "name": "expiry",
          "type": "uint64"
        }
      ],
      "name": "setSubnodeRecord",
      "outputs": [
        {
          "internalType": "bytes32",
          "name": "node",
          "type": "bytes32"
        }
      ],
      "stateMutability": "nonpayable",
      "type": "function"
    },
    {
      "inputs": [
        {
          "internalType": "bytes32",
          "name": "node",
          "type": "bytes32"
        },
        {
          "internalType": "uint64",
          "name": "ttl",
          "type": "uint64"
        }
      ],
      "name": "setTTL",
      "outputs": [],
      "stateMutability": "nonpayable",
      "type": "function"
    },
    {
      "inputs": [
        {
          "internalType": "contract INameWrapperUpgrade",
          "name": "_upgradeAddress",
          "type": "address"
        }
      ],
      "name": "setUpgradeContract",
      "outputs": [],
      "stateMutability": "nonpayable",
      "type": "function"
    },
    {
      "inputs": [
        {
          "internalType": "bytes4",
          "name": "interfaceId",
          "type": "bytes4"
        }
      ],
      "name": "supportsInterface",
      "outputs": [
        {
          "internalType": "bool",
          "name": "",
          "type": "bool"
        }
      ],
      "stateMutability": "view",
      "type": "function"
    },
    {
      "inputs": [
        {
          "internalType": "address",
          "name": "newOwner",
          "type": "address"
        }
      ],
      "name": "transferOwnership",
      "outputs": [],
      "stateMutability": "nonpayable",
      "type": "function"
    },
    {
      "inputs": [
        {
          "internalType": "bytes32",
          "name": "parentNode",
          "type": "bytes32"
        },
        {
          "internalType": "bytes32",
          "name": "labelhash",
          "type": "bytes32"
        },
        {
          "internalType": "address",
          "name": "controller",
          "type": "address"
        }
      ],
      "name": "unwrap",
      "outputs": [],
      "stateMutability": "nonpayable",
      "type": "function"
    },
    {
      "inputs": [
        {
          "internalType": "bytes32",
          "name": "labelhash",
          "type": "bytes32"
        },
        {
          "internalType": "address",
          "name": "registrant",
          "type": "address"
        },
        {
          "internalType": "address",
          "name": "controller",
          "type": "address"
        }
      ],
      "name": "unwrapETH2LD",
      "outputs": [],
      "stateMutability": "nonpayable",
      "type": "function"
    },
    {
      "inputs": [
        {
          "internalType": "bytes",
          "name": "name",
          "type": "bytes"
        },
        {
          "internalType": "bytes",
          "name": "extraData",
          "type": "bytes"
        }
      ],
      "name": "upgrade",
      "outputs": [],
      "stateMutability": "nonpayable",
      "type": "function"
    },
    {
      "inputs": [],
      "name": "upgradeContract",
      "outputs": [
        {
          "internalType": "contract INameWrapperUpgrade",
          "name": "",
          "type": "address"
        }
      ],
      "stateMutability": "view",
      "type": "function"
    },
    {
      "inputs": [
        {
          "internalType": "uint256",
          "name": "tokenId",
          "type": "uint256"
        }
      ],
      "name": "uri",
      "outputs": [
        {
          "internalType": "string",
          "name": "",
          "type": "string"
        }
      ],
      "stateMutability": "view",
      "type": "function"
    },
    {
      "inputs": [
        {
          "internalType": "bytes",
          "name": "name",
          "type": "bytes"
        },
        {
          "internalType": "address",
          "name": "wrappedOwner",
          "type": "address"
        },
        {
          "internalType": "address",
          "name": "resolver",
          "type": "address"
        }
      ],
      "name": "wrap",
      "outputs": [],
      "stateMutability": "nonpayable",
      "type": "function"
    },
    {
      "inputs": [
        {
          "internalType": "string",
          "name": "label",
          "type": "string"
        },
        {
          "internalType": "address",
          "name": "wrappedOwner",
          "type": "address"
        },
        {
          "internalType": "uint16",
          "name": "ownerControlledFuses",
          "type": "uint16"
        },
        {
          "internalType": "address",
          "name": "resolver",
          "type": "address"
        }
      ],
      "name": "wrapETH2LD",
      "outputs": [
        {
          "internalType": "uint64",
          "name": "expiry",
          "type": "uint64"
        }
      ],
      "stateMutability": "nonpayable",
      "type": "function"
    }
  ],
  "bytecode": "0x60c06040523480156200001157600080fd5b506040516200652f3803806200652f8339810160408190526200003491620002f8565b823362000041816200028f565b6040516302571be360e01b81527f91d1777781884d03a6757a803996e38de2a42967fb37eeaca72729271025a9e260048201526000906001600160a01b038416906302571be390602401602060405180830381865afa158015620000a9573d6000803e3d6000fd5b505050506040513d601f19601f82011682018060405250810190620000cf91906200034c565b604051630f41a04d60e11b81526001600160a01b03848116600483015291925090821690631e83409a906024016020604051808303816000875af11580156200011c573d6000803e3d6000fd5b505050506040513d601f19601f8201168201806040525081019062000142919062000373565b505050506001600160a01b0383811660805282811660a052600580546001600160a01b031916918316919091179055600163fffeffff60a01b03197f740a02f7168a08d1b6f4c472a912861e631e65a0640a8f207a29463f80b117948190557fa6eef7e35abe7026729641147f7915573c7e97b47efa546f5f6e3230263bcb4955604080518082019091526001815260006020808301829052908052600690527f54cdd369e4e8a8515e52ca72ec816c2101831ad1f18bf44102ed171459c9b4f89062000210908262000432565b5060408051808201909152600680825264037765623360d81b6020808401919091527f587d09fe5fa45354680537d38145a28b772971e0f293af3ee0c536fc919710fb600052527fdf806dc0b7dc1d8c8b2f518a30ae7bd33901629610ddd671164d365ac0d34f0e9062000285908262000432565b50505050620004fe565b600080546001600160a01b038381166001600160a01b0319831681178455604051919092169283917f8be0079c531659141344cd1fd0a4f28419497f9722a3daafe3b4186f6b6457e09190a35050565b6001600160a01b0381168114620002f557600080fd5b50565b6000806000606084860312156200030e57600080fd5b83516200031b81620002df565b60208501519093506200032e81620002df565b60408501519092506200034181620002df565b809150509250925092565b6000602082840312156200035f57600080fd5b81516200036c81620002df565b9392505050565b6000602082840312156200038657600080fd5b5051919050565b634e487b7160e01b600052604160045260246000fd5b600181811c90821680620003b857607f821691505b602082108103620003d957634e487b7160e01b600052602260045260246000fd5b50919050565b601f8211156200042d57600081815260208120601f850160051c81016020861015620004085750805b601f850160051c820191505b81811015620004295782815560010162000414565b5050505b505050565b81516001600160401b038111156200044e576200044e6200038d565b62000466816200045f8454620003a3565b84620003df565b602080601f8311600181146200049e5760008415620004855750858301515b600019600386901b1c1916600185901b17855562000429565b600085815260208120601f198616915b82811015620004cf57888601518255948401946001909101908401620004ae565b5085821015620004ee5787850151600019600388901b60f8161c191681555b5050505050600190811b01905550565b60805160a051615f246200060b6000396000818161050601528181610c1501528181610cef01528181610d7901528181611c9301528181611d2901528181611dd701528181611ef901528181611f6f01528181611fef01528181612271015281816123ad015281816124df015281816126c40152818161274a0152612f7f01526000818161055301528181610b9b01528181610ed70152818161108b0152818161113d015281816115550152818161243201528181612564015281816127f5015281816129ec01528181612cfa015281816131aa01528181613258015281816133210152818161339a015281816139f701528181613b1201528181613d7a01526143ba0152615f246000f3fe608060405234801561001057600080fd5b506004361061031f5760003560e01c80636352211e116101a7578063c93ab3fd116100ee578063e985e9c511610097578063f242432a11610071578063f242432a146107d7578063f2fde38b146107ea578063fd0cd0d9146107fd57600080fd5b8063e985e9c514610768578063eb8ae530146107a4578063ed70554d146107b757600080fd5b8063d9a50c12116100c8578063d9a50c121461071f578063da8c229e14610732578063e0dba60f1461075557600080fd5b8063c93ab3fd146106e6578063cf408823146106f9578063d8c9921a1461070c57600080fd5b8063a22cb46511610150578063b6bcad261161012a578063b6bcad26146106ad578063c475abff146106c0578063c658e086146106d357600080fd5b8063a22cb46514610674578063a401498214610687578063adf4960a1461069a57600080fd5b80638b4dfa75116101815780638b4dfa751461063d5780638cf8b41e146106505780638da5cb5b1461066357600080fd5b80636352211e146105f65780636e5d6ad214610609578063715018a61461063557600080fd5b80631f4e15041161026b5780633f15457f116102145780634e1273f4116101ee5780634e1273f4146105b057806353095467146105d05780635d3590d5146105e357600080fd5b80633f15457f1461054e578063402906fc1461057557806341415eab1461059d57600080fd5b80632b20e397116102455780632b20e397146105015780632eb2c2d61461052857806333c69ea91461053b57600080fd5b80631f4e1504146104c857806320c38e2b146104db57806324c1af44146104ee57600080fd5b80630e4cd725116102cd578063150b7a02116102a7578063150b7a02146104765780631534e177146104a25780631896f70a146104b557600080fd5b80630e4cd7251461043d5780630e89341c1461045057806314ab90381461046357600080fd5b806306fdde03116102fe57806306fdde03146103b4578063081812fc146103fd578063095ea7b31461042857600080fd5b8062fdd58e146103245780630178fe3f1461034a57806301ffc9a714610391575b600080fd5b610337610332366004614d53565b610810565b6040519081526020015b60405180910390f35b61035d610358366004614d7f565b6108cf565b604080516001600160a01b03909416845263ffffffff909216602084015267ffffffffffffffff1690820152606001610341565b6103a461039f366004614dae565b6108ff565b6040519015158152602001610341565b6103f06040518060400160405280600b81526020017f4e616d655772617070657200000000000000000000000000000000000000000081525081565b6040516103419190614e1b565b61041061040b366004614d7f565b610958565b6040516001600160a01b039091168152602001610341565b61043b610436366004614d53565b61099d565b005b6103a461044b366004614e2e565b6109e3565b6103f061045e366004614d7f565b610a7d565b61043b610471366004614e7b565b610aef565b610489610484366004614ef0565b610c08565b6040516001600160e01b03199091168152602001610341565b61043b6104b0366004614f63565b610e1a565b61043b6104c3366004614e2e565b610e44565b600754610410906001600160a01b031681565b6103f06104e9366004614d7f565b610f06565b6103376104fc36600461505b565b610fa0565b6104107f000000000000000000000000000000000000000000000000000000000000000081565b61043b610536366004615183565b6111b4565b61043b610549366004615231565b6114de565b6104107f000000000000000000000000000000000000000000000000000000000000000081565b610588610583366004615289565b6116d3565b60405163ffffffff9091168152602001610341565b6103a46105ab366004614e2e565b611775565b6105c36105be3660046152ac565b6117ff565b60405161034191906153aa565b600554610410906001600160a01b031681565b61043b6105f13660046153bd565b61193d565b610410610604366004614d7f565b6119d7565b61061c6106173660046153fe565b6119e2565b60405167ffffffffffffffff9091168152602001610341565b61043b611b37565b61043b61064b366004615433565b611b4b565b61061c61065e366004615475565b611cf5565b6000546001600160a01b0316610410565b61043b6106823660046154fe565b6120c1565b61033761069536600461552c565b6121ab565b6103a46106a83660046155ad565b612346565b61043b6106bb366004614f63565b61236b565b6103376106ce3660046155d0565b6125c3565b6103376106e13660046155f2565b6128ba565b61043b6106f4366004615665565b612ac7565b61043b6107073660046156d1565b612c38565b61043b61071a366004615709565b612df1565b6103a461072d3660046155d0565b612f01565b6103a4610740366004614f63565b60046020526000908152604090205460ff1681565b61043b6107633660046154fe565b61300e565b6103a4610776366004615737565b6001600160a01b03918216600090815260026020908152604080832093909416825291909152205460ff1690565b61043b6107b2366004615765565b613076565b6103376107c5366004614d7f565b60016020526000908152604090205481565b61043b6107e53660046157cd565b613441565b61043b6107f8366004614f63565b61355e565b6103a461080b366004614d7f565b6135eb565b60006001600160a01b0383166108935760405162461bcd60e51b815260206004820152602b60248201527f455243313135353a2062616c616e636520717565727920666f7220746865207a60448201527f65726f206164647265737300000000000000000000000000000000000000000060648201526084015b60405180910390fd5b600061089e836119d7565b9050836001600160a01b0316816001600160a01b0316036108c35760019150506108c9565b60009150505b92915050565b60008181526001602052604090205460a081901c60c082901c6108f38383836136c3565b90959094509092509050565b60006001600160e01b031982167fd82c42d800000000000000000000000000000000000000000000000000000000148061094957506001600160e01b03198216630a85bd0160e11b145b806108c957506108c9826136fa565b600080610964836119d7565b90506001600160a01b03811661097d5750600092915050565b6000838152600360205260409020546001600160a01b03165b9392505050565b60006109a8826108cf565b50915050603f1960408216016109d45760405163a2a7201360e01b81526004810183905260240161088a565b6109de838361377c565b505050565b60008080806109f1866108cf565b925092509250846001600160a01b0316836001600160a01b03161480610a3c57506001600160a01b0380841660009081526002602090815260408083209389168352929052205460ff165b80610a6057506001600160a01b038516610a5587610958565b6001600160a01b0316145b8015610a735750610a7182826138c6565b155b9695505050505050565b6005546040516303a24d0760e21b8152600481018390526060916001600160a01b031690630e89341c90602401600060405180830381865afa158015610ac7573d6000803e3d6000fd5b505050506040513d6000823e601f3d908101601f191682016040526108c99190810190615836565b81610afa8133611775565b610b205760405163168ab55d60e31b81526004810182905233602482015260440161088a565b8260106000610b2e836108cf565b5091505063ffffffff8282161615610b5c5760405163a2a7201360e01b81526004810184905260240161088a565b6040517f14ab90380000000000000000000000000000000000000000000000000000000081526004810187905267ffffffffffffffff861660248201527f00000000000000000000000000000000000000000000000000000000000000006001600160a01b0316906314ab9038906044015b600060405180830381600087803b158015610be857600080fd5b505af1158015610bfc573d6000803e3d6000fd5b50505050505050505050565b6000336001600160a01b037f00000000000000000000000000000000000000000000000000000000000000001614610c6c576040517f1931a53800000000000000000000000000000000000000000000000000000000815260040160405180910390fd5b6000808080610c7d868801886158ae565b83516020850120939750919550935091508890808214610cd3576040517fc65c3ccc000000000000000000000000000000000000000000000000000000008152600481018290526024810183905260440161088a565b604051630a3b53db60e21b8152600481018390523060248201527f00000000000000000000000000000000000000000000000000000000000000006001600160a01b0316906328ed4f6c90604401600060405180830381600087803b158015610d3b57600080fd5b505af1158015610d4f573d6000803e3d6000fd5b5050604051636b727d4360e11b8152600481018d9052600092506276a70091506001600160a01b037f0000000000000000000000000000000000000000000000000000000000000000169063d6e4fa8690602401602060405180830381865afa158015610dc0573d6000803e3d6000fd5b505050506040513d601f19601f82011682018060405250810190610de49190615916565b610dee9190615945565b9050610e0187878761ffff1684886138f7565b50630a85bd0160e11b9c9b505050505050505050505050565b610e22613a5d565b600580546001600160a01b0319166001600160a01b0392909216919091179055565b81610e4f8133611775565b610e755760405163168ab55d60e31b81526004810182905233602482015260440161088a565b8260086000610e83836108cf565b5091505063ffffffff8282161615610eb15760405163a2a7201360e01b81526004810184905260240161088a565b604051630c4b7b8560e11b8152600481018790526001600160a01b0386811660248301527f00000000000000000000000000000000000000000000000000000000000000001690631896f70a90604401610bce565b60066020526000908152604090208054610f1f9061596d565b80601f0160208091040260200160405190810160405280929190818152602001828054610f4b9061596d565b8015610f985780601f10610f6d57610100808354040283529160200191610f98565b820191906000526020600020905b815481529060010190602001808311610f7b57829003601f168201915b505050505081565b600087610fad8133611775565b610fd35760405163168ab55d60e31b81526004810182905233602482015260440161088a565b8751602089012061100b8a82604080516020808201949094528082019290925280518083038201815260609092019052805191012090565b92506110178a84613ab7565b6110218386613bf6565b61102c8a848b613c29565b506110398a848787613cf6565b935061104483613d3c565b6110fa576040516305ef2c7f60e41b8152600481018b9052602481018290523060448201526001600160a01b03888116606483015267ffffffffffffffff881660848301527f00000000000000000000000000000000000000000000000000000000000000001690635ef2c7f09060a401600060405180830381600087803b1580156110cf57600080fd5b505af11580156110e3573d6000803e3d6000fd5b505050506110f58a848b8b8989613df5565b6111a7565b6040516305ef2c7f60e41b8152600481018b9052602481018290523060448201526001600160a01b03888116606483015267ffffffffffffffff881660848301527f00000000000000000000000000000000000000000000000000000000000000001690635ef2c7f09060a401600060405180830381600087803b15801561118157600080fd5b505af1158015611195573d6000803e3d6000fd5b505050506111a78a848b8b8989613e2c565b5050979650505050505050565b815183511461122b5760405162461bcd60e51b815260206004820152602860248201527f455243313135353a2069647320616e6420616d6f756e7473206c656e6774682060448201527f6d69736d61746368000000000000000000000000000000000000000000000000606482015260840161088a565b6001600160a01b03841661128f5760405162461bcd60e51b815260206004820152602560248201527f455243313135353a207472616e7366657220746f20746865207a65726f206164604482015264647265737360d81b606482015260840161088a565b6001600160a01b0385163314806112c957506001600160a01b038516600090815260026020908152604080832033845290915290205460ff165b61133b5760405162461bcd60e51b815260206004820152603260248201527f455243313135353a207472616e736665722063616c6c6572206973206e6f742060448201527f6f776e6572206e6f7220617070726f7665640000000000000000000000000000606482015260840161088a565b60005b835181101561147157600084828151811061135b5761135b6159a7565b602002602001015190506000848381518110611379576113796159a7565b602002602001015190506000806000611391856108cf565b9250925092506113a2858383613ef0565b8360011480156113c357508a6001600160a01b0316836001600160a01b0316145b6114225760405162461bcd60e51b815260206004820152602a60248201527f455243313135353a20696e73756666696369656e742062616c616e636520666f60448201526939103a3930b739b332b960b11b606482015260840161088a565b60008581526001602052604090206001600160a01b038b1663ffffffff60a01b60a085901b16176001600160c01b031960c084901b1617905550505050508061146a906159bd565b905061133e565b50836001600160a01b0316856001600160a01b0316336001600160a01b03167f4a39dc06d4c0dbc64b70af90fd698a233a518aa5d07e595d983b8c0526c8f7fb86866040516114c19291906159d6565b60405180910390a46114d7338686868686613fdd565b5050505050565b604080516020808201879052818301869052825180830384018152606090920190925280519101206115108184613bf6565b6000808061151d846108cf565b919450925090506001600160a01b03831615806115cc57506040516302571be360e01b81526004810185905230906001600160a01b037f000000000000000000000000000000000000000000000000000000000000000016906302571be390602401602060405180830381865afa15801561159c573d6000803e3d6000fd5b505050506040513d601f19601f820116820180604052508101906115c09190615a04565b6001600160a01b031614155b156115ea57604051635374b59960e01b815260040160405180910390fd5b6000806115f68a6108cf565b90935091508a90506116375761160c8633611775565b6116325760405163168ab55d60e31b81526004810187905233602482015260440161088a565b611667565b6116418a33611775565b6116675760405163168ab55d60e31b8152600481018b905233602482015260440161088a565b611672868984614182565b61167d8784836141bd565b9650620100008416158015906116a157508363ffffffff1688851763ffffffff1614155b156116c25760405163a2a7201360e01b81526004810187905260240161088a565b96831796610bfc86868a868b614207565b6000826116e08133611775565b6117065760405163168ab55d60e31b81526004810182905233602482015260440161088a565b8360026000611714836108cf565b5091505063ffffffff82821616156117425760405163a2a7201360e01b81526004810184905260240161088a565b6000808061174f8a6108cf565b9250925092506117688a84848c61ffff16178485614207565b5098975050505050505050565b6000808080611783866108cf565b925092509250846001600160a01b03166117a56000546001600160a01b031690565b6001600160a01b031614806117cb5750846001600160a01b0316836001600160a01b0316145b80610a6057506001600160a01b0380841660009081526002602090815260408083209389168352929052205460ff16610a60565b606081518351146118785760405162461bcd60e51b815260206004820152602960248201527f455243313135353a206163636f756e747320616e6420696473206c656e67746860448201527f206d69736d617463680000000000000000000000000000000000000000000000606482015260840161088a565b6000835167ffffffffffffffff81111561189457611894614f80565b6040519080825280602002602001820160405280156118bd578160200160208202803683370190505b50905060005b8451811015611935576119088582815181106118e1576118e16159a7565b60200260200101518583815181106118fb576118fb6159a7565b6020026020010151610810565b82828151811061191a5761191a6159a7565b602090810291909101015261192e816159bd565b90506118c3565b509392505050565b611945613a5d565b6040517fa9059cbb0000000000000000000000000000000000000000000000000000000081526001600160a01b0383811660048301526024820183905284169063a9059cbb906044016020604051808303816000875af11580156119ad573d6000803e3d6000fd5b505050506040513d601f19601f820116820180604052508101906119d19190615a21565b50505050565b60006108c9826142b1565b60408051602080820186905281830185905282518083038401815260609092019092528051910120600090611a1681613d3c565b611a3357604051635374b59960e01b815260040160405180910390fd5b6000611a3f86336109e3565b905080158015611a565750611a548233611775565b155b15611a7d5760405163168ab55d60e31b81526004810183905233602482015260440161088a565b60008080611a8a856108cf565b92509250925083158015611aa15750620400008216155b15611ac25760405163a2a7201360e01b81526004810186905260240161088a565b6000611acd8a6108cf565b92505050611adc8883836141bd565b9750611aea8685858b6142c7565b60405167ffffffffffffffff8916815286907ff675815a0817338f93a7da433f6bd5f5542f1029b11b455191ac96c7f6a9b1329060200160405180910390a2509598975050505050505050565b611b3f613a5d565b611b49600061430f565b565b604080517f587d09fe5fa45354680537d38145a28b772971e0f293af3ee0c536fc919710fb60208083019190915281830186905282518083038401815260609092019092528051910120611b9f8133611775565b611bc55760405163168ab55d60e31b81526004810182905233602482015260440161088a565b306001600160a01b03841603611bf957604051632ca49b0d60e11b81526001600160a01b038416600482015260240161088a565b604080517f587d09fe5fa45354680537d38145a28b772971e0f293af3ee0c536fc919710fb60208083019190915281830187905282518083038401815260609092019092528051910120611c4e905b8361435f565b6040517f42842e0e0000000000000000000000000000000000000000000000000000000081523060048201526001600160a01b038481166024830152604482018690527f000000000000000000000000000000000000000000000000000000000000000016906342842e0e90606401600060405180830381600087803b158015611cd757600080fd5b505af1158015611ceb573d6000803e3d6000fd5b5050505050505050565b6000808686604051611d08929190615a3e565b6040519081900381206331a9108f60e11b82526004820181905291506000907f00000000000000000000000000000000000000000000000000000000000000006001600160a01b031690636352211e90602401602060405180830381865afa158015611d78573d6000803e3d6000fd5b505050506040513d601f19601f82011682018060405250810190611d9c9190615a04565b90506001600160a01b0381163314801590611e44575060405163e985e9c560e01b81526001600160a01b0382811660048301523360248301527f0000000000000000000000000000000000000000000000000000000000000000169063e985e9c590604401602060405180830381865afa158015611e1e573d6000803e3d6000fd5b505050506040513d601f19601f82011682018060405250810190611e429190615a21565b155b15611eb457604080517f587d09fe5fa45354680537d38145a28b772971e0f293af3ee0c536fc919710fb6020808301919091528183018590528251808303840181526060830193849052805191012063168ab55d60e31b909252606481019190915233608482015260a40161088a565b6040517f23b872dd0000000000000000000000000000000000000000000000000000000081526001600160a01b038281166004830152306024830152604482018490527f000000000000000000000000000000000000000000000000000000000000000016906323b872dd90606401600060405180830381600087803b158015611f3d57600080fd5b505af1158015611f51573d6000803e3d6000fd5b5050604051630a3b53db60e21b8152600481018590523060248201527f00000000000000000000000000000000000000000000000000000000000000006001600160a01b031692506328ed4f6c9150604401600060405180830381600087803b158015611fbd57600080fd5b505af1158015611fd1573d6000803e3d6000fd5b5050604051636b727d4360e11b8152600481018590526276a70092507f00000000000000000000000000000000000000000000000000000000000000006001600160a01b0316915063d6e4fa8690602401602060405180830381865afa15801561203f573d6000803e3d6000fd5b505050506040513d601f19601f820116820180604052508101906120639190615916565b61206d9190615945565b92506120b688888080601f0160208091040260200160405190810160405280939291908181526020018383808284376000920191909152508a9250505061ffff881686886138f7565b505095945050505050565b6001600160a01b038216330361213f5760405162461bcd60e51b815260206004820152602960248201527f455243313135353a2073657474696e6720617070726f76616c2073746174757360448201527f20666f722073656c660000000000000000000000000000000000000000000000606482015260840161088a565b3360008181526002602090815260408083206001600160a01b03871680855290835292819020805460ff191686151590811790915590519081529192917f17307eab39ab6107e8899845ad3d59bd9653f200f220920489ca2b5937696c31910160405180910390a35050565b3360009081526004602052604081205460ff1661221b5760405162461bcd60e51b815260206004820152602860248201527f436f6e74726f6c6c61626c653a2043616c6c6572206973206e6f74206120636f604482015267373a3937b63632b960c11b606482015260840161088a565b6000878760405161222d929190615a3e565b6040519081900381207ffca247ac000000000000000000000000000000000000000000000000000000008252600482018190523060248301526044820187905291507f00000000000000000000000000000000000000000000000000000000000000006001600160a01b03169063fca247ac906064016020604051808303816000875af11580156122c2573d6000803e3d6000fd5b505050506040513d601f19601f820116820180604052508101906122e69190615916565b915061233b88888080601f0160208091040260200160405190810160405280939291908181526020018383808284376000920191909152508a9250505061ffff86166123356276a70087615945565b886138f7565b509695505050505050565b600080612352846108cf565b50841663ffffffff908116908516149250505092915050565b612373613a5d565b6007546001600160a01b0316156124935760075460405163a22cb46560e01b81526001600160a01b039182166004820152600060248201527f00000000000000000000000000000000000000000000000000000000000000009091169063a22cb46590604401600060405180830381600087803b1580156123f357600080fd5b505af1158015612407573d6000803e3d6000fd5b505060075460405163a22cb46560e01b81526001600160a01b039182166004820152600060248201527f0000000000000000000000000000000000000000000000000000000000000000909116925063a22cb4659150604401600060405180830381600087803b15801561247a57600080fd5b505af115801561248e573d6000803e3d6000fd5b505050505b600780546001600160a01b0319166001600160a01b038316908117909155156125c05760075460405163a22cb46560e01b81526001600160a01b039182166004820152600160248201527f00000000000000000000000000000000000000000000000000000000000000009091169063a22cb46590604401600060405180830381600087803b15801561252557600080fd5b505af1158015612539573d6000803e3d6000fd5b505060075460405163a22cb46560e01b81526001600160a01b039182166004820152600160248201527f0000000000000000000000000000000000000000000000000000000000000000909116925063a22cb4659150604401600060405180830381600087803b1580156125ac57600080fd5b505af11580156114d7573d6000803e3d6000fd5b50565b3360009081526004602052604081205460ff166126335760405162461bcd60e51b815260206004820152602860248201527f436f6e74726f6c6c61626c653a2043616c6c6572206973206e6f74206120636f604482015267373a3937b63632b960c11b606482015260840161088a565b604080517f587d09fe5fa45354680537d38145a28b772971e0f293af3ee0c536fc919710fb602080830191909152818301869052825180830384018152606090920190925280519101206000906040517fc475abff00000000000000000000000000000000000000000000000000000000815260048101869052602481018590529091506000906001600160a01b037f0000000000000000000000000000000000000000000000000000000000000000169063c475abff906044016020604051808303816000875af115801561270d573d6000803e3d6000fd5b505050506040513d601f19601f820116820180604052508101906127319190615916565b6040516331a9108f60e11b8152600481018790529091507f00000000000000000000000000000000000000000000000000000000000000006001600160a01b031690636352211e90602401602060405180830381865afa9250505080156127b5575060408051601f3d908101601f191682019092526127b291810190615a04565b60015b6127c25791506108c99050565b6001600160a01b0381163014158061286c57506040516302571be360e01b81526004810184905230906001600160a01b037f000000000000000000000000000000000000000000000000000000000000000016906302571be390602401602060405180830381865afa15801561283c573d6000803e3d6000fd5b505050506040513d601f19601f820116820180604052508101906128609190615a04565b6001600160a01b031614155b1561287b575091506108c99050565b50600061288b6276a70083615945565b60008481526001602052604090205490915060a081901c6128ae858383866142c7565b50919695505050505050565b6000866128c78133611775565b6128ed5760405163168ab55d60e31b81526004810182905233602482015260440161088a565b600087876040516128ff929190615a3e565b6040518091039020905061293a8982604080516020808201949094528082019290925280518083038201815260609092019052805191012090565b92506129468984613ab7565b6129508386613bf6565b60006129938a858b8b8080601f016020809104026020016040519081016040528093929190818152602001838380828437600092019190915250613c2992505050565b90506129a18a858888613cf6565b94506129ac84613d3c565b612a74576040517f06ab5923000000000000000000000000000000000000000000000000000000008152600481018b9052602481018390523060448201527f00000000000000000000000000000000000000000000000000000000000000006001600160a01b0316906306ab5923906064016020604051808303816000875af1158015612a3d573d6000803e3d6000fd5b505050506040513d601f19601f82011682018060405250810190612a619190615916565b50612a6f8482898989614451565b612aba565b612aba8a858b8b8080601f0160208091040260200160405190810160405280939291908181526020018383808284376000920191909152508d92508c91508b9050613e2c565b5050509695505050505050565b6000612b0d600086868080601f01602080910402602001604051908101604052809392919081815260200183838082843760009201919091525092939250506144939050565b6007549091506001600160a01b0316612b52576040517f24c1d6d400000000000000000000000000000000000000000000000000000000815260040160405180910390fd5b612b5c8133611775565b612b825760405163168ab55d60e31b81526004810182905233602482015260440161088a565b60008080612b8f846108cf565b919450925090506000612ba185610958565b9050612bac85614552565b600760009054906101000a90046001600160a01b03166001600160a01b0316639198c2768a8a878787878e8e6040518963ffffffff1660e01b8152600401612bfb989796959493929190615a77565b600060405180830381600087803b158015612c1557600080fd5b505af1158015612c29573d6000803e3d6000fd5b50505050505050505050505050565b83612c438133611775565b612c695760405163168ab55d60e31b81526004810182905233602482015260440161088a565b84601c6000612c77836108cf565b5091505063ffffffff8282161615612ca55760405163a2a7201360e01b81526004810184905260240161088a565b6040517fcf408823000000000000000000000000000000000000000000000000000000008152600481018990523060248201526001600160a01b03878116604483015267ffffffffffffffff871660648301527f0000000000000000000000000000000000000000000000000000000000000000169063cf40882390608401600060405180830381600087803b158015612d3e57600080fd5b505af1158015612d52573d6000803e3d6000fd5b5050506001600160a01b0388169050612db9576000612d70896108cf565b509150506201ffff1962020000821601612da857604051632ca49b0d60e11b81526001600160a01b038916600482015260240161088a565b612db389600061435f565b50611ceb565b6000612dc4896119d7565b9050612de681898b60001c600160405180602001604052806000815250614614565b505050505050505050565b60408051602080820186905281830185905282518083038401815260609092019092528051910120612e238133611775565b612e495760405163168ab55d60e31b81526004810182905233602482015260440161088a565b7fa782f601a05bacab97fac82c7eba5d7488d68e1f0d6c50c11f3ac9036e68ef058401612e895760405163615a470360e01b815260040160405180910390fd5b6001600160a01b0382161580612ea757506001600160a01b03821630145b15612ed057604051632ca49b0d60e11b81526001600160a01b038316600482015260240161088a565b604080516020808201879052818301869052825180830384018152606090920190925280519101206119d190611c48565b604080516020808201859052818301849052825180830384018152606090920190925280519101206000906000612f3782613d3c565b90507f587d09fe5fa45354680537d38145a28b772971e0f293af3ee0c536fc919710fb8514612f695791506108c99050565b6040516331a9108f60e11b8152600481018590527f00000000000000000000000000000000000000000000000000000000000000006001600160a01b031690636352211e90602401602060405180830381865afa925050508015612fea575060408051601f3d908101601f19168201909252612fe791810190615a04565b60015b612ff9576000925050506108c9565b6001600160a01b0316301492506108c9915050565b613016613a5d565b6001600160a01b038216600081815260046020908152604091829020805460ff191685151590811790915591519182527f4c97694570a07277810af7e5669ffd5f6a2d6b74b6e9a274b8b870fd5114cf8791015b60405180910390a25050565b6000806130bd600087878080601f01602080910402602001604051908101604052809392919081815260200183838082843760009201919091525092939250506147669050565b9150915060006131068288888080601f01602080910402602001604051908101604052809392919081815260200183838082843760009201919091525092939250506144939050565b604080516020808201849052818301879052825180830384018152606090920190925280519101209091506000906000818152600660205260409020909150613150888a83615b26565b507fa782f601a05bacab97fac82c7eba5d7488d68e1f0d6c50c11f3ac9036e68ef0582016131915760405163615a470360e01b815260040160405180910390fd5b6040516302571be360e01b8152600481018290526000907f00000000000000000000000000000000000000000000000000000000000000006001600160a01b0316906302571be390602401602060405180830381865afa1580156131f9573d6000803e3d6000fd5b505050506040513d601f19601f8201168201806040525081019061321d9190615a04565b90506001600160a01b03811633148015906132c5575060405163e985e9c560e01b81526001600160a01b0382811660048301523360248301527f0000000000000000000000000000000000000000000000000000000000000000169063e985e9c590604401602060405180830381865afa15801561329f573d6000803e3d6000fd5b505050506040513d601f19601f820116820180604052508101906132c39190615a21565b155b156132ec5760405163168ab55d60e31b81526004810183905233602482015260440161088a565b6001600160a01b0386161561337e57604051630c4b7b8560e11b8152600481018390526001600160a01b0387811660248301527f00000000000000000000000000000000000000000000000000000000000000001690631896f70a90604401600060405180830381600087803b15801561336557600080fd5b505af1158015613379573d6000803e3d6000fd5b505050505b604051635b0fc9c360e01b8152600481018390523060248201527f00000000000000000000000000000000000000000000000000000000000000006001600160a01b031690635b0fc9c390604401600060405180830381600087803b1580156133e657600080fd5b505af11580156133fa573d6000803e3d6000fd5b50505050612de6828a8a8080601f01602080910402602001604051908101604052809392919081815260200183838082843760009201829052508d93509150819050614451565b6001600160a01b0384166134a55760405162461bcd60e51b815260206004820152602560248201527f455243313135353a207472616e7366657220746f20746865207a65726f206164604482015264647265737360d81b606482015260840161088a565b6001600160a01b0385163314806134df57506001600160a01b038516600090815260026020908152604080832033845290915290205460ff165b6135515760405162461bcd60e51b815260206004820152602960248201527f455243313135353a2063616c6c6572206973206e6f74206f776e6572206e6f7260448201527f20617070726f7665640000000000000000000000000000000000000000000000606482015260840161088a565b6114d78585858585614614565b613566613a5d565b6001600160a01b0381166135e25760405162461bcd60e51b815260206004820152602660248201527f4f776e61626c653a206e6577206f776e657220697320746865207a65726f206160448201527f6464726573730000000000000000000000000000000000000000000000000000606482015260840161088a565b6125c08161430f565b600081815260066020526040812080548291906136079061596d565b80601f01602080910402602001604051908101604052809291908181526020018280546136339061596d565b80156136805780601f1061365557610100808354040283529160200191613680565b820191906000526020600020905b81548152906001019060200180831161366357829003601f168201915b5050505050905080516000036136995750600092915050565b6000806136a68382614766565b909250905060006136b78483614493565b9050610a738184612f01565b600080428367ffffffffffffffff1610156136f15761ffff19620100008516016136ec57600094505b600093505b50929391925050565b60006001600160e01b031982167fd9b67a2600000000000000000000000000000000000000000000000000000000148061374457506001600160e01b031982166303a24d0760e21b145b806108c957507f01ffc9a7000000000000000000000000000000000000000000000000000000006001600160e01b03198316146108c9565b6000613787826119d7565b9050806001600160a01b0316836001600160a01b0316036138105760405162461bcd60e51b815260206004820152602160248201527f4552433732313a20617070726f76616c20746f2063757272656e74206f776e6560448201527f7200000000000000000000000000000000000000000000000000000000000000606482015260840161088a565b336001600160a01b038216148061384a57506001600160a01b038116600090815260026020908152604080832033845290915290205460ff165b6138bc5760405162461bcd60e51b815260206004820152603d60248201527f4552433732313a20617070726f76652063616c6c6572206973206e6f7420746f60448201527f6b656e206f776e6572206f7220617070726f76656420666f7220616c6c000000606482015260840161088a565b6109de838361481d565b6000620200008381161480156109965750426138e56276a70084615be6565b67ffffffffffffffff16109392505050565b8451602086012060006139517f587d09fe5fa45354680537d38145a28b772971e0f293af3ee0c536fc919710fb83604080516020808201949094528082019290925280518083038201815260609092019052805191012090565b90506000613994886040518060400160405280600681526020017f037765623300000000000000000000000000000000000000000000000000000081525061488b565b60008381526006602052604090209091506139af8282615c07565b506139c2828289620300008a1789614451565b6001600160a01b03841615611ceb57604051630c4b7b8560e11b8152600481018390526001600160a01b0385811660248301527f00000000000000000000000000000000000000000000000000000000000000001690631896f70a90604401600060405180830381600087803b158015613a3b57600080fd5b505af1158015613a4f573d6000803e3d6000fd5b505050505050505050505050565b6000546001600160a01b03163314611b495760405162461bcd60e51b815260206004820181905260248201527f4f776e61626c653a2063616c6c6572206973206e6f7420746865206f776e6572604482015260640161088a565b60008080613ac4846108cf565b919450925090504267ffffffffffffffff821610808015613b8857506001600160a01b0384161580613b8857506040516302571be360e01b8152600481018690526000906001600160a01b037f000000000000000000000000000000000000000000000000000000000000000016906302571be390602401602060405180830381865afa158015613b59573d6000803e3d6000fd5b505050506040513d601f19601f82011682018060405250810190613b7d9190615a04565b6001600160a01b0316145b15613bc7576000613b98876108cf565b509150506020811615613bc15760405163a2a7201360e01b81526004810187905260240161088a565b50613bee565b62010000831615613bee5760405163a2a7201360e01b81526004810186905260240161088a565b505050505050565b63fffdffff81811763ffffffff1614613c255760405163a2a7201360e01b81526004810183905260240161088a565b5050565b60606000613cd283600660008881526020019081526020016000208054613c4f9061596d565b80601f0160208091040260200160405190810160405280929190818152602001828054613c7b9061596d565b8015613cc85780601f10613c9d57610100808354040283529160200191613cc8565b820191906000526020600020905b815481529060010190602001808311613cab57829003601f168201915b505050505061488b565b6000858152600660205260409020909150613ced8282615c07565b50949350505050565b600080613d02856108cf565b92505050600080613d158860001c6108cf565b9250925050613d25878784614182565b613d308584836141bd565b98975050505050505050565b600080613d48836119d7565b6001600160a01b0316141580156108c957506040516302571be360e01b81526004810183905230906001600160a01b037f000000000000000000000000000000000000000000000000000000000000000016906302571be390602401602060405180830381865afa158015613dc1573d6000803e3d6000fd5b505050506040513d601f19601f82011682018060405250810190613de59190615a04565b6001600160a01b03161492915050565b60008681526006602052604081208054613e14918791613c4f9061596d565b9050613e238682868686614451565b50505050505050565b60008080613e39886108cf565b9250925092506000613e6388600660008d81526020019081526020016000208054613c4f9061596d565b60008a8152600660205260409020805491925090613e809061596d565b9050600003613ea3576000898152600660205260409020613ea18282615c07565b505b613eb289858886178589614207565b6001600160a01b038716613ed057613ecb89600061435f565b610bfc565b610bfc84888b60001c600160405180602001604052806000815250614614565b6201ffff1962020000831601613f1057613f0d6276a70082615be6565b90505b428167ffffffffffffffff161015613f8d5762010000821615613f885760405162461bcd60e51b815260206004820152602a60248201527f455243313135353a20696e73756666696369656e742062616c616e636520666f60448201526939103a3930b739b332b960b11b606482015260840161088a565b613fb2565b6004821615613fb25760405163a2a7201360e01b81526004810184905260240161088a565b604082166000036109de575050600090815260036020526040902080546001600160a01b0319169055565b6001600160a01b0384163b15613bee5760405163bc197c8160e01b81526001600160a01b0385169063bc197c81906140219089908990889088908890600401615cc7565b6020604051808303816000875af192505050801561405c575060408051601f3d908101601f1916820190925261405991810190615d19565b60015b61411157614068615d36565b806308c379a0036140a1575061407c615d52565b8061408757506140a3565b8060405162461bcd60e51b815260040161088a9190614e1b565b505b60405162461bcd60e51b815260206004820152603460248201527f455243313135353a207472616e7366657220746f206e6f6e204552433131353560448201527f526563656976657220696d706c656d656e746572000000000000000000000000606482015260840161088a565b6001600160e01b0319811663bc197c8160e01b14613e235760405162461bcd60e51b815260206004820152602860248201527f455243313135353a204552433131353552656365697665722072656a656374656044820152676420746f6b656e7360c01b606482015260840161088a565b63ffff0000821615801590600183161590829061419c5750805b156114d75760405163a2a7201360e01b81526004810186905260240161088a565b60008167ffffffffffffffff168467ffffffffffffffff1611156141df578193505b8267ffffffffffffffff168467ffffffffffffffff1610156141ff578293505b509192915050565b614213858585846142c7565b60405163ffffffff8416815285907f39873f00c80f4f94b7bd1594aebcf650f003545b74824d57ddf4939e3ff3a34b9060200160405180910390a28167ffffffffffffffff168167ffffffffffffffff1611156114d75760405167ffffffffffffffff8216815285907ff675815a0817338f93a7da433f6bd5f5542f1029b11b455191ac96c7f6a9b132906020015b60405180910390a25050505050565b6000806142bd836108cf565b5090949350505050565b6142d18483614934565b60008481526001602052604090206001600160a01b03841663ffffffff60a01b60a085901b16176001600160c01b031960c084901b161790556119d1565b600080546001600160a01b038381166001600160a01b0319831681178455604051919092169283917f8be0079c531659141344cd1fd0a4f28419497f9722a3daafe3b4186f6b6457e09190a35050565b61436a826001612346565b1561438b5760405163a2a7201360e01b81526004810183905260240161088a565b61439482614552565b604051635b0fc9c360e01b8152600481018390526001600160a01b0382811660248301527f00000000000000000000000000000000000000000000000000000000000000001690635b0fc9c390604401600060405180830381600087803b1580156143fe57600080fd5b505af1158015614412573d6000803e3d6000fd5b50506040516001600160a01b03841681528492507fee2ba1195c65bcf218a83d874335c6bf9d9067b4c672f3c3bf16cf40de7586c4915060200161306a565b61445d8584848461496d565b847f8ce7013e8abebc55c3890a68f5a27c67c3f7efa64e584de5fb22363c606fd340858585856040516142a29493929190615ddc565b60008060006144a28585614766565b90925090508161451457600185516144ba9190615e24565b84146145085760405162461bcd60e51b815260206004820152601d60248201527f6e616d65686173683a204a756e6b20617420656e64206f66206e616d65000000604482015260640161088a565b50600091506108c99050565b61451e8582614493565b6040805160208101929092528101839052606001604051602081830303815290604052805190602001209250505092915050565b60008181526001602052604090205460a081901c60c082901c6145768383836136c3565b600086815260036020908152604080832080546001600160a01b03191690556001909152902063ffffffff60a01b60a083901b166001600160c01b031960c086901b1617905592506145c59050565b60408051858152600160208201526000916001600160a01b0386169133917fc3d58168c5ae7397731d063d5bbf3d657854427343f4c083240f7aacaa2d0f62910160405180910390a450505050565b6000806000614622866108cf565b925092509250614633868383613ef0565b8460011480156146545750876001600160a01b0316836001600160a01b0316145b6146b35760405162461bcd60e51b815260206004820152602a60248201527f455243313135353a20696e73756666696369656e742062616c616e636520666f60448201526939103a3930b739b332b960b11b606482015260840161088a565b866001600160a01b0316836001600160a01b0316036146d4575050506114d7565b60008681526001602052604090206001600160a01b03881663ffffffff60a01b60a085901b16176001600160c01b031960c084901b1617905560408051878152602081018790526001600160a01b03808a1692908b169133917fc3d58168c5ae7397731d063d5bbf3d657854427343f4c083240f7aacaa2d0f62910160405180910390a4611ceb3389898989896149e1565b600080835183106147b95760405162461bcd60e51b815260206004820152601e60248201527f726561644c6162656c3a20496e646578206f7574206f6620626f756e64730000604482015260640161088a565b60008484815181106147cd576147cd6159a7565b016020015160f81c905080156147f9576147f2856147ec866001615e37565b83614add565b92506147fe565b600092505b6148088185615e37565b614813906001615e37565b9150509250929050565b600081815260036020526040902080546001600160a01b0319166001600160a01b0384169081179091558190614852826119d7565b6001600160a01b03167f8c5be1e5ebec7d5bd14f71427d1e84f3dd0314c0f7b2291e5b200ac8c7c3b92560405160405180910390a45050565b60606001835110156148c9576040517f280dacb600000000000000000000000000000000000000000000000000000000815260040160405180910390fd5b60ff8351111561490757826040517fe3ba295f00000000000000000000000000000000000000000000000000000000815260040161088a9190614e1b565b8251838360405160200161491d93929190615e4a565b604051602081830303815290604052905092915050565b61ffff81161580159061494c57506201000181811614155b15613c255760405163a2a7201360e01b81526004810183905260240161088a565b6149778483614934565b6000848152600160205260409020546001600160a01b038116156149d55761499e85614552565b6040516000815285907fee2ba1195c65bcf218a83d874335c6bf9d9067b4c672f3c3bf16cf40de7586c49060200160405180910390a25b6114d785858585614b01565b6001600160a01b0384163b15613bee5760405163f23a6e6160e01b81526001600160a01b0385169063f23a6e6190614a259089908990889088908890600401615eab565b6020604051808303816000875af1925050508015614a60575060408051601f3d908101601f19168201909252614a5d91810190615d19565b60015b614a6c57614068615d36565b6001600160e01b0319811663f23a6e6160e01b14613e235760405162461bcd60e51b815260206004820152602860248201527f455243313135353a204552433131353552656365697665722072656a656374656044820152676420746f6b656e7360c01b606482015260840161088a565b8251600090614aec8385615e37565b1115614af757600080fd5b5091016020012090565b8360008080614b0f846108cf565b9194509250905063ffff0000821667ffffffffffffffff8087169083161115614b36578195505b428267ffffffffffffffff1610614b4c57958617955b6001600160a01b03841615614ba35760405162461bcd60e51b815260206004820152601f60248201527f455243313135353a206d696e74206f66206578697374696e6720746f6b656e00604482015260640161088a565b6001600160a01b038816614c1f5760405162461bcd60e51b815260206004820152602160248201527f455243313135353a206d696e7420746f20746865207a65726f2061646472657360448201527f7300000000000000000000000000000000000000000000000000000000000000606482015260840161088a565b306001600160a01b03891603614c9d5760405162461bcd60e51b815260206004820152603460248201527f455243313135353a206e65774f776e65722063616e6e6f74206265207468652060448201527f4e616d655772617070657220636f6e7472616374000000000000000000000000606482015260840161088a565b60008581526001602052604090206001600160a01b03891663ffffffff60a01b60a08a901b16176001600160c01b031960c089901b1617905560408051868152600160208201526001600160a01b038a169160009133917fc3d58168c5ae7397731d063d5bbf3d657854427343f4c083240f7aacaa2d0f62910160405180910390a4612de63360008a886001604051806020016040528060008152506149e1565b6001600160a01b03811681146125c057600080fd5b60008060408385031215614d6657600080fd5b8235614d7181614d3e565b946020939093013593505050565b600060208284031215614d9157600080fd5b5035919050565b6001600160e01b0319811681146125c057600080fd5b600060208284031215614dc057600080fd5b813561099681614d98565b60005b83811015614de6578181015183820152602001614dce565b50506000910152565b60008151808452614e07816020860160208601614dcb565b601f01601f19169290920160200192915050565b6020815260006109966020830184614def565b60008060408385031215614e4157600080fd5b823591506020830135614e5381614d3e565b809150509250929050565b803567ffffffffffffffff81168114614e7657600080fd5b919050565b60008060408385031215614e8e57600080fd5b82359150614e9e60208401614e5e565b90509250929050565b60008083601f840112614eb957600080fd5b50813567ffffffffffffffff811115614ed157600080fd5b602083019150836020828501011115614ee957600080fd5b9250929050565b600080600080600060808688031215614f0857600080fd5b8535614f1381614d3e565b94506020860135614f2381614d3e565b935060408601359250606086013567ffffffffffffffff811115614f4657600080fd5b614f5288828901614ea7565b969995985093965092949392505050565b600060208284031215614f7557600080fd5b813561099681614d3e565b634e487b7160e01b600052604160045260246000fd5b601f8201601f1916810167ffffffffffffffff81118282101715614fbc57614fbc614f80565b6040525050565b600067ffffffffffffffff821115614fdd57614fdd614f80565b50601f01601f191660200190565b600082601f830112614ffc57600080fd5b813561500781614fc3565b6040516150148282614f96565b82815285602084870101111561502957600080fd5b82602086016020830137600092810160200192909252509392505050565b803563ffffffff81168114614e7657600080fd5b600080600080600080600060e0888a03121561507657600080fd5b87359650602088013567ffffffffffffffff81111561509457600080fd5b6150a08a828b01614feb565b96505060408801356150b181614d3e565b945060608801356150c181614d3e565b93506150cf60808901614e5e565b92506150dd60a08901615047565b91506150eb60c08901614e5e565b905092959891949750929550565b600067ffffffffffffffff82111561511357615113614f80565b5060051b60200190565b600082601f83011261512e57600080fd5b8135602061513b826150f9565b6040516151488282614f96565b83815260059390931b850182019282810191508684111561516857600080fd5b8286015b8481101561233b578035835291830191830161516c565b600080600080600060a0868803121561519b57600080fd5b85356151a681614d3e565b945060208601356151b681614d3e565b9350604086013567ffffffffffffffff808211156151d357600080fd5b6151df89838a0161511d565b945060608801359150808211156151f557600080fd5b61520189838a0161511d565b9350608088013591508082111561521757600080fd5b5061522488828901614feb565b9150509295509295909350565b6000806000806080858703121561524757600080fd5b843593506020850135925061525e60408601615047565b915061526c60608601614e5e565b905092959194509250565b803561ffff81168114614e7657600080fd5b6000806040838503121561529c57600080fd5b82359150614e9e60208401615277565b600080604083850312156152bf57600080fd5b823567ffffffffffffffff808211156152d757600080fd5b818501915085601f8301126152eb57600080fd5b813560206152f8826150f9565b6040516153058282614f96565b83815260059390931b850182019282810191508984111561532557600080fd5b948201945b8386101561534c57853561533d81614d3e565b8252948201949082019061532a565b9650508601359250508082111561536257600080fd5b506148138582860161511d565b600081518084526020808501945080840160005b8381101561539f57815187529582019590820190600101615383565b509495945050505050565b602081526000610996602083018461536f565b6000806000606084860312156153d257600080fd5b83356153dd81614d3e565b925060208401356153ed81614d3e565b929592945050506040919091013590565b60008060006060848603121561541357600080fd5b833592506020840135915061542a60408501614e5e565b90509250925092565b60008060006060848603121561544857600080fd5b83359250602084013561545a81614d3e565b9150604084013561546a81614d3e565b809150509250925092565b60008060008060006080868803121561548d57600080fd5b853567ffffffffffffffff8111156154a457600080fd5b6154b088828901614ea7565b90965094505060208601356154c481614d3e565b92506154d260408701615277565b915060608601356154e281614d3e565b809150509295509295909350565b80151581146125c057600080fd5b6000806040838503121561551157600080fd5b823561551c81614d3e565b91506020830135614e53816154f0565b60008060008060008060a0878903121561554557600080fd5b863567ffffffffffffffff81111561555c57600080fd5b61556889828a01614ea7565b909750955050602087013561557c81614d3e565b935060408701359250606087013561559381614d3e565b91506155a160808801615277565b90509295509295509295565b600080604083850312156155c057600080fd5b82359150614e9e60208401615047565b600080604083850312156155e357600080fd5b50508035926020909101359150565b60008060008060008060a0878903121561560b57600080fd5b86359550602087013567ffffffffffffffff81111561562957600080fd5b61563589828a01614ea7565b909650945050604087013561564981614d3e565b925061565760608801615047565b91506155a160808801614e5e565b6000806000806040858703121561567b57600080fd5b843567ffffffffffffffff8082111561569357600080fd5b61569f88838901614ea7565b909650945060208701359150808211156156b857600080fd5b506156c587828801614ea7565b95989497509550505050565b600080600080608085870312156156e757600080fd5b8435935060208501356156f981614d3e565b9250604085013561525e81614d3e565b60008060006060848603121561571e57600080fd5b8335925060208401359150604084013561546a81614d3e565b6000806040838503121561574a57600080fd5b823561575581614d3e565b91506020830135614e5381614d3e565b6000806000806060858703121561577b57600080fd5b843567ffffffffffffffff81111561579257600080fd5b61579e87828801614ea7565b90955093505060208501356157b281614d3e565b915060408501356157c281614d3e565b939692955090935050565b600080600080600060a086880312156157e557600080fd5b85356157f081614d3e565b9450602086013561580081614d3e565b93506040860135925060608601359150608086013567ffffffffffffffff81111561582a57600080fd5b61522488828901614feb565b60006020828403121561584857600080fd5b815167ffffffffffffffff81111561585f57600080fd5b8201601f8101841361587057600080fd5b805161587b81614fc3565b6040516158888282614f96565b82815286602084860101111561589d57600080fd5b610a73836020830160208701614dcb565b600080600080608085870312156158c457600080fd5b843567ffffffffffffffff8111156158db57600080fd5b6158e787828801614feb565b94505060208501356158f881614d3e565b925061590660408601615277565b915060608501356157c281614d3e565b60006020828403121561592857600080fd5b5051919050565b634e487b7160e01b600052601160045260246000fd5b67ffffffffffffffff8181168382160190808211156159665761596661592f565b5092915050565b600181811c9082168061598157607f821691505b6020821081036159a157634e487b7160e01b600052602260045260246000fd5b50919050565b634e487b7160e01b600052603260045260246000fd5b6000600182016159cf576159cf61592f565b5060010190565b6040815260006159e9604083018561536f565b82810360208401526159fb818561536f565b95945050505050565b600060208284031215615a1657600080fd5b815161099681614d3e565b600060208284031215615a3357600080fd5b8151610996816154f0565b8183823760009101908152919050565b81835281816020850137506000828201602090810191909152601f909101601f19169091010190565b60c081526000615a8b60c083018a8c615a4e565b6001600160a01b03898116602085015263ffffffff8916604085015267ffffffffffffffff881660608501528616608084015282810360a0840152615ad1818587615a4e565b9b9a5050505050505050505050565b601f8211156109de57600081815260208120601f850160051c81016020861015615b075750805b601f850160051c820191505b81811015613bee57828155600101615b13565b67ffffffffffffffff831115615b3e57615b3e614f80565b615b5283615b4c835461596d565b83615ae0565b6000601f841160018114615b865760008515615b6e5750838201355b600019600387901b1c1916600186901b1783556114d7565b600083815260209020601f19861690835b82811015615bb75786850135825560209485019460019092019101615b97565b5086821015615bd45760001960f88860031b161c19848701351681555b505060018560011b0183555050505050565b67ffffffffffffffff8281168282160390808211156159665761596661592f565b815167ffffffffffffffff811115615c2157615c21614f80565b615c3581615c2f845461596d565b84615ae0565b602080601f831160018114615c6a5760008415615c525750858301515b600019600386901b1c1916600185901b178555613bee565b600085815260208120601f198616915b82811015615c9957888601518255948401946001909101908401615c7a565b5085821015615cb75787850151600019600388901b60f8161c191681555b5050505050600190811b01905550565b60006001600160a01b03808816835280871660208401525060a06040830152615cf360a083018661536f565b8281036060840152615d05818661536f565b90508281036080840152613d308185614def565b600060208284031215615d2b57600080fd5b815161099681614d98565b600060033d1115615d4f5760046000803e5060005160e01c5b90565b600060443d1015615d605790565b6040516003193d81016004833e81513d67ffffffffffffffff8160248401118184111715615d9057505050505090565b8285019150815181811115615da85750505050505090565b843d8701016020828501011115615dc25750505050505090565b615dd160208286010187614f96565b509095945050505050565b608081526000615def6080830187614def565b6001600160a01b039590951660208301525063ffffffff92909216604083015267ffffffffffffffff16606090910152919050565b818103818111156108c9576108c961592f565b808201808211156108c9576108c961592f565b7fff000000000000000000000000000000000000000000000000000000000000008460f81b16815260008351615e87816001850160208801614dcb565b835190830190615e9e816001840160208801614dcb565b0160010195945050505050565b60006001600160a01b03808816835280871660208401525084604083015283606083015260a06080830152615ee360a0830184614def565b97965050505050505056fea2646970667358221220e19a0186abd08fea33341288ad1c8b01cebfe66fc1aea394320d36bc73732f7b64736f6c63430008110033",
  "linkReferences": {},
  "deployedLinkReferences": {}
}