{
  "_format": "hh-sol-artifact-1",
  "contractName": "ENSRegistry",
  "sourceName": "contracts/registry/ENSRegistry.sol",
  "abi": [
    {
      "inputs": [],
      "stateMutability": "nonpayable",
      "type": "constructor"
    },
    {
      "anonymous": false,
      "inputs": [
        {
          "indexed": false,
          "internalType": "address",
          "name": "previousAdmin",
          "type": "address"
        },
        {
          "indexed": false,
          "internalType": "address",
          "name": "newAdmin",
          "type": "address"
        }
      ],
      "name": "AdminChanged",
      "type": "event"
    },
    {
      "anonymous": false,
      "inputs": [
        {
          "indexed": true,
          "internalType": "address",
          "name": "owner",
          "type": "address"
        },
        {
          "indexed": true,
          "internalType": "address",
          "name": "operator",
          "type": "address"
        },
        {
          "indexed": false,
          "internalType": "bool",
          "name": "approved",
          "type": "bool"
        }
      ],
      "name": "ApprovalForAll",
      "type": "event"
    },
    {
      "anonymous": false,
      "inputs": [
        {
          "indexed": true,
          "internalType": "address",
          "name": "beacon",
          "type": "address"
        }
      ],
      "name": "BeaconUpgraded",
      "type": "event"
    },
    {
      "anonymous": false,
      "inputs": [
        {
          "indexed": false,
          "internalType": "uint8",
          "name": "version",
          "type": "uint8"
        }
      ],
      "name": "Initialized",
      "type": "event"
    },
    {
      "anonymous": false,
      "inputs": [
        {
          "indexed": true,
          "internalType": "bytes32",
          "name": "node",
          "type": "bytes32"
        },
        {
          "indexed": true,
          "internalType": "bytes32",
          "name": "label",
          "type": "bytes32"
        },
        {
          "indexed": false,
          "internalType": "address",
          "name": "owner",
          "type": "address"
        }
      ],
      "name": "NewOwner",
      "type": "event"
    },
    {
      "anonymous": false,
      "inputs": [
        {
          "indexed": true,
          "internalType": "bytes32",
          "name": "node",
          "type": "bytes32"
        },
        {
          "indexed": false,
          "internalType": "address",
          "name": "resolver",
          "type": "address"
        }
      ],
      "name": "NewResolver",
      "type": "event"
    },
    {
      "anonymous": false,
      "inputs": [
        {
          "indexed": true,
          "internalType": "bytes32",
          "name": "node",
          "type": "bytes32"
        },
        {
          "indexed": false,
          "internalType": "uint64",
          "name": "ttl",
          "type": "uint64"
        }
      ],
      "name": "NewTTL",
      "type": "event"
    },
    {
      "anonymous": false,
      "inputs": [
        {
          "indexed": true,
          "internalType": "address",
          "name": "previousOwner",
          "type": "address"
        },
        {
          "indexed": true,
          "internalType": "address",
          "name": "newOwner",
          "type": "address"
        }
      ],
      "name": "OwnershipTransferred",
      "type": "event"
    },
    {
      "anonymous": false,
      "inputs": [
        {
          "indexed": true,
          "internalType": "bytes32",
          "name": "node",
          "type": "bytes32"
        },
        {
          "indexed": false,
          "internalType": "address",
          "name": "owner",
          "type": "address"
        }
      ],
      "name": "Transfer",
      "type": "event"
    },
    {
      "anonymous": false,
      "inputs": [
        {
          "indexed": true,
          "internalType": "address",
          "name": "implementation",
          "type": "address"
        }
      ],
      "name": "Upgraded",
      "type": "event"
    },
    {
      "inputs": [],
      "name": "admin",
      "outputs": [
        {
          "internalType": "address",
          "name": "",
          "type": "address"
        }
      ],
      "stateMutability": "view",
      "type": "function"
    },
    {
      "inputs": [],
      "name": "initialize",
      "outputs": [],
      "stateMutability": "nonpayable",
      "type": "function"
    },
    {
      "inputs": [
        {
          "internalType": "address",
          "name": "owner",
          "type": "address"
        },
        {
          "internalType": "address",
          "name": "operator",
          "type": "address"
        }
      ],
      "name": "isApprovedForAll",
      "outputs": [
        {
          "internalType": "bool",
          "name": "",
          "type": "bool"
        }
      ],
      "stateMutability": "view",
      "type": "function"
    },
    {
      "inputs": [
        {
          "internalType": "bytes32",
          "name": "node",
          "type": "bytes32"
        }
      ],
      "name": "owner",
      "outputs": [
        {
          "internalType": "address",
          "name": "",
          "type": "address"
        }
      ],
      "stateMutability": "view",
      "type": "function"
    },
    {
      "inputs": [],
      "name": "proxiableUUID",
      "outputs": [
        {
          "internalType": "bytes32",
          "name": "",
          "type": "bytes32"
        }
      ],
      "stateMutability": "view",
      "type": "function"
    },
    {
      "inputs": [
        {
          "internalType": "bytes32",
          "name": "node",
          "type": "bytes32"
        }
      ],
      "name": "recordExists",
      "outputs": [
        {
          "internalType": "bool",
          "name": "",
          "type": "bool"
        }
      ],
      "stateMutability": "view",
      "type": "function"
    },
    {
      "inputs": [
        {
          "internalType": "bytes32",
          "name": "node",
          "type": "bytes32"
        }
      ],
      "name": "resolver",
      "outputs": [
        {
          "internalType": "address",
          "name": "",
          "type": "address"
        }
      ],
      "stateMutability": "view",
      "type": "function"
    },
    {
      "inputs": [
        {
          "internalType": "address",
          "name": "operator",
          "type": "address"
        },
        {
          "internalType": "bool",
          "name": "approved",
          "type": "bool"
        }
      ],
      "name": "setApprovalForAll",
      "outputs": [],
      "stateMutability": "nonpayable",
      "type": "function"
    },
    {
      "inputs": [
        {
          "internalType": "bytes32",
          "name": "node",
          "type": "bytes32"
        },
        {
          "internalType": "address",
          "name": "owner",
          "type": "address"
        }
      ],
      "name": "setOwner",
      "outputs": [],
      "stateMutability": "nonpayable",
      "type": "function"
    },
    {
      "inputs": [
        {
          "internalType": "bytes32",
          "name": "node",
          "type": "bytes32"
        },
        {
          "internalType": "address",
          "name": "owner",
          "type": "address"
        },
        {
          "internalType": "address",
          "name": "resolver",
          "type": "address"
        },
        {
          "internalType": "uint64",
          "name": "ttl",
          "type": "uint64"
        }
      ],
      "name": "setRecord",
      "outputs": [],
      "stateMutability": "nonpayable",
      "type": "function"
    },
    {
      "inputs": [
        {
          "internalType": "bytes32",
          "name": "node",
          "type": "bytes32"
        },
        {
          "internalType": "address",
          "name": "resolver",
          "type": "address"
        }
      ],
      "name": "setResolver",
      "outputs": [],
      "stateMutability": "nonpayable",
      "type": "function"
    },
    {
      "inputs": [
        {
          "internalType": "bytes32",
          "name": "node",
          "type": "bytes32"
        },
        {
          "internalType": "bytes32",
          "name": "label",
          "type": "bytes32"
        },
        {
          "internalType": "address",
          "name": "owner",
          "type": "address"
        }
      ],
      "name": "setSubnodeOwner",
      "outputs": [
        {
          "internalType": "bytes32",
          "name": "",
          "type": "bytes32"
        }
      ],
      "stateMutability": "nonpayable",
      "type": "function"
    },
    {
      "inputs": [
        {
          "internalType": "bytes32",
          "name": "node",
          "type": "bytes32"
        },
        {
          "internalType": "bytes32",
          "name": "label",
          "type": "bytes32"
        },
        {
          "internalType": "address",
          "name": "owner",
          "type": "address"
        },
        {
          "internalType": "address",
          "name": "resolver",
          "type": "address"
        },
        {
          "internalType": "uint64",
          "name": "ttl",
          "type": "uint64"
        }
      ],
      "name": "setSubnodeRecord",
      "outputs": [],
      "stateMutability": "nonpayable",
      "type": "function"
    },
    {
      "inputs": [
        {
          "internalType": "bytes32",
          "name": "node",
          "type": "bytes32"
        },
        {
          "internalType": "uint64",
          "name": "ttl",
          "type": "uint64"
        }
      ],
      "name": "setTTL",
      "outputs": [],
      "stateMutability": "nonpayable",
      "type": "function"
    },
    {
      "inputs": [
        {
          "internalType": "address",
          "name": "newAdmin",
          "type": "address"
        }
      ],
      "name": "transferOwnership",
      "outputs": [],
      "stateMutability": "nonpayable",
      "type": "function"
    },
    {
      "inputs": [
        {
          "internalType": "bytes32",
          "name": "node",
          "type": "bytes32"
        }
      ],
      "name": "ttl",
      "outputs": [
        {
          "internalType": "uint64",
          "name": "",
          "type": "uint64"
        }
      ],
      "stateMutability": "view",
      "type": "function"
    },
    {
      "inputs": [
        {
          "internalType": "address",
          "name": "newImplementation",
          "type": "address"
        }
      ],
      "name": "upgradeTo",
      "outputs": [],
      "stateMutability": "nonpayable",
      "type": "function"
    },
    {
      "inputs": [
        {
          "internalType": "address",
          "name": "newImplementation",
          "type": "address"
        },
        {
          "internalType": "bytes",
          "name": "data",
          "type": "bytes"
        }
      ],
      "name": "upgradeToAndCall",
      "outputs": [],
      "stateMutability": "payable",
      "type": "function"
    }
  ],
  "bytecode": "0x60a06040523060805234801561001457600080fd5b5061001d610022565b6100e1565b600054610100900460ff161561008e5760405162461bcd60e51b815260206004820152602760248201527f496e697469616c697a61626c653a20636f6e747261637420697320696e697469604482015266616c697a696e6760c81b606482015260840160405180910390fd5b60005460ff908116146100df576000805460ff191660ff9081179091556040519081527f7f26b83ff96e1f2b6a682f133852f6798a09c465da95921460cefb38474024989060200160405180910390a15b565b6080516118f9610118600039600081816107950152818161082b01528181610932015281816109c80152610ac301526118f96000f3fe6080604052600436106101295760003560e01c80635b0fc9c3116100a5578063cf40882311610074578063f2fde38b11610059578063f2fde38b146103a4578063f79fe538146103c4578063f851a440146103fc57600080fd5b8063cf4088231461032b578063e985e9c51461034b57600080fd5b80635b0fc9c3146102b65780635ef2c7f0146102d65780638129fc1c146102f6578063a22cb4651461030b57600080fd5b806316a25cbd116100fc5780633659cfe6116100e15780633659cfe61461026e5780634f1ef2861461028e57806352d1902d146102a157600080fd5b806316a25cbd146101f45780631896f70a1461024e57600080fd5b80630178b8bf1461012e57806302571be31461018457806306ab5923146101a457806314ab9038146101d2575b600080fd5b34801561013a57600080fd5b50610167610149366004611529565b6000908152606560205260409020600101546001600160a01b031690565b6040516001600160a01b0390911681526020015b60405180910390f35b34801561019057600080fd5b5061016761019f366004611529565b61041c565b3480156101b057600080fd5b506101c46101bf36600461155e565b61044a565b60405190815260200161017b565b3480156101de57600080fd5b506101f26101ed3660046115ab565b610577565b005b34801561020057600080fd5b5061023561020f366004611529565b600090815260656020526040902060010154600160a01b900467ffffffffffffffff1690565b60405167ffffffffffffffff909116815260200161017b565b34801561025a57600080fd5b506101f26102693660046115d7565b610692565b34801561027a57600080fd5b506101f26102893660046115fa565b61078b565b6101f261029c366004611644565b610928565b3480156102ad57600080fd5b506101c4610ab6565b3480156102c257600080fd5b506101f26102d13660046115d7565b610b7b565b3480156102e257600080fd5b506101f26102f1366004611706565b610c6e565b34801561030257600080fd5b506101f2610c90565b34801561031757600080fd5b506101f261032636600461175d565b610df1565b34801561033757600080fd5b506101f2610346366004611799565b610e5d565b34801561035757600080fd5b506103946103663660046117e6565b6001600160a01b03918216600090815260666020908152604080832093909416825291909152205460ff1690565b604051901515815260200161017b565b3480156103b057600080fd5b506101f26103bf3660046115fa565b610e78565b3480156103d057600080fd5b506103946103df366004611529565b6000908152606560205260409020546001600160a01b0316151590565b34801561040857600080fd5b50606754610167906001600160a01b031681565b6000818152606560205260408120546001600160a01b03163081036104445750600092915050565b92915050565b60008381526065602052604081205484906001600160a01b03163381148061049557506001600160a01b038116600090815260666020908152604080832033845290915290205460ff165b6104d75760405162461bcd60e51b815260206004820152600e60248201526d139bdd08185d5d1a1bdc9a5cd95960921b60448201526064015b60405180910390fd5b604080516020810188905290810186905260009060600160408051601f19818403018152918152815160209283012060008181526065909352912080546001600160a01b0319166001600160a01b03881617905590506040516001600160a01b0386168152869088907fce0457fe73731f824cc272376169235128c118b49d344817417c6d108d155e829060200160405180910390a39695505050505050565b60008281526065602052604090205482906001600160a01b0316338114806105c257506001600160a01b038116600090815260666020908152604080832033845290915290205460ff165b6105ff5760405162461bcd60e51b815260206004820152600e60248201526d139bdd08185d5d1a1bdc9a5cd95960921b60448201526064016104ce565b60405167ffffffffffffffff8416815284907f1d4f9bbfc9cab89d66e1a1562f2233ccbf1308cb4f63de2ead5787adddb8fa689060200160405180910390a25050600091825260656020526040909120600101805467ffffffffffffffff909216600160a01b027fffffffff0000000000000000ffffffffffffffffffffffffffffffffffffffff909216919091179055565b60008281526065602052604090205482906001600160a01b0316338114806106dd57506001600160a01b038116600090815260666020908152604080832033845290915290205460ff165b61071a5760405162461bcd60e51b815260206004820152600e60248201526d139bdd08185d5d1a1bdc9a5cd95960921b60448201526064016104ce565b6040516001600160a01b038416815284907f335721b01866dc23fbee8b6b2c7b1e14d6f05c28cd35a2c934239f94095602a09060200160405180910390a2505060009182526065602052604090912060010180546001600160a01b0319166001600160a01b03909216919091179055565b6001600160a01b037f00000000000000000000000000000000000000000000000000000000000000001630036108295760405162461bcd60e51b815260206004820152602c60248201527f46756e6374696f6e206d7573742062652063616c6c6564207468726f7567682060448201527f64656c656761746563616c6c000000000000000000000000000000000000000060648201526084016104ce565b7f00000000000000000000000000000000000000000000000000000000000000006001600160a01b03166108847f360894a13ba1a3210667c828492db98dca3e2076cc3735a920a3ca505d382bbc546001600160a01b031690565b6001600160a01b0316146109005760405162461bcd60e51b815260206004820152602c60248201527f46756e6374696f6e206d7573742062652063616c6c6564207468726f7567682060448201527f6163746976652070726f7879000000000000000000000000000000000000000060648201526084016104ce565b61090981610f7a565b6040805160008082526020820190925261092591839190610fd4565b50565b6001600160a01b037f00000000000000000000000000000000000000000000000000000000000000001630036109c65760405162461bcd60e51b815260206004820152602c60248201527f46756e6374696f6e206d7573742062652063616c6c6564207468726f7567682060448201527f64656c656761746563616c6c000000000000000000000000000000000000000060648201526084016104ce565b7f00000000000000000000000000000000000000000000000000000000000000006001600160a01b0316610a217f360894a13ba1a3210667c828492db98dca3e2076cc3735a920a3ca505d382bbc546001600160a01b031690565b6001600160a01b031614610a9d5760405162461bcd60e51b815260206004820152602c60248201527f46756e6374696f6e206d7573742062652063616c6c6564207468726f7567682060448201527f6163746976652070726f7879000000000000000000000000000000000000000060648201526084016104ce565b610aa682610f7a565b610ab282826001610fd4565b5050565b6000306001600160a01b037f00000000000000000000000000000000000000000000000000000000000000001614610b565760405162461bcd60e51b815260206004820152603860248201527f555550535570677261646561626c653a206d757374206e6f742062652063616c60448201527f6c6564207468726f7567682064656c656761746563616c6c000000000000000060648201526084016104ce565b507f360894a13ba1a3210667c828492db98dca3e2076cc3735a920a3ca505d382bbc90565b60008281526065602052604090205482906001600160a01b031633811480610bc657506001600160a01b038116600090815260666020908152604080832033845290915290205460ff165b610c035760405162461bcd60e51b815260206004820152600e60248201526d139bdd08185d5d1a1bdc9a5cd95960921b60448201526064016104ce565b600084815260656020526040902080546001600160a01b0319166001600160a01b0385161790556040516001600160a01b038416815284907fd4735d920b0f87494915f556dd9b54c8f309026070caea5c737245152564d2669060200160405180910390a250505050565b6000610c7b86868661044a565b9050610c88818484611179565b505050505050565b600054610100900460ff1615808015610cb05750600054600160ff909116105b80610cca5750303b158015610cca575060005460ff166001145b610d3c5760405162461bcd60e51b815260206004820152602e60248201527f496e697469616c697a61626c653a20636f6e747261637420697320616c72656160448201527f647920696e697469616c697a656400000000000000000000000000000000000060648201526084016104ce565b6000805460ff191660011790558015610d5f576000805461ff0019166101001790555b6000805260656020527fffdfc1249c027f9191656349feb0761381bb32c9f557e01f419fd08754bf5a1b8054336001600160a01b031991821681179092556067805490911690911790558015610925576000805461ff0019169055604051600181527f7f26b83ff96e1f2b6a682f133852f6798a09c465da95921460cefb38474024989060200160405180910390a150565b3360008181526066602090815260408083206001600160a01b03871680855290835292819020805460ff191686151590811790915590519081529192917f17307eab39ab6107e8899845ad3d59bd9653f200f220920489ca2b5937696c31910160405180910390a35050565b610e678484610b7b565b610e72848383611179565b50505050565b6067546001600160a01b03163314610ed25760405162461bcd60e51b815260206004820152601060248201527f43616c6c6572206e6f742061646d696e0000000000000000000000000000000060448201526064016104ce565b6001600160a01b038116610f285760405162461bcd60e51b815260206004820152601d60248201527f4e6577206f776e657220697320746865207a65726f206164647265737300000060448201526064016104ce565b606780546001600160a01b038381166001600160a01b0319831681179093556040519116919082907f8be0079c531659141344cd1fd0a4f28419497f9722a3daafe3b4186f6b6457e090600090a35050565b6067546001600160a01b031633146109255760405162461bcd60e51b815260206004820152601060248201527f43616c6c6572206e6f742061646d696e0000000000000000000000000000000060448201526064016104ce565b7f4910fdfa16fed3260ed0e7147f7cc6da11a60208b5b9406d12a635614ffd91435460ff161561100c57611007836112b7565b505050565b826001600160a01b03166352d1902d6040518163ffffffff1660e01b8152600401602060405180830381865afa925050508015611066575060408051601f3d908101601f1916820190925261106391810190611810565b60015b6110d85760405162461bcd60e51b815260206004820152602e60248201527f45524331393637557067726164653a206e657720696d706c656d656e7461746960448201527f6f6e206973206e6f74205555505300000000000000000000000000000000000060648201526084016104ce565b7f360894a13ba1a3210667c828492db98dca3e2076cc3735a920a3ca505d382bbc811461116d5760405162461bcd60e51b815260206004820152602960248201527f45524331393637557067726164653a20756e737570706f727465642070726f7860448201527f6961626c6555554944000000000000000000000000000000000000000000000060648201526084016104ce565b50611007838383611375565b6000838152606560205260409020600101546001600160a01b038381169116146112015760008381526065602090815260409182902060010180546001600160a01b0319166001600160a01b038616908117909155915191825284917f335721b01866dc23fbee8b6b2c7b1e14d6f05c28cd35a2c934239f94095602a0910160405180910390a25b60008381526065602052604090206001015467ffffffffffffffff828116600160a01b90920416146110075760008381526065602090815260409182902060010180547fffffffff0000000000000000ffffffffffffffffffffffffffffffffffffffff16600160a01b67ffffffffffffffff861690810291909117909155915191825284917f1d4f9bbfc9cab89d66e1a1562f2233ccbf1308cb4f63de2ead5787adddb8fa68910160405180910390a2505050565b6001600160a01b0381163b6113345760405162461bcd60e51b815260206004820152602d60248201527f455243313936373a206e657720696d706c656d656e746174696f6e206973206e60448201527f6f74206120636f6e74726163740000000000000000000000000000000000000060648201526084016104ce565b7f360894a13ba1a3210667c828492db98dca3e2076cc3735a920a3ca505d382bbc80546001600160a01b0319166001600160a01b0392909216919091179055565b61137e8361139a565b60008251118061138b5750805b1561100757610e7283836113da565b6113a3816112b7565b6040516001600160a01b038216907fbc7cd75a20ee27fd9adebab32041f755214dbc6bffa90cc0225b39da2e5c2d3b90600090a250565b60606113ff838360405180606001604052806027815260200161189d60279139611406565b9392505050565b6060600080856001600160a01b031685604051611423919061184d565b600060405180830381855af49150503d806000811461145e576040519150601f19603f3d011682016040523d82523d6000602084013e611463565b606091505b50915091506114748683838761147e565b9695505050505050565b606083156114ed5782516000036114e6576001600160a01b0385163b6114e65760405162461bcd60e51b815260206004820152601d60248201527f416464726573733a2063616c6c20746f206e6f6e2d636f6e747261637400000060448201526064016104ce565b50816114f7565b6114f783836114ff565b949350505050565b81511561150f5781518083602001fd5b8060405162461bcd60e51b81526004016104ce9190611869565b60006020828403121561153b57600080fd5b5035919050565b80356001600160a01b038116811461155957600080fd5b919050565b60008060006060848603121561157357600080fd5b833592506020840135915061158a60408501611542565b90509250925092565b803567ffffffffffffffff8116811461155957600080fd5b600080604083850312156115be57600080fd5b823591506115ce60208401611593565b90509250929050565b600080604083850312156115ea57600080fd5b823591506115ce60208401611542565b60006020828403121561160c57600080fd5b6113ff82611542565b7f4e487b7100000000000000000000000000000000000000000000000000000000600052604160045260246000fd5b6000806040838503121561165757600080fd5b61166083611542565b9150602083013567ffffffffffffffff8082111561167d57600080fd5b818501915085601f83011261169157600080fd5b8135818111156116a3576116a3611615565b604051601f8201601f19908116603f011681019083821181831017156116cb576116cb611615565b816040528281528860208487010111156116e457600080fd5b8260208601602083013760006020848301015280955050505050509250929050565b600080600080600060a0868803121561171e57600080fd5b853594506020860135935061173560408701611542565b925061174360608701611542565b915061175160808701611593565b90509295509295909350565b6000806040838503121561177057600080fd5b61177983611542565b91506020830135801515811461178e57600080fd5b809150509250929050565b600080600080608085870312156117af57600080fd5b843593506117bf60208601611542565b92506117cd60408601611542565b91506117db60608601611593565b905092959194509250565b600080604083850312156117f957600080fd5b61180283611542565b91506115ce60208401611542565b60006020828403121561182257600080fd5b5051919050565b60005b8381101561184457818101518382015260200161182c565b50506000910152565b6000825161185f818460208701611829565b9190910192915050565b6020815260008251806020840152611888816040850160208701611829565b601f01601f1916919091016040019291505056fe416464726573733a206c6f772d6c6576656c2064656c65676174652063616c6c206661696c6564a2646970667358221220733c380ed70b2acc65325191f5f406234401be972475a9d5a0e462a3716c6c6564736f6c63430008110033",
  "linkReferences": {},
  "deployedLinkReferences": {}
}