{
  "_format": "hh-sol-artifact-1",
  "contractName": "ETHRegistrarController",
  "sourceName": "contracts/ethregistrar/ETHRegistrarController.sol",
  "abi": [
    {
      "inputs": [],
      "stateMutability": "nonpayable",
      "type": "constructor"
    },
    {
      "inputs": [
        {
          "internalType": "uint256",
          "name": "duration",
          "type": "uint256"
        }
      ],
      "name": "DurationTooShort",
      "type": "error"
    },
    {
      "inputs": [
        {
          "internalType": "string",
          "name": "name",
          "type": "string"
        }
      ],
      "name": "NameNotAvailable",
      "type": "error"
    },
    {
      "inputs": [],
      "name": "ResolverRequiredWhenDataSupplied",
      "type": "error"
    },
    {
      "anonymous": false,
      "inputs": [
        {
          "indexed": false,
          "internalType": "address",
          "name": "previousAdmin",
          "type": "address"
        },
        {
          "indexed": false,
          "internalType": "address",
          "name": "newAdmin",
          "type": "address"
        }
      ],
      "name": "AdminChanged",
      "type": "event"
    },
    {
      "anonymous": false,
      "inputs": [
        {
          "indexed": true,
          "internalType": "address",
          "name": "beacon",
          "type": "address"
        }
      ],
      "name": "BeaconUpgraded",
      "type": "event"
    },
    {
      "anonymous": false,
      "inputs": [
        {
          "indexed": true,
          "internalType": "address",
          "name": "previousOwner",
          "type": "address"
        },
        {
          "indexed": true,
          "internalType": "address",
          "name": "newOwner",
          "type": "address"
        }
      ],
      "name": "ContractOwnershipTransferred",
      "type": "event"
    },
    {
      "anonymous": false,
      "inputs": [
        {
          "indexed": false,
          "internalType": "uint8",
          "name": "version",
          "type": "uint8"
        }
      ],
      "name": "Initialized",
      "type": "event"
    },
    {
      "anonymous": false,
      "inputs": [
        {
          "indexed": false,
          "internalType": "string",
          "name": "name",
          "type": "string"
        },
        {
          "indexed": true,
          "internalType": "bytes32",
          "name": "label",
          "type": "bytes32"
        },
        {
          "indexed": true,
          "internalType": "address",
          "name": "owner",
          "type": "address"
        },
        {
          "indexed": false,
          "internalType": "uint256",
          "name": "expires",
          "type": "uint256"
        }
      ],
      "name": "NameRegistered",
      "type": "event"
    },
    {
      "anonymous": false,
      "inputs": [
        {
          "indexed": false,
          "internalType": "string",
          "name": "name",
          "type": "string"
        },
        {
          "indexed": true,
          "internalType": "bytes32",
          "name": "label",
          "type": "bytes32"
        },
        {
          "indexed": false,
          "internalType": "uint256",
          "name": "expires",
          "type": "uint256"
        }
      ],
      "name": "NameRenewed",
      "type": "event"
    },
    {
      "anonymous": false,
      "inputs": [
        {
          "indexed": true,
          "internalType": "address",
          "name": "implementation",
          "type": "address"
        }
      ],
      "name": "Upgraded",
      "type": "event"
    },
    {
      "inputs": [],
      "name": "MIN_REGISTRATION_DURATION",
      "outputs": [
        {
          "internalType": "uint256",
          "name": "",
          "type": "uint256"
        }
      ],
      "stateMutability": "view",
      "type": "function"
    },
    {
      "inputs": [],
      "name": "admin",
      "outputs": [
        {
          "internalType": "address",
          "name": "",
          "type": "address"
        }
      ],
      "stateMutability": "view",
      "type": "function"
    },
    {
      "inputs": [
        {
          "internalType": "string",
          "name": "name",
          "type": "string"
        }
      ],
      "name": "available",
      "outputs": [
        {
          "internalType": "bool",
          "name": "",
          "type": "bool"
        }
      ],
      "stateMutability": "view",
      "type": "function"
    },
    {
      "inputs": [],
      "name": "base",
      "outputs": [
        {
          "internalType": "contract BaseRegistrarImplementation",
          "name": "",
          "type": "address"
        }
      ],
      "stateMutability": "view",
      "type": "function"
    },
    {
      "inputs": [
        {
          "internalType": "contract BaseRegistrarImplementation",
          "name": "_base",
          "type": "address"
        },
        {
          "internalType": "contract ReverseRegistrar",
          "name": "_reverseRegistrar",
          "type": "address"
        },
        {
          "internalType": "contract INameWrapper",
          "name": "_nameWrapper",
          "type": "address"
        },
        {
          "internalType": "contract ENS",
          "name": "_ens",
          "type": "address"
        }
      ],
      "name": "initialize",
      "outputs": [],
      "stateMutability": "nonpayable",
      "type": "function"
    },
    {
      "inputs": [],
      "name": "nameWrapper",
      "outputs": [
        {
          "internalType": "contract INameWrapper",
          "name": "",
          "type": "address"
        }
      ],
      "stateMutability": "view",
      "type": "function"
    },
    {
      "inputs": [],
      "name": "proxiableUUID",
      "outputs": [
        {
          "internalType": "bytes32",
          "name": "",
          "type": "bytes32"
        }
      ],
      "stateMutability": "view",
      "type": "function"
    },
    {
      "inputs": [
        {
          "internalType": "address",
          "name": "_token",
          "type": "address"
        },
        {
          "internalType": "address",
          "name": "_to",
          "type": "address"
        },
        {
          "internalType": "uint256",
          "name": "_amount",
          "type": "uint256"
        }
      ],
      "name": "recoverFunds",
      "outputs": [],
      "stateMutability": "nonpayable",
      "type": "function"
    },
    {
      "inputs": [
        {
          "internalType": "string",
          "name": "name",
          "type": "string"
        },
        {
          "internalType": "address",
          "name": "owner",
          "type": "address"
        },
        {
          "internalType": "uint256",
          "name": "duration",
          "type": "uint256"
        },
        {
          "internalType": "address",
          "name": "resolver",
          "type": "address"
        },
        {
          "internalType": "bytes[]",
          "name": "data",
          "type": "bytes[]"
        },
        {
          "internalType": "bool",
          "name": "reverseRecord",
          "type": "bool"
        },
        {
          "internalType": "uint16",
          "name": "ownerControlledFuses",
          "type": "uint16"
        }
      ],
      "name": "register",
      "outputs": [],
      "stateMutability": "nonpayable",
      "type": "function"
    },
    {
      "inputs": [
        {
          "internalType": "string",
          "name": "name",
          "type": "string"
        },
        {
          "internalType": "uint256",
          "name": "duration",
          "type": "uint256"
        }
      ],
      "name": "renew",
      "outputs": [],
      "stateMutability": "nonpayable",
      "type": "function"
    },
    {
      "inputs": [],
      "name": "reverseRegistrar",
      "outputs": [
        {
          "internalType": "contract ReverseRegistrar",
          "name": "",
          "type": "address"
        }
      ],
      "stateMutability": "view",
      "type": "function"
    },
    {
      "inputs": [
        {
          "internalType": "bytes4",
          "name": "interfaceID",
          "type": "bytes4"
        }
      ],
      "name": "supportsInterface",
      "outputs": [
        {
          "internalType": "bool",
          "name": "",
          "type": "bool"
        }
      ],
      "stateMutability": "pure",
      "type": "function"
    },
    {
      "inputs": [
        {
          "internalType": "address",
          "name": "newAdmin",
          "type": "address"
        }
      ],
      "name": "transferContractOwnership",
      "outputs": [],
      "stateMutability": "nonpayable",
      "type": "function"
    },
    {
      "inputs": [
        {
          "internalType": "address",
          "name": "newImplementation",
          "type": "address"
        }
      ],
      "name": "upgradeTo",
      "outputs": [],
      "stateMutability": "nonpayable",
      "type": "function"
    },
    {
      "inputs": [
        {
          "internalType": "address",
          "name": "newImplementation",
          "type": "address"
        },
        {
          "internalType": "bytes",
          "name": "data",
          "type": "bytes"
        }
      ],
      "name": "upgradeToAndCall",
      "outputs": [],
      "stateMutability": "payable",
      "type": "function"
    },
    {
      "inputs": [
        {
          "internalType": "string",
          "name": "name",
          "type": "string"
        }
      ],
      "name": "valid",
      "outputs": [
        {
          "internalType": "bool",
          "name": "",
          "type": "bool"
        }
      ],
      "stateMutability": "pure",
      "type": "function"
    },
    {
      "inputs": [],
      "name": "withdraw",
      "outputs": [],
      "stateMutability": "nonpayable",
      "type": "function"
    }
  ],
  "bytecode": "0x60a06040523060805234801561001457600080fd5b5061001d610022565b6100e1565b600054610100900460ff161561008e5760405162461bcd60e51b815260206004820152602760248201527f496e697469616c697a61626c653a20636f6e747261637420697320696e697469604482015266616c697a696e6760c81b606482015260840160405180910390fd5b60005460ff908116146100df576000805460ff191660ff9081179091556040519081527f7f26b83ff96e1f2b6a682f133852f6798a09c465da95921460cefb38474024989060200160405180910390a15b565b60805161217862000119600039600081816106bf01528181610755015281816108950152818161092b0152610a2601526121786000f3fe60806040526004361061010d5760003560e01c806380869853116100a5578063a8e5fbc011610074578063aeb8ce9b11610059578063aeb8ce9b146102e3578063f851a44014610303578063f8c8765e1461032357600080fd5b8063a8e5fbc0146102a3578063acf1a841146102c357600080fd5b8063808698531461022c5780638a95b09f1461024c5780639791c09714610263578063a843c51f1461028357600080fd5b80634f1ef286116100e15780634f1ef2861461019e5780635001f3b5146101b157806352d1902d146101e95780635d3590d51461020c57600080fd5b80626313db1461011257806301ffc9a7146101345780633659cfe6146101695780633ccfd60b14610189575b600080fd5b34801561011e57600080fd5b5061013261012d366004611985565b610343565b005b34801561014057600080fd5b5061015461014f366004611a78565b61061c565b60405190151581526020015b60405180910390f35b34801561017557600080fd5b50610132610184366004611aba565b6106b5565b34801561019557600080fd5b50610132610852565b6101326101ac366004611b84565b61088b565b3480156101bd57600080fd5b506065546101d1906001600160a01b031681565b6040516001600160a01b039091168152602001610160565b3480156101f557600080fd5b506101fe610a19565b604051908152602001610160565b34801561021857600080fd5b50610132610227366004611be8565b610ade565b34801561023857600080fd5b506066546101d1906001600160a01b031681565b34801561025857600080fd5b506101fe6224ea0081565b34801561026f57600080fd5b5061015461027e366004611c29565b610bca565b34801561028f57600080fd5b5061013261029e366004611aba565b610bdf565b3480156102af57600080fd5b506067546101d1906001600160a01b031681565b3480156102cf57600080fd5b506101326102de366004611c72565b610cee565b3480156102ef57600080fd5b506101546102fe366004611c29565b610e3b565b34801561030f57600080fd5b506068546101d1906001600160a01b031681565b34801561032f57600080fd5b5061013261033e366004611cbe565b610ee2565b6068546001600160a01b031633146103a25760405162461bcd60e51b815260206004820181905260248201527f4f776e61626c653a2063616c6c6572206973206e6f7420746865206f776e657260448201526064015b60405180910390fd5b82158015906103b857506001600160a01b038516155b156103ef576040517fd3f605c400000000000000000000000000000000000000000000000000000000815260040160405180910390fd5b61042e89898080601f016020809104026020016040519081016040528093929190818152602001838380828437600092019190915250610e3b92505050565b6104685788886040517f477707e8000000000000000000000000000000000000000000000000000000008152600401610399929190611d43565b6224ea008610156104a8576040517f9a71997b00000000000000000000000000000000000000000000000000000000815260048101879052602401610399565b6067546040517fa40149820000000000000000000000000000000000000000000000000000000081526000916001600160a01b03169063a4014982906104fc908d908d908d908d908d908a90600401611d57565b6020604051808303816000875af115801561051b573d6000803e3d6000fd5b505050506040513d601f19601f8201168201806040525081019061053f9190611da1565b9050831561056a5761056a868b8b60405161055b929190611dba565b60405180910390208787611176565b82156105b3576105b38a8a8080601f0160208091040260200160405190810160405280939291908181526020018383808284376000920191909152508a92503391506112599050565b876001600160a01b03168a8a6040516105cd929190611dba565b60405180910390207f0667086d08417333ce63f40d5bc2ef6fd330e25aaaf317b7c489541f8fe600fa8c8c8560405161060893929190611dca565b60405180910390a350505050505050505050565b60007fffffffff0000000000000000000000000000000000000000000000000000000082167f01ffc9a70000000000000000000000000000000000000000000000000000000014806106af57507fffffffff0000000000000000000000000000000000000000000000000000000082167f022a750100000000000000000000000000000000000000000000000000000000145b92915050565b6001600160a01b037f00000000000000000000000000000000000000000000000000000000000000001630036107535760405162461bcd60e51b815260206004820152602c60248201527f46756e6374696f6e206d7573742062652063616c6c6564207468726f7567682060448201527f64656c656761746563616c6c00000000000000000000000000000000000000006064820152608401610399565b7f00000000000000000000000000000000000000000000000000000000000000006001600160a01b03166107ae7f360894a13ba1a3210667c828492db98dca3e2076cc3735a920a3ca505d382bbc546001600160a01b031690565b6001600160a01b03161461082a5760405162461bcd60e51b815260206004820152602c60248201527f46756e6374696f6e206d7573742062652063616c6c6564207468726f7567682060448201527f6163746976652070726f787900000000000000000000000000000000000000006064820152608401610399565b610833816112f6565b6040805160008082526020820190925261084f91839190611350565b50565b6068546040516001600160a01b03909116904780156108fc02916000818181858888f1935050505015801561084f573d6000803e3d6000fd5b6001600160a01b037f00000000000000000000000000000000000000000000000000000000000000001630036109295760405162461bcd60e51b815260206004820152602c60248201527f46756e6374696f6e206d7573742062652063616c6c6564207468726f7567682060448201527f64656c656761746563616c6c00000000000000000000000000000000000000006064820152608401610399565b7f00000000000000000000000000000000000000000000000000000000000000006001600160a01b03166109847f360894a13ba1a3210667c828492db98dca3e2076cc3735a920a3ca505d382bbc546001600160a01b031690565b6001600160a01b031614610a005760405162461bcd60e51b815260206004820152602c60248201527f46756e6374696f6e206d7573742062652063616c6c6564207468726f7567682060448201527f6163746976652070726f787900000000000000000000000000000000000000006064820152608401610399565b610a09826112f6565b610a1582826001611350565b5050565b6000306001600160a01b037f00000000000000000000000000000000000000000000000000000000000000001614610ab95760405162461bcd60e51b815260206004820152603860248201527f555550535570677261646561626c653a206d757374206e6f742062652063616c60448201527f6c6564207468726f7567682064656c656761746563616c6c00000000000000006064820152608401610399565b507f360894a13ba1a3210667c828492db98dca3e2076cc3735a920a3ca505d382bbc90565b6068546001600160a01b03163314610b385760405162461bcd60e51b815260206004820181905260248201527f4f776e61626c653a2063616c6c6572206973206e6f7420746865206f776e65726044820152606401610399565b6040517fa9059cbb0000000000000000000000000000000000000000000000000000000081526001600160a01b0383811660048301526024820183905284169063a9059cbb906044016020604051808303816000875af1158015610ba0573d6000803e3d6000fd5b505050506040513d601f19601f82011682018060405250810190610bc49190611dee565b50505050565b60006001610bd7836114f5565b101592915050565b6068546001600160a01b03163314610c395760405162461bcd60e51b815260206004820181905260248201527f4f776e61626c653a2063616c6c6572206973206e6f7420746865206f776e65726044820152606401610399565b6001600160a01b038116610c8f5760405162461bcd60e51b815260206004820152601d60248201527f4e6577206f776e657220697320746865207a65726f20616464726573730000006044820152606401610399565b606880546001600160a01b0383811673ffffffffffffffffffffffffffffffffffffffff19831681179093556040519116919082907f2260a4d0c00902d7996e8f7d669d22564414d41be4d278a40387ddf58179d39290600090a35050565b6068546001600160a01b03163314610d485760405162461bcd60e51b815260206004820181905260248201527f4f776e61626c653a2063616c6c6572206973206e6f7420746865206f776e65726044820152606401610399565b60008383604051610d5a929190611dba565b6040519081900381206067547fc475abff000000000000000000000000000000000000000000000000000000008352600483018290526024830185905290925082916000916001600160a01b03169063c475abff906044016020604051808303816000875af1158015610dd1573d6000803e3d6000fd5b505050506040513d601f19601f82011682018060405250810190610df59190611da1565b9050827f93bc1a84707231b1d9552157299797c64a1a8c5bc79f05153716630c9c4936fc878784604051610e2b93929190611dca565b60405180910390a2505050505050565b80516020820120600090610e4e83610bca565b8015610edb57506065546040517f96e494e8000000000000000000000000000000000000000000000000000000008152600481018390526001600160a01b03909116906396e494e890602401602060405180830381865afa158015610eb7573d6000803e3d6000fd5b505050506040513d601f19601f82011682018060405250810190610edb9190611dee565b9392505050565b600054610100900460ff1615808015610f025750600054600160ff909116105b80610f1c5750303b158015610f1c575060005460ff166001145b610f8e5760405162461bcd60e51b815260206004820152602e60248201527f496e697469616c697a61626c653a20636f6e747261637420697320616c72656160448201527f647920696e697469616c697a65640000000000000000000000000000000000006064820152608401610399565b6000805460ff191660011790558015610fb1576000805461ff0019166101001790555b606880543373ffffffffffffffffffffffffffffffffffffffff19918216179091556065805482166001600160a01b038881169190911790915560668054831687831617905560678054909216858216179091556040517f02571be30000000000000000000000000000000000000000000000000000000081527f91d1777781884d03a6757a803996e38de2a42967fb37eeaca72729271025a9e260048201526000918416906302571be390602401602060405180830381865afa15801561107d573d6000803e3d6000fd5b505050506040513d601f19601f820116820180604052508101906110a19190611e0b565b6040517f1e83409a0000000000000000000000000000000000000000000000000000000081523360048201529091506001600160a01b03821690631e83409a906024016020604051808303816000875af1158015611103573d6000803e3d6000fd5b505050506040513d601f19601f820116820180604052508101906111279190611da1565b5050801561116f576000805461ff0019169055604051600181527f7f26b83ff96e1f2b6a682f133852f6798a09c465da95921460cefb38474024989060200160405180910390a15b5050505050565b604080517f587d09fe5fa45354680537d38145a28b772971e0f293af3ee0c536fc919710fb602080830191909152818301869052825180830384018152606083019384905280519101207fe32954eb0000000000000000000000000000000000000000000000000000000090925285906001600160a01b0382169063e32954eb9061120990859088908890606401611e28565b6000604051808303816000875af1158015611228573d6000803e3d6000fd5b505050506040513d6000823e601f3d908101601f191682016040526112509190810190611ef4565b50505050505050565b6066546040516001600160a01b0390911690637a806d6b90339084908690611285908990602001611ff3565b6040516020818303038152906040526040518563ffffffff1660e01b81526004016112b39493929190612060565b6020604051808303816000875af11580156112d2573d6000803e3d6000fd5b505050506040513d601f19601f82011682018060405250810190610bc49190611da1565b6068546001600160a01b0316331461084f5760405162461bcd60e51b815260206004820181905260248201527f4f776e61626c653a2063616c6c6572206973206e6f7420746865206f776e65726044820152606401610399565b7f4910fdfa16fed3260ed0e7147f7cc6da11a60208b5b9406d12a635614ffd91435460ff16156113885761138383611684565b505050565b826001600160a01b03166352d1902d6040518163ffffffff1660e01b8152600401602060405180830381865afa9250505080156113e2575060408051601f3d908101601f191682019092526113df91810190611da1565b60015b6114545760405162461bcd60e51b815260206004820152602e60248201527f45524331393637557067726164653a206e657720696d706c656d656e7461746960448201527f6f6e206973206e6f7420555550530000000000000000000000000000000000006064820152608401610399565b7f360894a13ba1a3210667c828492db98dca3e2076cc3735a920a3ca505d382bbc81146114e95760405162461bcd60e51b815260206004820152602960248201527f45524331393637557067726164653a20756e737570706f727465642070726f7860448201527f6961626c655555494400000000000000000000000000000000000000000000006064820152608401610399565b5061138383838361174f565b8051600090819081905b8082101561167b57600085838151811061151b5761151b612094565b01602001516001600160f81b03191690507f80000000000000000000000000000000000000000000000000000000000000008110156115665761155f6001846120c0565b9250611668565b7fe0000000000000000000000000000000000000000000000000000000000000006001600160f81b0319821610156115a35761155f6002846120c0565b7ff0000000000000000000000000000000000000000000000000000000000000006001600160f81b0319821610156115e05761155f6003846120c0565b7ff8000000000000000000000000000000000000000000000000000000000000006001600160f81b03198216101561161d5761155f6004846120c0565b7ffc000000000000000000000000000000000000000000000000000000000000006001600160f81b03198216101561165a5761155f6005846120c0565b6116656006846120c0565b92505b5082611673816120d3565b9350506114ff565b50909392505050565b6001600160a01b0381163b6117015760405162461bcd60e51b815260206004820152602d60248201527f455243313936373a206e657720696d706c656d656e746174696f6e206973206e60448201527f6f74206120636f6e7472616374000000000000000000000000000000000000006064820152608401610399565b7f360894a13ba1a3210667c828492db98dca3e2076cc3735a920a3ca505d382bbc805473ffffffffffffffffffffffffffffffffffffffff19166001600160a01b0392909216919091179055565b61175883611774565b6000825111806117655750805b1561138357610bc483836117b4565b61177d81611684565b6040516001600160a01b038216907fbc7cd75a20ee27fd9adebab32041f755214dbc6bffa90cc0225b39da2e5c2d3b90600090a250565b6060610edb838360405180606001604052806027815260200161211c602791396060600080856001600160a01b0316856040516117f191906120ec565b600060405180830381855af49150503d806000811461182c576040519150601f19603f3d011682016040523d82523d6000602084013e611831565b606091505b50915091506118428683838761184c565b9695505050505050565b606083156118bb5782516000036118b4576001600160a01b0385163b6118b45760405162461bcd60e51b815260206004820152601d60248201527f416464726573733a2063616c6c20746f206e6f6e2d636f6e74726163740000006044820152606401610399565b50816118c5565b6118c583836118cd565b949350505050565b8151156118dd5781518083602001fd5b8060405162461bcd60e51b81526004016103999190612108565b60008083601f84011261190957600080fd5b50813567ffffffffffffffff81111561192157600080fd5b60208301915083602082850101111561193957600080fd5b9250929050565b6001600160a01b038116811461084f57600080fd5b801515811461084f57600080fd5b803561196e81611955565b919050565b803561ffff8116811461196e57600080fd5b600080600080600080600080600060e08a8c0312156119a357600080fd5b893567ffffffffffffffff808211156119bb57600080fd5b6119c78d838e016118f7565b909b50995060208c013591506119dc82611940565b90975060408b0135965060608b0135906119f582611940565b90955060808b01359080821115611a0b57600080fd5b818c0191508c601f830112611a1f57600080fd5b813581811115611a2e57600080fd5b8d60208260051b8501011115611a4357600080fd5b602083019650809550505050611a5b60a08b01611963565b9150611a6960c08b01611973565b90509295985092959850929598565b600060208284031215611a8a57600080fd5b81357fffffffff0000000000000000000000000000000000000000000000000000000081168114610edb57600080fd5b600060208284031215611acc57600080fd5b8135610edb81611940565b634e487b7160e01b600052604160045260246000fd5b604051601f8201601f1916810167ffffffffffffffff81118282101715611b1657611b16611ad7565b604052919050565b600067ffffffffffffffff821115611b3857611b38611ad7565b50601f01601f191660200190565b6000611b59611b5484611b1e565b611aed565b9050828152838383011115611b6d57600080fd5b828260208301376000602084830101529392505050565b60008060408385031215611b9757600080fd5b8235611ba281611940565b9150602083013567ffffffffffffffff811115611bbe57600080fd5b8301601f81018513611bcf57600080fd5b611bde85823560208401611b46565b9150509250929050565b600080600060608486031215611bfd57600080fd5b8335611c0881611940565b92506020840135611c1881611940565b929592945050506040919091013590565b600060208284031215611c3b57600080fd5b813567ffffffffffffffff811115611c5257600080fd5b8201601f81018413611c6357600080fd5b6118c584823560208401611b46565b600080600060408486031215611c8757600080fd5b833567ffffffffffffffff811115611c9e57600080fd5b611caa868287016118f7565b909790965060209590950135949350505050565b60008060008060808587031215611cd457600080fd5b8435611cdf81611940565b93506020850135611cef81611940565b92506040850135611cff81611940565b91506060850135611d0f81611940565b939692955090935050565b81835281816020850137506000828201602090810191909152601f909101601f19169091010190565b6020815260006118c5602083018486611d1a565b60a081526000611d6b60a08301888a611d1a565b90506001600160a01b03808716602084015285604084015280851660608401525061ffff83166080830152979650505050505050565b600060208284031215611db357600080fd5b5051919050565b8183823760009101908152919050565b604081526000611dde604083018587611d1a565b9050826020830152949350505050565b600060208284031215611e0057600080fd5b8151610edb81611955565b600060208284031215611e1d57600080fd5b8151610edb81611940565b60006040820185835260206040818501528185835260608501905060608660051b86010192508660005b87811015611ec257868503605f190183528135368a9003601e19018112611e7857600080fd5b8901848101903567ffffffffffffffff811115611e9457600080fd5b803603821315611ea357600080fd5b611eae878284611d1a565b965050509183019190830190600101611e52565b509298975050505050505050565b60005b83811015611eeb578181015183820152602001611ed3565b50506000910152565b60006020808385031215611f0757600080fd5b825167ffffffffffffffff80821115611f1f57600080fd5b818501915085601f830112611f3357600080fd5b815181811115611f4557611f45611ad7565b8060051b611f54858201611aed565b9182528381018501918581019089841115611f6e57600080fd5b86860192505b83831015611fe657825185811115611f8c5760008081fd5b8601603f81018b13611f9e5760008081fd5b878101516040611fb0611b5483611b1e565b8281528d82848601011115611fc55760008081fd5b611fd4838c8301848701611ed0565b85525050509186019190860190611f74565b9998505050505050505050565b60008251612005818460208701611ed0565b7f2e77656233000000000000000000000000000000000000000000000000000000920191825250600501919050565b6000815180845261204c816020860160208601611ed0565b601f01601f19169290920160200192915050565b60006001600160a01b0380871683528086166020840152808516604084015250608060608301526118426080830184612034565b634e487b7160e01b600052603260045260246000fd5b634e487b7160e01b600052601160045260246000fd5b808201808211156106af576106af6120aa565b6000600182016120e5576120e56120aa565b5060010190565b600082516120fe818460208701611ed0565b9190910192915050565b602081526000610edb602083018461203456fe416464726573733a206c6f772d6c6576656c2064656c65676174652063616c6c206661696c6564a2646970667358221220b9fca61444dfdd245ae13898c9e22b10880f0cf61743b35c2330ac696696853064736f6c63430008110033",
  "linkReferences": {},
  "deployedLinkReferences": {}
}